{
  "_format": "hh-sol-artifact-1",
  "contractName": "MathUtils",
  "sourceName": "contracts/MathUtils.sol",
  "abi": [
    {
      "constant": true,
      "inputs": [],
      "name": "PERC_DIVISOR",
      "outputs": [
        {
          "name": "",
          "type": "uint256"
        }
      ],
      "payable": false,
      "stateMutability": "view",
      "type": "function"
    }
  ],
  "bytecode": "0x60a461002f600b82828239805160001a6073146000811461001f57610021565bfe5b5030600052607381538281f3fe73000000000000000000000000000000000000000030146080604052600436106050576000357c010000000000000000000000000000000000000000000000000000000090048063cce2a078146055575b600080fd5b605b6071565b6040518082815260200191505060405180910390f35b620f42408156fea165627a7a723058205e4bac9989c1aa69f30173b5e2705a1869a8767298f3ac1cc63149f48bf18da60029",
  "linkReferences": {},
  "deployedLinkReferences": {}
}