{
  "_format": "hh-sol-artifact-1",
  "contractName": "RelevantTokenMock",
  "sourceName": "contracts/mocks/RelevantTokenMock.sol",
  "abi": [
    {
      "constant": true,
      "inputs": [],
      "name": "name",
      "outputs": [
        {
          "name": "",
          "type": "string"
        }
      ],
      "payable": false,
      "stateMutability": "view",
      "type": "function"
    },
    {
      "constant": false,
      "inputs": [
        {
          "name": "spender",
          "type": "address"
        },
        {
          "name": "amount",
          "type": "uint256"
        }
      ],
      "name": "approve",
      "outputs": [
        {
          "name": "",
          "type": "bool"
        }
      ],
      "payable": false,
      "stateMutability": "nonpayable",
      "type": "function"
    },
    {
      "constant": true,
      "inputs": [],
      "name": "roundNum",
      "outputs": [
        {
          "name": "",
          "type": "uint256"
        }
      ],
      "payable": false,
      "stateMutability": "view",
      "type": "function"
    },
    {
      "constant": false,
      "inputs": [
        {
          "name": "_amount",
          "type": "uint256"
        },
        {
          "name": "_sig",
          "type": "bytes"
        }
      ],
      "name": "claimTokens",
      "outputs": [
        {
          "name": "",
          "type": "bool"
        }
      ],
      "payable": false,
      "stateMutability": "nonpayable",
      "type": "function"
    },
    {
      "constant": true,
      "inputs": [],
      "name": "targetRound",
      "outputs": [
        {
          "name": "",
          "type": "uint256"
        }
      ],
      "payable": false,
      "stateMutability": "view",
      "type": "function"
    },
    {
      "constant": true,
      "inputs": [],
      "name": "totalSupply",
      "outputs": [
        {
          "name": "",
          "type": "uint256"
        }
      ],
      "payable": false,
      "stateMutability": "view",
      "type": "function"
    },
    {
      "constant": false,
      "inputs": [
        {
          "name": "sender",
          "type": "address"
        },
        {
          "name": "recipient",
          "type": "address"
        },
        {
          "name": "amount",
          "type": "uint256"
        }
      ],
      "name": "transferFrom",
      "outputs": [
        {
          "name": "",
          "type": "bool"
        }
      ],
      "payable": false,
      "stateMutability": "nonpayable",
      "type": "function"
    },
    {
      "constant": false,
      "inputs": [
        {
          "name": "_rewards",
          "type": "uint256"
        }
      ],
      "name": "allocateRewards",
      "outputs": [
        {
          "name": "",
          "type": "bool"
        }
      ],
      "payable": false,
      "stateMutability": "nonpayable",
      "type": "function"
    },
    {
      "constant": true,
      "inputs": [],
      "name": "initRoundReward",
      "outputs": [
        {
          "name": "",
          "type": "uint256"
        }
      ],
      "payable": false,
      "stateMutability": "view",
      "type": "function"
    },
    {
      "constant": true,
      "inputs": [],
      "name": "decimals",
      "outputs": [
        {
          "name": "",
          "type": "uint8"
        }
      ],
      "payable": false,
      "stateMutability": "view",
      "type": "function"
    },
    {
      "constant": false,
      "inputs": [
        {
          "name": "_name",
          "type": "string"
        },
        {
          "name": "_decimals",
          "type": "uint8"
        },
        {
          "name": "_symbol",
          "type": "string"
        },
        {
          "name": "_version",
          "type": "string"
        },
        {
          "name": "_devFundAddress",
          "type": "address"
        },
        {
          "name": "_initRoundReward",
          "type": "uint256"
        },
        {
          "name": "_timeConstant",
          "type": "uint256"
        },
        {
          "name": "_targetInflation",
          "type": "uint256"
        },
        {
          "name": "_targetRound",
          "type": "uint256"
        },
        {
          "name": "_roundLength",
          "type": "uint256"
        },
        {
          "name": "_roundDecay",
          "type": "uint256"
        },
        {
          "name": "_totalPremint",
          "type": "uint256"
        }
      ],
      "name": "initialize",
      "outputs": [],
      "payable": false,
      "stateMutability": "nonpayable",
      "type": "function"
    },
    {
      "constant": false,
      "inputs": [
        {
          "name": "spender",
          "type": "address"
        },
        {
          "name": "addedValue",
          "type": "uint256"
        }
      ],
      "name": "increaseAllowance",
      "outputs": [
        {
          "name": "",
          "type": "bool"
        }
      ],
      "payable": false,
      "stateMutability": "nonpayable",
      "type": "function"
    },
    {
      "constant": false,
      "inputs": [
        {
          "name": "account",
          "type": "address"
        },
        {
          "name": "amount",
          "type": "uint256"
        }
      ],
      "name": "mint",
      "outputs": [
        {
          "name": "",
          "type": "bool"
        }
      ],
      "payable": false,
      "stateMutability": "nonpayable",
      "type": "function"
    },
    {
      "constant": true,
      "inputs": [],
      "name": "timeConstant",
      "outputs": [
        {
          "name": "",
          "type": "uint256"
        }
      ],
      "payable": false,
      "stateMutability": "view",
      "type": "function"
    },
    {
      "constant": true,
      "inputs": [],
      "name": "startBlock",
      "outputs": [
        {
          "name": "",
          "type": "uint256"
        }
      ],
      "payable": false,
      "stateMutability": "view",
      "type": "function"
    },
    {
      "constant": true,
      "inputs": [],
      "name": "roundsSincleLast",
      "outputs": [
        {
          "name": "",
          "type": "uint256"
        }
      ],
      "payable": false,
      "stateMutability": "view",
      "type": "function"
    },
    {
      "constant": true,
      "inputs": [],
      "name": "version",
      "outputs": [
        {
          "name": "",
          "type": "string"
        }
      ],
      "payable": false,
      "stateMutability": "view",
      "type": "function"
    },
    {
      "constant": true,
      "inputs": [],
      "name": "airdropSwitchRound",
      "outputs": [
        {
          "name": "",
          "type": "uint256"
        }
      ],
      "payable": false,
      "stateMutability": "view",
      "type": "function"
    },
    {
      "constant": true,
      "inputs": [],
      "name": "roundDecay",
      "outputs": [
        {
          "name": "",
          "type": "uint256"
        }
      ],
      "payable": false,
      "stateMutability": "view",
      "type": "function"
    },
    {
      "constant": true,
      "inputs": [
        {
          "name": "account",
          "type": "address"
        }
      ],
      "name": "balanceOf",
      "outputs": [
        {
          "name": "",
          "type": "uint256"
        }
      ],
      "payable": false,
      "stateMutability": "view",
      "type": "function"
    },
    {
      "constant": false,
      "inputs": [],
      "name": "renounceOwnership",
      "outputs": [],
      "payable": false,
      "stateMutability": "nonpayable",
      "type": "function"
    },
    {
      "constant": true,
      "inputs": [],
      "name": "targetInflation",
      "outputs": [
        {
          "name": "",
          "type": "uint256"
        }
      ],
      "payable": false,
      "stateMutability": "view",
      "type": "function"
    },
    {
      "constant": true,
      "inputs": [],
      "name": "allocatedRewards",
      "outputs": [
        {
          "name": "",
          "type": "uint256"
        }
      ],
      "payable": false,
      "stateMutability": "view",
      "type": "function"
    },
    {
      "constant": true,
      "inputs": [],
      "name": "lastRound",
      "outputs": [
        {
          "name": "",
          "type": "uint256"
        }
      ],
      "payable": false,
      "stateMutability": "view",
      "type": "function"
    },
    {
      "constant": true,
      "inputs": [],
      "name": "currentRound",
      "outputs": [
        {
          "name": "",
          "type": "uint256"
        }
      ],
      "payable": false,
      "stateMutability": "view",
      "type": "function"
    },
    {
      "constant": true,
      "inputs": [],
      "name": "developmentFund",
      "outputs": [
        {
          "name": "",
          "type": "uint256"
        }
      ],
      "payable": false,
      "stateMutability": "view",
      "type": "function"
    },
    {
      "constant": true,
      "inputs": [],
      "name": "roundLength",
      "outputs": [
        {
          "name": "",
          "type": "uint256"
        }
      ],
      "payable": false,
      "stateMutability": "view",
      "type": "function"
    },
    {
      "constant": true,
      "inputs": [],
      "name": "owner",
      "outputs": [
        {
          "name": "",
          "type": "address"
        }
      ],
      "payable": false,
      "stateMutability": "view",
      "type": "function"
    },
    {
      "constant": true,
      "inputs": [],
      "name": "isOwner",
      "outputs": [
        {
          "name": "",
          "type": "bool"
        }
      ],
      "payable": false,
      "stateMutability": "view",
      "type": "function"
    },
    {
      "constant": true,
      "inputs": [],
      "name": "symbol",
      "outputs": [
        {
          "name": "",
          "type": "string"
        }
      ],
      "payable": false,
      "stateMutability": "view",
      "type": "function"
    },
    {
      "constant": true,
      "inputs": [
        {
          "name": "_round",
          "type": "uint256"
        }
      ],
      "name": "partialSum",
      "outputs": [
        {
          "name": "",
          "type": "uint256"
        }
      ],
      "payable": false,
      "stateMutability": "view",
      "type": "function"
    },
    {
      "constant": false,
      "inputs": [
        {
          "name": "account",
          "type": "address"
        }
      ],
      "name": "addMinter",
      "outputs": [],
      "payable": false,
      "stateMutability": "nonpayable",
      "type": "function"
    },
    {
      "constant": false,
      "inputs": [],
      "name": "renounceMinter",
      "outputs": [],
      "payable": false,
      "stateMutability": "nonpayable",
      "type": "function"
    },
    {
      "constant": true,
      "inputs": [],
      "name": "lastRoundAirdrop",
      "outputs": [
        {
          "name": "",
          "type": "uint256"
        }
      ],
      "payable": false,
      "stateMutability": "view",
      "type": "function"
    },
    {
      "constant": false,
      "inputs": [
        {
          "name": "spender",
          "type": "address"
        },
        {
          "name": "subtractedValue",
          "type": "uint256"
        }
      ],
      "name": "decreaseAllowance",
      "outputs": [
        {
          "name": "",
          "type": "bool"
        }
      ],
      "payable": false,
      "stateMutability": "nonpayable",
      "type": "function"
    },
    {
      "constant": true,
      "inputs": [],
      "name": "currRoundReward",
      "outputs": [
        {
          "name": "",
          "type": "uint256"
        }
      ],
      "payable": false,
      "stateMutability": "view",
      "type": "function"
    },
    {
      "constant": false,
      "inputs": [
        {
          "name": "recipient",
          "type": "address"
        },
        {
          "name": "amount",
          "type": "uint256"
        }
      ],
      "name": "transfer",
      "outputs": [
        {
          "name": "",
          "type": "bool"
        }
      ],
      "payable": false,
      "stateMutability": "nonpayable",
      "type": "function"
    },
    {
      "constant": false,
      "inputs": [],
      "name": "releaseTokens",
      "outputs": [
        {
          "name": "",
          "type": "bool"
        }
      ],
      "payable": false,
      "stateMutability": "nonpayable",
      "type": "function"
    },
    {
      "constant": true,
      "inputs": [
        {
          "name": "account",
          "type": "address"
        }
      ],
      "name": "isMinter",
      "outputs": [
        {
          "name": "",
          "type": "bool"
        }
      ],
      "payable": false,
      "stateMutability": "view",
      "type": "function"
    },
    {
      "constant": true,
      "inputs": [],
      "name": "devFundAddress",
      "outputs": [
        {
          "name": "",
          "type": "address"
        }
      ],
      "payable": false,
      "stateMutability": "view",
      "type": "function"
    },
    {
      "constant": true,
      "inputs": [],
      "name": "reserveFund",
      "outputs": [
        {
          "name": "",
          "type": "uint256"
        }
      ],
      "payable": false,
      "stateMutability": "view",
      "type": "function"
    },
    {
      "constant": false,
      "inputs": [
        {
          "name": "sender",
          "type": "address"
        }
      ],
      "name": "initialize",
      "outputs": [],
      "payable": false,
      "stateMutability": "nonpayable",
      "type": "function"
    },
    {
      "constant": false,
      "inputs": [
        {
          "name": "_rewards",
          "type": "uint256"
        }
      ],
      "name": "allocateAirdrops",
      "outputs": [
        {
          "name": "",
          "type": "bool"
        }
      ],
      "payable": false,
      "stateMutability": "nonpayable",
      "type": "function"
    },
    {
      "constant": true,
      "inputs": [],
      "name": "airdropRoundDecay",
      "outputs": [
        {
          "name": "",
          "type": "uint256"
        }
      ],
      "payable": false,
      "stateMutability": "view",
      "type": "function"
    },
    {
      "constant": true,
      "inputs": [],
      "name": "lastRoundReward",
      "outputs": [
        {
          "name": "",
          "type": "uint256"
        }
      ],
      "payable": false,
      "stateMutability": "view",
      "type": "function"
    },
    {
      "constant": true,
      "inputs": [
        {
          "name": "owner",
          "type": "address"
        },
        {
          "name": "spender",
          "type": "address"
        }
      ],
      "name": "allowance",
      "outputs": [
        {
          "name": "",
          "type": "uint256"
        }
      ],
      "payable": false,
      "stateMutability": "view",
      "type": "function"
    },
    {
      "constant": true,
      "inputs": [],
      "name": "totalPremint",
      "outputs": [
        {
          "name": "",
          "type": "uint256"
        }
      ],
      "payable": false,
      "stateMutability": "view",
      "type": "function"
    },
    {
      "constant": false,
      "inputs": [
        {
          "name": "_roundNum",
          "type": "uint256"
        }
      ],
      "name": "setRoundNum",
      "outputs": [
        {
          "name": "",
          "type": "uint256"
        }
      ],
      "payable": false,
      "stateMutability": "nonpayable",
      "type": "function"
    },
    {
      "constant": true,
      "inputs": [],
      "name": "totalReleased",
      "outputs": [
        {
          "name": "",
          "type": "uint256"
        }
      ],
      "payable": false,
      "stateMutability": "view",
      "type": "function"
    },
    {
      "constant": true,
      "inputs": [],
      "name": "initRoundAirdrop",
      "outputs": [
        {
          "name": "",
          "type": "uint256"
        }
      ],
      "payable": false,
      "stateMutability": "view",
      "type": "function"
    },
    {
      "constant": false,
      "inputs": [],
      "name": "emptyDevBalance",
      "outputs": [],
      "payable": false,
      "stateMutability": "nonpayable",
      "type": "function"
    },
    {
      "constant": true,
      "inputs": [
        {
          "name": "_account",
          "type": "address"
        }
      ],
      "name": "nonceOf",
      "outputs": [
        {
          "name": "",
          "type": "uint256"
        }
      ],
      "payable": false,
      "stateMutability": "view",
      "type": "function"
    },
    {
      "constant": false,
      "inputs": [
        {
          "name": "_roundNum",
          "type": "uint256"
        },
        {
          "name": "_lastRoundReward",
          "type": "uint256"
        },
        {
          "name": "_totalReleased",
          "type": "uint256"
        },
        {
          "name": "_totalAirdrops",
          "type": "uint256"
        },
        {
          "name": "_lastRoundAirdrop",
          "type": "uint256"
        },
        {
          "name": "_totalRewardReserve",
          "type": "uint256"
        }
      ],
      "name": "setLastRound",
      "outputs": [
        {
          "name": "",
          "type": "uint256"
        }
      ],
      "payable": false,
      "stateMutability": "nonpayable",
      "type": "function"
    },
    {
      "constant": false,
      "inputs": [
        {
          "name": "_airdropSwitchRound",
          "type": "uint256"
        },
        {
          "name": "_airdropRoundDecay",
          "type": "uint256"
        },
        {
          "name": "_firstNewAirdrop",
          "type": "uint256"
        }
      ],
      "name": "initializeRewardSplit",
      "outputs": [],
      "payable": false,
      "stateMutability": "nonpayable",
      "type": "function"
    },
    {
      "constant": true,
      "inputs": [],
      "name": "rewardFund",
      "outputs": [
        {
          "name": "",
          "type": "uint256"
        }
      ],
      "payable": false,
      "stateMutability": "view",
      "type": "function"
    },
    {
      "constant": false,
      "inputs": [
        {
          "name": "newOwner",
          "type": "address"
        }
      ],
      "name": "transferOwnership",
      "outputs": [],
      "payable": false,
      "stateMutability": "nonpayable",
      "type": "function"
    },
    {
      "constant": true,
      "inputs": [],
      "name": "allocatedAirdrops",
      "outputs": [
        {
          "name": "",
          "type": "uint256"
        }
      ],
      "payable": false,
      "stateMutability": "view",
      "type": "function"
    },
    {
      "constant": true,
      "inputs": [],
      "name": "airdropFund",
      "outputs": [
        {
          "name": "",
          "type": "uint256"
        }
      ],
      "payable": false,
      "stateMutability": "view",
      "type": "function"
    },
    {
      "anonymous": false,
      "inputs": [
        {
          "indexed": false,
          "name": "releasableTokens",
          "type": "uint256"
        },
        {
          "indexed": false,
          "name": "rewardFund",
          "type": "uint256"
        },
        {
          "indexed": false,
          "name": "airdropFund",
          "type": "uint256"
        },
        {
          "indexed": false,
          "name": "developmentFund",
          "type": "uint256"
        }
      ],
      "name": "Released",
      "type": "event"
    },
    {
      "anonymous": false,
      "inputs": [
        {
          "indexed": true,
          "name": "account",
          "type": "address"
        }
      ],
      "name": "MinterAdded",
      "type": "event"
    },
    {
      "anonymous": false,
      "inputs": [
        {
          "indexed": true,
          "name": "account",
          "type": "address"
        }
      ],
      "name": "MinterRemoved",
      "type": "event"
    },
    {
      "anonymous": false,
      "inputs": [
        {
          "indexed": true,
          "name": "previousOwner",
          "type": "address"
        },
        {
          "indexed": true,
          "name": "newOwner",
          "type": "address"
        }
      ],
      "name": "OwnershipTransferred",
      "type": "event"
    },
    {
      "anonymous": false,
      "inputs": [
        {
          "indexed": true,
          "name": "from",
          "type": "address"
        },
        {
          "indexed": true,
          "name": "to",
          "type": "address"
        },
        {
          "indexed": false,
          "name": "value",
          "type": "uint256"
        }
      ],
      "name": "Transfer",
      "type": "event"
    },
    {
      "anonymous": false,
      "inputs": [
        {
          "indexed": true,
          "name": "owner",
          "type": "address"
        },
        {
          "indexed": true,
          "name": "spender",
          "type": "address"
        },
        {
          "indexed": false,
          "name": "value",
          "type": "uint256"
        }
      ],
      "name": "Approval",
      "type": "event"
    }
  ],
  "bytecode": "0x6080604052614766806100136000396000f3fe608060405234801561001057600080fd5b50600436106103ab576000357c01000000000000000000000000000000000000000000000000000000009004806395d89b41116101fb578063d1cc5f931161012c578063e5f2e383116100ca578063efe2226611610099578063efe2226614611295578063f2fde38b146112b3578063f73c1390146112f7578063fd6a93fb14611315576103ab565b8063e5f2e3831461117d578063ed2a2d6414611187578063ee1257f4146111df578063ee497bcb14611253576103ab565b8063de70289e11610106578063de70289e146110e1578063dea95ff8146110ff578063e33b7de314611141578063e5e90e261461115f576103ab565b8063d1cc5f931461102d578063d75683241461104b578063dd62ed3e14611069576103ab565b8063a9059cbb11610199578063b480f6ad11610173578063b480f6ad14610f3b578063b7f92b7114610f85578063c4d66de814610fa3578063ca6da57e14610fe7576103ab565b8063a9059cbb14610e57578063a96f866814610ebd578063aa271e1a14610edf576103ab565b806398650275116101d55780639865027514610dab578063a0ef67f214610db5578063a457c2d714610dd3578063a59efddd14610e39576103ab565b806395d89b4114610ca25780639701fa3414610d25578063983b2d5614610d67576103ab565b806348cd4cb1116102e05780637581d1d11161027e5780638a2381d71161024d5780638a2381d714610bfa5780638b649b9414610c185780638da5cb5b14610c365780638f32d59b14610c80576103ab565b80637581d1d114610b825780637d556df014610ba057806382bc07e614610bbe5780638a19c8bc14610bdc576103ab565b80635f04d724116102ba5780635f04d72414610ae4578063672ff5d414610b0257806370a0823114610b20578063715018a614610b78576103ab565b806348cd4cb114610a255780634cf9b9aa14610a4357806354fd4d5014610a61576103ab565b806328fc33c71161034d5780633180bfe1116103275780633180bfe1146106de578063395093511461093b57806340c10f19146109a157806343568eae14610a07576103ab565b806328fc33c71461065657806329a0f85b1461069c578063313ce567146106ba576103ab565b806314d8bbf11161038957806314d8bbf1146104b75780631727bcc71461059457806318160ddd146105b257806323b872dd146105d0576103ab565b806306fdde03146103b0578063095ea7b314610433578063119b22b314610499575b600080fd5b6103b8611333565b6040518080602001828103825283818151815260200191508051906020019080838360005b838110156103f85780820151818401526020810190506103dd565b50505050905090810190601f1680156104255780820380516001836020036101000a031916815260200191505b509250505060405180910390f35b61047f6004803603604081101561044957600080fd5b81019080803573ffffffffffffffffffffffffffffffffffffffff169060200190929190803590602001909291905050506113d2565b604051808215151515815260200191505060405180910390f35b6104a16113f0565b6040518082815260200191505060405180910390f35b61057a600480360360408110156104cd57600080fd5b8101908080359060200190929190803590602001906401000000008111156104f457600080fd5b82018360208201111561050657600080fd5b8035906020019184600183028401116401000000008311171561052857600080fd5b91908080601f016020809104026020016040519081016040528093929190818152602001838380828437600081840152601f19601f8201169050808301925050505050505091929192905050506113fb565b604051808215151515815260200191505060405180910390f35b61059c611801565b6040518082815260200191505060405180910390f35b6105ba611808565b6040518082815260200191505060405180910390f35b61063c600480360360608110156105e657600080fd5b81019080803573ffffffffffffffffffffffffffffffffffffffff169060200190929190803573ffffffffffffffffffffffffffffffffffffffff16906020019092919080359060200190929190505050611812565b604051808215151515815260200191505060405180910390f35b6106826004803603602081101561066c57600080fd5b81019080803590602001909291905050506118ec565b604051808215151515815260200191505060405180910390f35b6106a4611a0b565b6040518082815260200191505060405180910390f35b6106c2611a12565b604051808260ff1660ff16815260200191505060405180910390f35b61093960048036036101808110156106f557600080fd5b810190808035906020019064010000000081111561071257600080fd5b82018360208201111561072457600080fd5b8035906020019184600183028401116401000000008311171561074657600080fd5b91908080601f016020809104026020016040519081016040528093929190818152602001838380828437600081840152601f19601f820116905080830192505050505050509192919290803560ff169060200190929190803590602001906401000000008111156107b657600080fd5b8201836020820111156107c857600080fd5b803590602001918460018302840111640100000000831117156107ea57600080fd5b91908080601f016020809104026020016040519081016040528093929190818152602001838380828437600081840152601f19601f8201169050808301925050505050505091929192908035906020019064010000000081111561084d57600080fd5b82018360208201111561085f57600080fd5b8035906020019184600183028401116401000000008311171561088157600080fd5b91908080601f016020809104026020016040519081016040528093929190818152602001838380828437600081840152601f19601f820116905080830192505050505050509192919290803573ffffffffffffffffffffffffffffffffffffffff16906020019092919080359060200190929190803590602001909291908035906020019092919080359060200190929190803590602001909291908035906020019092919080359060200190929190505050611a26565b005b6109876004803603604081101561095157600080fd5b81019080803573ffffffffffffffffffffffffffffffffffffffff16906020019092919080359060200190929190505050611c54565b604051808215151515815260200191505060405180910390f35b6109ed600480360360408110156109b757600080fd5b81019080803573ffffffffffffffffffffffffffffffffffffffff16906020019092919080359060200190929190505050611d07565b604051808215151515815260200191505060405180910390f35b610a0f611d84565b6040518082815260200191505060405180910390f35b610a2d611d8b565b6040518082815260200191505060405180910390f35b610a4b611d92565b6040518082815260200191505060405180910390f35b610a69611da6565b6040518080602001828103825283818151815260200191508051906020019080838360005b83811015610aa9578082015181840152602081019050610a8e565b50505050905090810190601f168015610ad65780820380516001836020036101000a031916815260200191505b509250505060405180910390f35b610aec611e45565b6040518082815260200191505060405180910390f35b610b0a611e4c565b6040518082815260200191505060405180910390f35b610b6260048036036020811015610b3657600080fd5b81019080803573ffffffffffffffffffffffffffffffffffffffff169060200190929190505050611e53565b6040518082815260200191505060405180910390f35b610b80611e9c565b005b610b8a611fd9565b6040518082815260200191505060405180910390f35b610ba8611fe0565b6040518082815260200191505060405180910390f35b610bc6611fe7565b6040518082815260200191505060405180910390f35b610be4611fee565b6040518082815260200191505060405180910390f35b610c02611ff5565b6040518082815260200191505060405180910390f35b610c20611ffc565b6040518082815260200191505060405180910390f35b610c3e612003565b604051808273ffffffffffffffffffffffffffffffffffffffff1673ffffffffffffffffffffffffffffffffffffffff16815260200191505060405180910390f35b610c8861202d565b604051808215151515815260200191505060405180910390f35b610caa61208c565b6040518080602001828103825283818151815260200191508051906020019080838360005b83811015610cea578082015181840152602081019050610ccf565b50505050905090810190601f168015610d175780820380516001836020036101000a031916815260200191505b509250505060405180910390f35b610d5160048036036020811015610d3b57600080fd5b810190808035906020019092919050505061212b565b6040518082815260200191505060405180910390f35b610da960048036036020811015610d7d57600080fd5b81019080803573ffffffffffffffffffffffffffffffffffffffff169060200190929190505050612132565b005b610db36121a5565b005b610dbd6121b7565b6040518082815260200191505060405180910390f35b610e1f60048036036040811015610de957600080fd5b81019080803573ffffffffffffffffffffffffffffffffffffffff169060200190929190803590602001909291905050506121be565b604051808215151515815260200191505060405180910390f35b610e4161228c565b6040518082815260200191505060405180910390f35b610ea360048036036040811015610e6d57600080fd5b81019080803573ffffffffffffffffffffffffffffffffffffffff16906020019092919080359060200190929190505050612293565b604051808215151515815260200191505060405180910390f35b610ec56122b1565b604051808215151515815260200191505060405180910390f35b610f2160048036036020811015610ef557600080fd5b81019080803573ffffffffffffffffffffffffffffffffffffffff16906020019092919050505061247b565b604051808215151515815260200191505060405180910390f35b610f43612498565b604051808273ffffffffffffffffffffffffffffffffffffffff1673ffffffffffffffffffffffffffffffffffffffff16815260200191505060405180910390f35b610f8d6124bf565b6040518082815260200191505060405180910390f35b610fe560048036036020811015610fb957600080fd5b81019080803573ffffffffffffffffffffffffffffffffffffffff1690602001909291905050506124c6565b005b61101360048036036020811015610ffd57600080fd5b81019080803590602001909291905050506125d1565b604051808215151515815260200191505060405180910390f35b6110356126f0565b6040518082815260200191505060405180910390f35b6110536126f7565b6040518082815260200191505060405180910390f35b6110cb6004803603604081101561107f57600080fd5b81019080803573ffffffffffffffffffffffffffffffffffffffff169060200190929190803573ffffffffffffffffffffffffffffffffffffffff1690602001909291905050506126fe565b6040518082815260200191505060405180910390f35b6110e9612785565b6040518082815260200191505060405180910390f35b61112b6004803603602081101561111557600080fd5b810190808035906020019092919050505061278c565b6040518082815260200191505060405180910390f35b6111496127a1565b6040518082815260200191505060405180910390f35b6111676127a8565b6040518082815260200191505060405180910390f35b6111856127af565b005b6111c96004803603602081101561119d57600080fd5b81019080803573ffffffffffffffffffffffffffffffffffffffff16906020019092919050505061291a565b6040518082815260200191505060405180910390f35b61123d600480360360c08110156111f557600080fd5b81019080803590602001909291908035906020019092919080359060200190929190803590602001909291908035906020019092919080359060200190929190505050612964565b6040518082815260200191505060405180910390f35b6112936004803603606081101561126957600080fd5b81019080803590602001909291908035906020019092919080359060200190929190505050612aad565b005b61129d612b7d565b6040518082815260200191505060405180910390f35b6112f5600480360360208110156112c957600080fd5b81019080803573ffffffffffffffffffffffffffffffffffffffff169060200190929190505050612b84565b005b6112ff612c0c565b6040518082815260200191505060405180910390f35b61131d612c13565b6040518082815260200191505060405180910390f35b6101008054600181600116156101000203166002900480601f0160208091040260200160405190810160405280929190818152602001828054600181600116156101000203166002900480156113ca5780601f1061139f576101008083540402835291602001916113ca565b820191906000526020600020905b8154815290600101906020018083116113ad57829003601f168201915b505050505081565b60006113e66113df612c1a565b8484612c22565b6001905092915050565b600061010d54905090565b6000826101165410151515611478576040517f08c379a000000000000000000000000000000000000000000000000000000000815260040180806020018281038252601e8152602001807f4e6f7420656e6f7567687420616c6c6f6361746564207265776172616473000081525060200191505060405180910390fd5b6000833361011860003373ffffffffffffffffffffffffffffffffffffffff1673ffffffffffffffffffffffffffffffffffffffff16815260200190815260200160002054604051602001808481526020018373ffffffffffffffffffffffffffffffffffffffff1673ffffffffffffffffffffffffffffffffffffffff166c0100000000000000000000000002815260140182815260200193505050506040516020818303038152906040528051906020012090508060405160200180807f19457468657265756d205369676e6564204d6573736167653a0a333200000000815250601c01828152602001915050604051602081830303815290604052805190602001209050600061158b8285612e1d565b90508073ffffffffffffffffffffffffffffffffffffffff166115ac612003565b73ffffffffffffffffffffffffffffffffffffffff16141515611637576040517f08c379a00000000000000000000000000000000000000000000000000000000081526004018080602001828103825260148152602001807f436c61696d206e6f7420617574686f72697a656400000000000000000000000081525060200191505060405180910390fd5b600161011860003373ffffffffffffffffffffffffffffffffffffffff1673ffffffffffffffffffffffffffffffffffffffff1681526020019081526020016000206000828254019250508190555061169c8561011654612f2490919063ffffffff16565b610116819055503073ffffffffffffffffffffffffffffffffffffffff1663a9059cbb33876040518363ffffffff167c0100000000000000000000000000000000000000000000000000000000028152600401808373ffffffffffffffffffffffffffffffffffffffff1673ffffffffffffffffffffffffffffffffffffffff16815260200182815260200192505050602060405180830381600087803b15801561174657600080fd5b505af115801561175a573d6000803e3d6000fd5b505050506040513d602081101561177057600080fd5b810190808051906020019092919050505015156117f5576040517f08c379a000000000000000000000000000000000000000000000000000000000815260040180806020018281038252601b8152602001807f5472616e7366657220746f20636c61696d616e74206661696c6564000000000081525060200191505060405180910390fd5b60019250505092915050565b6101095481565b6000603554905090565b600061181f848484612f6e565b6118e18461182b612c1a565b6118dc856060604051908101604052806028815260200161460c60289139603460008b73ffffffffffffffffffffffffffffffffffffffff1673ffffffffffffffffffffffffffffffffffffffff1681526020019081526020016000206000611892612c1a565b73ffffffffffffffffffffffffffffffffffffffff1673ffffffffffffffffffffffffffffffffffffffff1681526020019081526020016000205461322d9092919063ffffffff16565b612c22565b600190509392505050565b60006118f661202d565b151561196a576040517f08c379a00000000000000000000000000000000000000000000000000000000081526004018080602001828103825260208152602001807f4f776e61626c653a2063616c6c6572206973206e6f7420746865206f776e657281525060200191505060405180910390fd5b6101125482111515156119c8576040517f08c379a00000000000000000000000000000000000000000000000000000000081526004018080602001828103825260258152602001806146cd6025913960400191505060405180910390fd5b6119de8261011254612f2490919063ffffffff16565b610112819055506119fb82610116546132ef90919063ffffffff16565b6101168190555060019050919050565b6101055481565b61010160009054906101000a900460ff1681565b600060019054906101000a900460ff1680611a455750611a44613379565b5b80611a5c57506000809054906101000a900460ff16155b1515611ab3576040517f08c379a000000000000000000000000000000000000000000000000000000000815260040180806020018281038252602e815260200180614656602e913960400191505060405180910390fd5b60008060019054906101000a900460ff161590508015611b03576001600060016101000a81548160ff02191690831515021790555060016000806101000a81548160ff0219169083151502179055505b611b0c33613390565b611b15336124c6565b8c6101009080519060200190611b2c929190614419565b508b61010160006101000a81548160ff021916908360ff1602179055508a6101029080519060200190611b60929190614419565b50896101039080519060200190611b78929190614419565b508861010460006101000a81548173ffffffffffffffffffffffffffffffffffffffff021916908373ffffffffffffffffffffffffffffffffffffffff16021790555087610105819055508661010781905550856101088190555084610109819055508361010a819055508261010b819055504361010e819055506101055461010681905550600061010f8190555061010554610110819055508161010c81905550611c2382613550565b508015611c455760008060016101000a81548160ff0219169083151502179055505b50505050505050505050505050565b6000611cfd611c61612c1a565b84611cf88560346000611c72612c1a565b73ffffffffffffffffffffffffffffffffffffffff1673ffffffffffffffffffffffffffffffffffffffff16815260200190815260200160002060008973ffffffffffffffffffffffffffffffffffffffff1673ffffffffffffffffffffffffffffffffffffffff168152602001908152602001600020546132ef90919063ffffffff16565b612c22565b6001905092915050565b6000611d19611d14612c1a565b61247b565b1515611d70576040517f08c379a000000000000000000000000000000000000000000000000000000000815260040180806020018281038252603081526020018061459a6030913960400191505060405180910390fd5b611d7a8383613566565b6001905092915050565b6101075481565b61010e5481565b600061010f54611da06113f0565b03905090565b6101038054600181600116156101000203166002900480601f016020809104026020016040519081016040528092919081815260200182805460018160011615610100020316600290048015611e3d5780601f10611e1257610100808354040283529160200191611e3d565b820191906000526020600020905b815481529060010190602001808311611e2057829003601f168201915b505050505081565b61011a5481565b61010b5481565b6000603360008373ffffffffffffffffffffffffffffffffffffffff1673ffffffffffffffffffffffffffffffffffffffff168152602001908152602001600020549050919050565b611ea461202d565b1515611f18576040517f08c379a00000000000000000000000000000000000000000000000000000000081526004018080602001828103825260208152602001807f4f776e61626c653a2063616c6c6572206973206e6f7420746865206f776e657281525060200191505060405180910390fd5b600073ffffffffffffffffffffffffffffffffffffffff16606860009054906101000a900473ffffffffffffffffffffffffffffffffffffffff1673ffffffffffffffffffffffffffffffffffffffff167f8be0079c531659141344cd1fd0a4f28419497f9722a3daafe3b4186f6b6457e060405160405180910390a36000606860006101000a81548173ffffffffffffffffffffffffffffffffffffffff021916908373ffffffffffffffffffffffffffffffffffffffff160217905550565b6101085481565b6101165481565b61010f5481565b61010d5481565b6101155481565b61010a5481565b6000606860009054906101000a900473ffffffffffffffffffffffffffffffffffffffff16905090565b6000606860009054906101000a900473ffffffffffffffffffffffffffffffffffffffff1673ffffffffffffffffffffffffffffffffffffffff16612070612c1a565b73ffffffffffffffffffffffffffffffffffffffff1614905090565b6101028054600181600116156101000203166002900480601f0160208091040260200160405190810160405280929190818152602001828054600181600116156101000203166002900480156121235780601f106120f857610100808354040283529160200191612123565b820191906000526020600020905b81548152906001019060200180831161210657829003601f168201915b505050505081565b6000919050565b61214261213d612c1a565b61247b565b1515612199576040517f08c379a000000000000000000000000000000000000000000000000000000000815260040180806020018281038252603081526020018061459a6030913960400191505060405180910390fd5b6121a281613725565b50565b6121b56121b0612c1a565b61377f565b565b61011c5481565b60006122826121cb612c1a565b8461227d856060604051908101604052806025815260200161471660259139603460006121f6612c1a565b73ffffffffffffffffffffffffffffffffffffffff1673ffffffffffffffffffffffffffffffffffffffff16815260200190815260200160002060008a73ffffffffffffffffffffffffffffffffffffffff1673ffffffffffffffffffffffffffffffffffffffff1681526020019081526020016000205461322d9092919063ffffffff16565b612c22565b6001905092915050565b6101065481565b60006122a76122a0612c1a565b8484612f6e565b6001905092915050565b60008060006122be6113f0565b90508061010f5410151561233a576040517f08c379a00000000000000000000000000000000000000000000000000000000081526004018080602001828103825260188152602001807f4e6f206e6577207265776172647320617661696c61626c65000000000000000081525060200191505060405180910390fd5b600061235261010f5483612f2490919063ffffffff16565b90506101095461010f5410151561238857600061011154905061237581836137d9565b93506123813085611d07565b50506123e0565b610109548210156123a35761239c81613875565b92506123df565b60006123ad613924565b905060006123ba84613949565b90506123cf81836132ef90919063ffffffff16565b94506123db3082611d07565b5050505b5b6123eb838284613998565b8161010f8190555061240983610111546132ef90919063ffffffff16565b61011181905550612418613c2a565b507f39c15e2884a29a8ddf54563c3cb131c46f3667ecc29b194be9f5cf91b2879725836101125461011354610115546040518085815260200184815260200183815260200182815260200194505050505060405180910390a16001935050505090565b600061249182609b613d9c90919063ffffffff16565b9050919050565b61010460009054906101000a900473ffffffffffffffffffffffffffffffffffffffff1681565b6101145481565b600060019054906101000a900460ff16806124e557506124e4613379565b5b806124fc57506000809054906101000a900460ff16155b1515612553576040517f08c379a000000000000000000000000000000000000000000000000000000000815260040180806020018281038252602e815260200180614656602e913960400191505060405180910390fd5b60008060019054906101000a900460ff1615905080156125a3576001600060016101000a81548160ff02191690831515021790555060016000806101000a81548160ff0219169083151502179055505b6125ac82613e7c565b80156125cd5760008060016101000a81548160ff0219169083151502179055505b5050565b60006125db61202d565b151561264f576040517f08c379a00000000000000000000000000000000000000000000000000000000081526004018080602001828103825260208152602001807f4f776e61626c653a2063616c6c6572206973206e6f7420746865206f776e657281525060200191505060405180910390fd5b6101135482111515156126ad576040517f08c379a00000000000000000000000000000000000000000000000000000000081526004018080602001828103825260248152602001806146f26024913960400191505060405180910390fd5b6126c38261011354612f2490919063ffffffff16565b610113819055506126e082610117546132ef90919063ffffffff16565b6101178190555060019050919050565b61011b5481565b6101105481565b6000603460008473ffffffffffffffffffffffffffffffffffffffff1673ffffffffffffffffffffffffffffffffffffffff16815260200190815260200160002060008373ffffffffffffffffffffffffffffffffffffffff1673ffffffffffffffffffffffffffffffffffffffff16815260200190815260200160002054905092915050565b61010c5481565b60008161010d8190555061010d549050919050565b6101115481565b6101195481565b60006127dd61010460009054906101000a900473ffffffffffffffffffffffffffffffffffffffff16611e53565b90503073ffffffffffffffffffffffffffffffffffffffff166323b872dd61010460009054906101000a900473ffffffffffffffffffffffffffffffffffffffff16610123846040518463ffffffff167c0100000000000000000000000000000000000000000000000000000000028152600401808473ffffffffffffffffffffffffffffffffffffffff1673ffffffffffffffffffffffffffffffffffffffff1681526020018373ffffffffffffffffffffffffffffffffffffffff1673ffffffffffffffffffffffffffffffffffffffff1681526020018281526020019350505050602060405180830381600087803b1580156128db57600080fd5b505af11580156128ef573d6000803e3d6000fd5b505050506040513d602081101561290557600080fd5b81019080805190602001909291905050505050565b600061011860008373ffffffffffffffffffffffffffffffffffffffff1673ffffffffffffffffffffffffffffffffffffffff168152602001908152602001600020549050919050565b600061296e61202d565b15156129e2576040517f08c379a00000000000000000000000000000000000000000000000000000000081526004018080602001828103825260208152602001807f4f776e61626c653a2063616c6c6572206973206e6f7420746865206f776e657281525060200191505060405180910390fd5b61010d5487101515612a3f576040517f08c379a00000000000000000000000000000000000000000000000000000000081526004018080602001828103825260298152602001806144bf6029913960400191505060405180910390fd5b8661010f8190555085610110819055508461011181905550612a6b600283613f9790919063ffffffff16565b6101128190555083610113819055508261011c81905550612a96600283613f9790919063ffffffff16565b6101148190555061010f5490509695505050505050565b600061011954148015612ac35750600061011a54145b8015612ad25750600061011c54145b8015612ae15750600061011b54145b1515612b55576040517f08c379a00000000000000000000000000000000000000000000000000000000081526004018080602001828103825260138152602001807f416c726561647920696e697469616c697a65640000000000000000000000000081525060200191505060405180910390fd5b61010554610119819055508261011a819055508161011b819055508061011c81905550505050565b6101125481565b612b8c61202d565b1515612c00576040517f08c379a00000000000000000000000000000000000000000000000000000000081526004018080602001828103825260208152602001807f4f776e61626c653a2063616c6c6572206973206e6f7420746865206f776e657281525060200191505060405180910390fd5b612c0981613fe1565b50565b6101175481565b6101135481565b600033905090565b600073ffffffffffffffffffffffffffffffffffffffff168373ffffffffffffffffffffffffffffffffffffffff1614151515612caa576040517f08c379a00000000000000000000000000000000000000000000000000000000081526004018080602001828103825260248152602001806146a96024913960400191505060405180910390fd5b600073ffffffffffffffffffffffffffffffffffffffff168273ffffffffffffffffffffffffffffffffffffffff1614151515612d32576040517f08c379a00000000000000000000000000000000000000000000000000000000081526004018080602001828103825260228152602001806145316022913960400191505060405180910390fd5b80603460008573ffffffffffffffffffffffffffffffffffffffff1673ffffffffffffffffffffffffffffffffffffffff16815260200190815260200160002060008473ffffffffffffffffffffffffffffffffffffffff1673ffffffffffffffffffffffffffffffffffffffff168152602001908152602001600020819055508173ffffffffffffffffffffffffffffffffffffffff168373ffffffffffffffffffffffffffffffffffffffff167f8c5be1e5ebec7d5bd14f71427d1e84f3dd0314c0f7b2291e5b200ac8c7c3b925836040518082815260200191505060405180910390a3505050565b600060418251141515612e335760009050612f1e565b60008060006020850151925060408501519150606085015160001a90507f7fffffffffffffffffffffffffffffff5d576e7357a4501ddfe92f46681b20a082600190041115612e885760009350505050612f1e565b601b8160ff1614158015612ea05750601c8160ff1614155b15612eb15760009350505050612f1e565b60018682858560405160008152602001604052604051808581526020018460ff1660ff1681526020018381526020018281526020019450505050506020604051602081039080840390855afa158015612f0e573d6000803e3d6000fd5b5050506020604051035193505050505b92915050565b6000612f6683836040805190810160405280601e81526020017f536166654d6174683a207375627472616374696f6e206f766572666c6f77000081525061322d565b905092915050565b600073ffffffffffffffffffffffffffffffffffffffff168373ffffffffffffffffffffffffffffffffffffffff1614151515612ff6576040517f08c379a00000000000000000000000000000000000000000000000000000000081526004018080602001828103825260258152602001806146846025913960400191505060405180910390fd5b600073ffffffffffffffffffffffffffffffffffffffff168273ffffffffffffffffffffffffffffffffffffffff161415151561307e576040517f08c379a00000000000000000000000000000000000000000000000000000000081526004018080602001828103825260238152602001806144e86023913960400191505060405180910390fd5b6130eb816060604051908101604052806026815260200161455360269139603360008773ffffffffffffffffffffffffffffffffffffffff1673ffffffffffffffffffffffffffffffffffffffff1681526020019081526020016000205461322d9092919063ffffffff16565b603360008573ffffffffffffffffffffffffffffffffffffffff1673ffffffffffffffffffffffffffffffffffffffff1681526020019081526020016000208190555061318081603360008573ffffffffffffffffffffffffffffffffffffffff1673ffffffffffffffffffffffffffffffffffffffff168152602001908152602001600020546132ef90919063ffffffff16565b603360008473ffffffffffffffffffffffffffffffffffffffff1673ffffffffffffffffffffffffffffffffffffffff168152602001908152602001600020819055508173ffffffffffffffffffffffffffffffffffffffff168373ffffffffffffffffffffffffffffffffffffffff167fddf252ad1be2c89b69c2b068fc378daa952ba7f163c4a11628f55a4df523b3ef836040518082815260200191505060405180910390a3505050565b600083831115829015156132dc576040517f08c379a00000000000000000000000000000000000000000000000000000000081526004018080602001828103825283818151815260200191508051906020019080838360005b838110156132a1578082015181840152602081019050613286565b50505050905090810190601f1680156132ce5780820380516001836020036101000a031916815260200191505b509250505060405180910390fd5b5060008385039050809150509392505050565b600080828401905083811015151561336f576040517f08c379a000000000000000000000000000000000000000000000000000000000815260040180806020018281038252601b8152602001807f536166654d6174683a206164646974696f6e206f766572666c6f77000000000081525060200191505060405180910390fd5b8091505092915050565b6000803090506000813b9050600081149250505090565b600060019054906101000a900460ff16806133af57506133ae613379565b5b806133c657506000809054906101000a900460ff16155b151561341d576040517f08c379a000000000000000000000000000000000000000000000000000000000815260040180806020018281038252602e815260200180614656602e913960400191505060405180910390fd5b60008060019054906101000a900460ff16159050801561346d576001600060016101000a81548160ff02191690831515021790555060016000806101000a81548160ff0219169083151502179055505b81606860006101000a81548173ffffffffffffffffffffffffffffffffffffffff021916908373ffffffffffffffffffffffffffffffffffffffff160217905550606860009054906101000a900473ffffffffffffffffffffffffffffffffffffffff1673ffffffffffffffffffffffffffffffffffffffff16600073ffffffffffffffffffffffffffffffffffffffff167f8be0079c531659141344cd1fd0a4f28419497f9722a3daafe3b4186f6b6457e060405160405180910390a3801561354c5760008060016101000a81548160ff0219169083151502179055505b5050565b600061355c3083611d07565b5060019050919050565b600073ffffffffffffffffffffffffffffffffffffffff168273ffffffffffffffffffffffffffffffffffffffff161415151561360b576040517f08c379a000000000000000000000000000000000000000000000000000000000815260040180806020018281038252601f8152602001807f45524332303a206d696e7420746f20746865207a65726f20616464726573730081525060200191505060405180910390fd5b613620816035546132ef90919063ffffffff16565b60358190555061367881603360008573ffffffffffffffffffffffffffffffffffffffff1673ffffffffffffffffffffffffffffffffffffffff168152602001908152602001600020546132ef90919063ffffffff16565b603360008473ffffffffffffffffffffffffffffffffffffffff1673ffffffffffffffffffffffffffffffffffffffff168152602001908152602001600020819055508173ffffffffffffffffffffffffffffffffffffffff16600073ffffffffffffffffffffffffffffffffffffffff167fddf252ad1be2c89b69c2b068fc378daa952ba7f163c4a11628f55a4df523b3ef836040518082815260200191505060405180910390a35050565b61373981609b61412990919063ffffffff16565b8073ffffffffffffffffffffffffffffffffffffffff167f6ae172837ea30b801fbfcdd4108aa1d5bf8ff775444fd70256b44e6bf3dfc3f660405160405180910390a250565b61379381609b61420690919063ffffffff16565b8073ffffffffffffffffffffffffffffffffffffffff167fe94479a9f7e1952cc78f2d6baab678adc1b772d936c6583def489e524cb6669260405160405180910390a250565b600080839050600080600090505b8481101561386957600061382f61010160009054906101000a900460ff1660ff16600a0a61382186610108546142c590919063ffffffff16565b613f9790919063ffffffff16565b905061384481846132ef90919063ffffffff16565b925061385981856132ef90919063ffffffff16565b93505080806001019150506137e7565b50809250505092915050565b600080600061010f54141561388b576101055490505b620186a083101561391a57600080600090505b84811015613913576138e761010160009054906101000a900460ff1660ff16600a0a6138d96101105461010b546142c590919063ffffffff16565b613f9790919063ffffffff16565b91506138fc82846132ef90919063ffffffff16565b92508161011081905550808060010191505061389e565b505061391b565b5b80915050919050565b6000806139406101115461010c54612f2490919063ffffffff16565b90508091505090565b60008061010c549050600061397d600161396f6101095487612f2490919063ffffffff16565b6132ef90919063ffffffff16565b9050600061398b83836137d9565b9050809350505050919050565b60006139c160056139b36004876142c590919063ffffffff16565b613f9790919063ffffffff16565b90506139ec6139da600586613f9790919063ffffffff16565b610115546132ef90919063ffffffff16565b6101158190555061011a54821015613a9357613a27613a15600383613f9790919063ffffffff16565b610113546132ef90919063ffffffff16565b61011381905550613a57613a45600383613f9790919063ffffffff16565b610112546132ef90919063ffffffff16565b61011281905550613a87613a75600383613f9790919063ffffffff16565b610114546132ef90919063ffffffff16565b61011481905550613c24565b60008061011c54613ac4600f613ab66004610110546142c590919063ffffffff16565b613f9790919063ffffffff16565b10613ad25761011c54613afd565b613afc600f613aee6004610110546142c590919063ffffffff16565b613f9790919063ffffffff16565b5b61011c8190555060008090505b85811015613b7f57613b5361010160009054906101000a900460ff1660ff16600a0a613b4561011c5461011b546142c590919063ffffffff16565b613f9790919063ffffffff16565b9150613b6882846132ef90919063ffffffff16565b92508161011c819055508080600101915050613b0a565b50613b9682610113546132ef90919063ffffffff16565b61011381905550613bd8613bc66002613bb88587612f2490919063ffffffff16565b613f9790919063ffffffff16565b610112546132ef90919063ffffffff16565b61011281905550613c1a613c086002613bfa8587612f2490919063ffffffff16565b613f9790919063ffffffff16565b610114546132ef90919063ffffffff16565b6101148190555050505b50505050565b6000806101155490506000610115819055503073ffffffffffffffffffffffffffffffffffffffff1663a9059cbb61010460009054906101000a900473ffffffffffffffffffffffffffffffffffffffff16836040518363ffffffff167c0100000000000000000000000000000000000000000000000000000000028152600401808373ffffffffffffffffffffffffffffffffffffffff1673ffffffffffffffffffffffffffffffffffffffff16815260200182815260200192505050602060405180830381600087803b158015613d0257600080fd5b505af1158015613d16573d6000803e3d6000fd5b505050506040513d6020811015613d2c57600080fd5b81019080805190602001909291905050501515613d94576040517f08c379a00000000000000000000000000000000000000000000000000000000081526004018080602001828103825260218152602001806145796021913960400191505060405180910390fd5b600191505090565b60008073ffffffffffffffffffffffffffffffffffffffff168273ffffffffffffffffffffffffffffffffffffffff1614151515613e25576040517f08c379a00000000000000000000000000000000000000000000000000000000081526004018080602001828103825260228152602001806146346022913960400191505060405180910390fd5b8260000160008373ffffffffffffffffffffffffffffffffffffffff1673ffffffffffffffffffffffffffffffffffffffff16815260200190815260200160002060009054906101000a900460ff16905092915050565b600060019054906101000a900460ff1680613e9b5750613e9a613379565b5b80613eb257506000809054906101000a900460ff16155b1515613f09576040517f08c379a000000000000000000000000000000000000000000000000000000000815260040180806020018281038252602e815260200180614656602e913960400191505060405180910390fd5b60008060019054906101000a900460ff161590508015613f59576001600060016101000a81548160ff02191690831515021790555060016000806101000a81548160ff0219169083151502179055505b613f628261247b565b1515613f7257613f7182613725565b5b8015613f935760008060016101000a81548160ff0219169083151502179055505b5050565b6000613fd983836040805190810160405280601a81526020017f536166654d6174683a206469766973696f6e206279207a65726f00000000000081525061434f565b905092915050565b600073ffffffffffffffffffffffffffffffffffffffff168173ffffffffffffffffffffffffffffffffffffffff1614151515614069576040517f08c379a000000000000000000000000000000000000000000000000000000000815260040180806020018281038252602681526020018061450b6026913960400191505060405180910390fd5b8073ffffffffffffffffffffffffffffffffffffffff16606860009054906101000a900473ffffffffffffffffffffffffffffffffffffffff1673ffffffffffffffffffffffffffffffffffffffff167f8be0079c531659141344cd1fd0a4f28419497f9722a3daafe3b4186f6b6457e060405160405180910390a380606860006101000a81548173ffffffffffffffffffffffffffffffffffffffff021916908373ffffffffffffffffffffffffffffffffffffffff16021790555050565b6141338282613d9c565b1515156141a8576040517f08c379a000000000000000000000000000000000000000000000000000000000815260040180806020018281038252601f8152602001807f526f6c65733a206163636f756e7420616c72656164792068617320726f6c650081525060200191505060405180910390fd5b60018260000160008373ffffffffffffffffffffffffffffffffffffffff1673ffffffffffffffffffffffffffffffffffffffff16815260200190815260200160002060006101000a81548160ff0219169083151502179055505050565b6142108282613d9c565b1515614267576040517f08c379a00000000000000000000000000000000000000000000000000000000081526004018080602001828103825260218152602001806145ca6021913960400191505060405180910390fd5b60008260000160008373ffffffffffffffffffffffffffffffffffffffff1673ffffffffffffffffffffffffffffffffffffffff16815260200190815260200160002060006101000a81548160ff0219169083151502179055505050565b6000808314156142d85760009050614349565b600082840290508284828115156142eb57fe5b04141515614344576040517f08c379a00000000000000000000000000000000000000000000000000000000081526004018080602001828103825260218152602001806145eb6021913960400191505060405180910390fd5b809150505b92915050565b6000808311829015156143fd576040517f08c379a00000000000000000000000000000000000000000000000000000000081526004018080602001828103825283818151815260200191508051906020019080838360005b838110156143c25780820151818401526020810190506143a7565b50505050905090810190601f1680156143ef5780820380516001836020036101000a031916815260200191505b509250505060405180910390fd5b506000838581151561440b57fe5b049050809150509392505050565b828054600181600116156101000203166002900490600052602060002090601f016020900481019282601f1061445a57805160ff1916838001178555614488565b82800160010185558215614488579182015b8281111561448757825182559160200191906001019061446c565b5b5090506144959190614499565b5090565b6144bb91905b808211156144b757600081600090555060010161449f565b5090565b9056fe4c6173742072656c65617365206d757374206265206265666f72652063757272656e7420726f756e6445524332303a207472616e7366657220746f20746865207a65726f20616464726573734f776e61626c653a206e6577206f776e657220697320746865207a65726f206164647265737345524332303a20617070726f766520746f20746865207a65726f206164647265737345524332303a207472616e7366657220616d6f756e7420657863656564732062616c616e63655472616e7366657220746f2064657646756e6441646472657373206661696c65644d696e746572526f6c653a2063616c6c657220646f6573206e6f74206861766520746865204d696e74657220726f6c65526f6c65733a206163636f756e7420646f6573206e6f74206861766520726f6c65536166654d6174683a206d756c7469706c69636174696f6e206f766572666c6f7745524332303a207472616e7366657220616d6f756e74206578636565647320616c6c6f77616e6365526f6c65733a206163636f756e7420697320746865207a65726f2061646472657373436f6e747261637420696e7374616e63652068617320616c7265616479206265656e20696e697469616c697a656445524332303a207472616e736665722066726f6d20746865207a65726f206164647265737345524332303a20617070726f76652066726f6d20746865207a65726f20616464726573734e6f7420656e6f756768206375726174696f6e207265776172647320617661696c61626c654e6f7420656e6f7567682061697264726f70207265776172647320617661696c61626c6545524332303a2064656372656173656420616c6c6f77616e63652062656c6f77207a65726fa165627a7a7230582062dde2fec01e5ca533c67c030be3a2a165078157efbd8febd56aee29e28065e90029",
  "linkReferences": {},
  "deployedLinkReferences": {}
}