{
  "contracts/MathUtils.sol": {
    "MathUtils": {
      "abi": [
        {
          "constant": true,
          "inputs": [],
          "name": "PERC_DIVISOR",
          "outputs": [
            {
              "name": "",
              "type": "uint256"
            }
          ],
          "payable": false,
          "stateMutability": "view",
          "type": "function"
        }
      ],
      "evm": {
        "bytecode": {
          "linkReferences": {},
          "object": "60a461002f600b82828239805160001a6073146000811461001f57610021565bfe5b5030600052607381538281f3fe73000000000000000000000000000000000000000030146080604052600436106050576000357c010000000000000000000000000000000000000000000000000000000090048063cce2a078146055575b600080fd5b605b6071565b6040518082815260200191505060405180910390f35b620f42408156fea165627a7a723058205e4bac9989c1aa69f30173b5e2705a1869a8767298f3ac1cc63149f48bf18da60029",
          "opcodes": "PUSH1 0xA4 PUSH2 0x2F PUSH1 0xB DUP3 DUP3 DUP3 CODECOPY DUP1 MLOAD PUSH1 0x0 BYTE PUSH1 0x73 EQ PUSH1 0x0 DUP2 EQ PUSH2 0x1F JUMPI PUSH2 0x21 JUMP JUMPDEST INVALID JUMPDEST POP ADDRESS PUSH1 0x0 MSTORE PUSH1 0x73 DUP2 MSTORE8 DUP3 DUP2 RETURN INVALID PUSH20 0x0 ADDRESS EQ PUSH1 0x80 PUSH1 0x40 MSTORE PUSH1 0x4 CALLDATASIZE LT PUSH1 0x50 JUMPI PUSH1 0x0 CALLDATALOAD PUSH29 0x100000000000000000000000000000000000000000000000000000000 SWAP1 DIV DUP1 PUSH4 0xCCE2A078 EQ PUSH1 0x55 JUMPI JUMPDEST PUSH1 0x0 DUP1 REVERT JUMPDEST PUSH1 0x5B PUSH1 0x71 JUMP JUMPDEST PUSH1 0x40 MLOAD DUP1 DUP3 DUP2 MSTORE PUSH1 0x20 ADD SWAP2 POP POP PUSH1 0x40 MLOAD DUP1 SWAP2 SUB SWAP1 RETURN JUMPDEST PUSH3 0xF4240 DUP2 JUMP INVALID LOG1 PUSH6 0x627A7A723058 KECCAK256 0x5e 0x4b 0xac SWAP10 DUP10 0xc1 0xaa PUSH10 0xF30173B5E2705A1869A8 PUSH23 0x7298F3AC1CC63149F48BF18DA600290000000000000000 "
        },
        "methodIdentifiers": {
          "PERC_DIVISOR()": "cce2a078"
        }
      }
    }
  }
}