{
  "address": "0xb6c4267C4877BB0D6b1685Cfd85b0FBe82F105ec",
  "abi": [
    {
      "constant": true,
      "inputs": [],
      "name": "name",
      "outputs": [
        {
          "name": "",
          "type": "string"
        }
      ],
      "payable": false,
      "stateMutability": "view",
      "type": "function"
    },
    {
      "constant": false,
      "inputs": [
        {
          "name": "spender",
          "type": "address"
        },
        {
          "name": "amount",
          "type": "uint256"
        }
      ],
      "name": "approve",
      "outputs": [
        {
          "name": "",
          "type": "bool"
        }
      ],
      "payable": false,
      "stateMutability": "nonpayable",
      "type": "function"
    },
    {
      "constant": false,
      "inputs": [
        {
          "name": "amount",
          "type": "uint256"
        },
        {
          "name": "signature",
          "type": "bytes"
        }
      ],
      "name": "claimTokens",
      "outputs": [],
      "payable": false,
      "stateMutability": "nonpayable",
      "type": "function"
    },
    {
      "constant": true,
      "inputs": [],
      "name": "totalSupply",
      "outputs": [
        {
          "name": "",
          "type": "uint256"
        }
      ],
      "payable": false,
      "stateMutability": "view",
      "type": "function"
    },
    {
      "constant": false,
      "inputs": [
        {
          "name": "sender",
          "type": "address"
        },
        {
          "name": "recipient",
          "type": "address"
        },
        {
          "name": "amount",
          "type": "uint256"
        }
      ],
      "name": "transferFrom",
      "outputs": [
        {
          "name": "",
          "type": "bool"
        }
      ],
      "payable": false,
      "stateMutability": "nonpayable",
      "type": "function"
    },
    {
      "constant": true,
      "inputs": [],
      "name": "decimals",
      "outputs": [
        {
          "name": "",
          "type": "uint8"
        }
      ],
      "payable": false,
      "stateMutability": "view",
      "type": "function"
    },
    {
      "constant": true,
      "inputs": [],
      "name": "CLAIM_HASH",
      "outputs": [
        {
          "name": "",
          "type": "bytes32"
        }
      ],
      "payable": false,
      "stateMutability": "view",
      "type": "function"
    },
    {
      "constant": true,
      "inputs": [],
      "name": "DOMAIN_SEPARATOR",
      "outputs": [
        {
          "name": "",
          "type": "bytes32"
        }
      ],
      "payable": false,
      "stateMutability": "view",
      "type": "function"
    },
    {
      "constant": false,
      "inputs": [
        {
          "name": "spender",
          "type": "address"
        },
        {
          "name": "addedValue",
          "type": "uint256"
        }
      ],
      "name": "increaseAllowance",
      "outputs": [
        {
          "name": "",
          "type": "bool"
        }
      ],
      "payable": false,
      "stateMutability": "nonpayable",
      "type": "function"
    },
    {
      "constant": false,
      "inputs": [
        {
          "name": "amount",
          "type": "uint256"
        }
      ],
      "name": "burn",
      "outputs": [],
      "payable": false,
      "stateMutability": "nonpayable",
      "type": "function"
    },
    {
      "constant": true,
      "inputs": [],
      "name": "version",
      "outputs": [
        {
          "name": "",
          "type": "string"
        }
      ],
      "payable": false,
      "stateMutability": "view",
      "type": "function"
    },
    {
      "constant": true,
      "inputs": [],
      "name": "vestingContract",
      "outputs": [
        {
          "name": "",
          "type": "address"
        }
      ],
      "payable": false,
      "stateMutability": "view",
      "type": "function"
    },
    {
      "constant": false,
      "inputs": [
        {
          "name": "token",
          "type": "address"
        },
        {
          "name": "amount",
          "type": "uint256"
        }
      ],
      "name": "sweep",
      "outputs": [],
      "payable": false,
      "stateMutability": "nonpayable",
      "type": "function"
    },
    {
      "constant": false,
      "inputs": [
        {
          "name": "_admin",
          "type": "address"
        }
      ],
      "name": "setAdmin",
      "outputs": [],
      "payable": false,
      "stateMutability": "nonpayable",
      "type": "function"
    },
    {
      "constant": true,
      "inputs": [
        {
          "name": "account",
          "type": "address"
        }
      ],
      "name": "balanceOf",
      "outputs": [
        {
          "name": "",
          "type": "uint256"
        }
      ],
      "payable": false,
      "stateMutability": "view",
      "type": "function"
    },
    {
      "constant": false,
      "inputs": [],
      "name": "renounceOwnership",
      "outputs": [],
      "payable": false,
      "stateMutability": "nonpayable",
      "type": "function"
    },
    {
      "constant": false,
      "inputs": [
        {
          "name": "_vestingContract",
          "type": "address"
        }
      ],
      "name": "setVestingContract",
      "outputs": [],
      "payable": false,
      "stateMutability": "nonpayable",
      "type": "function"
    },
    {
      "constant": true,
      "inputs": [],
      "name": "allocatedRewards",
      "outputs": [
        {
          "name": "",
          "type": "uint256"
        }
      ],
      "payable": false,
      "stateMutability": "view",
      "type": "function"
    },
    {
      "constant": false,
      "inputs": [
        {
          "name": "amount",
          "type": "uint256"
        }
      ],
      "name": "vestAllocatedTokens",
      "outputs": [],
      "payable": false,
      "stateMutability": "nonpayable",
      "type": "function"
    },
    {
      "constant": true,
      "inputs": [],
      "name": "owner",
      "outputs": [
        {
          "name": "",
          "type": "address"
        }
      ],
      "payable": false,
      "stateMutability": "view",
      "type": "function"
    },
    {
      "constant": true,
      "inputs": [],
      "name": "isOwner",
      "outputs": [
        {
          "name": "",
          "type": "bool"
        }
      ],
      "payable": false,
      "stateMutability": "view",
      "type": "function"
    },
    {
      "constant": true,
      "inputs": [],
      "name": "symbol",
      "outputs": [
        {
          "name": "",
          "type": "string"
        }
      ],
      "payable": false,
      "stateMutability": "view",
      "type": "function"
    },
    {
      "constant": false,
      "inputs": [
        {
          "name": "spender",
          "type": "address"
        },
        {
          "name": "subtractedValue",
          "type": "uint256"
        }
      ],
      "name": "decreaseAllowance",
      "outputs": [
        {
          "name": "",
          "type": "bool"
        }
      ],
      "payable": false,
      "stateMutability": "nonpayable",
      "type": "function"
    },
    {
      "constant": false,
      "inputs": [
        {
          "name": "recipient",
          "type": "address"
        },
        {
          "name": "amount",
          "type": "uint256"
        }
      ],
      "name": "transfer",
      "outputs": [
        {
          "name": "",
          "type": "bool"
        }
      ],
      "payable": false,
      "stateMutability": "nonpayable",
      "type": "function"
    },
    {
      "constant": false,
      "inputs": [],
      "name": "releaseTokens",
      "outputs": [],
      "payable": false,
      "stateMutability": "nonpayable",
      "type": "function"
    },
    {
      "constant": true,
      "inputs": [],
      "name": "initializedV3",
      "outputs": [
        {
          "name": "",
          "type": "bool"
        }
      ],
      "payable": false,
      "stateMutability": "view",
      "type": "function"
    },
    {
      "constant": true,
      "inputs": [],
      "name": "inflation",
      "outputs": [
        {
          "name": "",
          "type": "uint256"
        }
      ],
      "payable": false,
      "stateMutability": "view",
      "type": "function"
    },
    {
      "constant": false,
      "inputs": [
        {
          "name": "sender",
          "type": "address"
        }
      ],
      "name": "initialize",
      "outputs": [],
      "payable": false,
      "stateMutability": "nonpayable",
      "type": "function"
    },
    {
      "constant": true,
      "inputs": [],
      "name": "lastReward",
      "outputs": [
        {
          "name": "",
          "type": "uint256"
        }
      ],
      "payable": false,
      "stateMutability": "view",
      "type": "function"
    },
    {
      "constant": false,
      "inputs": [
        {
          "name": "newAllocatedRewards",
          "type": "uint256"
        }
      ],
      "name": "updateAllocatedRewards",
      "outputs": [],
      "payable": false,
      "stateMutability": "nonpayable",
      "type": "function"
    },
    {
      "constant": true,
      "inputs": [
        {
          "name": "owner",
          "type": "address"
        },
        {
          "name": "spender",
          "type": "address"
        }
      ],
      "name": "allowance",
      "outputs": [
        {
          "name": "",
          "type": "uint256"
        }
      ],
      "payable": false,
      "stateMutability": "view",
      "type": "function"
    },
    {
      "constant": false,
      "inputs": [
        {
          "name": "_inflation",
          "type": "uint256"
        }
      ],
      "name": "setInflation",
      "outputs": [],
      "payable": false,
      "stateMutability": "nonpayable",
      "type": "function"
    },
    {
      "constant": true,
      "inputs": [
        {
          "name": "account",
          "type": "address"
        }
      ],
      "name": "nonceOf",
      "outputs": [
        {
          "name": "",
          "type": "uint256"
        }
      ],
      "payable": false,
      "stateMutability": "view",
      "type": "function"
    },
    {
      "constant": false,
      "inputs": [
        {
          "name": "newOwner",
          "type": "address"
        }
      ],
      "name": "transferOwnership",
      "outputs": [],
      "payable": false,
      "stateMutability": "nonpayable",
      "type": "function"
    },
    {
      "constant": false,
      "inputs": [
        {
          "name": "_admin",
          "type": "address"
        },
        {
          "name": "_inflation",
          "type": "uint256"
        }
      ],
      "name": "initV3",
      "outputs": [],
      "payable": false,
      "stateMutability": "nonpayable",
      "type": "function"
    },
    {
      "constant": true,
      "inputs": [],
      "name": "admin",
      "outputs": [
        {
          "name": "",
          "type": "address"
        }
      ],
      "payable": false,
      "stateMutability": "view",
      "type": "function"
    },
    {
      "constant": true,
      "inputs": [],
      "name": "MAX_INFLATION",
      "outputs": [
        {
          "name": "",
          "type": "uint256"
        }
      ],
      "payable": false,
      "stateMutability": "view",
      "type": "function"
    },
    {
      "payable": true,
      "stateMutability": "payable",
      "type": "fallback"
    },
    {
      "anonymous": false,
      "inputs": [
        {
          "indexed": false,
          "name": "amount",
          "type": "uint256"
        },
        {
          "indexed": false,
          "name": "secondsSinceLast",
          "type": "uint256"
        },
        {
          "indexed": false,
          "name": "timestamp",
          "type": "uint256"
        }
      ],
      "name": "Released",
      "type": "event"
    },
    {
      "anonymous": false,
      "inputs": [
        {
          "indexed": true,
          "name": "account",
          "type": "address"
        },
        {
          "indexed": false,
          "name": "amount",
          "type": "uint256"
        }
      ],
      "name": "Claimed",
      "type": "event"
    },
    {
      "anonymous": false,
      "inputs": [
        {
          "indexed": false,
          "name": "admin",
          "type": "address"
        }
      ],
      "name": "SetAdmin",
      "type": "event"
    },
    {
      "anonymous": false,
      "inputs": [
        {
          "indexed": false,
          "name": "inflation",
          "type": "uint256"
        }
      ],
      "name": "SetInflation",
      "type": "event"
    },
    {
      "anonymous": false,
      "inputs": [
        {
          "indexed": false,
          "name": "allocatedRewards",
          "type": "uint256"
        }
      ],
      "name": "UpdateAllocatedRewards",
      "type": "event"
    },
    {
      "anonymous": false,
      "inputs": [
        {
          "indexed": false,
          "name": "vestingContract",
          "type": "address"
        }
      ],
      "name": "SetVestingContract",
      "type": "event"
    },
    {
      "anonymous": false,
      "inputs": [
        {
          "indexed": true,
          "name": "previousOwner",
          "type": "address"
        },
        {
          "indexed": true,
          "name": "newOwner",
          "type": "address"
        }
      ],
      "name": "OwnershipTransferred",
      "type": "event"
    },
    {
      "anonymous": false,
      "inputs": [
        {
          "indexed": true,
          "name": "from",
          "type": "address"
        },
        {
          "indexed": true,
          "name": "to",
          "type": "address"
        },
        {
          "indexed": false,
          "name": "value",
          "type": "uint256"
        }
      ],
      "name": "Transfer",
      "type": "event"
    },
    {
      "anonymous": false,
      "inputs": [
        {
          "indexed": true,
          "name": "owner",
          "type": "address"
        },
        {
          "indexed": true,
          "name": "spender",
          "type": "address"
        },
        {
          "indexed": false,
          "name": "value",
          "type": "uint256"
        }
      ],
      "name": "Approval",
      "type": "event"
    }
  ],
  "bytecode": "0x6080604052612a92806100136000396000f3fe60806040526004361061021a5760003560e01c806385f1a5c111610123578063c4d66de8116100ab578063ed2a2d641161006f578063ed2a2d6414610807578063f2fde38b1461083a578063f30facf41461086d578063f851a440146108a6578063fdb04bbf146108bb5761021a565b8063c4d66de814610730578063c9b1714914610763578063cc29c34714610778578063dd62ed3e146107a2578063e0a8ed52146107dd5761021a565b8063a457c2d7116100f2578063a457c2d71461067f578063a9059cbb146106b8578063a96f8668146106f1578063b782e30314610706578063be0522e01461071b5761021a565b806385f1a5c1146106165780638da5cb5b146106405780638f32d59b1461065557806395d89b411461066a5761021a565b806342966c68116101a6578063704b6c0211610175578063704b6c021461055357806370a0823114610586578063715018a6146105b957806374991569146105ce5780637d556df0146106015761021a565b806342966c68146104aa57806354fd4d50146104d45780635e6f6045146104e95780636ea056a91461051a5761021a565b806323b872dd116101ed57806323b872dd146103d9578063313ce5671461041c57806333a6cc58146104475780633644e5151461045c57806339509351146104715761021a565b806306fdde031461021f578063095ea7b3146102a957806314d8bbf1146102f657806318160ddd146103b2575b600080fd5b34801561022b57600080fd5b506102346108d0565b6040805160208082528351818301528351919283929083019185019080838360005b8381101561026e578181015183820152602001610256565b50505050905090810190601f16801561029b5780820380516001836020036101000a031916815260200191505b509250505060405180910390f35b3480156102b557600080fd5b506102e2600480360360408110156102cc57600080fd5b506001600160a01b03813516906020013561095d565b604080519115158252519081900360200190f35b34801561030257600080fd5b506103b06004803603604081101561031957600080fd5b8135919081019060408101602082013564010000000081111561033b57600080fd5b82018360208201111561034d57600080fd5b8035906020019184600183028401116401000000008311171561036f57600080fd5b91908080601f01602080910402602001604051908101604052809392919081815260200183838082843760009201919091525092955061097b945050505050565b005b3480156103be57600080fd5b506103c7610bb1565b60408051918252519081900360200190f35b3480156103e557600080fd5b506102e2600480360360608110156103fc57600080fd5b506001600160a01b03813581169160208101359091169060400135610bb8565b34801561042857600080fd5b50610431610c45565b6040805160ff9092168252519081900360200190f35b34801561045357600080fd5b506103c7610c4f565b34801561046857600080fd5b506103c7610c73565b34801561047d57600080fd5b506102e26004803603604081101561049457600080fd5b506001600160a01b038135169060200135610c7a565b3480156104b657600080fd5b506103b0600480360360208110156104cd57600080fd5b5035610cce565b3480156104e057600080fd5b50610234610d74565b3480156104f557600080fd5b506104fe610dd0565b604080516001600160a01b039092168252519081900360200190f35b34801561052657600080fd5b506103b06004803603604081101561053d57600080fd5b506001600160a01b038135169060200135610de0565b34801561055f57600080fd5b506103b06004803603602081101561057657600080fd5b50356001600160a01b0316610ed7565b34801561059257600080fd5b506103c7600480360360208110156105a957600080fd5b50356001600160a01b0316611005565b3480156105c557600080fd5b506103b0611020565b3480156105da57600080fd5b506103b0600480360360208110156105f157600080fd5b50356001600160a01b03166110b6565b34801561060d57600080fd5b506103c76111a2565b34801561062257600080fd5b506103b06004803603602081101561063957600080fd5b50356111a9565b34801561064c57600080fd5b506104fe6112e7565b34801561066157600080fd5b506102e26112f6565b34801561067657600080fd5b5061023461131c565b34801561068b57600080fd5b506102e2600480360360408110156106a257600080fd5b506001600160a01b038135169060200135611378565b3480156106c457600080fd5b506102e2600480360360408110156106db57600080fd5b506001600160a01b0381351690602001356113e6565b3480156106fd57600080fd5b506103b06113fa565b34801561071257600080fd5b506102e26115da565b34801561072757600080fd5b506103c76115e4565b34801561073c57600080fd5b506103b06004803603602081101561075357600080fd5b50356001600160a01b03166115eb565b34801561076f57600080fd5b506103c76116e1565b34801561078457600080fd5b506103b06004803603602081101561079b57600080fd5b50356116e8565b3480156107ae57600080fd5b506103c7600480360360408110156107c557600080fd5b506001600160a01b03813581169160200135166117ff565b3480156107e957600080fd5b506103b06004803603602081101561080057600080fd5b503561182a565b34801561081357600080fd5b506103c76004803603602081101561082a57600080fd5b50356001600160a01b0316611941565b34801561084657600080fd5b506103b06004803603602081101561085d57600080fd5b50356001600160a01b031661195d565b34801561087957600080fd5b506103b06004803603604081101561089057600080fd5b506001600160a01b0381351690602001356119b2565b3480156108b257600080fd5b506104fe611bc7565b3480156108c757600080fd5b506103c7611bd7565b61010080546040805160206002600185161586026000190190941693909304601f810184900484028201840190925281815292918301828280156109555780601f1061092a57610100808354040283529160200191610955565b820191906000526020600020905b81548152906001019060200180831161093857829003601f168201915b505050505081565b600061097161096a611bdd565b8484611be1565b5060015b92915050565b61011d5460ff1615156109c65760408051600160e51b62461bcd02815260206004820152601760248201526000805160206129bb833981519152604482015290519081900360640190fd5b61011654821115610a215760408051600160e51b62461bcd02815260206004820181905260248201527f52656c3a206e6f7420656e6f75676820616c6c6f636174656420746f6b656e73604482015290519081900360640190fd5b336000818152610118602090815260408083205481517fa53a2b3fab2ad1dd8877a41407c34f62362beca7419151220729194783585d4c81850152808301959095526060850187905260808086018290528251808703909101815260a08601835280519084012061011e54600160f01b6119010260c088015260c287015260e28087018290528351808803909101815261010290960190925284519490920193909320909291610ad18286611cd7565b610104549091506001600160a01b03808316911614610b3a5760408051600160e51b62461bcd02815260206004820152601960248201527f52656c3a20636c61696d206e6f7420617574686f72697a656400000000000000604482015290519081900360640190fd5b3360009081526101186020526040902060018501905561011654610b64908763ffffffff611dc616565b61011655610b73303388611e0f565b60408051878152905133917fd8138f8a3f377c5259ca548e70e4c2de94f129f5a11036a15b69513cba2b426a919081900360200190a2505050505050565b6035545b90565b6000610bc5848484611e0f565b610c3b84610bd1611bdd565b610c368560405180606001604052806028815260200161288c602891396001600160a01b038a16600090815260346020526040812090610c0f611bdd565b6001600160a01b03168152602081019190915260400160002054919063ffffffff611f7716565b611be1565b5060019392505050565b6101015460ff1681565b7fa53a2b3fab2ad1dd8877a41407c34f62362beca7419151220729194783585d4c81565b61011e5481565b6000610971610c87611bdd565b84610c368560346000610c98611bdd565b6001600160a01b03908116825260208083019390935260409182016000908120918c16815292529020549063ffffffff61201116565b610cd66112f6565b1515610d1a5760408051600160e51b62461bcd02815260206004820181905260248201526000805160206128b4833981519152604482015290519081900360640190fd5b610d24308261206e565b61011654610d3130611005565b1015610d7157604051600160e51b62461bcd0281526004018080602001828103825260218152602001806129fd6021913960400191505060405180910390fd5b50565b610103805460408051602060026001851615610100026000190190941693909304601f810184900484028201840190925281815292918301828280156109555780601f1061092a57610100808354040283529160200191610955565b61011f546001600160a01b031681565b610104546001600160a01b0316331480610e125750610dfd6112e7565b6001600160a01b0316336001600160a01b0316145b1515610e685760408051600160e51b62461bcd02815260206004820152601360248201527f52656c3a206e6f7420617574686f72697a656400000000000000000000000000604482015290519081900360640190fd5b6001600160a01b038216301415610ec85761011654610e8630611005565b03811115610ec857604051600160e51b62461bcd0281526004018080602001828103825260228152602001806129db6022913960400191505060405180910390fd5b610ed382338361216f565b5050565b610104546001600160a01b0316331480610f095750610ef46112e7565b6001600160a01b0316336001600160a01b0316145b1515610f5f5760408051600160e51b62461bcd02815260206004820152601360248201527f52656c3a206e6f7420617574686f72697a656400000000000000000000000000604482015290519081900360640190fd5b61011d5460ff161515610faa5760408051600160e51b62461bcd02815260206004820152601760248201526000805160206129bb833981519152604482015290519081900360640190fd5b61010480546001600160a01b0319166001600160a01b03838116919091179182905560408051929091168252517f5a272403b402d892977df56625f4164ccaf70ca3863991c43ecfe76a6905b0a1916020908290030190a150565b6001600160a01b031660009081526033602052604090205490565b6110286112f6565b151561106c5760408051600160e51b62461bcd02815260206004820181905260248201526000805160206128b4833981519152604482015290519081900360640190fd5b6068546040516000916001600160a01b0316907f8be0079c531659141344cd1fd0a4f28419497f9722a3daafe3b4186f6b6457e0908390a3606880546001600160a01b0319169055565b6110be6112f6565b15156111025760408051600160e51b62461bcd02815260206004820181905260248201526000805160206128b4833981519152604482015290519081900360640190fd5b61011d5460ff16151561114d5760408051600160e51b62461bcd02815260206004820152601760248201526000805160206129bb833981519152604482015290519081900360640190fd5b61011f80546001600160a01b0383166001600160a01b0319909116811790915560408051918252517fcd37955fa232bde7dcb7336a2e808e86c03538919d26347a5f4159971a4ef2629181900360200190a150565b6101165481565b6111b16112f6565b15156111f55760408051600160e51b62461bcd02815260206004820181905260248201526000805160206128b4833981519152604482015290519081900360640190fd5b610116548111156112505760408051600160e51b62461bcd02815260206004820181905260248201527f52656c3a206e6f7420656e6f75676820616c6c6f636174656420746f6b656e73604482015290519081900360640190fd5b61011f546001600160a01b031615156112b35760408051600160e51b62461bcd02815260206004820152601c60248201527f52656c3a2076657374696e67436f6e7472616374206e6f742073657400000000604482015290519081900360640190fd5b61011f546112cc9030906001600160a01b031683611e0f565b610116546112e0908263ffffffff611dc616565b6101165550565b6068546001600160a01b031690565b6068546000906001600160a01b031661130d611bdd565b6001600160a01b031614905090565b610102805460408051602060026001851615610100026000190190941693909304601f810184900484028201840190925281815292918301828280156109555780601f1061092a57610100808354040283529160200191610955565b6000610971611385611bdd565b84610c3685604051806060016040528060258152602001612a1e60259139603460006113af611bdd565b6001600160a01b03908116825260208083019390935260409182016000908120918d1681529252902054919063ffffffff611f7716565b60006109716113f3611bdd565b8484611e0f565b61011d5460ff1615156114455760408051600160e51b62461bcd02815260206004820152601760248201526000805160206129bb833981519152604482015290519081900360640190fd5b61010554151561149f5760408051600160e51b62461bcd02815260206004820152601360248201527f52656c3a20696e666c6174696f6e206973203000000000000000000000000000604482015290519081900360640190fd5b60006114b76101065442611dc690919063ffffffff16565b905060006201518082041161150057604051600160e51b62461bcd0281526004018080602001828103825260278152602001806127f26027913960400191505060405180910390fd5b600061153664479d6f600061152a6101055461151e8661151e610bb1565b9063ffffffff6121c916565b9063ffffffff61222916565b6101165490915061154d908263ffffffff61201116565b61011655600061155c30611005565b90506101165481101561158e5761011654600090611580908363ffffffff611dc616565b905061158c308261226b565b505b42610106819055604080518481526020810186905280820192909252517ff854feef4c325cc8fcfad1a693b62c4383c8d228c4ca0bc52f9e06095338a5f19181900360600190a1505050565b61011d5460ff1681565b6101055481565b600054610100900460ff16806116045750611604612362565b80611612575060005460ff16155b151561165257604051600160e51b62461bcd02815260040180806020018281038252602e8152602001806128d4602e913960400191505060405180910390fd5b600054610100900460ff1615801561167d576000805460ff1961ff0019909116610100171660011790555b606880546001600160a01b0319166001600160a01b0384811691909117918290556040519116906000907f8be0079c531659141344cd1fd0a4f28419497f9722a3daafe3b4186f6b6457e0908290a38015610ed3576000805461ff00191690555050565b6101065481565b6116f06112f6565b15156117345760408051600160e51b62461bcd02815260206004820181905260248201526000805160206128b4833981519152604482015290519081900360640190fd5b61173d30611005565b81111561177e57604051600160e51b62461bcd0281526004018080602001828103825260228152602001806127626022913960400191505060405180910390fd5b610116548110156117c357604051600160e51b62461bcd02815260040180806020018281038252602581526020018061296c6025913960400191505060405180910390fd5b6101168190556040805182815290517f865f3a638835ca43ecaf61455138a2ae6948763fa8bc9e580f080cb097ad10a19181900360200190a150565b6001600160a01b03918216600090815260346020908152604080832093909416825291909152205490565b6118326112f6565b15156118765760408051600160e51b62461bcd02815260206004820181905260248201526000805160206128b4833981519152604482015290519081900360640190fd5b61011d5460ff1615156118c15760408051600160e51b62461bcd02815260206004820152601760248201526000805160206129bb833981519152604482015290519081900360640190fd5b6107d081111561190557604051600160e51b62461bcd028152600401808060200182810382526024815260200180612a436024913960400191505060405180910390fd5b6101058190556040805182815290517fa2c906d360736c15f8fc6c4b049228f49b9f4f8dbe56808aa82f316833a055be9181900360200190a150565b6001600160a01b03166000908152610118602052604090205490565b6119656112f6565b15156119a95760408051600160e51b62461bcd02815260206004820181905260248201526000805160206128b4833981519152604482015290519081900360640190fd5b610d7181612368565b6119ba6112f6565b15156119fe5760408051600160e51b62461bcd02815260206004820181905260248201526000805160206128b4833981519152604482015290519081900360640190fd5b61011d5460ff1615611a5a5760408051600160e51b62461bcd02815260206004820152601b60248201527f52656c3a20763320616c726561647920696e697469616c697a65640000000000604482015290519081900360640190fd5b4261010655604080518082019091526002808252600160f01b617633026020909201918252611a8c9161010391612684565b5061011d805460ff19166001179055611aa482610ed7565b611aad8161182a565b611ab760006110b6565b60006101006040518082805460018160011615610100020316600290048015611b175780601f10611af5576101008083540402835291820191611b17565b820191906000526020600020905b815481529060010190602001808311611b03575b505060408051918290038220828201825260018352600160f81b603102602090930192909252519093507fc89efdaa54c0f20c7adf612882df0950f5a951637e0307cdcb4c672f298b8bc6925060009150806052612819823960408051918290036052018220602080840191909152828201969096526060820194909452600160808201523060a0808301919091528451808303909101815260c09091019093525050805191012061011e555050565b610104546001600160a01b031681565b6107d081565b3390565b6001600160a01b0383161515611c2b57604051600160e51b62461bcd0281526004018080602001828103825260248152602001806129486024913960400191505060405180910390fd5b6001600160a01b0382161515611c7557604051600160e51b62461bcd0281526004018080602001828103825260228152602001806127aa6022913960400191505060405180910390fd5b6001600160a01b03808416600081815260346020908152604080832094871680845294825291829020859055815185815291517f8c5be1e5ebec7d5bd14f71427d1e84f3dd0314c0f7b2291e5b200ac8c7c3b9259281900390910190a3505050565b8051600090604114611ceb57506000610975565b60208201516040830151606084015160001a7f7fffffffffffffffffffffffffffffff5d576e7357a4501ddfe92f46681b20a0821115611d315760009350505050610975565b8060ff16601b14158015611d4957508060ff16601c14155b15611d5a5760009350505050610975565b6040805160008152602080820180845289905260ff8416828401526060820186905260808201859052915160019260a0808401939192601f1981019281900390910190855afa158015611db1573d6000803e3d6000fd5b5050604051601f190151979650505050505050565b6000611e0883836040518060400160405280601e81526020017f536166654d6174683a207375627472616374696f6e206f766572666c6f770000815250611f77565b9392505050565b6001600160a01b0383161515611e5957604051600160e51b62461bcd0281526004018080602001828103825260258152602001806129236025913960400191505060405180910390fd5b6001600160a01b0382161515611ea357604051600160e51b62461bcd02815260040180806020018281038252602381526020018061271d6023913960400191505060405180910390fd5b611ee6816040518060600160405280602681526020016127cc602691396001600160a01b038616600090815260336020526040902054919063ffffffff611f7716565b6001600160a01b038085166000908152603360205260408082209390935590841681522054611f1b908263ffffffff61201116565b6001600160a01b0380841660008181526033602090815260409182902094909455805185815290519193928716927fddf252ad1be2c89b69c2b068fc378daa952ba7f163c4a11628f55a4df523b3ef92918290030190a3505050565b6000818484111561200957604051600160e51b62461bcd0281526004018080602001828103825283818151815260200191508051906020019080838360005b83811015611fce578181015183820152602001611fb6565b50505050905090810190601f168015611ffb5780820380516001836020036101000a031916815260200191505b509250505060405180910390fd5b505050900390565b600082820183811015611e085760408051600160e51b62461bcd02815260206004820152601b60248201527f536166654d6174683a206164646974696f6e206f766572666c6f770000000000604482015290519081900360640190fd5b6001600160a01b03821615156120b857604051600160e51b62461bcd0281526004018080602001828103825260218152602001806129026021913960400191505060405180910390fd5b6120fb81604051806060016040528060228152602001612740602291396001600160a01b038516600090815260336020526040902054919063ffffffff611f7716565b6001600160a01b038316600090815260336020526040902055603554612127908263ffffffff611dc616565b6035556040805182815290516000916001600160a01b038516917fddf252ad1be2c89b69c2b068fc378daa952ba7f163c4a11628f55a4df523b3ef9181900360200190a35050565b604080516001600160a01b038416602482015260448082018490528251808303909101815260649091019091526020810180516001600160e01b0316600160e01b63a9059cbb021790526121c490849061240e565b505050565b60008215156121da57506000610975565b8282028284828115156121e957fe5b0414611e0857604051600160e51b62461bcd02815260040180806020018281038252602181526020018061286b6021913960400191505060405180910390fd5b6000611e0883836040518060400160405280601a81526020017f536166654d6174683a206469766973696f6e206279207a65726f0000000000008152506125db565b6001600160a01b03821615156122cb5760408051600160e51b62461bcd02815260206004820152601f60248201527f45524332303a206d696e7420746f20746865207a65726f206164647265737300604482015290519081900360640190fd5b6035546122de908263ffffffff61201116565b6035556001600160a01b03821660009081526033602052604090205461230a908263ffffffff61201116565b6001600160a01b03831660008181526033602090815260408083209490945583518581529351929391927fddf252ad1be2c89b69c2b068fc378daa952ba7f163c4a11628f55a4df523b3ef9281900390910190a35050565b303b1590565b6001600160a01b03811615156123b257604051600160e51b62461bcd0281526004018080602001828103825260268152602001806127846026913960400191505060405180910390fd5b6068546040516001600160a01b038084169216907f8be0079c531659141344cd1fd0a4f28419497f9722a3daafe3b4186f6b6457e090600090a3606880546001600160a01b0319166001600160a01b0392909216919091179055565b612420826001600160a01b0316612648565b15156124765760408051600160e51b62461bcd02815260206004820152601f60248201527f5361666545524332303a2063616c6c20746f206e6f6e2d636f6e747261637400604482015290519081900360640190fd5b60006060836001600160a01b0316836040518082805190602001908083835b602083106124b45780518252601f199092019160209182019101612495565b6001836020036101000a0380198251168184511680821785525050505050509050019150506000604051808303816000865af19150503d8060008114612516576040519150601f19603f3d011682016040523d82523d6000602084013e61251b565b606091505b50915091508115156125775760408051600160e51b62461bcd02815260206004820181905260248201527f5361666545524332303a206c6f772d6c6576656c2063616c6c206661696c6564604482015290519081900360640190fd5b8051156125d55780806020019051602081101561259357600080fd5b505115156125d557604051600160e51b62461bcd02815260040180806020018281038252602a815260200180612991602a913960400191505060405180910390fd5b50505050565b60008183151561263057604051600160e51b62461bcd02815260040180806020018281038252838181518152602001915080519060200190808383600083811015611fce578181015183820152602001611fb6565b506000838581151561263e57fe5b0495945050505050565b6000813f7fc5d2460186f7233c927e7db2dcc703c0e500b653ca82273b7bfad8045d85a47081811480159061267c57508115155b949350505050565b828054600181600116156101000203166002900490600052602060002090601f016020900481019282601f106126c557805160ff19168380011785556126f2565b828001600101855582156126f2579182015b828111156126f25782518255916020019190600101906126d7565b506126fe929150612702565b5090565b610bb591905b808211156126fe576000815560010161270856fe45524332303a207472616e7366657220746f20746865207a65726f206164647265737345524332303a206275726e20616d6f756e7420657863656564732062616c616e636552656c3a206e6f7420656e6f75676820746f6b656e7320696e20636f6e74726163744f776e61626c653a206e6577206f776e657220697320746865207a65726f206164647265737345524332303a20617070726f766520746f20746865207a65726f206164647265737345524332303a207472616e7366657220616d6f756e7420657863656564732062616c616e636552656c3a206c657373207468616e206f6e65206461792066726f6d206c61737420726577617264454950373132446f6d61696e28737472696e67206e616d652c737472696e672076657273696f6e2c75696e7432353620636861696e49642c6164647265737320766572696679696e67436f6e747261637429536166654d6174683a206d756c7469706c69636174696f6e206f766572666c6f7745524332303a207472616e7366657220616d6f756e74206578636565647320616c6c6f77616e63654f776e61626c653a2063616c6c6572206973206e6f7420746865206f776e6572436f6e747261637420696e7374616e63652068617320616c7265616479206265656e20696e697469616c697a656445524332303a206275726e2066726f6d20746865207a65726f206164647265737345524332303a207472616e736665722066726f6d20746865207a65726f206164647265737345524332303a20617070726f76652066726f6d20746865207a65726f206164647265737352656c3a20616c6c6f6361746564526577617264732063616e6e6f742064656372656173655361666545524332303a204552433230206f7065726174696f6e20646964206e6f74207375636365656452656c3a207633206e6f7420696e697469616c697a656400000000000000000052656c3a2063616e6e6f7420737765657020616c6c6f63617465645265776172647352656c3a2063616e6e6f74206275726e20616c6c6f636174656420746f6b656e7345524332303a2064656372656173656420616c6c6f77616e63652062656c6f77207a65726f52656c3a20696e666c6174696f6e2073686f756c64206e6f7420657863656564206d6178a165627a7a72305820ff9862da63455f3701971a1e580d74788c248c7af45388e2dbaa19094ac986470029"
}