{
  "address": "0xcbEAF3BDe82155F56486Fb5a1072cb8baAf547cc",
  "abi": [
    {
      "inputs": [
        {
          "internalType": "contract ERC20Votes",
          "name": "_token",
          "type": "address"
        },
        {
          "internalType": "contract TimelockController",
          "name": "_timelock",
          "type": "address"
        }
      ],
      "stateMutability": "nonpayable",
      "type": "constructor"
    },
    {
      "anonymous": false,
      "inputs": [
        {
          "indexed": false,
          "internalType": "uint256",
          "name": "proposalId",
          "type": "uint256"
        }
      ],
      "name": "ProposalCanceled",
      "type": "event"
    },
    {
      "anonymous": false,
      "inputs": [
        {
          "indexed": false,
          "internalType": "uint256",
          "name": "proposalId",
          "type": "uint256"
        },
        {
          "indexed": false,
          "internalType": "address",
          "name": "proposer",
          "type": "address"
        },
        {
          "indexed": false,
          "internalType": "address[]",
          "name": "targets",
          "type": "address[]"
        },
        {
          "indexed": false,
          "internalType": "uint256[]",
          "name": "values",
          "type": "uint256[]"
        },
        {
          "indexed": false,
          "internalType": "string[]",
          "name": "signatures",
          "type": "string[]"
        },
        {
          "indexed": false,
          "internalType": "bytes[]",
          "name": "calldatas",
          "type": "bytes[]"
        },
        {
          "indexed": false,
          "internalType": "uint256",
          "name": "startBlock",
          "type": "uint256"
        },
        {
          "indexed": false,
          "internalType": "uint256",
          "name": "endBlock",
          "type": "uint256"
        },
        {
          "indexed": false,
          "internalType": "string",
          "name": "description",
          "type": "string"
        }
      ],
      "name": "ProposalCreated",
      "type": "event"
    },
    {
      "anonymous": false,
      "inputs": [
        {
          "indexed": false,
          "internalType": "uint256",
          "name": "proposalId",
          "type": "uint256"
        }
      ],
      "name": "ProposalExecuted",
      "type": "event"
    },
    {
      "anonymous": false,
      "inputs": [
        {
          "indexed": false,
          "internalType": "uint256",
          "name": "proposalId",
          "type": "uint256"
        },
        {
          "indexed": false,
          "internalType": "uint256",
          "name": "eta",
          "type": "uint256"
        }
      ],
      "name": "ProposalQueued",
      "type": "event"
    },
    {
      "anonymous": false,
      "inputs": [
        {
          "indexed": false,
          "internalType": "uint256",
          "name": "oldQuorumNumerator",
          "type": "uint256"
        },
        {
          "indexed": false,
          "internalType": "uint256",
          "name": "newQuorumNumerator",
          "type": "uint256"
        }
      ],
      "name": "QuorumNumeratorUpdated",
      "type": "event"
    },
    {
      "anonymous": false,
      "inputs": [
        {
          "indexed": false,
          "internalType": "address",
          "name": "oldTimelock",
          "type": "address"
        },
        {
          "indexed": false,
          "internalType": "address",
          "name": "newTimelock",
          "type": "address"
        }
      ],
      "name": "TimelockChange",
      "type": "event"
    },
    {
      "anonymous": false,
      "inputs": [
        {
          "indexed": true,
          "internalType": "address",
          "name": "voter",
          "type": "address"
        },
        {
          "indexed": false,
          "internalType": "uint256",
          "name": "proposalId",
          "type": "uint256"
        },
        {
          "indexed": false,
          "internalType": "uint8",
          "name": "support",
          "type": "uint8"
        },
        {
          "indexed": false,
          "internalType": "uint256",
          "name": "weight",
          "type": "uint256"
        },
        {
          "indexed": false,
          "internalType": "string",
          "name": "reason",
          "type": "string"
        }
      ],
      "name": "VoteCast",
      "type": "event"
    },
    {
      "inputs": [],
      "name": "BALLOT_TYPEHASH",
      "outputs": [
        {
          "internalType": "bytes32",
          "name": "",
          "type": "bytes32"
        }
      ],
      "stateMutability": "view",
      "type": "function"
    },
    {
      "inputs": [],
      "name": "COUNTING_MODE",
      "outputs": [
        {
          "internalType": "string",
          "name": "",
          "type": "string"
        }
      ],
      "stateMutability": "pure",
      "type": "function"
    },
    {
      "inputs": [
        {
          "internalType": "uint256",
          "name": "proposalId",
          "type": "uint256"
        },
        {
          "internalType": "uint8",
          "name": "support",
          "type": "uint8"
        }
      ],
      "name": "castVote",
      "outputs": [
        {
          "internalType": "uint256",
          "name": "",
          "type": "uint256"
        }
      ],
      "stateMutability": "nonpayable",
      "type": "function"
    },
    {
      "inputs": [
        {
          "internalType": "uint256",
          "name": "proposalId",
          "type": "uint256"
        },
        {
          "internalType": "uint8",
          "name": "support",
          "type": "uint8"
        },
        {
          "internalType": "uint8",
          "name": "v",
          "type": "uint8"
        },
        {
          "internalType": "bytes32",
          "name": "r",
          "type": "bytes32"
        },
        {
          "internalType": "bytes32",
          "name": "s",
          "type": "bytes32"
        }
      ],
      "name": "castVoteBySig",
      "outputs": [
        {
          "internalType": "uint256",
          "name": "",
          "type": "uint256"
        }
      ],
      "stateMutability": "nonpayable",
      "type": "function"
    },
    {
      "inputs": [
        {
          "internalType": "uint256",
          "name": "proposalId",
          "type": "uint256"
        },
        {
          "internalType": "uint8",
          "name": "support",
          "type": "uint8"
        },
        {
          "internalType": "string",
          "name": "reason",
          "type": "string"
        }
      ],
      "name": "castVoteWithReason",
      "outputs": [
        {
          "internalType": "uint256",
          "name": "",
          "type": "uint256"
        }
      ],
      "stateMutability": "nonpayable",
      "type": "function"
    },
    {
      "inputs": [
        {
          "internalType": "address[]",
          "name": "targets",
          "type": "address[]"
        },
        {
          "internalType": "uint256[]",
          "name": "values",
          "type": "uint256[]"
        },
        {
          "internalType": "bytes[]",
          "name": "calldatas",
          "type": "bytes[]"
        },
        {
          "internalType": "bytes32",
          "name": "descriptionHash",
          "type": "bytes32"
        }
      ],
      "name": "execute",
      "outputs": [
        {
          "internalType": "uint256",
          "name": "",
          "type": "uint256"
        }
      ],
      "stateMutability": "payable",
      "type": "function"
    },
    {
      "inputs": [
        {
          "internalType": "address",
          "name": "account",
          "type": "address"
        },
        {
          "internalType": "uint256",
          "name": "blockNumber",
          "type": "uint256"
        }
      ],
      "name": "getVotes",
      "outputs": [
        {
          "internalType": "uint256",
          "name": "",
          "type": "uint256"
        }
      ],
      "stateMutability": "view",
      "type": "function"
    },
    {
      "inputs": [
        {
          "internalType": "uint256",
          "name": "proposalId",
          "type": "uint256"
        },
        {
          "internalType": "address",
          "name": "account",
          "type": "address"
        }
      ],
      "name": "hasVoted",
      "outputs": [
        {
          "internalType": "bool",
          "name": "",
          "type": "bool"
        }
      ],
      "stateMutability": "view",
      "type": "function"
    },
    {
      "inputs": [
        {
          "internalType": "address[]",
          "name": "targets",
          "type": "address[]"
        },
        {
          "internalType": "uint256[]",
          "name": "values",
          "type": "uint256[]"
        },
        {
          "internalType": "bytes[]",
          "name": "calldatas",
          "type": "bytes[]"
        },
        {
          "internalType": "bytes32",
          "name": "descriptionHash",
          "type": "bytes32"
        }
      ],
      "name": "hashProposal",
      "outputs": [
        {
          "internalType": "uint256",
          "name": "",
          "type": "uint256"
        }
      ],
      "stateMutability": "pure",
      "type": "function"
    },
    {
      "inputs": [],
      "name": "name",
      "outputs": [
        {
          "internalType": "string",
          "name": "",
          "type": "string"
        }
      ],
      "stateMutability": "view",
      "type": "function"
    },
    {
      "inputs": [
        {
          "internalType": "uint256",
          "name": "proposalId",
          "type": "uint256"
        }
      ],
      "name": "proposalDeadline",
      "outputs": [
        {
          "internalType": "uint256",
          "name": "",
          "type": "uint256"
        }
      ],
      "stateMutability": "view",
      "type": "function"
    },
    {
      "inputs": [
        {
          "internalType": "uint256",
          "name": "proposalId",
          "type": "uint256"
        }
      ],
      "name": "proposalEta",
      "outputs": [
        {
          "internalType": "uint256",
          "name": "",
          "type": "uint256"
        }
      ],
      "stateMutability": "view",
      "type": "function"
    },
    {
      "inputs": [
        {
          "internalType": "uint256",
          "name": "proposalId",
          "type": "uint256"
        }
      ],
      "name": "proposalSnapshot",
      "outputs": [
        {
          "internalType": "uint256",
          "name": "",
          "type": "uint256"
        }
      ],
      "stateMutability": "view",
      "type": "function"
    },
    {
      "inputs": [],
      "name": "proposalThreshold",
      "outputs": [
        {
          "internalType": "uint256",
          "name": "",
          "type": "uint256"
        }
      ],
      "stateMutability": "view",
      "type": "function"
    },
    {
      "inputs": [
        {
          "internalType": "uint256",
          "name": "proposalId",
          "type": "uint256"
        }
      ],
      "name": "proposalVotes",
      "outputs": [
        {
          "internalType": "uint256",
          "name": "againstVotes",
          "type": "uint256"
        },
        {
          "internalType": "uint256",
          "name": "forVotes",
          "type": "uint256"
        },
        {
          "internalType": "uint256",
          "name": "abstainVotes",
          "type": "uint256"
        }
      ],
      "stateMutability": "view",
      "type": "function"
    },
    {
      "inputs": [
        {
          "internalType": "address[]",
          "name": "targets",
          "type": "address[]"
        },
        {
          "internalType": "uint256[]",
          "name": "values",
          "type": "uint256[]"
        },
        {
          "internalType": "bytes[]",
          "name": "calldatas",
          "type": "bytes[]"
        },
        {
          "internalType": "string",
          "name": "description",
          "type": "string"
        }
      ],
      "name": "propose",
      "outputs": [
        {
          "internalType": "uint256",
          "name": "",
          "type": "uint256"
        }
      ],
      "stateMutability": "nonpayable",
      "type": "function"
    },
    {
      "inputs": [
        {
          "internalType": "address[]",
          "name": "targets",
          "type": "address[]"
        },
        {
          "internalType": "uint256[]",
          "name": "values",
          "type": "uint256[]"
        },
        {
          "internalType": "bytes[]",
          "name": "calldatas",
          "type": "bytes[]"
        },
        {
          "internalType": "bytes32",
          "name": "descriptionHash",
          "type": "bytes32"
        }
      ],
      "name": "queue",
      "outputs": [
        {
          "internalType": "uint256",
          "name": "",
          "type": "uint256"
        }
      ],
      "stateMutability": "nonpayable",
      "type": "function"
    },
    {
      "inputs": [
        {
          "internalType": "uint256",
          "name": "blockNumber",
          "type": "uint256"
        }
      ],
      "name": "quorum",
      "outputs": [
        {
          "internalType": "uint256",
          "name": "",
          "type": "uint256"
        }
      ],
      "stateMutability": "view",
      "type": "function"
    },
    {
      "inputs": [],
      "name": "quorumDenominator",
      "outputs": [
        {
          "internalType": "uint256",
          "name": "",
          "type": "uint256"
        }
      ],
      "stateMutability": "view",
      "type": "function"
    },
    {
      "inputs": [],
      "name": "quorumNumerator",
      "outputs": [
        {
          "internalType": "uint256",
          "name": "",
          "type": "uint256"
        }
      ],
      "stateMutability": "view",
      "type": "function"
    },
    {
      "inputs": [
        {
          "internalType": "uint256",
          "name": "proposalThreshold_",
          "type": "uint256"
        }
      ],
      "name": "setProposalThreshold",
      "outputs": [],
      "stateMutability": "nonpayable",
      "type": "function"
    },
    {
      "inputs": [
        {
          "internalType": "uint256",
          "name": "votingDelay_",
          "type": "uint256"
        }
      ],
      "name": "setVotingDelay",
      "outputs": [],
      "stateMutability": "nonpayable",
      "type": "function"
    },
    {
      "inputs": [
        {
          "internalType": "uint256",
          "name": "votingPeriod_",
          "type": "uint256"
        }
      ],
      "name": "setVotingPeriod",
      "outputs": [],
      "stateMutability": "nonpayable",
      "type": "function"
    },
    {
      "inputs": [
        {
          "internalType": "uint256",
          "name": "proposalId",
          "type": "uint256"
        }
      ],
      "name": "state",
      "outputs": [
        {
          "internalType": "enum IGovernor.ProposalState",
          "name": "",
          "type": "uint8"
        }
      ],
      "stateMutability": "view",
      "type": "function"
    },
    {
      "inputs": [
        {
          "internalType": "bytes4",
          "name": "interfaceId",
          "type": "bytes4"
        }
      ],
      "name": "supportsInterface",
      "outputs": [
        {
          "internalType": "bool",
          "name": "",
          "type": "bool"
        }
      ],
      "stateMutability": "view",
      "type": "function"
    },
    {
      "inputs": [],
      "name": "timelock",
      "outputs": [
        {
          "internalType": "address",
          "name": "",
          "type": "address"
        }
      ],
      "stateMutability": "view",
      "type": "function"
    },
    {
      "inputs": [],
      "name": "token",
      "outputs": [
        {
          "internalType": "contract ERC20Votes",
          "name": "",
          "type": "address"
        }
      ],
      "stateMutability": "view",
      "type": "function"
    },
    {
      "inputs": [
        {
          "internalType": "uint256",
          "name": "newQuorumNumerator",
          "type": "uint256"
        }
      ],
      "name": "updateQuorumNumerator",
      "outputs": [],
      "stateMutability": "nonpayable",
      "type": "function"
    },
    {
      "inputs": [
        {
          "internalType": "contract TimelockController",
          "name": "newTimelock",
          "type": "address"
        }
      ],
      "name": "updateTimelock",
      "outputs": [],
      "stateMutability": "nonpayable",
      "type": "function"
    },
    {
      "inputs": [],
      "name": "version",
      "outputs": [
        {
          "internalType": "string",
          "name": "",
          "type": "string"
        }
      ],
      "stateMutability": "view",
      "type": "function"
    },
    {
      "inputs": [],
      "name": "votingDelay",
      "outputs": [
        {
          "internalType": "uint256",
          "name": "",
          "type": "uint256"
        }
      ],
      "stateMutability": "view",
      "type": "function"
    },
    {
      "inputs": [],
      "name": "votingPeriod",
      "outputs": [
        {
          "internalType": "uint256",
          "name": "",
          "type": "uint256"
        }
      ],
      "stateMutability": "view",
      "type": "function"
    }
  ],
  "transactionHash": "0xd556008b428010ecb9b7bd8eef4e3e0c49e82598efb18b97bf6e13c1bbc1eada",
  "args": [
    "0xc351628EB244ec633d5f21fBD6621e1a683B1181",
    "0xFD471836031dc5108809D173A067e8486B9047A3"
  ],
  "solcInputHash": "15bc099063462943900f081628d8658d",
  "bytecode": "0x610140604052600160065561b2fa60075569021e19e0c9bab24000006008553480156200002b57600080fd5b5060405162003418380380620034188339810160408190526200004e916200034b565b806004836040518060400160405280600b81526020016a2932b623b7bb32b93737b960a91b81525080620000876200015460201b60201c565b815160209283012081519183019190912060c082815260e08290524660a0818152604080517f8b73c3c69bb8fe3d512ecc4cf759cc79239f7b179b0ffacaa9a75d522b39400f818901819052818301979097526060810195909552608080860193909352308583015280518086039092018252939092019092528051908401209052610100528151620001219160009190840190620002a5565b505060601b6001600160601b031916610120526200013f816200016f565b506200014b816200023c565b505050620003e0565b6040805180820190915260018152603160f81b602082015290565b6064811115620001f75760405162461bcd60e51b815260206004820152604360248201527f476f7665726e6f72566f74657351756f72756d4672616374696f6e3a2071756f60448201527f72756d4e756d657261746f72206f7665722071756f72756d44656e6f6d696e616064820152623a37b960e91b608482015260a40160405180910390fd5b600380549082905560408051828152602081018490527f0553476bf02ef2726e8ce5ced78d63e26e602e4a2257b1f559418e24b4633997910160405180910390a15050565b600454604080516001600160a01b03928316815291831660208301527f08f74ea46ef7894f65eabfb5e6e695de773a000b47c529ab559178069b226401910160405180910390a1600480546001600160a01b0319166001600160a01b0392909216919091179055565b828054620002b3906200038a565b90600052602060002090601f016020900481019282620002d7576000855562000322565b82601f10620002f257805160ff191683800117855562000322565b8280016001018555821562000322579182015b828111156200032257825182559160200191906001019062000305565b506200033092915062000334565b5090565b5b8082111562000330576000815560010162000335565b600080604083850312156200035f57600080fd5b82516200036c81620003c7565b60208401519092506200037f81620003c7565b809150509250929050565b600181811c908216806200039f57607f821691505b60208210811415620003c157634e487b7160e01b600052602260045260246000fd5b50919050565b6001600160a01b0381168114620003dd57600080fd5b50565b60805160a05160c05160e051610100516101205160601c612fd762000441600039600081816106c2015281816116f101526117a3015260006119cc01526000611a1b015260006119f60152600061197a015260006119a30152612fd76000f3fe6080604052600436106101e35760003560e01c80637d5e81e211610102578063d33219b411610095578063eb9019d411610064578063eb9019d414610650578063ece40cc114610670578063f8ce560a14610690578063fc0c546a146106b057600080fd5b8063d33219b41461056a578063dd4e2ba5146105b6578063deaaa7cc146105fc578063ea0217cf1461063057600080fd5b8063ab58fb8e116100d1578063ab58fb8e146104f5578063b58131b014610515578063c01f9e371461052a578063c59057e41461054a57600080fd5b80637d5e81e21461048c57806397c3d334146104ac578063a7713a70146104c0578063a890c910146104d557600080fd5b80633bccf4fd1161017a57806354fd4d501161014957806354fd4d50146103e6578063567813881461042c57806370b0f6601461044c5780637b3c71d31461046c57600080fd5b80633bccf4fd146102e85780633e4f49e6146103085780634385963214610335578063544ffc9c1461038c57600080fd5b8063160cbed7116101b6578063160cbed7146102805780632656227d146102a05780632d63f693146102b35780633932abb1146102d357600080fd5b806301ffc9a7146101e857806302a251a31461021d57806306f3f9e61461023c57806306fdde031461025e575b600080fd5b3480156101f457600080fd5b50610208610203366004612854565b6106e4565b60405190151581526020015b60405180910390f35b34801561022957600080fd5b506007545b604051908152602001610214565b34801561024857600080fd5b5061025c6102573660046128b3565b6106f5565b005b34801561026a57600080fd5b50610273610788565b6040516102149190612c42565b34801561028c57600080fd5b5061022e61029b3660046126c8565b61081a565b61022e6102ae3660046126c8565b610afe565b3480156102bf57600080fd5b5061022e6102ce3660046128b3565b610c45565b3480156102df57600080fd5b5060065461022e565b3480156102f457600080fd5b5061022e6103033660046129af565b610c7e565b34801561031457600080fd5b506103286103233660046128b3565b610d12565b6040516102149190612c01565b34801561034157600080fd5b506102086103503660046128cc565b600082815260026020908152604080832073ffffffffffffffffffffffffffffffffffffffff8516845260030190915290205460ff1692915050565b34801561039857600080fd5b506103cb6103a73660046128b3565b60008181526002602081905260409091208054600182015491909201549193909250565b60408051938452602084019290925290820152606001610214565b3480156103f257600080fd5b5060408051808201909152600181527f31000000000000000000000000000000000000000000000000000000000000006020820152610273565b34801561043857600080fd5b5061022e6104473660046128fc565b610d1d565b34801561045857600080fd5b5061025c6104673660046128b3565b610d46565b34801561047857600080fd5b5061022e610487366004612928565b610dcd565b34801561049857600080fd5b5061022e6104a7366004612758565b610e1f565b3480156104b857600080fd5b50606461022e565b3480156104cc57600080fd5b5060035461022e565b3480156104e157600080fd5b5061025c6104f0366004612896565b610e36565b34801561050157600080fd5b5061022e6105103660046128b3565b610ec1565b34801561052157600080fd5b5060085461022e565b34801561053657600080fd5b5061022e6105453660046128b3565b610f8b565b34801561055657600080fd5b5061022e6105653660046126c8565b610fbb565b34801561057657600080fd5b5060045473ffffffffffffffffffffffffffffffffffffffff165b60405173ffffffffffffffffffffffffffffffffffffffff9091168152602001610214565b3480156105c257600080fd5b506040805180820190915260208082527f737570706f72743d627261766f2671756f72756d3d666f722c6162737461696e90820152610273565b34801561060857600080fd5b5061022e7f150214d74d59b7d1e90c73fc22ef3d991dd0a76b046543d4d80ab92d2a50328f81565b34801561063c57600080fd5b5061025c61064b3660046128b3565b610ff5565b34801561065c57600080fd5b5061022e61066b36600461269c565b61107c565b34801561067c57600080fd5b5061025c61068b3660046128b3565b611088565b34801561069c57600080fd5b5061022e6106ab3660046128b3565b61110f565b3480156106bc57600080fd5b506105917f000000000000000000000000000000000000000000000000000000000000000081565b60006106ef8261111a565b92915050565b6106fd611170565b73ffffffffffffffffffffffffffffffffffffffff163373ffffffffffffffffffffffffffffffffffffffff161461077c5760405162461bcd60e51b815260206004820152601860248201527f476f7665726e6f723a206f6e6c79476f7665726e616e6365000000000000000060448201526064015b60405180910390fd5b61078581611196565b50565b60606000805461079790612ea4565b80601f01602080910402602001604051908101604052809291908181526020018280546107c390612ea4565b80156108105780601f106107e557610100808354040283529160200191610810565b820191906000526020600020905b8154815290600101906020018083116107f357829003601f168201915b5050505050905090565b60008061082986868686610fbb565b9050600461083682610d12565b600781111561084757610847612f21565b146108ba5760405162461bcd60e51b815260206004820152602160248201527f476f7665726e6f723a2070726f706f73616c206e6f742073756363657373667560448201527f6c000000000000000000000000000000000000000000000000000000000000006064820152608401610773565b6000600460009054906101000a900473ffffffffffffffffffffffffffffffffffffffff1673ffffffffffffffffffffffffffffffffffffffff1663f27a0c926040518163ffffffff1660e01b815260040160206040518083038186803b15801561092457600080fd5b505afa158015610938573d6000803e3d6000fd5b505050506040513d601f19601f8201168201806040525081019061095c919061283b565b600480546040517fb1c5f42700000000000000000000000000000000000000000000000000000000815292935073ffffffffffffffffffffffffffffffffffffffff169163b1c5f427916109bb918b918b918b916000918c9101612b5b565b60206040518083038186803b1580156109d357600080fd5b505afa1580156109e7573d6000803e3d6000fd5b505050506040513d601f19601f82011682018060405250810190610a0b919061283b565b600083815260056020526040808220929092556004805492517f8f2a0bb000000000000000000000000000000000000000000000000000000000815273ffffffffffffffffffffffffffffffffffffffff90931692638f2a0bb092610a7c928c928c928c9290918c918a9101612ba9565b600060405180830381600087803b158015610a9657600080fd5b505af1158015610aaa573d6000803e3d6000fd5b505050507f9a2e42fd6722813d69113e7d0079d3d940171428df7373df9c7f7617cfda2892828242610adc9190612dd1565b6040805192835260208301919091520160405180910390a15095945050505050565b600080610b0d86868686610fbb565b90506000610b1a82610d12565b90506004816007811115610b3057610b30612f21565b1480610b4d57506005816007811115610b4b57610b4b612f21565b145b610bbf5760405162461bcd60e51b815260206004820152602160248201527f476f7665726e6f723a2070726f706f73616c206e6f742073756363657373667560448201527f6c000000000000000000000000000000000000000000000000000000000000006064820152608401610773565b60008281526001602081815260409283902060020180547fffffffffffffffffffffffffffffffffffffffffffffffffffffffffffffff001690921790915590518381527f712ae1383f79ac853f8d882153778e0260ef8f03b504e2866e0593e04d2b291f910160405180910390a1610c3b8288888888611278565b5095945050505050565b600081815260016020908152604080832081519283019091525467ffffffffffffffff16908190525b67ffffffffffffffff1692915050565b604080517f150214d74d59b7d1e90c73fc22ef3d991dd0a76b046543d4d80ab92d2a50328f602082015290810186905260ff851660608201526000908190610cea90610ce2906080016040516020818303038152906040528051906020012061128c565b8686866112f5565b9050610d0787828860405180602001604052806000815250611313565b979650505050505050565b60006106ef82611446565b600080339050610d3e84828560405180602001604052806000815250611313565b949350505050565b610d4e611170565b73ffffffffffffffffffffffffffffffffffffffff163373ffffffffffffffffffffffffffffffffffffffff1614610dc85760405162461bcd60e51b815260206004820152601860248201527f476f7665726e6f723a206f6e6c79476f7665726e616e636500000000000000006044820152606401610773565b600655565b600080339050610e1586828787878080601f01602080910402602001604051908101604052809392919081815260200183838082843760009201919091525061131392505050565b9695505050505050565b6000610e2d85858585611547565b95945050505050565b610e3e611170565b73ffffffffffffffffffffffffffffffffffffffff163373ffffffffffffffffffffffffffffffffffffffff1614610eb85760405162461bcd60e51b815260206004820152601860248201527f476f7665726e6f723a206f6e6c79476f7665726e616e636500000000000000006044820152606401610773565b61078581611607565b600480546000838152600560205260408082205490517fd45c44350000000000000000000000000000000000000000000000000000000081529384015291829173ffffffffffffffffffffffffffffffffffffffff169063d45c44359060240160206040518083038186803b158015610f3957600080fd5b505afa158015610f4d573d6000803e3d6000fd5b505050506040513d601f19601f82011682018060405250810190610f71919061283b565b905080600114610f815780610f84565b60005b9392505050565b600081815260016020818152604080842081519283019091529091015467ffffffffffffffff1690819052610c6e565b600084848484604051602001610fd49493929190612b10565b60408051601f19818403018152919052805160209091012095945050505050565b610ffd611170565b73ffffffffffffffffffffffffffffffffffffffff163373ffffffffffffffffffffffffffffffffffffffff16146110775760405162461bcd60e51b815260206004820152601860248201527f476f7665726e6f723a206f6e6c79476f7665726e616e636500000000000000006044820152606401610773565b600755565b6000610f8483836116a2565b611090611170565b73ffffffffffffffffffffffffffffffffffffffff163373ffffffffffffffffffffffffffffffffffffffff161461110a5760405162461bcd60e51b815260206004820152601860248201527f476f7665726e6f723a206f6e6c79476f7665726e616e636500000000000000006044820152606401610773565b600855565b60006106ef8261176d565b60007fffffffff0000000000000000000000000000000000000000000000000000000082167f6e665ced0000000000000000000000000000000000000000000000000000000014806106ef57506106ef82611846565b600061119160045473ffffffffffffffffffffffffffffffffffffffff1690565b905090565b60648111156112335760405162461bcd60e51b815260206004820152604360248201527f476f7665726e6f72566f74657351756f72756d4672616374696f6e3a2071756f60448201527f72756d4e756d657261746f72206f7665722071756f72756d44656e6f6d696e6160648201527f746f720000000000000000000000000000000000000000000000000000000000608482015260a401610773565b600380549082905560408051828152602081018490527f0553476bf02ef2726e8ce5ced78d63e26e602e4a2257b1f559418e24b4633997910160405180910390a15050565b61128585858585856118dd565b5050505050565b60006106ef611299611976565b836040517f19010000000000000000000000000000000000000000000000000000000000006020820152602281018390526042810182905260009060620160405160208183030381529060405280519060200120905092915050565b600080600061130687878787611a69565b91509150610c3b81611b63565b600084815260016020819052604082209061132d87610d12565b600781111561133e5761133e612f21565b146113b15760405162461bcd60e51b815260206004820152602360248201527f476f7665726e6f723a20766f7465206e6f742063757272656e746c792061637460448201527f69766500000000000000000000000000000000000000000000000000000000006064820152608401610773565b6040805160208101909152815467ffffffffffffffff16908190526000906113da90879061107c565b90506113e887878784611d54565b8573ffffffffffffffffffffffffffffffffffffffff167fb8e138887d0aa13bab447e82de9d5c1777041ecd21ca36ba824ff1e6c07ddda4888784886040516114349493929190612d54565b60405180910390a29695505050505050565b60008061145283611f29565b9050600481600781111561146857611468612f21565b146114735792915050565b6000838152600560205260409020548061148e575092915050565b600480546040517f2ab0f52900000000000000000000000000000000000000000000000000000000815291820183905273ffffffffffffffffffffffffffffffffffffffff1690632ab0f5299060240160206040518083038186803b1580156114f657600080fd5b505afa15801561150a573d6000803e3d6000fd5b505050506040513d601f19601f8201168201806040525081019061152e9190612819565b1561153d575060079392505050565b5060059392505050565b600061155260085490565b6115613361066b600143612e8d565b10156115fb5760405162461bcd60e51b815260206004820152604360248201527f476f7665726e6f72436f6d7061746962696c697479427261766f3a2070726f7060448201527f6f73657220766f7465732062656c6f772070726f706f73616c2074687265736860648201527f6f6c640000000000000000000000000000000000000000000000000000000000608482015260a401610773565b610e2d8585858561208f565b6004546040805173ffffffffffffffffffffffffffffffffffffffff928316815291831660208301527f08f74ea46ef7894f65eabfb5e6e695de773a000b47c529ab559178069b226401910160405180910390a1600480547fffffffffffffffffffffffff00000000000000000000000000000000000000001673ffffffffffffffffffffffffffffffffffffffff92909216919091179055565b6040517f3a46b1a800000000000000000000000000000000000000000000000000000000815273ffffffffffffffffffffffffffffffffffffffff8381166004830152602482018390526000917f000000000000000000000000000000000000000000000000000000000000000090911690633a46b1a89060440160206040518083038186803b15801561173557600080fd5b505afa158015611749573d6000803e3d6000fd5b505050506040513d601f19601f82011682018060405250810190610f84919061283b565b600060646003546040517f8e539e8c000000000000000000000000000000000000000000000000000000008152600481018590527f000000000000000000000000000000000000000000000000000000000000000073ffffffffffffffffffffffffffffffffffffffff1690638e539e8c9060240160206040518083038186803b1580156117fa57600080fd5b505afa15801561180e573d6000803e3d6000fd5b505050506040513d601f19601f82011682018060405250810190611832919061283b565b61183c9190612e50565b6106ef9190612e15565b60007fffffffff0000000000000000000000000000000000000000000000000000000082167fbf26d8970000000000000000000000000000000000000000000000000000000014806106ef57507f01ffc9a7000000000000000000000000000000000000000000000000000000007fffffffff000000000000000000000000000000000000000000000000000000008316146106ef565b600480546040517fe38335e500000000000000000000000000000000000000000000000000000000815273ffffffffffffffffffffffffffffffffffffffff9091169163e38335e591349161193d918991899189916000918a9101612b5b565b6000604051808303818588803b15801561195657600080fd5b505af115801561196a573d6000803e3d6000fd5b50505050505050505050565b60007f00000000000000000000000000000000000000000000000000000000000000004614156119c557507f000000000000000000000000000000000000000000000000000000000000000090565b50604080517f00000000000000000000000000000000000000000000000000000000000000006020808301919091527f0000000000000000000000000000000000000000000000000000000000000000828401527f000000000000000000000000000000000000000000000000000000000000000060608301524660808301523060a0808401919091528351808403909101815260c0909201909252805191012090565b6000807f7fffffffffffffffffffffffffffffff5d576e7357a4501ddfe92f46681b20a0831115611aa05750600090506003611b5a565b8460ff16601b14158015611ab857508460ff16601c14155b15611ac95750600090506004611b5a565b6040805160008082526020820180845289905260ff881692820192909252606081018690526080810185905260019060a0016020604051602081039080840390855afa158015611b1d573d6000803e3d6000fd5b5050604051601f19015191505073ffffffffffffffffffffffffffffffffffffffff8116611b5357600060019250925050611b5a565b9150600090505b94509492505050565b6000816004811115611b7757611b77612f21565b1415611b805750565b6001816004811115611b9457611b94612f21565b1415611be25760405162461bcd60e51b815260206004820152601860248201527f45434453413a20696e76616c6964207369676e617475726500000000000000006044820152606401610773565b6002816004811115611bf657611bf6612f21565b1415611c445760405162461bcd60e51b815260206004820152601f60248201527f45434453413a20696e76616c6964207369676e6174757265206c656e677468006044820152606401610773565b6003816004811115611c5857611c58612f21565b1415611ccc5760405162461bcd60e51b815260206004820152602260248201527f45434453413a20696e76616c6964207369676e6174757265202773272076616c60448201527f75650000000000000000000000000000000000000000000000000000000000006064820152608401610773565b6004816004811115611ce057611ce0612f21565b14156107855760405162461bcd60e51b815260206004820152602260248201527f45434453413a20696e76616c6964207369676e6174757265202776272076616c60448201527f75650000000000000000000000000000000000000000000000000000000000006064820152608401610773565b600084815260026020908152604080832073ffffffffffffffffffffffffffffffffffffffff87168452600381019092529091205460ff1615611dff5760405162461bcd60e51b815260206004820152602760248201527f476f7665726e6f72566f74696e6753696d706c653a20766f746520616c72656160448201527f64792063617374000000000000000000000000000000000000000000000000006064820152608401610773565b73ffffffffffffffffffffffffffffffffffffffff84166000908152600382016020526040812080547fffffffffffffffffffffffffffffffffffffffffffffffffffffffffffffff0016600117905560ff168360ff161415611e7b5781816000016000828254611e709190612dd1565b909155506112859050565b60ff831660011415611e9b5781816001016000828254611e709190612dd1565b60ff831660021415611ebb5781816002016000828254611e709190612dd1565b60405162461bcd60e51b815260206004820152603560248201527f476f7665726e6f72566f74696e6753696d706c653a20696e76616c696420766160448201527f6c756520666f7220656e756d20566f74655479706500000000000000000000006064820152608401610773565b6000818152600160208181526040808420815160a081018352815467ffffffffffffffff90811660808301908152825283518086018552958301541685529283019390935260029092015460ff80821615801594840194909452610100909104161515606082015290611f9f5750600792915050565b806060015115611fb25750600292915050565b8051514367ffffffffffffffff9091161115611fd15750600092915050565b6020810151514367ffffffffffffffff9091161115611ff35750600192915050565b61200081602001516123ce565b156120415761200e836123ff565b801561202d575060008381526002602052604090208054600190910154115b612038576003610f84565b60049392505050565b60405162461bcd60e51b815260206004820152601d60248201527f476f7665726e6f723a20756e6b6e6f776e2070726f706f73616c2069640000006044820152606401610773565b50919050565b6000806120a58686868680519060200120610fbb565b9050845186511461211e5760405162461bcd60e51b815260206004820152602160248201527f476f7665726e6f723a20696e76616c69642070726f706f73616c206c656e677460448201527f68000000000000000000000000000000000000000000000000000000000000006064820152608401610773565b83518651146121955760405162461bcd60e51b815260206004820152602160248201527f476f7665726e6f723a20696e76616c69642070726f706f73616c206c656e677460448201527f68000000000000000000000000000000000000000000000000000000000000006064820152608401610773565b60008651116121e65760405162461bcd60e51b815260206004820152601860248201527f476f7665726e6f723a20656d7074792070726f706f73616c00000000000000006044820152606401610773565b6000818152600160209081526040918290208251918201909252815467ffffffffffffffff1690819052156122835760405162461bcd60e51b815260206004820152602160248201527f476f7665726e6f723a2070726f706f73616c20616c726561647920657869737460448201527f73000000000000000000000000000000000000000000000000000000000000006064820152608401610773565b600061229661229160065490565b612437565b61229f43612437565b6122a99190612de9565b905060006122b961229160075490565b6122c39083612de9565b83547fffffffffffffffffffffffffffffffffffffffffffffffff00000000000000001667ffffffffffffffff841617845590506001830180547fffffffffffffffffffffffffffffffffffffffffffffffff00000000000000001667ffffffffffffffff83161790557f7d84a6263ae0d98d3329bd7b46bb4e8d6f98cd35a7adb45c274c8b7fd5ebd5e084338b8b8d5167ffffffffffffffff81111561236c5761236c612f50565b60405190808252806020026020018201604052801561239f57816020015b606081526020019060019003908161238a5790505b508c88888e6040516123b999989796959493929190612c55565b60405180910390a15091979650505050505050565b60006123e4825167ffffffffffffffff16151590565b80156106ef575050514367ffffffffffffffff909116111590565b600081815260026020819052604082209081015460018201546124229190612dd1565b61242e6106ab85610c45565b11159392505050565b600067ffffffffffffffff8211156124b75760405162461bcd60e51b815260206004820152602660248201527f53616665436173743a2076616c756520646f65736e27742066697420696e203660448201527f34206269747300000000000000000000000000000000000000000000000000006064820152608401610773565b5090565b600067ffffffffffffffff8311156124d5576124d5612f50565b6124e86020601f19601f86011601612d7c565b90508281528383830111156124fc57600080fd5b828260208301376000602084830101529392505050565b600082601f83011261252457600080fd5b8135602061253961253483612dad565b612d7c565b80838252828201915082860187848660051b890101111561255957600080fd5b60005b8581101561258157813561256f81612f7f565b8452928401929084019060010161255c565b5090979650505050505050565b600082601f83011261259f57600080fd5b813560206125af61253483612dad565b80838252828201915082860187848660051b89010111156125cf57600080fd5b60005b8581101561258157813567ffffffffffffffff8111156125f157600080fd5b8801603f81018a1361260257600080fd5b6126138a87830135604084016124bb565b85525092840192908401906001016125d2565b600082601f83011261263757600080fd5b8135602061264761253483612dad565b80838252828201915082860187848660051b890101111561266757600080fd5b60005b858110156125815781358452928401929084019060010161266a565b803560ff8116811461269757600080fd5b919050565b600080604083850312156126af57600080fd5b82356126ba81612f7f565b946020939093013593505050565b600080600080608085870312156126de57600080fd5b843567ffffffffffffffff808211156126f657600080fd5b61270288838901612513565b9550602087013591508082111561271857600080fd5b61272488838901612626565b9450604087013591508082111561273a57600080fd5b506127478782880161258e565b949793965093946060013593505050565b6000806000806080858703121561276e57600080fd5b843567ffffffffffffffff8082111561278657600080fd5b61279288838901612513565b955060208701359150808211156127a857600080fd5b6127b488838901612626565b945060408701359150808211156127ca57600080fd5b6127d68883890161258e565b935060608701359150808211156127ec57600080fd5b508501601f810187136127fe57600080fd5b61280d878235602084016124bb565b91505092959194509250565b60006020828403121561282b57600080fd5b81518015158114610f8457600080fd5b60006020828403121561284d57600080fd5b5051919050565b60006020828403121561286657600080fd5b81357fffffffff0000000000000000000000000000000000000000000000000000000081168114610f8457600080fd5b6000602082840312156128a857600080fd5b8135610f8481612f7f565b6000602082840312156128c557600080fd5b5035919050565b600080604083850312156128df57600080fd5b8235915060208301356128f181612f7f565b809150509250929050565b6000806040838503121561290f57600080fd5b8235915061291f60208401612686565b90509250929050565b6000806000806060858703121561293e57600080fd5b8435935061294e60208601612686565b9250604085013567ffffffffffffffff8082111561296b57600080fd5b818701915087601f83011261297f57600080fd5b81358181111561298e57600080fd5b8860208285010111156129a057600080fd5b95989497505060200194505050565b600080600080600060a086880312156129c757600080fd5b853594506129d760208701612686565b93506129e560408701612686565b94979396509394606081013594506080013592915050565b600081518084526020808501945080840160005b83811015612a4357815173ffffffffffffffffffffffffffffffffffffffff1687529582019590820190600101612a11565b509495945050505050565b6000815180845260208085019450848260051b860182860160005b85811015612581578383038952612a81838351612ac3565b98850198925090840190600101612a69565b600081518084526020808501945080840160005b83811015612a4357815187529582019590820190600101612aa7565b6000815180845260005b81811015612ae957602081850181015186830182015201612acd565b81811115612afb576000602083870101525b50601f01601f19169290920160200192915050565b608081526000612b2360808301876129fd565b8281036020840152612b358187612a93565b90508281036040840152612b498186612a4e565b91505082606083015295945050505050565b60a081526000612b6e60a08301886129fd565b8281036020840152612b808188612a93565b90508281036040840152612b948187612a4e565b60608401959095525050608001529392505050565b60c081526000612bbc60c08301896129fd565b8281036020840152612bce8189612a93565b90508281036040840152612be28188612a4e565b60608401969096525050608081019290925260a0909101529392505050565b6020810160088310612c3c577f4e487b7100000000000000000000000000000000000000000000000000000000600052602160045260246000fd5b91905290565b602081526000610f846020830184612ac3565b60006101208b8352602073ffffffffffffffffffffffffffffffffffffffff8c1681850152816040850152612c8c8285018c6129fd565b91508382036060850152612ca0828b612a93565b915083820360808501528189518084528284019150828160051b850101838c0160005b83811015612cf157601f19878403018552612cdf838351612ac3565b94860194925090850190600101612cc3565b505086810360a0880152612d05818c612a4e565b945050505050612d2160c084018767ffffffffffffffff169052565b67ffffffffffffffff851660e0840152828103610100840152612d448185612ac3565b9c9b505050505050505050505050565b84815260ff84166020820152826040820152608060608201526000610e156080830184612ac3565b604051601f8201601f1916810167ffffffffffffffff81118282101715612da557612da5612f50565b604052919050565b600067ffffffffffffffff821115612dc757612dc7612f50565b5060051b60200190565b60008219821115612de457612de4612ef2565b500190565b600067ffffffffffffffff808316818516808303821115612e0c57612e0c612ef2565b01949350505050565b600082612e4b577f4e487b7100000000000000000000000000000000000000000000000000000000600052601260045260246000fd5b500490565b6000817fffffffffffffffffffffffffffffffffffffffffffffffffffffffffffffffff0483118215151615612e8857612e88612ef2565b500290565b600082821015612e9f57612e9f612ef2565b500390565b600181811c90821680612eb857607f821691505b60208210811415612089577f4e487b7100000000000000000000000000000000000000000000000000000000600052602260045260246000fd5b7f4e487b7100000000000000000000000000000000000000000000000000000000600052601160045260246000fd5b7f4e487b7100000000000000000000000000000000000000000000000000000000600052602160045260246000fd5b7f4e487b7100000000000000000000000000000000000000000000000000000000600052604160045260246000fd5b73ffffffffffffffffffffffffffffffffffffffff8116811461078557600080fdfea2646970667358221220d23618cc0203a7859b6a2e557fdc2c6556354df64016a1dda74db6d2c4ab83a864736f6c63430008060033",
  "devdoc": {
    "kind": "dev",
    "methods": {
      "COUNTING_MODE()": {
        "details": "See {IGovernor-COUNTING_MODE}."
      },
      "castVote(uint256,uint8)": {
        "details": "See {IGovernor-castVote}."
      },
      "castVoteBySig(uint256,uint8,uint8,bytes32,bytes32)": {
        "details": "See {IGovernor-castVoteBySig}."
      },
      "castVoteWithReason(uint256,uint8,string)": {
        "details": "See {IGovernor-castVoteWithReason}."
      },
      "execute(address[],uint256[],bytes[],bytes32)": {
        "details": "See {IGovernor-execute}."
      },
      "hasVoted(uint256,address)": {
        "details": "See {IGovernor-hasVoted}."
      },
      "hashProposal(address[],uint256[],bytes[],bytes32)": {
        "details": "See {IGovernor-hashProposal}. The proposal id is produced by hashing the RLC encoded `targets` array, the `values` array, the `calldatas` array and the descriptionHash (bytes32 which itself is the keccak256 hash of the description string). This proposal id can be produced from the proposal data which is part of the {ProposalCreated} event. It can even be computed in advance, before the proposal is submitted. Note that the chainId and the governor address are not part of the proposal id computation. Consequently, the same proposal (with same operation and same description) will have the same id if submitted on multiple governors accross multiple networks. This also means that in order to execute the same operation twice (on the same governor) the proposer will have to change the description in order to avoid proposal id conflicts."
      },
      "name()": {
        "details": "See {IGovernor-name}."
      },
      "proposalDeadline(uint256)": {
        "details": "See {IGovernor-proposalDeadline}."
      },
      "proposalEta(uint256)": {
        "details": "Public accessor to check the eta of a queued proposal"
      },
      "proposalSnapshot(uint256)": {
        "details": "See {IGovernor-proposalSnapshot}."
      },
      "proposalThreshold()": {
        "details": "Part of the Governor Bravo's interface: _\"The number of votes required in order for a voter to become a proposer\"_."
      },
      "proposalVotes(uint256)": {
        "details": "Accessor to the internal vote counts."
      },
      "queue(address[],uint256[],bytes[],bytes32)": {
        "details": "Function to queue a proposal to the timelock."
      },
      "timelock()": {
        "details": "Public accessor to check the address of the timelock"
      },
      "updateTimelock(address)": {
        "details": "Public endpoint to update the underlying timelock instance. Restricted to the timelock itself, so updates must be proposed, scheduled and executed using the {Governor} workflow."
      },
      "version()": {
        "details": "See {IGovernor-version}."
      },
      "votingDelay()": {
        "details": "delay, in number of block, between the proposal is created and the vote starts. This can be increassed to leave time for users to buy voting power, of delegate it, before the voting of a proposal starts."
      },
      "votingPeriod()": {
        "details": "delay, in number of blocks, between the vote start and vote ends. Note: the {votingDelay} can delay the start of the vote. This must be considered when setting the voting duration compared to the voting delay."
      }
    },
    "version": 1
  },
  "userdoc": {
    "kind": "user",
    "methods": {
      "votingDelay()": {
        "notice": "module:user-config"
      },
      "votingPeriod()": {
        "notice": "module:user-config"
      }
    },
    "version": 1
  },
  "storageLayout": {
    "storage": [
      {
        "astId": 527,
        "contract": "contracts/Governor.sol:RelGovernor",
        "label": "_name",
        "offset": 0,
        "slot": "0",
        "type": "t_string_storage"
      },
      {
        "astId": 532,
        "contract": "contracts/Governor.sol:RelGovernor",
        "label": "_proposals",
        "offset": 0,
        "slot": "1",
        "type": "t_mapping(t_uint256,t_struct(ProposalCore)525_storage)"
      },
      {
        "astId": 2306,
        "contract": "contracts/Governor.sol:RelGovernor",
        "label": "_proposalVotes",
        "offset": 0,
        "slot": "2",
        "type": "t_mapping(t_uint256,t_struct(ProposalVote)2301_storage)"
      },
      {
        "astId": 2976,
        "contract": "contracts/Governor.sol:RelGovernor",
        "label": "_quorumNumerator",
        "offset": 0,
        "slot": "3",
        "type": "t_uint256"
      },
      {
        "astId": 2572,
        "contract": "contracts/Governor.sol:RelGovernor",
        "label": "_timelock",
        "offset": 0,
        "slot": "4",
        "type": "t_contract(TimelockController)2280"
      },
      {
        "astId": 2576,
        "contract": "contracts/Governor.sol:RelGovernor",
        "label": "_timelockIds",
        "offset": 0,
        "slot": "5",
        "type": "t_mapping(t_uint256,t_bytes32)"
      },
      {
        "astId": 6465,
        "contract": "contracts/Governor.sol:RelGovernor",
        "label": "_votingDelay",
        "offset": 0,
        "slot": "6",
        "type": "t_uint256"
      },
      {
        "astId": 6468,
        "contract": "contracts/Governor.sol:RelGovernor",
        "label": "_votingPeriod",
        "offset": 0,
        "slot": "7",
        "type": "t_uint256"
      },
      {
        "astId": 6471,
        "contract": "contracts/Governor.sol:RelGovernor",
        "label": "_proposalThreshold",
        "offset": 0,
        "slot": "8",
        "type": "t_uint256"
      }
    ],
    "types": {
      "t_address": {
        "encoding": "inplace",
        "label": "address",
        "numberOfBytes": "20"
      },
      "t_bool": {
        "encoding": "inplace",
        "label": "bool",
        "numberOfBytes": "1"
      },
      "t_bytes32": {
        "encoding": "inplace",
        "label": "bytes32",
        "numberOfBytes": "32"
      },
      "t_contract(TimelockController)2280": {
        "encoding": "inplace",
        "label": "contract TimelockController",
        "numberOfBytes": "20"
      },
      "t_mapping(t_address,t_bool)": {
        "encoding": "mapping",
        "key": "t_address",
        "label": "mapping(address => bool)",
        "numberOfBytes": "32",
        "value": "t_bool"
      },
      "t_mapping(t_uint256,t_bytes32)": {
        "encoding": "mapping",
        "key": "t_uint256",
        "label": "mapping(uint256 => bytes32)",
        "numberOfBytes": "32",
        "value": "t_bytes32"
      },
      "t_mapping(t_uint256,t_struct(ProposalCore)525_storage)": {
        "encoding": "mapping",
        "key": "t_uint256",
        "label": "mapping(uint256 => struct Governor.ProposalCore)",
        "numberOfBytes": "32",
        "value": "t_struct(ProposalCore)525_storage"
      },
      "t_mapping(t_uint256,t_struct(ProposalVote)2301_storage)": {
        "encoding": "mapping",
        "key": "t_uint256",
        "label": "mapping(uint256 => struct GovernorCountingSimple.ProposalVote)",
        "numberOfBytes": "32",
        "value": "t_struct(ProposalVote)2301_storage"
      },
      "t_string_storage": {
        "encoding": "bytes",
        "label": "string",
        "numberOfBytes": "32"
      },
      "t_struct(BlockNumber)5317_storage": {
        "encoding": "inplace",
        "label": "struct Timers.BlockNumber",
        "members": [
          {
            "astId": 5316,
            "contract": "contracts/Governor.sol:RelGovernor",
            "label": "_deadline",
            "offset": 0,
            "slot": "0",
            "type": "t_uint64"
          }
        ],
        "numberOfBytes": "32"
      },
      "t_struct(ProposalCore)525_storage": {
        "encoding": "inplace",
        "label": "struct Governor.ProposalCore",
        "members": [
          {
            "astId": 517,
            "contract": "contracts/Governor.sol:RelGovernor",
            "label": "voteStart",
            "offset": 0,
            "slot": "0",
            "type": "t_struct(BlockNumber)5317_storage"
          },
          {
            "astId": 520,
            "contract": "contracts/Governor.sol:RelGovernor",
            "label": "voteEnd",
            "offset": 0,
            "slot": "1",
            "type": "t_struct(BlockNumber)5317_storage"
          },
          {
            "astId": 522,
            "contract": "contracts/Governor.sol:RelGovernor",
            "label": "executed",
            "offset": 0,
            "slot": "2",
            "type": "t_bool"
          },
          {
            "astId": 524,
            "contract": "contracts/Governor.sol:RelGovernor",
            "label": "canceled",
            "offset": 1,
            "slot": "2",
            "type": "t_bool"
          }
        ],
        "numberOfBytes": "96"
      },
      "t_struct(ProposalVote)2301_storage": {
        "encoding": "inplace",
        "label": "struct GovernorCountingSimple.ProposalVote",
        "members": [
          {
            "astId": 2292,
            "contract": "contracts/Governor.sol:RelGovernor",
            "label": "againstVotes",
            "offset": 0,
            "slot": "0",
            "type": "t_uint256"
          },
          {
            "astId": 2294,
            "contract": "contracts/Governor.sol:RelGovernor",
            "label": "forVotes",
            "offset": 0,
            "slot": "1",
            "type": "t_uint256"
          },
          {
            "astId": 2296,
            "contract": "contracts/Governor.sol:RelGovernor",
            "label": "abstainVotes",
            "offset": 0,
            "slot": "2",
            "type": "t_uint256"
          },
          {
            "astId": 2300,
            "contract": "contracts/Governor.sol:RelGovernor",
            "label": "hasVoted",
            "offset": 0,
            "slot": "3",
            "type": "t_mapping(t_address,t_bool)"
          }
        ],
        "numberOfBytes": "128"
      },
      "t_uint256": {
        "encoding": "inplace",
        "label": "uint256",
        "numberOfBytes": "32"
      },
      "t_uint64": {
        "encoding": "inplace",
        "label": "uint64",
        "numberOfBytes": "8"
      }
    }
  }
}