{
  "address": "0xc351628EB244ec633d5f21fBD6621e1a683B1181",
  "abi": [
    {
      "inputs": [
        {
          "internalType": "address",
          "name": "_r3l",
          "type": "address"
        },
        {
          "internalType": "address",
          "name": "_vestAdmin",
          "type": "address"
        },
        {
          "internalType": "uint256",
          "name": "_vestBegin",
          "type": "uint256"
        },
        {
          "internalType": "uint256",
          "name": "_vestShort",
          "type": "uint256"
        },
        {
          "internalType": "uint256",
          "name": "_vestLong",
          "type": "uint256"
        }
      ],
      "stateMutability": "nonpayable",
      "type": "constructor"
    },
    {
      "anonymous": false,
      "inputs": [
        {
          "indexed": true,
          "internalType": "address",
          "name": "owner",
          "type": "address"
        },
        {
          "indexed": true,
          "internalType": "address",
          "name": "spender",
          "type": "address"
        },
        {
          "indexed": false,
          "internalType": "uint256",
          "name": "value",
          "type": "uint256"
        }
      ],
      "name": "Approval",
      "type": "event"
    },
    {
      "anonymous": false,
      "inputs": [
        {
          "indexed": true,
          "internalType": "address",
          "name": "delegator",
          "type": "address"
        },
        {
          "indexed": true,
          "internalType": "address",
          "name": "fromDelegate",
          "type": "address"
        },
        {
          "indexed": true,
          "internalType": "address",
          "name": "toDelegate",
          "type": "address"
        }
      ],
      "name": "DelegateChanged",
      "type": "event"
    },
    {
      "anonymous": false,
      "inputs": [
        {
          "indexed": true,
          "internalType": "address",
          "name": "delegate",
          "type": "address"
        },
        {
          "indexed": false,
          "internalType": "uint256",
          "name": "previousBalance",
          "type": "uint256"
        },
        {
          "indexed": false,
          "internalType": "uint256",
          "name": "newBalance",
          "type": "uint256"
        }
      ],
      "name": "DelegateVotesChanged",
      "type": "event"
    },
    {
      "anonymous": false,
      "inputs": [
        {
          "indexed": true,
          "internalType": "address",
          "name": "previousOwner",
          "type": "address"
        },
        {
          "indexed": true,
          "internalType": "address",
          "name": "newOwner",
          "type": "address"
        }
      ],
      "name": "OwnershipTransferred",
      "type": "event"
    },
    {
      "anonymous": false,
      "inputs": [
        {
          "indexed": true,
          "internalType": "address",
          "name": "from",
          "type": "address"
        },
        {
          "indexed": true,
          "internalType": "address",
          "name": "to",
          "type": "address"
        },
        {
          "indexed": false,
          "internalType": "uint256",
          "name": "value",
          "type": "uint256"
        }
      ],
      "name": "Transfer",
      "type": "event"
    },
    {
      "anonymous": false,
      "inputs": [
        {
          "indexed": false,
          "internalType": "uint256",
          "name": "newLockPeriod",
          "type": "uint256"
        }
      ],
      "name": "lockPeriodUpdated",
      "type": "event"
    },
    {
      "anonymous": false,
      "inputs": [
        {
          "indexed": true,
          "internalType": "address",
          "name": "account",
          "type": "address"
        },
        {
          "components": [
            {
              "internalType": "uint256",
              "name": "unlockAmnt",
              "type": "uint256"
            },
            {
              "internalType": "uint256",
              "name": "unlockTime",
              "type": "uint256"
            }
          ],
          "indexed": false,
          "internalType": "struct Utils.Unlock",
          "name": "unlockData",
          "type": "tuple"
        }
      ],
      "name": "lockUpdated",
      "type": "event"
    },
    {
      "anonymous": false,
      "inputs": [
        {
          "indexed": false,
          "internalType": "address",
          "name": "newVestAdmin",
          "type": "address"
        }
      ],
      "name": "vestAdminUpdated",
      "type": "event"
    },
    {
      "anonymous": false,
      "inputs": [
        {
          "indexed": true,
          "internalType": "address",
          "name": "account",
          "type": "address"
        },
        {
          "components": [
            {
              "internalType": "uint256",
              "name": "shortAmnt",
              "type": "uint256"
            },
            {
              "internalType": "uint256",
              "name": "longAmnt",
              "type": "uint256"
            },
            {
              "internalType": "uint256",
              "name": "lastUpdate",
              "type": "uint256"
            }
          ],
          "indexed": false,
          "internalType": "struct Utils.Vest",
          "name": "vestData",
          "type": "tuple"
        }
      ],
      "name": "vestUpdated",
      "type": "event"
    },
    {
      "inputs": [],
      "name": "DOMAIN_SEPARATOR",
      "outputs": [
        {
          "internalType": "bytes32",
          "name": "",
          "type": "bytes32"
        }
      ],
      "stateMutability": "view",
      "type": "function"
    },
    {
      "inputs": [
        {
          "internalType": "address",
          "name": "owner",
          "type": "address"
        },
        {
          "internalType": "address",
          "name": "spender",
          "type": "address"
        }
      ],
      "name": "allowance",
      "outputs": [
        {
          "internalType": "uint256",
          "name": "",
          "type": "uint256"
        }
      ],
      "stateMutability": "view",
      "type": "function"
    },
    {
      "inputs": [
        {
          "internalType": "address",
          "name": "spender",
          "type": "address"
        },
        {
          "internalType": "uint256",
          "name": "amount",
          "type": "uint256"
        }
      ],
      "name": "approve",
      "outputs": [
        {
          "internalType": "bool",
          "name": "",
          "type": "bool"
        }
      ],
      "stateMutability": "nonpayable",
      "type": "function"
    },
    {
      "inputs": [
        {
          "internalType": "address",
          "name": "account",
          "type": "address"
        }
      ],
      "name": "balanceOf",
      "outputs": [
        {
          "internalType": "uint256",
          "name": "",
          "type": "uint256"
        }
      ],
      "stateMutability": "view",
      "type": "function"
    },
    {
      "inputs": [
        {
          "internalType": "address",
          "name": "account",
          "type": "address"
        },
        {
          "internalType": "uint32",
          "name": "pos",
          "type": "uint32"
        }
      ],
      "name": "checkpoints",
      "outputs": [
        {
          "components": [
            {
              "internalType": "uint32",
              "name": "fromBlock",
              "type": "uint32"
            },
            {
              "internalType": "uint224",
              "name": "votes",
              "type": "uint224"
            }
          ],
          "internalType": "struct ERC20Votes.Checkpoint",
          "name": "",
          "type": "tuple"
        }
      ],
      "stateMutability": "view",
      "type": "function"
    },
    {
      "inputs": [],
      "name": "claimVestedRel",
      "outputs": [],
      "stateMutability": "nonpayable",
      "type": "function"
    },
    {
      "inputs": [],
      "name": "decimals",
      "outputs": [
        {
          "internalType": "uint8",
          "name": "",
          "type": "uint8"
        }
      ],
      "stateMutability": "view",
      "type": "function"
    },
    {
      "inputs": [
        {
          "internalType": "address",
          "name": "spender",
          "type": "address"
        },
        {
          "internalType": "uint256",
          "name": "subtractedValue",
          "type": "uint256"
        }
      ],
      "name": "decreaseAllowance",
      "outputs": [
        {
          "internalType": "bool",
          "name": "",
          "type": "bool"
        }
      ],
      "stateMutability": "nonpayable",
      "type": "function"
    },
    {
      "inputs": [
        {
          "internalType": "address",
          "name": "delegatee",
          "type": "address"
        }
      ],
      "name": "delegate",
      "outputs": [],
      "stateMutability": "nonpayable",
      "type": "function"
    },
    {
      "inputs": [
        {
          "internalType": "address",
          "name": "delegatee",
          "type": "address"
        },
        {
          "internalType": "uint256",
          "name": "nonce",
          "type": "uint256"
        },
        {
          "internalType": "uint256",
          "name": "expiry",
          "type": "uint256"
        },
        {
          "internalType": "uint8",
          "name": "v",
          "type": "uint8"
        },
        {
          "internalType": "bytes32",
          "name": "r",
          "type": "bytes32"
        },
        {
          "internalType": "bytes32",
          "name": "s",
          "type": "bytes32"
        }
      ],
      "name": "delegateBySig",
      "outputs": [],
      "stateMutability": "nonpayable",
      "type": "function"
    },
    {
      "inputs": [
        {
          "internalType": "address",
          "name": "account",
          "type": "address"
        }
      ],
      "name": "delegates",
      "outputs": [
        {
          "internalType": "address",
          "name": "",
          "type": "address"
        }
      ],
      "stateMutability": "view",
      "type": "function"
    },
    {
      "inputs": [
        {
          "internalType": "uint256",
          "name": "blockNumber",
          "type": "uint256"
        }
      ],
      "name": "getPastTotalSupply",
      "outputs": [
        {
          "internalType": "uint256",
          "name": "",
          "type": "uint256"
        }
      ],
      "stateMutability": "view",
      "type": "function"
    },
    {
      "inputs": [
        {
          "internalType": "address",
          "name": "account",
          "type": "address"
        },
        {
          "internalType": "uint256",
          "name": "blockNumber",
          "type": "uint256"
        }
      ],
      "name": "getPastVotes",
      "outputs": [
        {
          "internalType": "uint256",
          "name": "",
          "type": "uint256"
        }
      ],
      "stateMutability": "view",
      "type": "function"
    },
    {
      "inputs": [
        {
          "internalType": "address",
          "name": "account",
          "type": "address"
        }
      ],
      "name": "getVotes",
      "outputs": [
        {
          "internalType": "uint256",
          "name": "",
          "type": "uint256"
        }
      ],
      "stateMutability": "view",
      "type": "function"
    },
    {
      "inputs": [
        {
          "internalType": "address",
          "name": "spender",
          "type": "address"
        },
        {
          "internalType": "uint256",
          "name": "addedValue",
          "type": "uint256"
        }
      ],
      "name": "increaseAllowance",
      "outputs": [
        {
          "internalType": "bool",
          "name": "",
          "type": "bool"
        }
      ],
      "stateMutability": "nonpayable",
      "type": "function"
    },
    {
      "inputs": [],
      "name": "lockPeriod",
      "outputs": [
        {
          "internalType": "uint256",
          "name": "",
          "type": "uint256"
        }
      ],
      "stateMutability": "view",
      "type": "function"
    },
    {
      "inputs": [],
      "name": "name",
      "outputs": [
        {
          "internalType": "string",
          "name": "",
          "type": "string"
        }
      ],
      "stateMutability": "view",
      "type": "function"
    },
    {
      "inputs": [
        {
          "internalType": "address",
          "name": "owner",
          "type": "address"
        }
      ],
      "name": "nonces",
      "outputs": [
        {
          "internalType": "uint256",
          "name": "",
          "type": "uint256"
        }
      ],
      "stateMutability": "view",
      "type": "function"
    },
    {
      "inputs": [
        {
          "internalType": "address",
          "name": "account",
          "type": "address"
        }
      ],
      "name": "numCheckpoints",
      "outputs": [
        {
          "internalType": "uint32",
          "name": "",
          "type": "uint32"
        }
      ],
      "stateMutability": "view",
      "type": "function"
    },
    {
      "inputs": [],
      "name": "owner",
      "outputs": [
        {
          "internalType": "address",
          "name": "",
          "type": "address"
        }
      ],
      "stateMutability": "view",
      "type": "function"
    },
    {
      "inputs": [
        {
          "internalType": "address",
          "name": "owner",
          "type": "address"
        },
        {
          "internalType": "address",
          "name": "spender",
          "type": "address"
        },
        {
          "internalType": "uint256",
          "name": "value",
          "type": "uint256"
        },
        {
          "internalType": "uint256",
          "name": "deadline",
          "type": "uint256"
        },
        {
          "internalType": "uint8",
          "name": "v",
          "type": "uint8"
        },
        {
          "internalType": "bytes32",
          "name": "r",
          "type": "bytes32"
        },
        {
          "internalType": "bytes32",
          "name": "s",
          "type": "bytes32"
        }
      ],
      "name": "permit",
      "outputs": [],
      "stateMutability": "nonpayable",
      "type": "function"
    },
    {
      "inputs": [],
      "name": "r3l",
      "outputs": [
        {
          "internalType": "address",
          "name": "",
          "type": "address"
        }
      ],
      "stateMutability": "view",
      "type": "function"
    },
    {
      "inputs": [],
      "name": "renounceOwnership",
      "outputs": [],
      "stateMutability": "nonpayable",
      "type": "function"
    },
    {
      "inputs": [],
      "name": "resetLock",
      "outputs": [],
      "stateMutability": "nonpayable",
      "type": "function"
    },
    {
      "inputs": [
        {
          "internalType": "address",
          "name": "newAdmin",
          "type": "address"
        }
      ],
      "name": "setVestAdmin",
      "outputs": [],
      "stateMutability": "nonpayable",
      "type": "function"
    },
    {
      "inputs": [
        {
          "internalType": "address",
          "name": "account",
          "type": "address"
        },
        {
          "internalType": "uint256",
          "name": "shortAmnt",
          "type": "uint256"
        },
        {
          "internalType": "uint256",
          "name": "longAmnt",
          "type": "uint256"
        }
      ],
      "name": "setVestedAmount",
      "outputs": [],
      "stateMutability": "nonpayable",
      "type": "function"
    },
    {
      "inputs": [
        {
          "internalType": "uint256",
          "name": "amount",
          "type": "uint256"
        }
      ],
      "name": "stakeRel",
      "outputs": [],
      "stateMutability": "nonpayable",
      "type": "function"
    },
    {
      "inputs": [],
      "name": "symbol",
      "outputs": [
        {
          "internalType": "string",
          "name": "",
          "type": "string"
        }
      ],
      "stateMutability": "view",
      "type": "function"
    },
    {
      "inputs": [],
      "name": "totalSupply",
      "outputs": [
        {
          "internalType": "uint256",
          "name": "",
          "type": "uint256"
        }
      ],
      "stateMutability": "view",
      "type": "function"
    },
    {
      "inputs": [
        {
          "internalType": "address",
          "name": "recipient",
          "type": "address"
        },
        {
          "internalType": "uint256",
          "name": "amount",
          "type": "uint256"
        }
      ],
      "name": "transfer",
      "outputs": [
        {
          "internalType": "bool",
          "name": "",
          "type": "bool"
        }
      ],
      "stateMutability": "nonpayable",
      "type": "function"
    },
    {
      "inputs": [
        {
          "internalType": "address",
          "name": "sender",
          "type": "address"
        },
        {
          "internalType": "address",
          "name": "recipient",
          "type": "address"
        },
        {
          "internalType": "uint256",
          "name": "amount",
          "type": "uint256"
        }
      ],
      "name": "transferFrom",
      "outputs": [
        {
          "internalType": "bool",
          "name": "",
          "type": "bool"
        }
      ],
      "stateMutability": "nonpayable",
      "type": "function"
    },
    {
      "inputs": [
        {
          "internalType": "address",
          "name": "newOwner",
          "type": "address"
        }
      ],
      "name": "transferOwnership",
      "outputs": [],
      "stateMutability": "nonpayable",
      "type": "function"
    },
    {
      "inputs": [
        {
          "internalType": "address",
          "name": "to",
          "type": "address"
        }
      ],
      "name": "transferVestedTokens",
      "outputs": [],
      "stateMutability": "nonpayable",
      "type": "function"
    },
    {
      "inputs": [
        {
          "internalType": "uint256",
          "name": "amount",
          "type": "uint256"
        }
      ],
      "name": "unlock",
      "outputs": [],
      "stateMutability": "nonpayable",
      "type": "function"
    },
    {
      "inputs": [
        {
          "internalType": "address",
          "name": "account",
          "type": "address"
        }
      ],
      "name": "unlockTime",
      "outputs": [
        {
          "internalType": "uint256",
          "name": "",
          "type": "uint256"
        }
      ],
      "stateMutability": "view",
      "type": "function"
    },
    {
      "inputs": [
        {
          "internalType": "address",
          "name": "",
          "type": "address"
        }
      ],
      "name": "unlocks",
      "outputs": [
        {
          "internalType": "uint256",
          "name": "unlockAmnt",
          "type": "uint256"
        },
        {
          "internalType": "uint256",
          "name": "unlockTime",
          "type": "uint256"
        }
      ],
      "stateMutability": "view",
      "type": "function"
    },
    {
      "inputs": [
        {
          "internalType": "uint256",
          "name": "amount",
          "type": "uint256"
        }
      ],
      "name": "unstakeRel",
      "outputs": [],
      "stateMutability": "nonpayable",
      "type": "function"
    },
    {
      "inputs": [
        {
          "internalType": "address",
          "name": "account",
          "type": "address"
        }
      ],
      "name": "unstaked",
      "outputs": [
        {
          "internalType": "uint256",
          "name": "",
          "type": "uint256"
        }
      ],
      "stateMutability": "view",
      "type": "function"
    },
    {
      "inputs": [
        {
          "internalType": "uint256",
          "name": "newLockPeriod",
          "type": "uint256"
        }
      ],
      "name": "updateLockPeriod",
      "outputs": [],
      "stateMutability": "nonpayable",
      "type": "function"
    },
    {
      "inputs": [
        {
          "internalType": "address",
          "name": "",
          "type": "address"
        }
      ],
      "name": "vest",
      "outputs": [
        {
          "internalType": "uint256",
          "name": "shortAmnt",
          "type": "uint256"
        },
        {
          "internalType": "uint256",
          "name": "longAmnt",
          "type": "uint256"
        },
        {
          "internalType": "uint256",
          "name": "lastUpdate",
          "type": "uint256"
        }
      ],
      "stateMutability": "view",
      "type": "function"
    },
    {
      "inputs": [],
      "name": "vestAdmin",
      "outputs": [
        {
          "internalType": "address",
          "name": "",
          "type": "address"
        }
      ],
      "stateMutability": "view",
      "type": "function"
    },
    {
      "inputs": [],
      "name": "vestBegin",
      "outputs": [
        {
          "internalType": "uint256",
          "name": "",
          "type": "uint256"
        }
      ],
      "stateMutability": "view",
      "type": "function"
    },
    {
      "inputs": [
        {
          "internalType": "address",
          "name": "account",
          "type": "address"
        }
      ],
      "name": "vestData",
      "outputs": [
        {
          "components": [
            {
              "internalType": "uint256",
              "name": "shortAmnt",
              "type": "uint256"
            },
            {
              "internalType": "uint256",
              "name": "longAmnt",
              "type": "uint256"
            },
            {
              "internalType": "uint256",
              "name": "lastUpdate",
              "type": "uint256"
            }
          ],
          "internalType": "struct Utils.Vest",
          "name": "",
          "type": "tuple"
        }
      ],
      "stateMutability": "view",
      "type": "function"
    },
    {
      "inputs": [],
      "name": "vestLong",
      "outputs": [
        {
          "internalType": "uint256",
          "name": "",
          "type": "uint256"
        }
      ],
      "stateMutability": "view",
      "type": "function"
    },
    {
      "inputs": [
        {
          "internalType": "address",
          "name": "",
          "type": "address"
        }
      ],
      "name": "vestNonce",
      "outputs": [
        {
          "internalType": "uint256",
          "name": "",
          "type": "uint256"
        }
      ],
      "stateMutability": "view",
      "type": "function"
    },
    {
      "inputs": [],
      "name": "vestShort",
      "outputs": [
        {
          "internalType": "uint256",
          "name": "",
          "type": "uint256"
        }
      ],
      "stateMutability": "view",
      "type": "function"
    },
    {
      "inputs": [
        {
          "internalType": "uint256",
          "name": "_shortAmount",
          "type": "uint256"
        },
        {
          "internalType": "uint256",
          "name": "_longAmount",
          "type": "uint256"
        },
        {
          "internalType": "bytes",
          "name": "_sig",
          "type": "bytes"
        }
      ],
      "name": "vestTokens",
      "outputs": [],
      "stateMutability": "nonpayable",
      "type": "function"
    },
    {
      "inputs": [
        {
          "internalType": "address",
          "name": "account",
          "type": "address"
        }
      ],
      "name": "vested",
      "outputs": [
        {
          "internalType": "uint256",
          "name": "",
          "type": "uint256"
        }
      ],
      "stateMutability": "view",
      "type": "function"
    }
  ],
  "transactionHash": "0x7eb84eaf4921e82d2b0b81283f6cb28d1159a12f7c434c86b297c229f129accb",
  "args": [
    "0xb6c4267C4877BB0D6b1685Cfd85b0FBe82F105ec",
    "0x649d39c228B4708473220cF2A5e19F82Bc35FB51",
    1633060800,
    1759204800,
    2137636800
  ],
  "solcInputHash": "15bc099063462943900f081628d8658d",
  "bytecode": "0x6101c06040527f6e71edae12b1b97f4d1f60370fef10105fa2faae0126114a169c64845d6126c96101205262054600600b553480156200003e57600080fd5b5060405162003b6c38038062003b6c833981016040819052620000619162000306565b6040518060400160405280600a81526020016914dd185ad9590814915360b21b81525080604051806040016040528060018152602001603160f81b8152506040518060400160405280600a81526020016914dd185ad9590814915360b21b815250604051806040016040528060048152602001631cd4915360e21b8152508160039080519060200190620000f792919062000243565b5080516200010d90600490602084019062000243565b5050825160209384012082519284019290922060c083815260e08290524660a0818152604080517f8b73c3c69bb8fe3d512ecc4cf759cc79239f7b179b0ffacaa9a75d522b39400f818a018190528183019890985260608101959095526080808601939093523085830152805180860390920182529390920190925280519401939093209092526101005250620001a6905033620001f1565b60609490941b6001600160601b0319166101405261016091909152610180526101a091909152600a80546001600160a01b0319166001600160a01b0390921691909117905562000396565b600980546001600160a01b038381166001600160a01b0319831681179093556040519116919082907f8be0079c531659141344cd1fd0a4f28419497f9722a3daafe3b4186f6b6457e090600090a35050565b828054620002519062000359565b90600052602060002090601f016020900481019282620002755760008555620002c0565b82601f106200029057805160ff1916838001178555620002c0565b82800160010185558215620002c0579182015b82811115620002c0578251825591602001919060010190620002a3565b50620002ce929150620002d2565b5090565b5b80821115620002ce5760008155600101620002d3565b80516001600160a01b03811681146200030157600080fd5b919050565b600080600080600060a086880312156200031f57600080fd5b6200032a86620002e9565b94506200033a60208701620002e9565b6040870151606088015160809098015196999198509695945092505050565b600181811c908216806200036e57607f821691505b602082108114156200039057634e487b7160e01b600052602260045260246000fd5b50919050565b60805160a05160c05160e05161010051610120516101405160601c61016051610180516101a05161372d6200043f6000396000818161050b0152610dc801526000818161061c0152610da20152600081816107170152610dee01526000818161036b01528181610b91015281816114810152611cc50152600061155d01526000611e4501526000611e9401526000611e6f01526000611df301526000611e1c015261372d6000f3fe608060405234801561001057600080fd5b50600436106103205760003560e01c8063848f343c116101a7578063c3cda520116100ee578063e02c8fc511610097578063f1127ed811610071578063f1127ed8146107aa578063f2fde38b146107fc578063f3c5f51e1461080f57600080fd5b8063e02c8fc514610712578063ea8809a614610739578063eb8844f91461076e57600080fd5b8063c9b493c8116100c8578063c9b493c8146106b3578063d505accf146106c6578063dd62ed3e146106d957600080fd5b8063c3cda52014610664578063c50ef91e14610677578063c7c90bfb1461068a57600080fd5b806395d89b4111610150578063a09409601161012a578063a094096014610617578063a457c2d71461063e578063a9059cbb1461065157600080fd5b806395d89b41146105e9578063983ebeb5146105f15780639ab24eb01461060457600080fd5b80638e539e8c116101815780638e539e8c146105b05780638ec94474146105c357806391db7b0d146105d657600080fd5b8063848f343c1461056c5780638adaaa841461058c5780638da5cb5b1461059f57600080fd5b806345459bcf1161026b5780637102b7281161021457806376831ae5116101ee57806376831ae51461050657806376b467b71461052d5780637ecebe001461055957600080fd5b80637102b728146104e357806371074519146104f6578063715018a6146104fe57600080fd5b80636198e339116102455780636198e3391461047f5780636fcfff451461049257806370a08231146104ba57600080fd5b806345459bcf14610438578063587cde1e146104405780635c19a95c1461046c57600080fd5b8063313ce567116102cd57806339509351116102a757806339509351146104095780633a46b1a81461041c5780633fd8b02f1461042f57600080fd5b8063313ce567146103df5780633644e515146103ee5780633664bf2d146103f657600080fd5b806318160ddd116102fe57806318160ddd146103a557806323b872dd146103b7578063294d1bf0146103ca57600080fd5b806306fdde0314610325578063095ea7b3146103435780631228732814610366575b600080fd5b61032d610859565b60405161033a9190613510565b60405180910390f35b6103566103513660046132e5565b6108eb565b604051901515815260200161033a565b61038d7f000000000000000000000000000000000000000000000000000000000000000081565b6040516001600160a01b03909116815260200161033a565b6002545b60405190815260200161033a565b6103566103c536600461323f565b610901565b6103dd6103d836600461342e565b6109c5565b005b6040516012815260200161033a565b6103a9610b47565b6103dd6104043660046133fc565b610b56565b6103566104173660046132e5565b610c23565b6103a961042a3660046132e5565b610c5f565b6103a9600b5481565b6103dd610cd9565b61038d61044e3660046131f1565b6001600160a01b039081166000908152600660205260409020541690565b6103dd61047a3660046131f1565b610cf3565b6103dd61048d3660046133fc565b610cfd565b6104a56104a03660046131f1565b610d1a565b60405163ffffffff909116815260200161033a565b6103a96104c83660046131f1565b6001600160a01b031660009081526020819052604090205490565b6103a96104f13660046131f1565b610d42565b6103dd610d63565b6103dd610ea2565b6103a97f000000000000000000000000000000000000000000000000000000000000000081565b6103a961053b3660046131f1565b6001600160a01b03166000908152600d602052604090206001015490565b6103a96105673660046131f1565b610f06565b6103a961057a3660046131f1565b600c6020526000908152604090205481565b6103dd61059a3660046131f1565b610f24565b6009546001600160a01b031661038d565b6103a96105be3660046133fc565b610feb565b6103dd6105d13660046131f1565b611047565b6103dd6105e43660046133fc565b61109a565b61032d611129565b6103dd6105ff36600461330f565b611138565b6103a96106123660046131f1565b61119d565b6103a97f000000000000000000000000000000000000000000000000000000000000000081565b61035661064c3660046132e5565b61124e565b61035661065f3660046132e5565b6112ff565b6103dd610672366004613342565b61130c565b600a5461038d906001600160a01b031681565b6103a96106983660046131f1565b6001600160a01b03166000908152600d602052604090205490565b6103dd6106c13660046133fc565b611442565b6103dd6106d436600461327b565b611509565b6103a96106e736600461320c565b6001600160a01b03918216600090815260016020908152604080832093909416825291909152205490565b6103a97f000000000000000000000000000000000000000000000000000000000000000081565b61074c6107473660046131f1565b61166d565b604080518251815260208084015190820152918101519082015260600161033a565b61079561077c3660046131f1565b600d602052600090815260409020805460019091015482565b6040805192835260208301919091520161033a565b6107bd6107b836600461339a565b6116d3565b60408051825163ffffffff1681526020928301517bffffffffffffffffffffffffffffffffffffffffffffffffffffffff16928101929092520161033a565b6103dd61080a3660046131f1565b61176c565b61083e61081d3660046131f1565b600e6020526000908152604090208054600182015460029092015490919083565b6040805193845260208401929092529082015260600161033a565b606060038054610868906135ed565b80601f0160208091040260200160405190810160405280929190818152602001828054610894906135ed565b80156108e15780601f106108b6576101008083540402835291602001916108e1565b820191906000526020600020905b8154815290600101906020018083116108c457829003601f168201915b5050505050905090565b60006108f833848461184b565b50600192915050565b600061090e8484846119a3565b6001600160a01b0384166000908152600160209081526040808320338452909152902054828110156109ad5760405162461bcd60e51b815260206004820152602860248201527f45524332303a207472616e7366657220616d6f756e742065786365656473206160448201527f6c6c6f77616e636500000000000000000000000000000000000000000000000060648201526084015b60405180910390fd5b6109ba853385840361184b565b506001949350505050565b336000818152600c602090815260408083205490519293610a2693889388939101938452602084019290925260601b7fffffffffffffffffffffffffffffffffffffffff000000000000000000000000166040830152605482015260740190565b604080518083037fffffffffffffffffffffffffffffffffffffffffffffffffffffffffffffffe001815282825280516020918201207f19457468657265756d205369676e6564204d6573736167653a0a33320000000082850152603c8085019190915282518085039091018152605c909301909152815191012090506000610aaf8284611bd1565b600a549091506001600160a01b03808316911614610b0f5760405162461bcd60e51b815260206004820152601a60248201527f7352656c3a20436c61696d206e6f7420617574686f72697a656400000000000060448201526064016109a4565b336000908152600c60205260408120805460019290610b2f908490613583565b90915550610b409050338686611bf5565b5050505050565b6000610b51611def565b905090565b6040517f23b872dd000000000000000000000000000000000000000000000000000000008152336004820152306024820152604481018290527f00000000000000000000000000000000000000000000000000000000000000006001600160a01b0316906323b872dd90606401602060405180830381600087803b158015610bdd57600080fd5b505af1158015610bf1573d6000803e3d6000fd5b505050506040513d601f19601f82011682018060405250810190610c1591906133da565b50610c203382611ee2565b50565b3360008181526001602090815260408083206001600160a01b038716845290915281205490916108f8918590610c5a908690613583565b61184b565b6000438210610cb05760405162461bcd60e51b815260206004820152601f60248201527f4552433230566f7465733a20626c6f636b206e6f7420796574206d696e65640060448201526064016109a4565b6001600160a01b0383166000908152600760205260409020610cd29083611eec565b9392505050565b336000908152600d60205260409020610cf190611fd3565b565b610c20338261201e565b600b54336000908152600d60205260409020610c209183906120af565b6001600160a01b038116600090815260076020526040812054610d3c90612106565b92915050565b6001600160a01b0381166000908152600e60205260408120610d3c90612186565b336000908152600e602052604080822090517f997665ea00000000000000000000000000000000000000000000000000000000815260048101919091527f000000000000000000000000000000000000000000000000000000000000000060248201527f000000000000000000000000000000000000000000000000000000000000000060448201527f00000000000000000000000000000000000000000000000000000000000000006064820152737bc06c482DEAd17c0e297aFbC32f6e63d38466509063997665ea9060840160206040518083038186803b158015610e4957600080fd5b505af4158015610e5d573d6000803e3d6000fd5b505050506040513d601f19601f82011682018060405250810190610e819190613415565b600b54336000908152600d60205260409020919250610c20919083906120af565b6009546001600160a01b03163314610efc5760405162461bcd60e51b815260206004820181905260248201527f4f776e61626c653a2063616c6c6572206973206e6f7420746865206f776e657260448201526064016109a4565b610cf16000612199565b6001600160a01b038116600090815260056020526040812054610d3c565b6009546001600160a01b03163314610f7e5760405162461bcd60e51b815260206004820181905260248201527f4f776e61626c653a2063616c6c6572206973206e6f7420746865206f776e657260448201526064016109a4565b600a80547fffffffffffffffffffffffff0000000000000000000000000000000000000000166001600160a01b0383169081179091556040519081527f8961078521e826adb5caac59fa1f47e24f2059266ab5fe7c7fbf9b2ccd5a21e3906020015b60405180910390a150565b600043821061103c5760405162461bcd60e51b815260206004820152601f60248201527f4552433230566f7465733a20626c6f636b206e6f7420796574206d696e65640060448201526064016109a4565b610d3c600883611eec565b336000908152600e6020526040812061105f90612186565b6001600160a01b0383166000908152600e6020526040808220338352912091925061108b919084612203565b61109582826112ff565b505050565b6009546001600160a01b031633146110f45760405162461bcd60e51b815260206004820181905260248201527f4f776e61626c653a2063616c6c6572206973206e6f7420746865206f776e657260448201526064016109a4565b600b8190556040518181527fe8bf8dfb4abe1420b183a0e83ced724064b765215e282a7a58dff3c1fef5e3f190602001610fe0565b606060048054610868906135ed565b6009546001600160a01b031633146111925760405162461bcd60e51b815260206004820181905260248201527f4f776e61626c653a2063616c6c6572206973206e6f7420746865206f776e657260448201526064016109a4565b611095838383611bf5565b6001600160a01b0381166000908152600760205260408120548015611226576001600160a01b03831660009081526007602052604090206111df6001836135d6565b815481106111ef576111ef613699565b60009182526020909120015464010000000090047bffffffffffffffffffffffffffffffffffffffffffffffffffffffff16611229565b60005b7bffffffffffffffffffffffffffffffffffffffffffffffffffffffff169392505050565b3360009081526001602090815260408083206001600160a01b0386168452909152812054828110156112e85760405162461bcd60e51b815260206004820152602560248201527f45524332303a2064656372656173656420616c6c6f77616e63652062656c6f7760448201527f207a65726f00000000000000000000000000000000000000000000000000000060648201526084016109a4565b6112f5338585840361184b565b5060019392505050565b60006108f83384846119a3565b8342111561135c5760405162461bcd60e51b815260206004820152601d60248201527f4552433230566f7465733a207369676e6174757265206578706972656400000060448201526064016109a4565b604080517fe48329057bfd03d55e49b547132e39cffd9c1820ad7b9d4c5307691425d15adf60208201526001600160a01b0388169181019190915260608101869052608081018590526000906113d6906113ce9060a0016040516020818303038152906040528051906020012061239a565b858585612403565b90506113e18161242b565b861461142f5760405162461bcd60e51b815260206004820152601960248201527f4552433230566f7465733a20696e76616c6964206e6f6e63650000000000000060448201526064016109a4565b611439818861201e565b50505050505050565b61144c3382612453565b6040517fa9059cbb000000000000000000000000000000000000000000000000000000008152336004820152602481018290527f00000000000000000000000000000000000000000000000000000000000000006001600160a01b03169063a9059cbb90604401602060405180830381600087803b1580156114cd57600080fd5b505af11580156114e1573d6000803e3d6000fd5b505050506040513d601f19601f8201168201806040525081019061150591906133da565b5050565b834211156115595760405162461bcd60e51b815260206004820152601d60248201527f45524332305065726d69743a206578706972656420646561646c696e6500000060448201526064016109a4565b60007f00000000000000000000000000000000000000000000000000000000000000008888886115888c61242b565b6040805160208101969096526001600160a01b0394851690860152929091166060840152608083015260a082015260c0810186905260e00160405160208183030381529060405280519060200120905060006115e38261239a565b905060006115f382878787612403565b9050896001600160a01b0316816001600160a01b0316146116565760405162461bcd60e51b815260206004820152601e60248201527f45524332305065726d69743a20696e76616c6964207369676e6174757265000060448201526064016109a4565b6116618a8a8a61184b565b50505050505050505050565b61169160405180606001604052806000815260200160008152602001600081525090565b506001600160a01b03166000908152600e6020908152604091829020825160608101845281548152600182015492810192909252600201549181019190915290565b60408051808201909152600080825260208201526001600160a01b0383166000908152600760205260409020805463ffffffff841690811061171757611717613699565b60009182526020918290206040805180820190915291015463ffffffff8116825264010000000090047bffffffffffffffffffffffffffffffffffffffffffffffffffffffff16918101919091529392505050565b6009546001600160a01b031633146117c65760405162461bcd60e51b815260206004820181905260248201527f4f776e61626c653a2063616c6c6572206973206e6f7420746865206f776e657260448201526064016109a4565b6001600160a01b0381166118425760405162461bcd60e51b815260206004820152602660248201527f4f776e61626c653a206e6577206f776e657220697320746865207a65726f206160448201527f646472657373000000000000000000000000000000000000000000000000000060648201526084016109a4565b610c2081612199565b6001600160a01b0383166118c65760405162461bcd60e51b8152602060048201526024808201527f45524332303a20617070726f76652066726f6d20746865207a65726f2061646460448201527f726573730000000000000000000000000000000000000000000000000000000060648201526084016109a4565b6001600160a01b0382166119425760405162461bcd60e51b815260206004820152602260248201527f45524332303a20617070726f766520746f20746865207a65726f20616464726560448201527f737300000000000000000000000000000000000000000000000000000000000060648201526084016109a4565b6001600160a01b0383811660008181526001602090815260408083209487168084529482529182902085905590518481527f8c5be1e5ebec7d5bd14f71427d1e84f3dd0314c0f7b2291e5b200ac8c7c3b925910160405180910390a3505050565b6001600160a01b038316611a1f5760405162461bcd60e51b815260206004820152602560248201527f45524332303a207472616e736665722066726f6d20746865207a65726f20616460448201527f647265737300000000000000000000000000000000000000000000000000000060648201526084016109a4565b6001600160a01b038216611a9b5760405162461bcd60e51b815260206004820152602360248201527f45524332303a207472616e7366657220746f20746865207a65726f206164647260448201527f657373000000000000000000000000000000000000000000000000000000000060648201526084016109a4565b611aa683838361245d565b6001600160a01b03831660009081526020819052604090205481811015611b355760405162461bcd60e51b815260206004820152602660248201527f45524332303a207472616e7366657220616d6f756e742065786365656473206260448201527f616c616e6365000000000000000000000000000000000000000000000000000060648201526084016109a4565b6001600160a01b03808516600090815260208190526040808220858503905591851681529081208054849290611b6c908490613583565b92505081905550826001600160a01b0316846001600160a01b03167fddf252ad1be2c89b69c2b068fc378daa952ba7f163c4a11628f55a4df523b3ef84604051611bb891815260200190565b60405180910390a3611bcb848484612551565b50505050565b6000806000611be0858561255c565b91509150611bed816125cc565b509392505050565b6001600160a01b0383166000908152600e60205260409081902090517fb300181400000000000000000000000000000000000000000000000000000000815260048101919091526024810183905260448101829052737bc06c482DEAd17c0e297aFbC32f6e63d38466509063b30018149060640160006040518083038186803b158015611c8157600080fd5b505af4158015611c95573d6000803e3d6000fd5b50506040517f70a082310000000000000000000000000000000000000000000000000000000081523060048201527f00000000000000000000000000000000000000000000000000000000000000006001600160a01b031692506370a08231915060240160206040518083038186803b158015611d1157600080fd5b505afa158015611d25573d6000803e3d6000fd5b505050506040513d601f19601f82011682018060405250810190611d499190613415565b8183611d5460025490565b611d5e9190613583565b611d689190613583565b1115611ddc5760405162461bcd60e51b815260206004820152602160248201527f7352656c3a204e6f7420656e6f756768742052454c20696e20636f6e7472616360448201527f740000000000000000000000000000000000000000000000000000000000000060648201526084016109a4565b61109583611dea8385613583565b611ee2565b60007f0000000000000000000000000000000000000000000000000000000000000000461415611e3e57507f000000000000000000000000000000000000000000000000000000000000000090565b50604080517f00000000000000000000000000000000000000000000000000000000000000006020808301919091527f0000000000000000000000000000000000000000000000000000000000000000828401527f000000000000000000000000000000000000000000000000000000000000000060608301524660808301523060a0808401919091528351808403909101815260c0909201909252805191012090565b61150582826127bd565b8154600090815b81811015611f50576000611f078284612869565b905084868281548110611f1c57611f1c613699565b60009182526020909120015463ffffffff161115611f3c57809250611f4a565b611f47816001613583565b91505b50611ef3565b8115611fa95784611f626001846135d6565b81548110611f7257611f72613699565b60009182526020909120015464010000000090047bffffffffffffffffffffffffffffffffffffffffffffffffffffffff16611fac565b60005b7bffffffffffffffffffffffffffffffffffffffffffffffffffffffff1695945050505050565b60008082556001820181905560408051828152602081019290925233917f53a06858e4b0bb751491f078084a1a381e3fb6d6e9dd983c266e2d68e33bd79a910160405180910390a250565b6001600160a01b038281166000818152600660208181526040808420805485845282862054949093528787167fffffffffffffffffffffffff00000000000000000000000000000000000000008416811790915590519190951694919391928592917f3134e8a2e6d97e929a7e54011ea5485d7d196dd5f0ba4d4ef95803e8e3fc257f9190a4611bcb828483612884565b8183556120bc8142613583565b600184018190556040805185548152602081019290925233917f53a06858e4b0bb751491f078084a1a381e3fb6d6e9dd983c266e2d68e33bd79a91015b60405180910390a2505050565b600063ffffffff8211156121825760405162461bcd60e51b815260206004820152602660248201527f53616665436173743a2076616c756520646f65736e27742066697420696e203360448201527f322062697473000000000000000000000000000000000000000000000000000060648201526084016109a4565b5090565b60018101548154600091610d3c91613583565b600980546001600160a01b038381167fffffffffffffffffffffffff0000000000000000000000000000000000000000831681179093556040519116919082907f8be0079c531659141344cd1fd0a4f28419497f9722a3daafe3b4186f6b6457e090600090a35050565b600061220e84612186565b1161225b5760405162461bcd60e51b815260206004820152601f60248201527f7352656c205574696c733a206e6f7468696e6720746f207472616e736665720060448201526064016109a4565b61226482612186565b156122d75760405162461bcd60e51b815260206004820152603960248201527f7352656c205574696c733a2063616e6e6f74207472616e7366657220746f206160448201527f63636f756e7420776974682076657374656420746f6b656e730000000000000060648201526084016109a4565b825482556001808401805491840191909155600280850180549185019190915560008086559182905581905560408051828152602081018390529081019190915233907fdf52a1412082881a0be0c3dc590839d5d2ded9d7f45ebb2acf23ec46a77eef749060600160405180910390a2806001600160a01b03167fdf52a1412082881a0be0c3dc590839d5d2ded9d7f45ebb2acf23ec46a77eef74836040516120f991908154815260018201546020820152600290910154604082015260600190565b6000610d3c6123a7611def565b836040517f19010000000000000000000000000000000000000000000000000000000000006020820152602281018390526042810182905260009060620160405160208183030381529060405280519060200120905092915050565b6000806000612414878787876129c1565b91509150612421816125cc565b5095945050505050565b6001600160a01b03811660009081526005602052604090208054600181018255905b50919050565b6115058282612acc565b6001600160a01b038316158061247b57506001600160a01b03831630145b1561248557505050565b336000908152600e6020526040812061249d90612186565b336000908152602081905260409020546124b791906135d6565b90508082111561252f5760405162461bcd60e51b815260206004820152602760248201527f7352656c3a20796f752063616e6e6f74207472616e736665722076657374656460448201527f20746f6b656e730000000000000000000000000000000000000000000000000060648201526084016109a4565b6001600160a01b0384166000908152600d60205260409020611bcb9083612ae4565b611095838383612c31565b6000808251604114156125935760208301516040840151606085015160001a612587878285856129c1565b945094505050506125c5565b8251604014156125bd57602083015160408401516125b2868383612c63565b9350935050506125c5565b506000905060025b9250929050565b60008160048111156125e0576125e061366a565b14156125e95750565b60018160048111156125fd576125fd61366a565b141561264b5760405162461bcd60e51b815260206004820152601860248201527f45434453413a20696e76616c6964207369676e6174757265000000000000000060448201526064016109a4565b600281600481111561265f5761265f61366a565b14156126ad5760405162461bcd60e51b815260206004820152601f60248201527f45434453413a20696e76616c6964207369676e6174757265206c656e6774680060448201526064016109a4565b60038160048111156126c1576126c161366a565b14156127355760405162461bcd60e51b815260206004820152602260248201527f45434453413a20696e76616c6964207369676e6174757265202773272076616c60448201527f756500000000000000000000000000000000000000000000000000000000000060648201526084016109a4565b60048160048111156127495761274961366a565b1415610c205760405162461bcd60e51b815260206004820152602260248201527f45434453413a20696e76616c6964207369676e6174757265202776272076616c60448201527f756500000000000000000000000000000000000000000000000000000000000060648201526084016109a4565b6127c78282612cab565b6002547bffffffffffffffffffffffffffffffffffffffffffffffffffffffff101561285b5760405162461bcd60e51b815260206004820152603060248201527f4552433230566f7465733a20746f74616c20737570706c79207269736b73206f60448201527f766572666c6f77696e6720766f7465730000000000000000000000000000000060648201526084016109a4565b611bcb6008612d9e83612daa565b6000612878600284841861359b565b610cd290848416613583565b816001600160a01b0316836001600160a01b0316141580156128a65750600081115b15611095576001600160a01b03831615612934576001600160a01b038316600090815260076020526040812081906128e190612f8c85612daa565b91509150846001600160a01b03167fdec2bacdd2f05b59de34da9b523dff8be42e5e38e818c82fdb0bae774387a7248383604051612929929190918252602082015260400190565b60405180910390a250505b6001600160a01b03821615611095576001600160a01b0382166000908152600760205260408120819061296a90612d9e85612daa565b91509150836001600160a01b03167fdec2bacdd2f05b59de34da9b523dff8be42e5e38e818c82fdb0bae774387a72483836040516129b2929190918252602082015260400190565b60405180910390a25050505050565b6000807f7fffffffffffffffffffffffffffffff5d576e7357a4501ddfe92f46681b20a08311156129f85750600090506003612ac3565b8460ff16601b14158015612a1057508460ff16601c14155b15612a215750600090506004612ac3565b6040805160008082526020820180845289905260ff881692820192909252606081018690526080810185905260019060a0016020604051602081039080840390855afa158015612a75573d6000803e3d6000fd5b50506040517fffffffffffffffffffffffffffffffffffffffffffffffffffffffffffffffe001519150506001600160a01b038116612abc57600060019250925050612ac3565b9150600090505b94509492505050565b612ad68282612f98565b611bcb6008612f8c83612daa565b4282600101541115612b5e5760405162461bcd60e51b815260206004820152602760248201527f7352656c205574696c733a20746f6b656e7320617265206e6f7420756e6c6f6360448201527f6b6564207965740000000000000000000000000000000000000000000000000060648201526084016109a4565b8154811115612bd55760405162461bcd60e51b815260206004820152603560248201527f7352656c205574696c733a20746f6b656e732073686f756c6420626520756e6c60448201527f6f636b6564206265666f7265207472616e73666572000000000000000000000060648201526084016109a4565b80826000016000828254612be991906135d6565b909155505060408051835481526001840154602082015233917f53a06858e4b0bb751491f078084a1a381e3fb6d6e9dd983c266e2d68e33bd79a910160405180910390a25050565b6001600160a01b0383811660009081526006602052604080822054858416835291205461109592918216911683612884565b6000807f7fffffffffffffffffffffffffffffffffffffffffffffffffffffffffffffff831660ff84901c601b01612c9d878288856129c1565b935093505050935093915050565b6001600160a01b038216612d015760405162461bcd60e51b815260206004820152601f60248201527f45524332303a206d696e7420746f20746865207a65726f20616464726573730060448201526064016109a4565b612d0d6000838361245d565b8060026000828254612d1f9190613583565b90915550506001600160a01b03821660009081526020819052604081208054839290612d4c908490613583565b90915550506040518181526001600160a01b038316906000907fddf252ad1be2c89b69c2b068fc378daa952ba7f163c4a11628f55a4df523b3ef9060200160405180910390a361150560008383612551565b6000610cd28284613583565b825460009081908015612e0a5785612dc36001836135d6565b81548110612dd357612dd3613699565b60009182526020909120015464010000000090047bffffffffffffffffffffffffffffffffffffffffffffffffffffffff16612e0d565b60005b7bffffffffffffffffffffffffffffffffffffffffffffffffffffffff169250612e3b83858763ffffffff16565b9150600081118015612e7957504386612e556001846135d6565b81548110612e6557612e65613699565b60009182526020909120015463ffffffff16145b15612f0357612e8782613130565b86612e936001846135d6565b81548110612ea357612ea3613699565b9060005260206000200160000160046101000a8154817bffffffffffffffffffffffffffffffffffffffffffffffffffffffff02191690837bffffffffffffffffffffffffffffffffffffffffffffffffffffffff160217905550612f83565b856040518060400160405280612f1843612106565b63ffffffff168152602001612f2c85613130565b7bffffffffffffffffffffffffffffffffffffffffffffffffffffffff90811690915282546001810184556000938452602093849020835194909301519091166401000000000263ffffffff909316929092179101555b50935093915050565b6000610cd282846135d6565b6001600160a01b0382166130145760405162461bcd60e51b815260206004820152602160248201527f45524332303a206275726e2066726f6d20746865207a65726f2061646472657360448201527f730000000000000000000000000000000000000000000000000000000000000060648201526084016109a4565b6130208260008361245d565b6001600160a01b038216600090815260208190526040902054818110156130af5760405162461bcd60e51b815260206004820152602260248201527f45524332303a206275726e20616d6f756e7420657863656564732062616c616e60448201527f636500000000000000000000000000000000000000000000000000000000000060648201526084016109a4565b6001600160a01b03831660009081526020819052604081208383039055600280548492906130de9084906135d6565b90915550506040518281526000906001600160a01b038516907fddf252ad1be2c89b69c2b068fc378daa952ba7f163c4a11628f55a4df523b3ef9060200160405180910390a361109583600084612551565b60007bffffffffffffffffffffffffffffffffffffffffffffffffffffffff8211156121825760405162461bcd60e51b815260206004820152602760248201527f53616665436173743a2076616c756520646f65736e27742066697420696e203260448201527f323420626974730000000000000000000000000000000000000000000000000060648201526084016109a4565b80356001600160a01b03811681146131db57600080fd5b919050565b803560ff811681146131db57600080fd5b60006020828403121561320357600080fd5b610cd2826131c4565b6000806040838503121561321f57600080fd5b613228836131c4565b9150613236602084016131c4565b90509250929050565b60008060006060848603121561325457600080fd5b61325d846131c4565b925061326b602085016131c4565b9150604084013590509250925092565b600080600080600080600060e0888a03121561329657600080fd5b61329f886131c4565b96506132ad602089016131c4565b955060408801359450606088013593506132c9608089016131e0565b925060a0880135915060c0880135905092959891949750929550565b600080604083850312156132f857600080fd5b613301836131c4565b946020939093013593505050565b60008060006060848603121561332457600080fd5b61332d846131c4565b95602085013595506040909401359392505050565b60008060008060008060c0878903121561335b57600080fd5b613364876131c4565b95506020870135945060408701359350613380606088016131e0565b92506080870135915060a087013590509295509295509295565b600080604083850312156133ad57600080fd5b6133b6836131c4565b9150602083013563ffffffff811681146133cf57600080fd5b809150509250929050565b6000602082840312156133ec57600080fd5b81518015158114610cd257600080fd5b60006020828403121561340e57600080fd5b5035919050565b60006020828403121561342757600080fd5b5051919050565b60008060006060848603121561344357600080fd5b8335925060208401359150604084013567ffffffffffffffff8082111561346957600080fd5b818601915086601f83011261347d57600080fd5b81358181111561348f5761348f6136c8565b604051601f82017fffffffffffffffffffffffffffffffffffffffffffffffffffffffffffffffe0908116603f011681019083821181831017156134d5576134d56136c8565b816040528281528960208487010111156134ee57600080fd5b8260208601602083013760006020848301015280955050505050509250925092565b600060208083528351808285015260005b8181101561353d57858101830151858201604001528201613521565b8181111561354f576000604083870101525b50601f017fffffffffffffffffffffffffffffffffffffffffffffffffffffffffffffffe016929092016040019392505050565b600082198211156135965761359661363b565b500190565b6000826135d1577f4e487b7100000000000000000000000000000000000000000000000000000000600052601260045260246000fd5b500490565b6000828210156135e8576135e861363b565b500390565b600181811c9082168061360157607f821691505b6020821081141561244d577f4e487b7100000000000000000000000000000000000000000000000000000000600052602260045260246000fd5b7f4e487b7100000000000000000000000000000000000000000000000000000000600052601160045260246000fd5b7f4e487b7100000000000000000000000000000000000000000000000000000000600052602160045260246000fd5b7f4e487b7100000000000000000000000000000000000000000000000000000000600052603260045260246000fd5b7f4e487b7100000000000000000000000000000000000000000000000000000000600052604160045260246000fdfea264697066735822122043d1d67e9890915107ea16adfddd1707dbbd5b7df5919560d558da7255e7b73d64736f6c63430008060033",
  "deployedBytecode": "0x608060405234801561001057600080fd5b50600436106103205760003560e01c8063848f343c116101a7578063c3cda520116100ee578063e02c8fc511610097578063f1127ed811610071578063f1127ed8146107aa578063f2fde38b146107fc578063f3c5f51e1461080f57600080fd5b8063e02c8fc514610712578063ea8809a614610739578063eb8844f91461076e57600080fd5b8063c9b493c8116100c8578063c9b493c8146106b3578063d505accf146106c6578063dd62ed3e146106d957600080fd5b8063c3cda52014610664578063c50ef91e14610677578063c7c90bfb1461068a57600080fd5b806395d89b4111610150578063a09409601161012a578063a094096014610617578063a457c2d71461063e578063a9059cbb1461065157600080fd5b806395d89b41146105e9578063983ebeb5146105f15780639ab24eb01461060457600080fd5b80638e539e8c116101815780638e539e8c146105b05780638ec94474146105c357806391db7b0d146105d657600080fd5b8063848f343c1461056c5780638adaaa841461058c5780638da5cb5b1461059f57600080fd5b806345459bcf1161026b5780637102b7281161021457806376831ae5116101ee57806376831ae51461050657806376b467b71461052d5780637ecebe001461055957600080fd5b80637102b728146104e357806371074519146104f6578063715018a6146104fe57600080fd5b80636198e339116102455780636198e3391461047f5780636fcfff451461049257806370a08231146104ba57600080fd5b806345459bcf14610438578063587cde1e146104405780635c19a95c1461046c57600080fd5b8063313ce567116102cd57806339509351116102a757806339509351146104095780633a46b1a81461041c5780633fd8b02f1461042f57600080fd5b8063313ce567146103df5780633644e515146103ee5780633664bf2d146103f657600080fd5b806318160ddd116102fe57806318160ddd146103a557806323b872dd146103b7578063294d1bf0146103ca57600080fd5b806306fdde0314610325578063095ea7b3146103435780631228732814610366575b600080fd5b61032d610859565b60405161033a9190613510565b60405180910390f35b6103566103513660046132e5565b6108eb565b604051901515815260200161033a565b61038d7f000000000000000000000000000000000000000000000000000000000000000081565b6040516001600160a01b03909116815260200161033a565b6002545b60405190815260200161033a565b6103566103c536600461323f565b610901565b6103dd6103d836600461342e565b6109c5565b005b6040516012815260200161033a565b6103a9610b47565b6103dd6104043660046133fc565b610b56565b6103566104173660046132e5565b610c23565b6103a961042a3660046132e5565b610c5f565b6103a9600b5481565b6103dd610cd9565b61038d61044e3660046131f1565b6001600160a01b039081166000908152600660205260409020541690565b6103dd61047a3660046131f1565b610cf3565b6103dd61048d3660046133fc565b610cfd565b6104a56104a03660046131f1565b610d1a565b60405163ffffffff909116815260200161033a565b6103a96104c83660046131f1565b6001600160a01b031660009081526020819052604090205490565b6103a96104f13660046131f1565b610d42565b6103dd610d63565b6103dd610ea2565b6103a97f000000000000000000000000000000000000000000000000000000000000000081565b6103a961053b3660046131f1565b6001600160a01b03166000908152600d602052604090206001015490565b6103a96105673660046131f1565b610f06565b6103a961057a3660046131f1565b600c6020526000908152604090205481565b6103dd61059a3660046131f1565b610f24565b6009546001600160a01b031661038d565b6103a96105be3660046133fc565b610feb565b6103dd6105d13660046131f1565b611047565b6103dd6105e43660046133fc565b61109a565b61032d611129565b6103dd6105ff36600461330f565b611138565b6103a96106123660046131f1565b61119d565b6103a97f000000000000000000000000000000000000000000000000000000000000000081565b61035661064c3660046132e5565b61124e565b61035661065f3660046132e5565b6112ff565b6103dd610672366004613342565b61130c565b600a5461038d906001600160a01b031681565b6103a96106983660046131f1565b6001600160a01b03166000908152600d602052604090205490565b6103dd6106c13660046133fc565b611442565b6103dd6106d436600461327b565b611509565b6103a96106e736600461320c565b6001600160a01b03918216600090815260016020908152604080832093909416825291909152205490565b6103a97f000000000000000000000000000000000000000000000000000000000000000081565b61074c6107473660046131f1565b61166d565b604080518251815260208084015190820152918101519082015260600161033a565b61079561077c3660046131f1565b600d602052600090815260409020805460019091015482565b6040805192835260208301919091520161033a565b6107bd6107b836600461339a565b6116d3565b60408051825163ffffffff1681526020928301517bffffffffffffffffffffffffffffffffffffffffffffffffffffffff16928101929092520161033a565b6103dd61080a3660046131f1565b61176c565b61083e61081d3660046131f1565b600e6020526000908152604090208054600182015460029092015490919083565b6040805193845260208401929092529082015260600161033a565b606060038054610868906135ed565b80601f0160208091040260200160405190810160405280929190818152602001828054610894906135ed565b80156108e15780601f106108b6576101008083540402835291602001916108e1565b820191906000526020600020905b8154815290600101906020018083116108c457829003601f168201915b5050505050905090565b60006108f833848461184b565b50600192915050565b600061090e8484846119a3565b6001600160a01b0384166000908152600160209081526040808320338452909152902054828110156109ad5760405162461bcd60e51b815260206004820152602860248201527f45524332303a207472616e7366657220616d6f756e742065786365656473206160448201527f6c6c6f77616e636500000000000000000000000000000000000000000000000060648201526084015b60405180910390fd5b6109ba853385840361184b565b506001949350505050565b336000818152600c602090815260408083205490519293610a2693889388939101938452602084019290925260601b7fffffffffffffffffffffffffffffffffffffffff000000000000000000000000166040830152605482015260740190565b604080518083037fffffffffffffffffffffffffffffffffffffffffffffffffffffffffffffffe001815282825280516020918201207f19457468657265756d205369676e6564204d6573736167653a0a33320000000082850152603c8085019190915282518085039091018152605c909301909152815191012090506000610aaf8284611bd1565b600a549091506001600160a01b03808316911614610b0f5760405162461bcd60e51b815260206004820152601a60248201527f7352656c3a20436c61696d206e6f7420617574686f72697a656400000000000060448201526064016109a4565b336000908152600c60205260408120805460019290610b2f908490613583565b90915550610b409050338686611bf5565b5050505050565b6000610b51611def565b905090565b6040517f23b872dd000000000000000000000000000000000000000000000000000000008152336004820152306024820152604481018290527f00000000000000000000000000000000000000000000000000000000000000006001600160a01b0316906323b872dd90606401602060405180830381600087803b158015610bdd57600080fd5b505af1158015610bf1573d6000803e3d6000fd5b505050506040513d601f19601f82011682018060405250810190610c1591906133da565b50610c203382611ee2565b50565b3360008181526001602090815260408083206001600160a01b038716845290915281205490916108f8918590610c5a908690613583565b61184b565b6000438210610cb05760405162461bcd60e51b815260206004820152601f60248201527f4552433230566f7465733a20626c6f636b206e6f7420796574206d696e65640060448201526064016109a4565b6001600160a01b0383166000908152600760205260409020610cd29083611eec565b9392505050565b336000908152600d60205260409020610cf190611fd3565b565b610c20338261201e565b600b54336000908152600d60205260409020610c209183906120af565b6001600160a01b038116600090815260076020526040812054610d3c90612106565b92915050565b6001600160a01b0381166000908152600e60205260408120610d3c90612186565b336000908152600e602052604080822090517f997665ea00000000000000000000000000000000000000000000000000000000815260048101919091527f000000000000000000000000000000000000000000000000000000000000000060248201527f000000000000000000000000000000000000000000000000000000000000000060448201527f0000000000000000000000000000000000000000000000000000000000000000606482015273__$b4ae538d42a0e0bb8330684d08e51a40b4$__9063997665ea9060840160206040518083038186803b158015610e4957600080fd5b505af4158015610e5d573d6000803e3d6000fd5b505050506040513d601f19601f82011682018060405250810190610e819190613415565b600b54336000908152600d60205260409020919250610c20919083906120af565b6009546001600160a01b03163314610efc5760405162461bcd60e51b815260206004820181905260248201527f4f776e61626c653a2063616c6c6572206973206e6f7420746865206f776e657260448201526064016109a4565b610cf16000612199565b6001600160a01b038116600090815260056020526040812054610d3c565b6009546001600160a01b03163314610f7e5760405162461bcd60e51b815260206004820181905260248201527f4f776e61626c653a2063616c6c6572206973206e6f7420746865206f776e657260448201526064016109a4565b600a80547fffffffffffffffffffffffff0000000000000000000000000000000000000000166001600160a01b0383169081179091556040519081527f8961078521e826adb5caac59fa1f47e24f2059266ab5fe7c7fbf9b2ccd5a21e3906020015b60405180910390a150565b600043821061103c5760405162461bcd60e51b815260206004820152601f60248201527f4552433230566f7465733a20626c6f636b206e6f7420796574206d696e65640060448201526064016109a4565b610d3c600883611eec565b336000908152600e6020526040812061105f90612186565b6001600160a01b0383166000908152600e6020526040808220338352912091925061108b919084612203565b61109582826112ff565b505050565b6009546001600160a01b031633146110f45760405162461bcd60e51b815260206004820181905260248201527f4f776e61626c653a2063616c6c6572206973206e6f7420746865206f776e657260448201526064016109a4565b600b8190556040518181527fe8bf8dfb4abe1420b183a0e83ced724064b765215e282a7a58dff3c1fef5e3f190602001610fe0565b606060048054610868906135ed565b6009546001600160a01b031633146111925760405162461bcd60e51b815260206004820181905260248201527f4f776e61626c653a2063616c6c6572206973206e6f7420746865206f776e657260448201526064016109a4565b611095838383611bf5565b6001600160a01b0381166000908152600760205260408120548015611226576001600160a01b03831660009081526007602052604090206111df6001836135d6565b815481106111ef576111ef613699565b60009182526020909120015464010000000090047bffffffffffffffffffffffffffffffffffffffffffffffffffffffff16611229565b60005b7bffffffffffffffffffffffffffffffffffffffffffffffffffffffff169392505050565b3360009081526001602090815260408083206001600160a01b0386168452909152812054828110156112e85760405162461bcd60e51b815260206004820152602560248201527f45524332303a2064656372656173656420616c6c6f77616e63652062656c6f7760448201527f207a65726f00000000000000000000000000000000000000000000000000000060648201526084016109a4565b6112f5338585840361184b565b5060019392505050565b60006108f83384846119a3565b8342111561135c5760405162461bcd60e51b815260206004820152601d60248201527f4552433230566f7465733a207369676e6174757265206578706972656400000060448201526064016109a4565b604080517fe48329057bfd03d55e49b547132e39cffd9c1820ad7b9d4c5307691425d15adf60208201526001600160a01b0388169181019190915260608101869052608081018590526000906113d6906113ce9060a0016040516020818303038152906040528051906020012061239a565b858585612403565b90506113e18161242b565b861461142f5760405162461bcd60e51b815260206004820152601960248201527f4552433230566f7465733a20696e76616c6964206e6f6e63650000000000000060448201526064016109a4565b611439818861201e565b50505050505050565b61144c3382612453565b6040517fa9059cbb000000000000000000000000000000000000000000000000000000008152336004820152602481018290527f00000000000000000000000000000000000000000000000000000000000000006001600160a01b03169063a9059cbb90604401602060405180830381600087803b1580156114cd57600080fd5b505af11580156114e1573d6000803e3d6000fd5b505050506040513d601f19601f8201168201806040525081019061150591906133da565b5050565b834211156115595760405162461bcd60e51b815260206004820152601d60248201527f45524332305065726d69743a206578706972656420646561646c696e6500000060448201526064016109a4565b60007f00000000000000000000000000000000000000000000000000000000000000008888886115888c61242b565b6040805160208101969096526001600160a01b0394851690860152929091166060840152608083015260a082015260c0810186905260e00160405160208183030381529060405280519060200120905060006115e38261239a565b905060006115f382878787612403565b9050896001600160a01b0316816001600160a01b0316146116565760405162461bcd60e51b815260206004820152601e60248201527f45524332305065726d69743a20696e76616c6964207369676e6174757265000060448201526064016109a4565b6116618a8a8a61184b565b50505050505050505050565b61169160405180606001604052806000815260200160008152602001600081525090565b506001600160a01b03166000908152600e6020908152604091829020825160608101845281548152600182015492810192909252600201549181019190915290565b60408051808201909152600080825260208201526001600160a01b0383166000908152600760205260409020805463ffffffff841690811061171757611717613699565b60009182526020918290206040805180820190915291015463ffffffff8116825264010000000090047bffffffffffffffffffffffffffffffffffffffffffffffffffffffff16918101919091529392505050565b6009546001600160a01b031633146117c65760405162461bcd60e51b815260206004820181905260248201527f4f776e61626c653a2063616c6c6572206973206e6f7420746865206f776e657260448201526064016109a4565b6001600160a01b0381166118425760405162461bcd60e51b815260206004820152602660248201527f4f776e61626c653a206e6577206f776e657220697320746865207a65726f206160448201527f646472657373000000000000000000000000000000000000000000000000000060648201526084016109a4565b610c2081612199565b6001600160a01b0383166118c65760405162461bcd60e51b8152602060048201526024808201527f45524332303a20617070726f76652066726f6d20746865207a65726f2061646460448201527f726573730000000000000000000000000000000000000000000000000000000060648201526084016109a4565b6001600160a01b0382166119425760405162461bcd60e51b815260206004820152602260248201527f45524332303a20617070726f766520746f20746865207a65726f20616464726560448201527f737300000000000000000000000000000000000000000000000000000000000060648201526084016109a4565b6001600160a01b0383811660008181526001602090815260408083209487168084529482529182902085905590518481527f8c5be1e5ebec7d5bd14f71427d1e84f3dd0314c0f7b2291e5b200ac8c7c3b925910160405180910390a3505050565b6001600160a01b038316611a1f5760405162461bcd60e51b815260206004820152602560248201527f45524332303a207472616e736665722066726f6d20746865207a65726f20616460448201527f647265737300000000000000000000000000000000000000000000000000000060648201526084016109a4565b6001600160a01b038216611a9b5760405162461bcd60e51b815260206004820152602360248201527f45524332303a207472616e7366657220746f20746865207a65726f206164647260448201527f657373000000000000000000000000000000000000000000000000000000000060648201526084016109a4565b611aa683838361245d565b6001600160a01b03831660009081526020819052604090205481811015611b355760405162461bcd60e51b815260206004820152602660248201527f45524332303a207472616e7366657220616d6f756e742065786365656473206260448201527f616c616e6365000000000000000000000000000000000000000000000000000060648201526084016109a4565b6001600160a01b03808516600090815260208190526040808220858503905591851681529081208054849290611b6c908490613583565b92505081905550826001600160a01b0316846001600160a01b03167fddf252ad1be2c89b69c2b068fc378daa952ba7f163c4a11628f55a4df523b3ef84604051611bb891815260200190565b60405180910390a3611bcb848484612551565b50505050565b6000806000611be0858561255c565b91509150611bed816125cc565b509392505050565b6001600160a01b0383166000908152600e60205260409081902090517fb30018140000000000000000000000000000000000000000000000000000000081526004810191909152602481018390526044810182905273__$b4ae538d42a0e0bb8330684d08e51a40b4$__9063b30018149060640160006040518083038186803b158015611c8157600080fd5b505af4158015611c95573d6000803e3d6000fd5b50506040517f70a082310000000000000000000000000000000000000000000000000000000081523060048201527f00000000000000000000000000000000000000000000000000000000000000006001600160a01b031692506370a08231915060240160206040518083038186803b158015611d1157600080fd5b505afa158015611d25573d6000803e3d6000fd5b505050506040513d601f19601f82011682018060405250810190611d499190613415565b8183611d5460025490565b611d5e9190613583565b611d689190613583565b1115611ddc5760405162461bcd60e51b815260206004820152602160248201527f7352656c3a204e6f7420656e6f756768742052454c20696e20636f6e7472616360448201527f740000000000000000000000000000000000000000000000000000000000000060648201526084016109a4565b61109583611dea8385613583565b611ee2565b60007f0000000000000000000000000000000000000000000000000000000000000000461415611e3e57507f000000000000000000000000000000000000000000000000000000000000000090565b50604080517f00000000000000000000000000000000000000000000000000000000000000006020808301919091527f0000000000000000000000000000000000000000000000000000000000000000828401527f000000000000000000000000000000000000000000000000000000000000000060608301524660808301523060a0808401919091528351808403909101815260c0909201909252805191012090565b61150582826127bd565b8154600090815b81811015611f50576000611f078284612869565b905084868281548110611f1c57611f1c613699565b60009182526020909120015463ffffffff161115611f3c57809250611f4a565b611f47816001613583565b91505b50611ef3565b8115611fa95784611f626001846135d6565b81548110611f7257611f72613699565b60009182526020909120015464010000000090047bffffffffffffffffffffffffffffffffffffffffffffffffffffffff16611fac565b60005b7bffffffffffffffffffffffffffffffffffffffffffffffffffffffff1695945050505050565b60008082556001820181905560408051828152602081019290925233917f53a06858e4b0bb751491f078084a1a381e3fb6d6e9dd983c266e2d68e33bd79a910160405180910390a250565b6001600160a01b038281166000818152600660208181526040808420805485845282862054949093528787167fffffffffffffffffffffffff00000000000000000000000000000000000000008416811790915590519190951694919391928592917f3134e8a2e6d97e929a7e54011ea5485d7d196dd5f0ba4d4ef95803e8e3fc257f9190a4611bcb828483612884565b8183556120bc8142613583565b600184018190556040805185548152602081019290925233917f53a06858e4b0bb751491f078084a1a381e3fb6d6e9dd983c266e2d68e33bd79a91015b60405180910390a2505050565b600063ffffffff8211156121825760405162461bcd60e51b815260206004820152602660248201527f53616665436173743a2076616c756520646f65736e27742066697420696e203360448201527f322062697473000000000000000000000000000000000000000000000000000060648201526084016109a4565b5090565b60018101548154600091610d3c91613583565b600980546001600160a01b038381167fffffffffffffffffffffffff0000000000000000000000000000000000000000831681179093556040519116919082907f8be0079c531659141344cd1fd0a4f28419497f9722a3daafe3b4186f6b6457e090600090a35050565b600061220e84612186565b1161225b5760405162461bcd60e51b815260206004820152601f60248201527f7352656c205574696c733a206e6f7468696e6720746f207472616e736665720060448201526064016109a4565b61226482612186565b156122d75760405162461bcd60e51b815260206004820152603960248201527f7352656c205574696c733a2063616e6e6f74207472616e7366657220746f206160448201527f63636f756e7420776974682076657374656420746f6b656e730000000000000060648201526084016109a4565b825482556001808401805491840191909155600280850180549185019190915560008086559182905581905560408051828152602081018390529081019190915233907fdf52a1412082881a0be0c3dc590839d5d2ded9d7f45ebb2acf23ec46a77eef749060600160405180910390a2806001600160a01b03167fdf52a1412082881a0be0c3dc590839d5d2ded9d7f45ebb2acf23ec46a77eef74836040516120f991908154815260018201546020820152600290910154604082015260600190565b6000610d3c6123a7611def565b836040517f19010000000000000000000000000000000000000000000000000000000000006020820152602281018390526042810182905260009060620160405160208183030381529060405280519060200120905092915050565b6000806000612414878787876129c1565b91509150612421816125cc565b5095945050505050565b6001600160a01b03811660009081526005602052604090208054600181018255905b50919050565b6115058282612acc565b6001600160a01b038316158061247b57506001600160a01b03831630145b1561248557505050565b336000908152600e6020526040812061249d90612186565b336000908152602081905260409020546124b791906135d6565b90508082111561252f5760405162461bcd60e51b815260206004820152602760248201527f7352656c3a20796f752063616e6e6f74207472616e736665722076657374656460448201527f20746f6b656e730000000000000000000000000000000000000000000000000060648201526084016109a4565b6001600160a01b0384166000908152600d60205260409020611bcb9083612ae4565b611095838383612c31565b6000808251604114156125935760208301516040840151606085015160001a612587878285856129c1565b945094505050506125c5565b8251604014156125bd57602083015160408401516125b2868383612c63565b9350935050506125c5565b506000905060025b9250929050565b60008160048111156125e0576125e061366a565b14156125e95750565b60018160048111156125fd576125fd61366a565b141561264b5760405162461bcd60e51b815260206004820152601860248201527f45434453413a20696e76616c6964207369676e6174757265000000000000000060448201526064016109a4565b600281600481111561265f5761265f61366a565b14156126ad5760405162461bcd60e51b815260206004820152601f60248201527f45434453413a20696e76616c6964207369676e6174757265206c656e6774680060448201526064016109a4565b60038160048111156126c1576126c161366a565b14156127355760405162461bcd60e51b815260206004820152602260248201527f45434453413a20696e76616c6964207369676e6174757265202773272076616c60448201527f756500000000000000000000000000000000000000000000000000000000000060648201526084016109a4565b60048160048111156127495761274961366a565b1415610c205760405162461bcd60e51b815260206004820152602260248201527f45434453413a20696e76616c6964207369676e6174757265202776272076616c60448201527f756500000000000000000000000000000000000000000000000000000000000060648201526084016109a4565b6127c78282612cab565b6002547bffffffffffffffffffffffffffffffffffffffffffffffffffffffff101561285b5760405162461bcd60e51b815260206004820152603060248201527f4552433230566f7465733a20746f74616c20737570706c79207269736b73206f60448201527f766572666c6f77696e6720766f7465730000000000000000000000000000000060648201526084016109a4565b611bcb6008612d9e83612daa565b6000612878600284841861359b565b610cd290848416613583565b816001600160a01b0316836001600160a01b0316141580156128a65750600081115b15611095576001600160a01b03831615612934576001600160a01b038316600090815260076020526040812081906128e190612f8c85612daa565b91509150846001600160a01b03167fdec2bacdd2f05b59de34da9b523dff8be42e5e38e818c82fdb0bae774387a7248383604051612929929190918252602082015260400190565b60405180910390a250505b6001600160a01b03821615611095576001600160a01b0382166000908152600760205260408120819061296a90612d9e85612daa565b91509150836001600160a01b03167fdec2bacdd2f05b59de34da9b523dff8be42e5e38e818c82fdb0bae774387a72483836040516129b2929190918252602082015260400190565b60405180910390a25050505050565b6000807f7fffffffffffffffffffffffffffffff5d576e7357a4501ddfe92f46681b20a08311156129f85750600090506003612ac3565b8460ff16601b14158015612a1057508460ff16601c14155b15612a215750600090506004612ac3565b6040805160008082526020820180845289905260ff881692820192909252606081018690526080810185905260019060a0016020604051602081039080840390855afa158015612a75573d6000803e3d6000fd5b50506040517fffffffffffffffffffffffffffffffffffffffffffffffffffffffffffffffe001519150506001600160a01b038116612abc57600060019250925050612ac3565b9150600090505b94509492505050565b612ad68282612f98565b611bcb6008612f8c83612daa565b4282600101541115612b5e5760405162461bcd60e51b815260206004820152602760248201527f7352656c205574696c733a20746f6b656e7320617265206e6f7420756e6c6f6360448201527f6b6564207965740000000000000000000000000000000000000000000000000060648201526084016109a4565b8154811115612bd55760405162461bcd60e51b815260206004820152603560248201527f7352656c205574696c733a20746f6b656e732073686f756c6420626520756e6c60448201527f6f636b6564206265666f7265207472616e73666572000000000000000000000060648201526084016109a4565b80826000016000828254612be991906135d6565b909155505060408051835481526001840154602082015233917f53a06858e4b0bb751491f078084a1a381e3fb6d6e9dd983c266e2d68e33bd79a910160405180910390a25050565b6001600160a01b0383811660009081526006602052604080822054858416835291205461109592918216911683612884565b6000807f7fffffffffffffffffffffffffffffffffffffffffffffffffffffffffffffff831660ff84901c601b01612c9d878288856129c1565b935093505050935093915050565b6001600160a01b038216612d015760405162461bcd60e51b815260206004820152601f60248201527f45524332303a206d696e7420746f20746865207a65726f20616464726573730060448201526064016109a4565b612d0d6000838361245d565b8060026000828254612d1f9190613583565b90915550506001600160a01b03821660009081526020819052604081208054839290612d4c908490613583565b90915550506040518181526001600160a01b038316906000907fddf252ad1be2c89b69c2b068fc378daa952ba7f163c4a11628f55a4df523b3ef9060200160405180910390a361150560008383612551565b6000610cd28284613583565b825460009081908015612e0a5785612dc36001836135d6565b81548110612dd357612dd3613699565b60009182526020909120015464010000000090047bffffffffffffffffffffffffffffffffffffffffffffffffffffffff16612e0d565b60005b7bffffffffffffffffffffffffffffffffffffffffffffffffffffffff169250612e3b83858763ffffffff16565b9150600081118015612e7957504386612e556001846135d6565b81548110612e6557612e65613699565b60009182526020909120015463ffffffff16145b15612f0357612e8782613130565b86612e936001846135d6565b81548110612ea357612ea3613699565b9060005260206000200160000160046101000a8154817bffffffffffffffffffffffffffffffffffffffffffffffffffffffff02191690837bffffffffffffffffffffffffffffffffffffffffffffffffffffffff160217905550612f83565b856040518060400160405280612f1843612106565b63ffffffff168152602001612f2c85613130565b7bffffffffffffffffffffffffffffffffffffffffffffffffffffffff90811690915282546001810184556000938452602093849020835194909301519091166401000000000263ffffffff909316929092179101555b50935093915050565b6000610cd282846135d6565b6001600160a01b0382166130145760405162461bcd60e51b815260206004820152602160248201527f45524332303a206275726e2066726f6d20746865207a65726f2061646472657360448201527f730000000000000000000000000000000000000000000000000000000000000060648201526084016109a4565b6130208260008361245d565b6001600160a01b038216600090815260208190526040902054818110156130af5760405162461bcd60e51b815260206004820152602260248201527f45524332303a206275726e20616d6f756e7420657863656564732062616c616e60448201527f636500000000000000000000000000000000000000000000000000000000000060648201526084016109a4565b6001600160a01b03831660009081526020819052604081208383039055600280548492906130de9084906135d6565b90915550506040518281526000906001600160a01b038516907fddf252ad1be2c89b69c2b068fc378daa952ba7f163c4a11628f55a4df523b3ef9060200160405180910390a361109583600084612551565b60007bffffffffffffffffffffffffffffffffffffffffffffffffffffffff8211156121825760405162461bcd60e51b815260206004820152602760248201527f53616665436173743a2076616c756520646f65736e27742066697420696e203260448201527f323420626974730000000000000000000000000000000000000000000000000060648201526084016109a4565b80356001600160a01b03811681146131db57600080fd5b919050565b803560ff811681146131db57600080fd5b60006020828403121561320357600080fd5b610cd2826131c4565b6000806040838503121561321f57600080fd5b613228836131c4565b9150613236602084016131c4565b90509250929050565b60008060006060848603121561325457600080fd5b61325d846131c4565b925061326b602085016131c4565b9150604084013590509250925092565b600080600080600080600060e0888a03121561329657600080fd5b61329f886131c4565b96506132ad602089016131c4565b955060408801359450606088013593506132c9608089016131e0565b925060a0880135915060c0880135905092959891949750929550565b600080604083850312156132f857600080fd5b613301836131c4565b946020939093013593505050565b60008060006060848603121561332457600080fd5b61332d846131c4565b95602085013595506040909401359392505050565b60008060008060008060c0878903121561335b57600080fd5b613364876131c4565b95506020870135945060408701359350613380606088016131e0565b92506080870135915060a087013590509295509295509295565b600080604083850312156133ad57600080fd5b6133b6836131c4565b9150602083013563ffffffff811681146133cf57600080fd5b809150509250929050565b6000602082840312156133ec57600080fd5b81518015158114610cd257600080fd5b60006020828403121561340e57600080fd5b5035919050565b60006020828403121561342757600080fd5b5051919050565b60008060006060848603121561344357600080fd5b8335925060208401359150604084013567ffffffffffffffff8082111561346957600080fd5b818601915086601f83011261347d57600080fd5b81358181111561348f5761348f6136c8565b604051601f82017fffffffffffffffffffffffffffffffffffffffffffffffffffffffffffffffe0908116603f011681019083821181831017156134d5576134d56136c8565b816040528281528960208487010111156134ee57600080fd5b8260208601602083013760006020848301015280955050505050509250925092565b600060208083528351808285015260005b8181101561353d57858101830151858201604001528201613521565b8181111561354f576000604083870101525b50601f017fffffffffffffffffffffffffffffffffffffffffffffffffffffffffffffffe016929092016040019392505050565b600082198211156135965761359661363b565b500190565b6000826135d1577f4e487b7100000000000000000000000000000000000000000000000000000000600052601260045260246000fd5b500490565b6000828210156135e8576135e861363b565b500390565b600181811c9082168061360157607f821691505b6020821081141561244d577f4e487b7100000000000000000000000000000000000000000000000000000000600052602260045260246000fd5b7f4e487b7100000000000000000000000000000000000000000000000000000000600052601160045260246000fd5b7f4e487b7100000000000000000000000000000000000000000000000000000000600052602160045260246000fd5b7f4e487b7100000000000000000000000000000000000000000000000000000000600052603260045260246000fd5b7f4e487b7100000000000000000000000000000000000000000000000000000000600052604160045260246000fdfea264697066735822122043d1d67e9890915107ea16adfddd1707dbbd5b7df5919560d558da7255e7b73d64736f6c63430008060033",
  "libraries": {
    "Utils": "0x7bc06c482DEAd17c0e297aFbC32f6e63d3846650"
  },
  "devdoc": {
    "kind": "dev",
    "methods": {
      "DOMAIN_SEPARATOR()": {
        "details": "See {IERC20Permit-DOMAIN_SEPARATOR}."
      },
      "allowance(address,address)": {
        "details": "See {IERC20-allowance}."
      },
      "approve(address,uint256)": {
        "details": "See {IERC20-approve}. Requirements: - `spender` cannot be the zero address."
      },
      "balanceOf(address)": {
        "details": "See {IERC20-balanceOf}."
      },
      "checkpoints(address,uint32)": {
        "details": "Get the `pos`-th checkpoint for `account`."
      },
      "decimals()": {
        "details": "Returns the number of decimals used to get its user representation. For example, if `decimals` equals `2`, a balance of `505` tokens should be displayed to a user as `5.05` (`505 / 10 ** 2`). Tokens usually opt for a value of 18, imitating the relationship between Ether and Wei. This is the value {ERC20} uses, unless this function is overridden; NOTE: This information is only used for _display_ purposes: it in no way affects any of the arithmetic of the contract, including {IERC20-balanceOf} and {IERC20-transfer}."
      },
      "decreaseAllowance(address,uint256)": {
        "details": "Atomically decreases the allowance granted to `spender` by the caller. This is an alternative to {approve} that can be used as a mitigation for problems described in {IERC20-approve}. Emits an {Approval} event indicating the updated allowance. Requirements: - `spender` cannot be the zero address. - `spender` must have allowance for the caller of at least `subtractedValue`."
      },
      "delegate(address)": {
        "details": "Delegate votes from the sender to `delegatee`."
      },
      "delegateBySig(address,uint256,uint256,uint8,bytes32,bytes32)": {
        "details": "Delegates votes from signer to `delegatee`"
      },
      "delegates(address)": {
        "details": "Get the address `account` is currently delegating to."
      },
      "getPastTotalSupply(uint256)": {
        "details": "Retrieve the `totalSupply` at the end of `blockNumber`. Note, this value is the sum of all balances. It is but NOT the sum of all the delegated votes! Requirements: - `blockNumber` must have been already mined"
      },
      "getPastVotes(address,uint256)": {
        "details": "Retrieve the number of votes for `account` at the end of `blockNumber`. Requirements: - `blockNumber` must have been already mined"
      },
      "getVotes(address)": {
        "details": "Gets the current votes balance for `account`"
      },
      "increaseAllowance(address,uint256)": {
        "details": "Atomically increases the allowance granted to `spender` by the caller. This is an alternative to {approve} that can be used as a mitigation for problems described in {IERC20-approve}. Emits an {Approval} event indicating the updated allowance. Requirements: - `spender` cannot be the zero address."
      },
      "name()": {
        "details": "Returns the name of the token."
      },
      "nonces(address)": {
        "details": "See {IERC20Permit-nonces}."
      },
      "numCheckpoints(address)": {
        "details": "Get number of checkpoints for `account`."
      },
      "owner()": {
        "details": "Returns the address of the current owner."
      },
      "permit(address,address,uint256,uint256,uint8,bytes32,bytes32)": {
        "details": "See {IERC20Permit-permit}."
      },
      "renounceOwnership()": {
        "details": "Leaves the contract without owner. It will not be possible to call `onlyOwner` functions anymore. Can only be called by the current owner. NOTE: Renouncing ownership will leave the contract without an owner, thereby removing any functionality that is only available to the owner."
      },
      "symbol()": {
        "details": "Returns the symbol of the token, usually a shorter version of the name."
      },
      "totalSupply()": {
        "details": "See {IERC20-totalSupply}."
      },
      "transfer(address,uint256)": {
        "details": "See {IERC20-transfer}. Requirements: - `recipient` cannot be the zero address. - the caller must have a balance of at least `amount`."
      },
      "transferFrom(address,address,uint256)": {
        "details": "See {IERC20-transferFrom}. Emits an {Approval} event indicating the updated allowance. This is not required by the EIP. See the note at the beginning of {ERC20}. Requirements: - `sender` and `recipient` cannot be the zero address. - `sender` must have a balance of at least `amount`. - the caller must have allowance for ``sender``'s tokens of at least `amount`."
      },
      "transferOwnership(address)": {
        "details": "Transfers ownership of the contract to a new account (`newOwner`). Can only be called by the current owner."
      }
    },
    "version": 1
  },
  "userdoc": {
    "kind": "user",
    "methods": {},
    "version": 1
  },
  "storageLayout": {
    "storage": [
      {
        "astId": 3126,
        "contract": "contracts/sRel.sol:sRel",
        "label": "_balances",
        "offset": 0,
        "slot": "0",
        "type": "t_mapping(t_address,t_uint256)"
      },
      {
        "astId": 3132,
        "contract": "contracts/sRel.sol:sRel",
        "label": "_allowances",
        "offset": 0,
        "slot": "1",
        "type": "t_mapping(t_address,t_mapping(t_address,t_uint256))"
      },
      {
        "astId": 3134,
        "contract": "contracts/sRel.sol:sRel",
        "label": "_totalSupply",
        "offset": 0,
        "slot": "2",
        "type": "t_uint256"
      },
      {
        "astId": 3136,
        "contract": "contracts/sRel.sol:sRel",
        "label": "_name",
        "offset": 0,
        "slot": "3",
        "type": "t_string_storage"
      },
      {
        "astId": 3138,
        "contract": "contracts/sRel.sol:sRel",
        "label": "_symbol",
        "offset": 0,
        "slot": "4",
        "type": "t_string_storage"
      },
      {
        "astId": 4428,
        "contract": "contracts/sRel.sol:sRel",
        "label": "_nonces",
        "offset": 0,
        "slot": "5",
        "type": "t_mapping(t_address,t_struct(Counter)4935_storage)"
      },
      {
        "astId": 3757,
        "contract": "contracts/sRel.sol:sRel",
        "label": "_delegates",
        "offset": 0,
        "slot": "6",
        "type": "t_mapping(t_address,t_address)"
      },
      {
        "astId": 3763,
        "contract": "contracts/sRel.sol:sRel",
        "label": "_checkpoints",
        "offset": 0,
        "slot": "7",
        "type": "t_mapping(t_address,t_array(t_struct(Checkpoint)3748_storage)dyn_storage)"
      },
      {
        "astId": 3767,
        "contract": "contracts/sRel.sol:sRel",
        "label": "_totalSupplyCheckpoints",
        "offset": 0,
        "slot": "8",
        "type": "t_array(t_struct(Checkpoint)3748_storage)dyn_storage"
      },
      {
        "astId": 387,
        "contract": "contracts/sRel.sol:sRel",
        "label": "_owner",
        "offset": 0,
        "slot": "9",
        "type": "t_address"
      },
      {
        "astId": 7652,
        "contract": "contracts/sRel.sol:sRel",
        "label": "vestAdmin",
        "offset": 0,
        "slot": "10",
        "type": "t_address"
      },
      {
        "astId": 7655,
        "contract": "contracts/sRel.sol:sRel",
        "label": "lockPeriod",
        "offset": 0,
        "slot": "11",
        "type": "t_uint256"
      },
      {
        "astId": 7665,
        "contract": "contracts/sRel.sol:sRel",
        "label": "vestNonce",
        "offset": 0,
        "slot": "12",
        "type": "t_mapping(t_address,t_uint256)"
      },
      {
        "astId": 7670,
        "contract": "contracts/sRel.sol:sRel",
        "label": "unlocks",
        "offset": 0,
        "slot": "13",
        "type": "t_mapping(t_address,t_struct(Unlock)6893_storage)"
      },
      {
        "astId": 7675,
        "contract": "contracts/sRel.sol:sRel",
        "label": "vest",
        "offset": 0,
        "slot": "14",
        "type": "t_mapping(t_address,t_struct(Vest)6888_storage)"
      }
    ],
    "types": {
      "t_address": {
        "encoding": "inplace",
        "label": "address",
        "numberOfBytes": "20"
      },
      "t_array(t_struct(Checkpoint)3748_storage)dyn_storage": {
        "base": "t_struct(Checkpoint)3748_storage",
        "encoding": "dynamic_array",
        "label": "struct ERC20Votes.Checkpoint[]",
        "numberOfBytes": "32"
      },
      "t_mapping(t_address,t_address)": {
        "encoding": "mapping",
        "key": "t_address",
        "label": "mapping(address => address)",
        "numberOfBytes": "32",
        "value": "t_address"
      },
      "t_mapping(t_address,t_array(t_struct(Checkpoint)3748_storage)dyn_storage)": {
        "encoding": "mapping",
        "key": "t_address",
        "label": "mapping(address => struct ERC20Votes.Checkpoint[])",
        "numberOfBytes": "32",
        "value": "t_array(t_struct(Checkpoint)3748_storage)dyn_storage"
      },
      "t_mapping(t_address,t_mapping(t_address,t_uint256))": {
        "encoding": "mapping",
        "key": "t_address",
        "label": "mapping(address => mapping(address => uint256))",
        "numberOfBytes": "32",
        "value": "t_mapping(t_address,t_uint256)"
      },
      "t_mapping(t_address,t_struct(Counter)4935_storage)": {
        "encoding": "mapping",
        "key": "t_address",
        "label": "mapping(address => struct Counters.Counter)",
        "numberOfBytes": "32",
        "value": "t_struct(Counter)4935_storage"
      },
      "t_mapping(t_address,t_struct(Unlock)6893_storage)": {
        "encoding": "mapping",
        "key": "t_address",
        "label": "mapping(address => struct Utils.Unlock)",
        "numberOfBytes": "32",
        "value": "t_struct(Unlock)6893_storage"
      },
      "t_mapping(t_address,t_struct(Vest)6888_storage)": {
        "encoding": "mapping",
        "key": "t_address",
        "label": "mapping(address => struct Utils.Vest)",
        "numberOfBytes": "32",
        "value": "t_struct(Vest)6888_storage"
      },
      "t_mapping(t_address,t_uint256)": {
        "encoding": "mapping",
        "key": "t_address",
        "label": "mapping(address => uint256)",
        "numberOfBytes": "32",
        "value": "t_uint256"
      },
      "t_string_storage": {
        "encoding": "bytes",
        "label": "string",
        "numberOfBytes": "32"
      },
      "t_struct(Checkpoint)3748_storage": {
        "encoding": "inplace",
        "label": "struct ERC20Votes.Checkpoint",
        "members": [
          {
            "astId": 3745,
            "contract": "contracts/sRel.sol:sRel",
            "label": "fromBlock",
            "offset": 0,
            "slot": "0",
            "type": "t_uint32"
          },
          {
            "astId": 3747,
            "contract": "contracts/sRel.sol:sRel",
            "label": "votes",
            "offset": 4,
            "slot": "0",
            "type": "t_uint224"
          }
        ],
        "numberOfBytes": "32"
      },
      "t_struct(Counter)4935_storage": {
        "encoding": "inplace",
        "label": "struct Counters.Counter",
        "members": [
          {
            "astId": 4934,
            "contract": "contracts/sRel.sol:sRel",
            "label": "_value",
            "offset": 0,
            "slot": "0",
            "type": "t_uint256"
          }
        ],
        "numberOfBytes": "32"
      },
      "t_struct(Unlock)6893_storage": {
        "encoding": "inplace",
        "label": "struct Utils.Unlock",
        "members": [
          {
            "astId": 6890,
            "contract": "contracts/sRel.sol:sRel",
            "label": "unlockAmnt",
            "offset": 0,
            "slot": "0",
            "type": "t_uint256"
          },
          {
            "astId": 6892,
            "contract": "contracts/sRel.sol:sRel",
            "label": "unlockTime",
            "offset": 0,
            "slot": "1",
            "type": "t_uint256"
          }
        ],
        "numberOfBytes": "64"
      },
      "t_struct(Vest)6888_storage": {
        "encoding": "inplace",
        "label": "struct Utils.Vest",
        "members": [
          {
            "astId": 6883,
            "contract": "contracts/sRel.sol:sRel",
            "label": "shortAmnt",
            "offset": 0,
            "slot": "0",
            "type": "t_uint256"
          },
          {
            "astId": 6885,
            "contract": "contracts/sRel.sol:sRel",
            "label": "longAmnt",
            "offset": 0,
            "slot": "1",
            "type": "t_uint256"
          },
          {
            "astId": 6887,
            "contract": "contracts/sRel.sol:sRel",
            "label": "lastUpdate",
            "offset": 0,
            "slot": "2",
            "type": "t_uint256"
          }
        ],
        "numberOfBytes": "96"
      },
      "t_uint224": {
        "encoding": "inplace",
        "label": "uint224",
        "numberOfBytes": "28"
      },
      "t_uint256": {
        "encoding": "inplace",
        "label": "uint256",
        "numberOfBytes": "32"
      },
      "t_uint32": {
        "encoding": "inplace",
        "label": "uint32",
        "numberOfBytes": "4"
      }
    }
  }
}