{
  "address": "0xc351628EB244ec633d5f21fBD6621e1a683B1181",
  "abi": [
    {
      "inputs": [
        {
          "internalType": "address",
          "name": "_r3l",
          "type": "address"
        },
        {
          "internalType": "address",
          "name": "_vestAdmin",
          "type": "address"
        },
        {
          "internalType": "uint256",
          "name": "_vestBegin",
          "type": "uint256"
        },
        {
          "internalType": "uint256",
          "name": "_vestShort",
          "type": "uint256"
        },
        {
          "internalType": "uint256",
          "name": "_vestLong",
          "type": "uint256"
        }
      ],
      "stateMutability": "nonpayable",
      "type": "constructor"
    },
    {
      "anonymous": false,
      "inputs": [
        {
          "indexed": true,
          "internalType": "address",
          "name": "owner",
          "type": "address"
        },
        {
          "indexed": true,
          "internalType": "address",
          "name": "spender",
          "type": "address"
        },
        {
          "indexed": false,
          "internalType": "uint256",
          "name": "value",
          "type": "uint256"
        }
      ],
      "name": "Approval",
      "type": "event"
    },
    {
      "anonymous": false,
      "inputs": [
        {
          "indexed": true,
          "internalType": "address",
          "name": "delegator",
          "type": "address"
        },
        {
          "indexed": true,
          "internalType": "address",
          "name": "fromDelegate",
          "type": "address"
        },
        {
          "indexed": true,
          "internalType": "address",
          "name": "toDelegate",
          "type": "address"
        }
      ],
      "name": "DelegateChanged",
      "type": "event"
    },
    {
      "anonymous": false,
      "inputs": [
        {
          "indexed": true,
          "internalType": "address",
          "name": "delegate",
          "type": "address"
        },
        {
          "indexed": false,
          "internalType": "uint256",
          "name": "previousBalance",
          "type": "uint256"
        },
        {
          "indexed": false,
          "internalType": "uint256",
          "name": "newBalance",
          "type": "uint256"
        }
      ],
      "name": "DelegateVotesChanged",
      "type": "event"
    },
    {
      "anonymous": false,
      "inputs": [
        {
          "indexed": true,
          "internalType": "address",
          "name": "previousOwner",
          "type": "address"
        },
        {
          "indexed": true,
          "internalType": "address",
          "name": "newOwner",
          "type": "address"
        }
      ],
      "name": "OwnershipTransferred",
      "type": "event"
    },
    {
      "anonymous": false,
      "inputs": [
        {
          "indexed": true,
          "internalType": "address",
          "name": "from",
          "type": "address"
        },
        {
          "indexed": true,
          "internalType": "address",
          "name": "to",
          "type": "address"
        },
        {
          "indexed": false,
          "internalType": "uint256",
          "name": "value",
          "type": "uint256"
        }
      ],
      "name": "Transfer",
      "type": "event"
    },
    {
      "anonymous": false,
      "inputs": [
        {
          "indexed": false,
          "internalType": "uint256",
          "name": "newLockPeriod",
          "type": "uint256"
        }
      ],
      "name": "lockPeriodUpdated",
      "type": "event"
    },
    {
      "anonymous": false,
      "inputs": [
        {
          "indexed": true,
          "internalType": "address",
          "name": "account",
          "type": "address"
        },
        {
          "components": [
            {
              "internalType": "uint256",
              "name": "unlockAmnt",
              "type": "uint256"
            },
            {
              "internalType": "uint256",
              "name": "unlockTime",
              "type": "uint256"
            }
          ],
          "indexed": false,
          "internalType": "struct Utils.Unlock",
          "name": "unlockData",
          "type": "tuple"
        }
      ],
      "name": "lockUpdated",
      "type": "event"
    },
    {
      "anonymous": false,
      "inputs": [
        {
          "indexed": false,
          "internalType": "address",
          "name": "newVestAdmin",
          "type": "address"
        }
      ],
      "name": "vestAdminUpdated",
      "type": "event"
    },
    {
      "anonymous": false,
      "inputs": [
        {
          "indexed": true,
          "internalType": "address",
          "name": "account",
          "type": "address"
        },
        {
          "indexed": false,
          "internalType": "address",
          "name": "sender",
          "type": "address"
        },
        {
          "components": [
            {
              "internalType": "uint256",
              "name": "shortAmnt",
              "type": "uint256"
            },
            {
              "internalType": "uint256",
              "name": "longAmnt",
              "type": "uint256"
            },
            {
              "internalType": "uint256",
              "name": "lastUpdate",
              "type": "uint256"
            }
          ],
          "indexed": false,
          "internalType": "struct Utils.Vest",
          "name": "vestData",
          "type": "tuple"
        }
      ],
      "name": "vestUpdated",
      "type": "event"
    },
    {
      "inputs": [],
      "name": "DOMAIN_SEPARATOR",
      "outputs": [
        {
          "internalType": "bytes32",
          "name": "",
          "type": "bytes32"
        }
      ],
      "stateMutability": "view",
      "type": "function"
    },
    {
      "inputs": [
        {
          "internalType": "address",
          "name": "owner",
          "type": "address"
        },
        {
          "internalType": "address",
          "name": "spender",
          "type": "address"
        }
      ],
      "name": "allowance",
      "outputs": [
        {
          "internalType": "uint256",
          "name": "",
          "type": "uint256"
        }
      ],
      "stateMutability": "view",
      "type": "function"
    },
    {
      "inputs": [
        {
          "internalType": "address",
          "name": "spender",
          "type": "address"
        },
        {
          "internalType": "uint256",
          "name": "amount",
          "type": "uint256"
        }
      ],
      "name": "approve",
      "outputs": [
        {
          "internalType": "bool",
          "name": "",
          "type": "bool"
        }
      ],
      "stateMutability": "nonpayable",
      "type": "function"
    },
    {
      "inputs": [
        {
          "internalType": "address",
          "name": "account",
          "type": "address"
        }
      ],
      "name": "balanceOf",
      "outputs": [
        {
          "internalType": "uint256",
          "name": "",
          "type": "uint256"
        }
      ],
      "stateMutability": "view",
      "type": "function"
    },
    {
      "inputs": [
        {
          "internalType": "address",
          "name": "account",
          "type": "address"
        },
        {
          "internalType": "uint32",
          "name": "pos",
          "type": "uint32"
        }
      ],
      "name": "checkpoints",
      "outputs": [
        {
          "components": [
            {
              "internalType": "uint32",
              "name": "fromBlock",
              "type": "uint32"
            },
            {
              "internalType": "uint224",
              "name": "votes",
              "type": "uint224"
            }
          ],
          "internalType": "struct ERC20Votes.Checkpoint",
          "name": "",
          "type": "tuple"
        }
      ],
      "stateMutability": "view",
      "type": "function"
    },
    {
      "inputs": [],
      "name": "claimVestedRel",
      "outputs": [],
      "stateMutability": "nonpayable",
      "type": "function"
    },
    {
      "inputs": [],
      "name": "decimals",
      "outputs": [
        {
          "internalType": "uint8",
          "name": "",
          "type": "uint8"
        }
      ],
      "stateMutability": "view",
      "type": "function"
    },
    {
      "inputs": [
        {
          "internalType": "address",
          "name": "spender",
          "type": "address"
        },
        {
          "internalType": "uint256",
          "name": "subtractedValue",
          "type": "uint256"
        }
      ],
      "name": "decreaseAllowance",
      "outputs": [
        {
          "internalType": "bool",
          "name": "",
          "type": "bool"
        }
      ],
      "stateMutability": "nonpayable",
      "type": "function"
    },
    {
      "inputs": [
        {
          "internalType": "address",
          "name": "delegatee",
          "type": "address"
        }
      ],
      "name": "delegate",
      "outputs": [],
      "stateMutability": "nonpayable",
      "type": "function"
    },
    {
      "inputs": [
        {
          "internalType": "address",
          "name": "delegatee",
          "type": "address"
        },
        {
          "internalType": "uint256",
          "name": "nonce",
          "type": "uint256"
        },
        {
          "internalType": "uint256",
          "name": "expiry",
          "type": "uint256"
        },
        {
          "internalType": "uint8",
          "name": "v",
          "type": "uint8"
        },
        {
          "internalType": "bytes32",
          "name": "r",
          "type": "bytes32"
        },
        {
          "internalType": "bytes32",
          "name": "s",
          "type": "bytes32"
        }
      ],
      "name": "delegateBySig",
      "outputs": [],
      "stateMutability": "nonpayable",
      "type": "function"
    },
    {
      "inputs": [
        {
          "internalType": "address",
          "name": "account",
          "type": "address"
        }
      ],
      "name": "delegates",
      "outputs": [
        {
          "internalType": "address",
          "name": "",
          "type": "address"
        }
      ],
      "stateMutability": "view",
      "type": "function"
    },
    {
      "inputs": [
        {
          "internalType": "uint256",
          "name": "blockNumber",
          "type": "uint256"
        }
      ],
      "name": "getPastTotalSupply",
      "outputs": [
        {
          "internalType": "uint256",
          "name": "",
          "type": "uint256"
        }
      ],
      "stateMutability": "view",
      "type": "function"
    },
    {
      "inputs": [
        {
          "internalType": "address",
          "name": "account",
          "type": "address"
        },
        {
          "internalType": "uint256",
          "name": "blockNumber",
          "type": "uint256"
        }
      ],
      "name": "getPastVotes",
      "outputs": [
        {
          "internalType": "uint256",
          "name": "",
          "type": "uint256"
        }
      ],
      "stateMutability": "view",
      "type": "function"
    },
    {
      "inputs": [
        {
          "internalType": "address",
          "name": "account",
          "type": "address"
        }
      ],
      "name": "getVotes",
      "outputs": [
        {
          "internalType": "uint256",
          "name": "",
          "type": "uint256"
        }
      ],
      "stateMutability": "view",
      "type": "function"
    },
    {
      "inputs": [
        {
          "internalType": "address",
          "name": "spender",
          "type": "address"
        },
        {
          "internalType": "uint256",
          "name": "addedValue",
          "type": "uint256"
        }
      ],
      "name": "increaseAllowance",
      "outputs": [
        {
          "internalType": "bool",
          "name": "",
          "type": "bool"
        }
      ],
      "stateMutability": "nonpayable",
      "type": "function"
    },
    {
      "inputs": [],
      "name": "lockPeriod",
      "outputs": [
        {
          "internalType": "uint256",
          "name": "",
          "type": "uint256"
        }
      ],
      "stateMutability": "view",
      "type": "function"
    },
    {
      "inputs": [],
      "name": "name",
      "outputs": [
        {
          "internalType": "string",
          "name": "",
          "type": "string"
        }
      ],
      "stateMutability": "view",
      "type": "function"
    },
    {
      "inputs": [
        {
          "internalType": "address",
          "name": "owner",
          "type": "address"
        }
      ],
      "name": "nonces",
      "outputs": [
        {
          "internalType": "uint256",
          "name": "",
          "type": "uint256"
        }
      ],
      "stateMutability": "view",
      "type": "function"
    },
    {
      "inputs": [
        {
          "internalType": "address",
          "name": "account",
          "type": "address"
        }
      ],
      "name": "numCheckpoints",
      "outputs": [
        {
          "internalType": "uint32",
          "name": "",
          "type": "uint32"
        }
      ],
      "stateMutability": "view",
      "type": "function"
    },
    {
      "inputs": [],
      "name": "owner",
      "outputs": [
        {
          "internalType": "address",
          "name": "",
          "type": "address"
        }
      ],
      "stateMutability": "view",
      "type": "function"
    },
    {
      "inputs": [
        {
          "internalType": "address",
          "name": "owner",
          "type": "address"
        },
        {
          "internalType": "address",
          "name": "spender",
          "type": "address"
        },
        {
          "internalType": "uint256",
          "name": "value",
          "type": "uint256"
        },
        {
          "internalType": "uint256",
          "name": "deadline",
          "type": "uint256"
        },
        {
          "internalType": "uint8",
          "name": "v",
          "type": "uint8"
        },
        {
          "internalType": "bytes32",
          "name": "r",
          "type": "bytes32"
        },
        {
          "internalType": "bytes32",
          "name": "s",
          "type": "bytes32"
        }
      ],
      "name": "permit",
      "outputs": [],
      "stateMutability": "nonpayable",
      "type": "function"
    },
    {
      "inputs": [],
      "name": "r3l",
      "outputs": [
        {
          "internalType": "address",
          "name": "",
          "type": "address"
        }
      ],
      "stateMutability": "view",
      "type": "function"
    },
    {
      "inputs": [],
      "name": "renounceOwnership",
      "outputs": [],
      "stateMutability": "nonpayable",
      "type": "function"
    },
    {
      "inputs": [],
      "name": "resetLock",
      "outputs": [],
      "stateMutability": "nonpayable",
      "type": "function"
    },
    {
      "inputs": [
        {
          "internalType": "address",
          "name": "newAdmin",
          "type": "address"
        }
      ],
      "name": "setVestAdmin",
      "outputs": [],
      "stateMutability": "nonpayable",
      "type": "function"
    },
    {
      "inputs": [
        {
          "internalType": "address",
          "name": "account",
          "type": "address"
        },
        {
          "internalType": "uint256",
          "name": "shortAmnt",
          "type": "uint256"
        },
        {
          "internalType": "uint256",
          "name": "longAmnt",
          "type": "uint256"
        }
      ],
      "name": "setVestedAmount",
      "outputs": [],
      "stateMutability": "nonpayable",
      "type": "function"
    },
    {
      "inputs": [
        {
          "internalType": "uint256",
          "name": "amount",
          "type": "uint256"
        }
      ],
      "name": "stakeRel",
      "outputs": [],
      "stateMutability": "nonpayable",
      "type": "function"
    },
    {
      "inputs": [],
      "name": "symbol",
      "outputs": [
        {
          "internalType": "string",
          "name": "",
          "type": "string"
        }
      ],
      "stateMutability": "view",
      "type": "function"
    },
    {
      "inputs": [],
      "name": "totalSupply",
      "outputs": [
        {
          "internalType": "uint256",
          "name": "",
          "type": "uint256"
        }
      ],
      "stateMutability": "view",
      "type": "function"
    },
    {
      "inputs": [
        {
          "internalType": "address",
          "name": "recipient",
          "type": "address"
        },
        {
          "internalType": "uint256",
          "name": "amount",
          "type": "uint256"
        }
      ],
      "name": "transfer",
      "outputs": [
        {
          "internalType": "bool",
          "name": "",
          "type": "bool"
        }
      ],
      "stateMutability": "nonpayable",
      "type": "function"
    },
    {
      "inputs": [
        {
          "internalType": "address",
          "name": "sender",
          "type": "address"
        },
        {
          "internalType": "address",
          "name": "recipient",
          "type": "address"
        },
        {
          "internalType": "uint256",
          "name": "amount",
          "type": "uint256"
        }
      ],
      "name": "transferFrom",
      "outputs": [
        {
          "internalType": "bool",
          "name": "",
          "type": "bool"
        }
      ],
      "stateMutability": "nonpayable",
      "type": "function"
    },
    {
      "inputs": [
        {
          "internalType": "address",
          "name": "newOwner",
          "type": "address"
        }
      ],
      "name": "transferOwnership",
      "outputs": [],
      "stateMutability": "nonpayable",
      "type": "function"
    },
    {
      "inputs": [
        {
          "internalType": "address",
          "name": "to",
          "type": "address"
        }
      ],
      "name": "transferVestedTokens",
      "outputs": [],
      "stateMutability": "nonpayable",
      "type": "function"
    },
    {
      "inputs": [
        {
          "internalType": "uint256",
          "name": "amount",
          "type": "uint256"
        }
      ],
      "name": "unlock",
      "outputs": [],
      "stateMutability": "nonpayable",
      "type": "function"
    },
    {
      "inputs": [
        {
          "internalType": "address",
          "name": "account",
          "type": "address"
        }
      ],
      "name": "unlockTime",
      "outputs": [
        {
          "internalType": "uint256",
          "name": "",
          "type": "uint256"
        }
      ],
      "stateMutability": "view",
      "type": "function"
    },
    {
      "inputs": [
        {
          "internalType": "address",
          "name": "",
          "type": "address"
        }
      ],
      "name": "unlocks",
      "outputs": [
        {
          "internalType": "uint256",
          "name": "unlockAmnt",
          "type": "uint256"
        },
        {
          "internalType": "uint256",
          "name": "unlockTime",
          "type": "uint256"
        }
      ],
      "stateMutability": "view",
      "type": "function"
    },
    {
      "inputs": [
        {
          "internalType": "uint256",
          "name": "amount",
          "type": "uint256"
        }
      ],
      "name": "unstakeRel",
      "outputs": [],
      "stateMutability": "nonpayable",
      "type": "function"
    },
    {
      "inputs": [
        {
          "internalType": "address",
          "name": "account",
          "type": "address"
        }
      ],
      "name": "unstaked",
      "outputs": [
        {
          "internalType": "uint256",
          "name": "",
          "type": "uint256"
        }
      ],
      "stateMutability": "view",
      "type": "function"
    },
    {
      "inputs": [
        {
          "internalType": "uint256",
          "name": "newLockPeriod",
          "type": "uint256"
        }
      ],
      "name": "updateLockPeriod",
      "outputs": [],
      "stateMutability": "nonpayable",
      "type": "function"
    },
    {
      "inputs": [
        {
          "internalType": "address",
          "name": "",
          "type": "address"
        }
      ],
      "name": "vest",
      "outputs": [
        {
          "internalType": "uint256",
          "name": "shortAmnt",
          "type": "uint256"
        },
        {
          "internalType": "uint256",
          "name": "longAmnt",
          "type": "uint256"
        },
        {
          "internalType": "uint256",
          "name": "lastUpdate",
          "type": "uint256"
        }
      ],
      "stateMutability": "view",
      "type": "function"
    },
    {
      "inputs": [],
      "name": "vestAdmin",
      "outputs": [
        {
          "internalType": "address",
          "name": "",
          "type": "address"
        }
      ],
      "stateMutability": "view",
      "type": "function"
    },
    {
      "inputs": [],
      "name": "vestBegin",
      "outputs": [
        {
          "internalType": "uint256",
          "name": "",
          "type": "uint256"
        }
      ],
      "stateMutability": "view",
      "type": "function"
    },
    {
      "inputs": [
        {
          "internalType": "address",
          "name": "account",
          "type": "address"
        }
      ],
      "name": "vestData",
      "outputs": [
        {
          "components": [
            {
              "internalType": "uint256",
              "name": "shortAmnt",
              "type": "uint256"
            },
            {
              "internalType": "uint256",
              "name": "longAmnt",
              "type": "uint256"
            },
            {
              "internalType": "uint256",
              "name": "lastUpdate",
              "type": "uint256"
            }
          ],
          "internalType": "struct Utils.Vest",
          "name": "",
          "type": "tuple"
        }
      ],
      "stateMutability": "view",
      "type": "function"
    },
    {
      "inputs": [],
      "name": "vestLong",
      "outputs": [
        {
          "internalType": "uint256",
          "name": "",
          "type": "uint256"
        }
      ],
      "stateMutability": "view",
      "type": "function"
    },
    {
      "inputs": [
        {
          "internalType": "address",
          "name": "",
          "type": "address"
        }
      ],
      "name": "vestNonce",
      "outputs": [
        {
          "internalType": "uint256",
          "name": "",
          "type": "uint256"
        }
      ],
      "stateMutability": "view",
      "type": "function"
    },
    {
      "inputs": [],
      "name": "vestShort",
      "outputs": [
        {
          "internalType": "uint256",
          "name": "",
          "type": "uint256"
        }
      ],
      "stateMutability": "view",
      "type": "function"
    },
    {
      "inputs": [
        {
          "internalType": "uint256",
          "name": "_shortAmount",
          "type": "uint256"
        },
        {
          "internalType": "uint256",
          "name": "_longAmount",
          "type": "uint256"
        },
        {
          "internalType": "bytes",
          "name": "_sig",
          "type": "bytes"
        }
      ],
      "name": "vestTokens",
      "outputs": [],
      "stateMutability": "nonpayable",
      "type": "function"
    },
    {
      "inputs": [
        {
          "internalType": "address",
          "name": "account",
          "type": "address"
        }
      ],
      "name": "vested",
      "outputs": [
        {
          "internalType": "uint256",
          "name": "",
          "type": "uint256"
        }
      ],
      "stateMutability": "view",
      "type": "function"
    }
  ],
  "transactionHash": "0x8af88cc3ec072925c8f8854524930c3033fba3f46995c46ffc643ff96ec66ada",
  "args": [
    "0xb6c4267C4877BB0D6b1685Cfd85b0FBe82F105ec",
    "0x649d39c228B4708473220cF2A5e19F82Bc35FB51",
    1633060800,
    1759204800,
    2137636800
  ],
  "solcInputHash": "b8cbcf737d27e3d245bd7e48202e4bc2",
  "bytecode": "0x6101c06040527f6e71edae12b1b97f4d1f60370fef10105fa2faae0126114a169c64845d6126c96101205262054600600b553480156200003e57600080fd5b506040516200362438038062003624833981016040819052620000619162000306565b6040518060400160405280600a81526020016914dd185ad9590814915360b21b81525080604051806040016040528060018152602001603160f81b8152506040518060400160405280600a81526020016914dd185ad9590814915360b21b815250604051806040016040528060048152602001631cd4915360e21b8152508160039080519060200190620000f792919062000243565b5080516200010d90600490602084019062000243565b5050825160209384012082519284019290922060c083815260e08290524660a0818152604080517f8b73c3c69bb8fe3d512ecc4cf759cc79239f7b179b0ffacaa9a75d522b39400f818a018190528183019890985260608101959095526080808601939093523085830152805180860390920182529390920190925280519401939093209092526101005250620001a6905033620001f1565b60609490941b6001600160601b0319166101405261016091909152610180526101a091909152600a80546001600160a01b0319166001600160a01b0390921691909117905562000396565b600980546001600160a01b038381166001600160a01b0319831681179093556040519116919082907f8be0079c531659141344cd1fd0a4f28419497f9722a3daafe3b4186f6b6457e090600090a35050565b828054620002519062000359565b90600052602060002090601f016020900481019282620002755760008555620002c0565b82601f106200029057805160ff1916838001178555620002c0565b82800160010185558215620002c0579182015b82811115620002c0578251825591602001919060010190620002a3565b50620002ce929150620002d2565b5090565b5b80821115620002ce5760008155600101620002d3565b80516001600160a01b03811681146200030157600080fd5b919050565b600080600080600060a086880312156200031f57600080fd5b6200032a86620002e9565b94506200033a60208701620002e9565b6040870151606088015160809098015196999198509695945092505050565b600181811c908216806200036e57607f821691505b602082108114156200039057634e487b7160e01b600052602260045260246000fd5b50919050565b60805160a05160c05160e05161010051610120516101405160601c61016051610180516101a0516131e56200043f6000396000818161048b0152610d4e01526000818161059c0152610d280152600081816106970152610d740152600081816102eb01528181610a9d0152818161137f0152611ab80152600061145b01526000611c6101526000611cb001526000611c8b01526000611c0f01526000611c3801526131e56000f3fe608060405234801561001057600080fd5b50600436106102a05760003560e01c8063848f343c11610167578063c3cda520116100ce578063e02c8fc511610087578063e02c8fc514610692578063ea8809a6146106b9578063eb8844f9146106ee578063f1127ed81461072a578063f2fde38b14610767578063f3c5f51e1461077a57600080fd5b8063c3cda520146105e4578063c50ef91e146105f7578063c7c90bfb1461060a578063c9b493c814610633578063d505accf14610646578063dd62ed3e1461065957600080fd5b806395d89b411161012057806395d89b4114610569578063983ebeb5146105715780639ab24eb014610584578063a094096014610597578063a457c2d7146105be578063a9059cbb146105d157600080fd5b8063848f343c146104ec5780638adaaa841461050c5780638da5cb5b1461051f5780638e539e8c146105305780638ec944741461054357806391db7b0d1461055657600080fd5b806345459bcf1161020b5780637102b728116101c45780637102b728146104635780637107451914610476578063715018a61461047e57806376831ae51461048657806376b467b7146104ad5780637ecebe00146104d957600080fd5b806345459bcf146103b8578063587cde1e146103c05780635c19a95c146103ec5780636198e339146103ff5780636fcfff451461041257806370a082311461043a57600080fd5b8063313ce5671161025d578063313ce5671461035f5780633644e5151461036e5780633664bf2d1461037657806339509351146103895780633a46b1a81461039c5780633fd8b02f146103af57600080fd5b806306fdde03146102a5578063095ea7b3146102c357806312287328146102e657806318160ddd1461032557806323b872dd14610337578063294d1bf01461034a575b600080fd5b6102ad6107c4565b6040516102ba9190613027565b60405180910390f35b6102d66102d1366004612dec565b610856565b60405190151581526020016102ba565b61030d7f000000000000000000000000000000000000000000000000000000000000000081565b6040516001600160a01b0390911681526020016102ba565b6002545b6040519081526020016102ba565b6102d6610345366004612d46565b61086c565b61035d610358366004612f35565b61091b565b005b604051601281526020016102ba565b610329610a6c565b61035d610384366004612f03565b610a7b565b6102d6610397366004612dec565b610b2f565b6103296103aa366004612dec565b610b6b565b610329600b5481565b61035d610be5565b61030d6103ce366004612cf8565b6001600160a01b039081166000908152600660205260409020541690565b61035d6103fa366004612cf8565b610c39565b61035d61040d366004612f03565b610c43565b610425610420366004612cf8565b610cb9565b60405163ffffffff90911681526020016102ba565b610329610448366004612cf8565b6001600160a01b031660009081526020819052604090205490565b610329610471366004612cf8565b610ce1565b61035d610d02565b61035d610e57565b6103297f000000000000000000000000000000000000000000000000000000000000000081565b6103296104bb366004612cf8565b6001600160a01b03166000908152600d602052604090206001015490565b6103296104e7366004612cf8565b610e8d565b6103296104fa366004612cf8565b600c6020526000908152604090205481565b61035d61051a366004612cf8565b610eab565b6009546001600160a01b031661030d565b61032961053e366004612f03565b610f2a565b61035d610551366004612cf8565b610f86565b61035d610564366004612f03565b61104e565b6102ad6110ad565b61035d61057f366004612e16565b6110bc565b610329610592366004612cf8565b6110f6565b6103297f000000000000000000000000000000000000000000000000000000000000000081565b6102d66105cc366004612dec565b61117d565b6102d66105df366004612dec565b611216565b61035d6105f2366004612e49565b611223565b600a5461030d906001600160a01b031681565b610329610618366004612cf8565b6001600160a01b03166000908152600d602052604090205490565b61035d610641366004612f03565b611359565b61035d610654366004612d82565b611407565b610329610667366004612d13565b6001600160a01b03918216600090815260016020908152604080832093909416825291909152205490565b6103297f000000000000000000000000000000000000000000000000000000000000000081565b6106cc6106c7366004612cf8565b61156b565b60408051825181526020808401519082015291810151908201526060016102ba565b6107156106fc366004612cf8565b600d602052600090815260409020805460019091015482565b604080519283526020830191909152016102ba565b61073d610738366004612ea1565b6115d1565b60408051825163ffffffff1681526020928301516001600160e01b031692810192909252016102ba565b61035d610775366004612cf8565b611655565b6107a9610788366004612cf8565b600e6020526000908152604090208054600182015460029092015490919083565b604080519384526020840192909252908201526060016102ba565b6060600380546107d390613102565b80601f01602080910402602001604051908101604052809291908181526020018280546107ff90613102565b801561084c5780601f106108215761010080835404028352916020019161084c565b820191906000526020600020905b81548152906001019060200180831161082f57829003601f168201915b5050505050905090565b60006108633384846116ed565b50600192915050565b6000610879848484611811565b6001600160a01b0384166000908152600160209081526040808320338452909152902054828110156109035760405162461bcd60e51b815260206004820152602860248201527f45524332303a207472616e7366657220616d6f756e74206578636565647320616044820152676c6c6f77616e636560c01b60648201526084015b60405180910390fd5b61091085338584036116ed565b506001949350505050565b336000818152600c60209081526040808320549051929361096993889388939101938452602084019290925260601b6bffffffffffffffffffffffff19166040830152605482015260740190565b60408051808303601f1901815282825280516020918201207f19457468657265756d205369676e6564204d6573736167653a0a33320000000082850152603c8085019190915282518085039091018152605c9093019091528151910120905060006109d482846119f6565b600a549091506001600160a01b03808316911614610a345760405162461bcd60e51b815260206004820152601a60248201527f7352656c3a20436c61696d206e6f7420617574686f72697a656400000000000060448201526064016108fa565b336000908152600c60205260408120805460019290610a549084906130b1565b90915550610a659050338686611a1a565b5050505050565b6000610a76611c0b565b905090565b6040516323b872dd60e01b8152336004820152306024820152604481018290527f00000000000000000000000000000000000000000000000000000000000000006001600160a01b0316906323b872dd90606401602060405180830381600087803b158015610ae957600080fd5b505af1158015610afd573d6000803e3d6000fd5b505050506040513d601f19601f82011682018060405250810190610b219190612ee1565b50610b2c3382611cfe565b50565b3360008181526001602090815260408083206001600160a01b03871684529091528120549091610863918590610b669086906130b1565b6116ed565b6000438210610bbc5760405162461bcd60e51b815260206004820152601f60248201527f4552433230566f7465733a20626c6f636b206e6f7420796574206d696e65640060448201526064016108fa565b6001600160a01b0383166000908152600760205260409020610bde9083611d08565b9392505050565b336000818152600d602090815260408083208381556001018390558051838152918201929092527f53a06858e4b0bb751491f078084a1a381e3fb6d6e9dd983c266e2d68e33bd79a910160405180910390a2565b610b2c3382611dc5565b600b54336000908152600d60205260409020610c60918390611e3e565b336000818152600d60205260409081902090517f53a06858e4b0bb751491f078084a1a381e3fb6d6e9dd983c266e2d68e33bd79a91610cae9181548152600190910154602082015260400190565b60405180910390a250565b6001600160a01b038116600090815260076020526040812054610cdb90611e58565b92915050565b6001600160a01b0381166000908152600e60205260408120610cdb90611ec1565b336000908152600e60205260408082209051634cbb32f560e11b815260048101919091527f000000000000000000000000000000000000000000000000000000000000000060248201527f000000000000000000000000000000000000000000000000000000000000000060448201527f00000000000000000000000000000000000000000000000000000000000000006064820152737bc06c482DEAd17c0e297aFbC32f6e63d38466509063997665ea9060840160206040518083038186803b158015610dcf57600080fd5b505af4158015610de3573d6000803e3d6000fd5b505050506040513d601f19601f82011682018060405250810190610e079190612f1c565b600b54336000908152600d60205260409020919250610e2891908390611e3e565b336000818152600e602052604090819020905160008051602061319083398151915291610cae91849190612ff9565b6009546001600160a01b03163314610e815760405162461bcd60e51b81526004016108fa9061307c565b610e8b6000611ed4565b565b6001600160a01b038116600090815260056020526040812054610cdb565b6009546001600160a01b03163314610ed55760405162461bcd60e51b81526004016108fa9061307c565b600a80546001600160a01b0319166001600160a01b0383169081179091556040519081527f8961078521e826adb5caac59fa1f47e24f2059266ab5fe7c7fbf9b2ccd5a21e3906020015b60405180910390a150565b6000438210610f7b5760405162461bcd60e51b815260206004820152601f60248201527f4552433230566f7465733a20626c6f636b206e6f7420796574206d696e65640060448201526064016108fa565b610cdb600883611d08565b336000908152600e60205260408120610f9e90611ec1565b6001600160a01b0383166000908152600e60205260408082203383529120919250610fc99190611f26565b610fd38282611216565b50336000818152600e60205260409081902090516000805160206131908339815191529161100391849190612ff9565b60405180910390a2336000818152600e60205260409081902090516001600160a01b038516926000805160206131908339815191529261104292612ff9565b60405180910390a25050565b6009546001600160a01b031633146110785760405162461bcd60e51b81526004016108fa9061307c565b600b8190556040518181527fe8bf8dfb4abe1420b183a0e83ced724064b765215e282a7a58dff3c1fef5e3f190602001610f1f565b6060600480546107d390613102565b6009546001600160a01b031633146110e65760405162461bcd60e51b81526004016108fa9061307c565b6110f1838383611a1a565b505050565b6001600160a01b038116600090815260076020526040812054801561116a576001600160a01b03831660009081526007602052604090206111386001836130eb565b8154811061114857611148613163565b60009182526020909120015464010000000090046001600160e01b031661116d565b60005b6001600160e01b03169392505050565b3360009081526001602090815260408083206001600160a01b0386168452909152812054828110156111ff5760405162461bcd60e51b815260206004820152602560248201527f45524332303a2064656372656173656420616c6c6f77616e63652062656c6f77604482015264207a65726f60d81b60648201526084016108fa565b61120c33858584036116ed565b5060019392505050565b6000610863338484611811565b834211156112735760405162461bcd60e51b815260206004820152601d60248201527f4552433230566f7465733a207369676e6174757265206578706972656400000060448201526064016108fa565b604080517fe48329057bfd03d55e49b547132e39cffd9c1820ad7b9d4c5307691425d15adf60208201526001600160a01b0388169181019190915260608101869052608081018590526000906112ed906112e59060a00160405160208183030381529060405280519060200120612024565b858585612072565b90506112f88161209a565b86146113465760405162461bcd60e51b815260206004820152601960248201527f4552433230566f7465733a20696e76616c6964206e6f6e63650000000000000060448201526064016108fa565b6113508188611dc5565b50505050505050565b61136333826120c2565b60405163a9059cbb60e01b8152336004820152602481018290527f00000000000000000000000000000000000000000000000000000000000000006001600160a01b03169063a9059cbb90604401602060405180830381600087803b1580156113cb57600080fd5b505af11580156113df573d6000803e3d6000fd5b505050506040513d601f19601f820116820180604052508101906114039190612ee1565b5050565b834211156114575760405162461bcd60e51b815260206004820152601d60248201527f45524332305065726d69743a206578706972656420646561646c696e6500000060448201526064016108fa565b60007f00000000000000000000000000000000000000000000000000000000000000008888886114868c61209a565b6040805160208101969096526001600160a01b0394851690860152929091166060840152608083015260a082015260c0810186905260e00160405160208183030381529060405280519060200120905060006114e182612024565b905060006114f182878787612072565b9050896001600160a01b0316816001600160a01b0316146115545760405162461bcd60e51b815260206004820152601e60248201527f45524332305065726d69743a20696e76616c6964207369676e6174757265000060448201526064016108fa565b61155f8a8a8a6116ed565b50505050505050505050565b61158f60405180606001604052806000815260200160008152602001600081525090565b506001600160a01b03166000908152600e6020908152604091829020825160608101845281548152600182015492810192909252600201549181019190915290565b60408051808201909152600080825260208201526001600160a01b0383166000908152600760205260409020805463ffffffff841690811061161557611615613163565b60009182526020918290206040805180820190915291015463ffffffff8116825264010000000090046001600160e01b0316918101919091529392505050565b6009546001600160a01b0316331461167f5760405162461bcd60e51b81526004016108fa9061307c565b6001600160a01b0381166116e45760405162461bcd60e51b815260206004820152602660248201527f4f776e61626c653a206e6577206f776e657220697320746865207a65726f206160448201526564647265737360d01b60648201526084016108fa565b610b2c81611ed4565b6001600160a01b03831661174f5760405162461bcd60e51b8152602060048201526024808201527f45524332303a20617070726f76652066726f6d20746865207a65726f206164646044820152637265737360e01b60648201526084016108fa565b6001600160a01b0382166117b05760405162461bcd60e51b815260206004820152602260248201527f45524332303a20617070726f766520746f20746865207a65726f206164647265604482015261737360f01b60648201526084016108fa565b6001600160a01b0383811660008181526001602090815260408083209487168084529482529182902085905590518481527f8c5be1e5ebec7d5bd14f71427d1e84f3dd0314c0f7b2291e5b200ac8c7c3b925910160405180910390a3505050565b6001600160a01b0383166118755760405162461bcd60e51b815260206004820152602560248201527f45524332303a207472616e736665722066726f6d20746865207a65726f206164604482015264647265737360d81b60648201526084016108fa565b6001600160a01b0382166118d75760405162461bcd60e51b815260206004820152602360248201527f45524332303a207472616e7366657220746f20746865207a65726f206164647260448201526265737360e81b60648201526084016108fa565b6118e28383836120cc565b6001600160a01b0383166000908152602081905260409020548181101561195a5760405162461bcd60e51b815260206004820152602660248201527f45524332303a207472616e7366657220616d6f756e7420657863656564732062604482015265616c616e636560d01b60648201526084016108fa565b6001600160a01b038085166000908152602081905260408082208585039055918516815290812080548492906119919084906130b1565b92505081905550826001600160a01b0316846001600160a01b03167fddf252ad1be2c89b69c2b068fc378daa952ba7f163c4a11628f55a4df523b3ef846040516119dd91815260200190565b60405180910390a36119f084848461220f565b50505050565b6000806000611a05858561221a565b91509150611a128161228a565b509392505050565b6001600160a01b0383166000908152600e6020526040908190209051632cc0060560e21b815260048101919091526024810183905260448101829052737bc06c482DEAd17c0e297aFbC32f6e63d38466509063b30018149060640160006040518083038186803b158015611a8d57600080fd5b505af4158015611aa1573d6000803e3d6000fd5b50506040516370a0823160e01b81523060048201527f00000000000000000000000000000000000000000000000000000000000000006001600160a01b031692506370a08231915060240160206040518083038186803b158015611b0457600080fd5b505afa158015611b18573d6000803e3d6000fd5b505050506040513d601f19601f82011682018060405250810190611b3c9190612f1c565b8183611b4760025490565b611b5191906130b1565b611b5b91906130b1565b1115611bb35760405162461bcd60e51b815260206004820152602160248201527f7352656c3a204e6f7420656e6f756768742052454c20696e20636f6e747261636044820152601d60fa1b60648201526084016108fa565b611bc683611bc183856130b1565b611cfe565b6001600160a01b0383166000818152600e602052604090819020905160008051602061319083398151915291611bfe91339190612ff9565b60405180910390a2505050565b60007f0000000000000000000000000000000000000000000000000000000000000000461415611c5a57507f000000000000000000000000000000000000000000000000000000000000000090565b50604080517f00000000000000000000000000000000000000000000000000000000000000006020808301919091527f0000000000000000000000000000000000000000000000000000000000000000828401527f000000000000000000000000000000000000000000000000000000000000000060608301524660808301523060a0808401919091528351808403909101815260c0909201909252805191012090565b6114038282612445565b8154600090815b81811015611d6c576000611d2382846124cf565b905084868281548110611d3857611d38613163565b60009182526020909120015463ffffffff161115611d5857809250611d66565b611d638160016130b1565b91505b50611d0f565b8115611db05784611d7e6001846130eb565b81548110611d8e57611d8e613163565b60009182526020909120015464010000000090046001600160e01b0316611db3565b60005b6001600160e01b031695945050505050565b6001600160a01b038281166000818152600660208181526040808420805485845282862054949093528787166001600160a01b03198416811790915590519190951694919391928592917f3134e8a2e6d97e929a7e54011ea5485d7d196dd5f0ba4d4ef95803e8e3fc257f9190a46119f08284836124ea565b818355611e4b81426130b1565b8360010181905550505050565b600063ffffffff821115611ebd5760405162461bcd60e51b815260206004820152602660248201527f53616665436173743a2076616c756520646f65736e27742066697420696e203360448201526532206269747360d01b60648201526084016108fa565b5090565b60018101548154600091610cdb916130b1565b600980546001600160a01b038381166001600160a01b0319831681179093556040519116919082907f8be0079c531659141344cd1fd0a4f28419497f9722a3daafe3b4186f6b6457e090600090a35050565b6000611f3183611ec1565b11611f7e5760405162461bcd60e51b815260206004820152601f60248201527f7352656c205574696c733a206e6f7468696e6720746f207472616e736665720060448201526064016108fa565b611f8781611ec1565b15611ffa5760405162461bcd60e51b815260206004820152603960248201527f7352656c205574696c733a2063616e6e6f74207472616e7366657220746f206160448201527f63636f756e7420776974682076657374656420746f6b656e730000000000000060648201526084016108fa565b81548155600180830180549183019190915560028084018054919093015560009283905582905555565b6000610cdb612031611c0b565b8360405161190160f01b6020820152602281018390526042810182905260009060620160405160208183030381529060405280519060200120905092915050565b600080600061208387878787612627565b915091506120908161228a565b5095945050505050565b6001600160a01b03811660009081526005602052604090208054600181018255905b50919050565b6114038282612714565b6001600160a01b03831615806120ea57506001600160a01b03831630145b156120f457505050565b336000908152600e6020526040812061210c90611ec1565b3360009081526020819052604090205461212691906130eb565b9050808211156121885760405162461bcd60e51b815260206004820152602760248201527f7352656c3a20796f752063616e6e6f74207472616e736665722076657374656460448201526620746f6b656e7360c81b60648201526084016108fa565b6001600160a01b0384166000908152600d602052604090206121aa908361272c565b6001600160a01b0384166000818152600d60205260409081902090517f53a06858e4b0bb751491f078084a1a381e3fb6d6e9dd983c266e2d68e33bd79a916122019181548152600190910154602082015260400190565b60405180910390a250505050565b6110f183838361281c565b6000808251604114156122515760208301516040840151606085015160001a61224587828585612627565b94509450505050612283565b82516040141561227b576020830151604084015161227086838361284e565b935093505050612283565b506000905060025b9250929050565b600081600481111561229e5761229e61314d565b14156122a75750565b60018160048111156122bb576122bb61314d565b14156123095760405162461bcd60e51b815260206004820152601860248201527f45434453413a20696e76616c6964207369676e6174757265000000000000000060448201526064016108fa565b600281600481111561231d5761231d61314d565b141561236b5760405162461bcd60e51b815260206004820152601f60248201527f45434453413a20696e76616c6964207369676e6174757265206c656e6774680060448201526064016108fa565b600381600481111561237f5761237f61314d565b14156123d85760405162461bcd60e51b815260206004820152602260248201527f45434453413a20696e76616c6964207369676e6174757265202773272076616c604482015261756560f01b60648201526084016108fa565b60048160048111156123ec576123ec61314d565b1415610b2c5760405162461bcd60e51b815260206004820152602260248201527f45434453413a20696e76616c6964207369676e6174757265202776272076616c604482015261756560f01b60648201526084016108fa565b61244f828261287d565b6002546001600160e01b0310156124c15760405162461bcd60e51b815260206004820152603060248201527f4552433230566f7465733a20746f74616c20737570706c79207269736b73206f60448201526f766572666c6f77696e6720766f74657360801b60648201526084016108fa565b6119f060086129708361297c565b60006124de60028484186130c9565b610bde908484166130b1565b816001600160a01b0316836001600160a01b03161415801561250c5750600081115b156110f1576001600160a01b0383161561259a576001600160a01b0383166000908152600760205260408120819061254790612af58561297c565b91509150846001600160a01b03167fdec2bacdd2f05b59de34da9b523dff8be42e5e38e818c82fdb0bae774387a724838360405161258f929190918252602082015260400190565b60405180910390a250505b6001600160a01b038216156110f1576001600160a01b038216600090815260076020526040812081906125d0906129708561297c565b91509150836001600160a01b03167fdec2bacdd2f05b59de34da9b523dff8be42e5e38e818c82fdb0bae774387a7248383604051612618929190918252602082015260400190565b60405180910390a25050505050565b6000807f7fffffffffffffffffffffffffffffff5d576e7357a4501ddfe92f46681b20a083111561265e575060009050600361270b565b8460ff16601b1415801561267657508460ff16601c14155b15612687575060009050600461270b565b6040805160008082526020820180845289905260ff881692820192909252606081018690526080810185905260019060a0016020604051602081039080840390855afa1580156126db573d6000803e3d6000fd5b5050604051601f1901519150506001600160a01b0381166127045760006001925092505061270b565b9150600090505b94509492505050565b61271e8282612b01565b6119f06008612af58361297c565b42826001015411156127905760405162461bcd60e51b815260206004820152602760248201527f7352656c205574696c733a20746f6b656e7320617265206e6f7420756e6c6f636044820152661ad959081e595d60ca1b60648201526084016108fa565b81548111156127ff5760405162461bcd60e51b815260206004820152603560248201527f7352656c205574696c733a20746f6b656e732073686f756c6420626520756e6c60448201527437b1b5b2b2103132b337b932903a3930b739b332b960591b60648201526084016108fa565b8082600001600082825461281391906130eb565b90915550505050565b6001600160a01b038381166000908152600660205260408082205485841683529120546110f1929182169116836124ea565b6000806001600160ff1b03831660ff84901c601b0161286f87828885612627565b935093505050935093915050565b6001600160a01b0382166128d35760405162461bcd60e51b815260206004820152601f60248201527f45524332303a206d696e7420746f20746865207a65726f20616464726573730060448201526064016108fa565b6128df600083836120cc565b80600260008282546128f191906130b1565b90915550506001600160a01b0382166000908152602081905260408120805483929061291e9084906130b1565b90915550506040518181526001600160a01b038316906000907fddf252ad1be2c89b69c2b068fc378daa952ba7f163c4a11628f55a4df523b3ef9060200160405180910390a36114036000838361220f565b6000610bde82846130b1565b8254600090819080156129c757856129956001836130eb565b815481106129a5576129a5613163565b60009182526020909120015464010000000090046001600160e01b03166129ca565b60005b6001600160e01b031692506129e383858763ffffffff16565b9150600081118015612a21575043866129fd6001846130eb565b81548110612a0d57612a0d613163565b60009182526020909120015463ffffffff16145b15612a8157612a2f82612c62565b86612a3b6001846130eb565b81548110612a4b57612a4b613163565b9060005260206000200160000160046101000a8154816001600160e01b0302191690836001600160e01b03160217905550612aec565b856040518060400160405280612a9643611e58565b63ffffffff168152602001612aaa85612c62565b6001600160e01b0390811690915282546001810184556000938452602093849020835194909301519091166401000000000263ffffffff909316929092179101555b50935093915050565b6000610bde82846130eb565b6001600160a01b038216612b615760405162461bcd60e51b815260206004820152602160248201527f45524332303a206275726e2066726f6d20746865207a65726f206164647265736044820152607360f81b60648201526084016108fa565b612b6d826000836120cc565b6001600160a01b03821660009081526020819052604090205481811015612be15760405162461bcd60e51b815260206004820152602260248201527f45524332303a206275726e20616d6f756e7420657863656564732062616c616e604482015261636560f01b60648201526084016108fa565b6001600160a01b0383166000908152602081905260408120838303905560028054849290612c109084906130eb565b90915550506040518281526000906001600160a01b038516907fddf252ad1be2c89b69c2b068fc378daa952ba7f163c4a11628f55a4df523b3ef9060200160405180910390a36110f18360008461220f565b60006001600160e01b03821115611ebd5760405162461bcd60e51b815260206004820152602760248201527f53616665436173743a2076616c756520646f65736e27742066697420696e20326044820152663234206269747360c81b60648201526084016108fa565b80356001600160a01b0381168114612ce257600080fd5b919050565b803560ff81168114612ce257600080fd5b600060208284031215612d0a57600080fd5b610bde82612ccb565b60008060408385031215612d2657600080fd5b612d2f83612ccb565b9150612d3d60208401612ccb565b90509250929050565b600080600060608486031215612d5b57600080fd5b612d6484612ccb565b9250612d7260208501612ccb565b9150604084013590509250925092565b600080600080600080600060e0888a031215612d9d57600080fd5b612da688612ccb565b9650612db460208901612ccb565b95506040880135945060608801359350612dd060808901612ce7565b925060a0880135915060c0880135905092959891949750929550565b60008060408385031215612dff57600080fd5b612e0883612ccb565b946020939093013593505050565b600080600060608486031215612e2b57600080fd5b612e3484612ccb565b95602085013595506040909401359392505050565b60008060008060008060c08789031215612e6257600080fd5b612e6b87612ccb565b95506020870135945060408701359350612e8760608801612ce7565b92506080870135915060a087013590509295509295509295565b60008060408385031215612eb457600080fd5b612ebd83612ccb565b9150602083013563ffffffff81168114612ed657600080fd5b809150509250929050565b600060208284031215612ef357600080fd5b81518015158114610bde57600080fd5b600060208284031215612f1557600080fd5b5035919050565b600060208284031215612f2e57600080fd5b5051919050565b600080600060608486031215612f4a57600080fd5b8335925060208401359150604084013567ffffffffffffffff80821115612f7057600080fd5b818601915086601f830112612f8457600080fd5b813581811115612f9657612f96613179565b604051601f8201601f19908116603f01168101908382118183101715612fbe57612fbe613179565b81604052828152896020848701011115612fd757600080fd5b8260208601602083013760006020848301015280955050505050509250925092565b6001600160a01b03929092168252805460208301526001810154604083015260020154606082015260800190565b600060208083528351808285015260005b8181101561305457858101830151858201604001528201613038565b81811115613066576000604083870101525b50601f01601f1916929092016040019392505050565b6020808252818101527f4f776e61626c653a2063616c6c6572206973206e6f7420746865206f776e6572604082015260600190565b600082198211156130c4576130c4613137565b500190565b6000826130e657634e487b7160e01b600052601260045260246000fd5b500490565b6000828210156130fd576130fd613137565b500390565b600181811c9082168061311657607f821691505b602082108114156120bc57634e487b7160e01b600052602260045260246000fd5b634e487b7160e01b600052601160045260246000fd5b634e487b7160e01b600052602160045260246000fd5b634e487b7160e01b600052603260045260246000fd5b634e487b7160e01b600052604160045260246000fdfe52cd33bfcaef1b1998163985f60162407a7ba572f611529d9730d1f7c3825176a2646970667358221220b331cb317fc19f870ebc78de768a4bd6691e4edc8f93612ac3a7a65ede03d5f564736f6c63430008060033",
  "deployedBytecode": "0x608060405234801561001057600080fd5b50600436106102a05760003560e01c8063848f343c11610167578063c3cda520116100ce578063e02c8fc511610087578063e02c8fc514610692578063ea8809a6146106b9578063eb8844f9146106ee578063f1127ed81461072a578063f2fde38b14610767578063f3c5f51e1461077a57600080fd5b8063c3cda520146105e4578063c50ef91e146105f7578063c7c90bfb1461060a578063c9b493c814610633578063d505accf14610646578063dd62ed3e1461065957600080fd5b806395d89b411161012057806395d89b4114610569578063983ebeb5146105715780639ab24eb014610584578063a094096014610597578063a457c2d7146105be578063a9059cbb146105d157600080fd5b8063848f343c146104ec5780638adaaa841461050c5780638da5cb5b1461051f5780638e539e8c146105305780638ec944741461054357806391db7b0d1461055657600080fd5b806345459bcf1161020b5780637102b728116101c45780637102b728146104635780637107451914610476578063715018a61461047e57806376831ae51461048657806376b467b7146104ad5780637ecebe00146104d957600080fd5b806345459bcf146103b8578063587cde1e146103c05780635c19a95c146103ec5780636198e339146103ff5780636fcfff451461041257806370a082311461043a57600080fd5b8063313ce5671161025d578063313ce5671461035f5780633644e5151461036e5780633664bf2d1461037657806339509351146103895780633a46b1a81461039c5780633fd8b02f146103af57600080fd5b806306fdde03146102a5578063095ea7b3146102c357806312287328146102e657806318160ddd1461032557806323b872dd14610337578063294d1bf01461034a575b600080fd5b6102ad6107c4565b6040516102ba9190613027565b60405180910390f35b6102d66102d1366004612dec565b610856565b60405190151581526020016102ba565b61030d7f000000000000000000000000000000000000000000000000000000000000000081565b6040516001600160a01b0390911681526020016102ba565b6002545b6040519081526020016102ba565b6102d6610345366004612d46565b61086c565b61035d610358366004612f35565b61091b565b005b604051601281526020016102ba565b610329610a6c565b61035d610384366004612f03565b610a7b565b6102d6610397366004612dec565b610b2f565b6103296103aa366004612dec565b610b6b565b610329600b5481565b61035d610be5565b61030d6103ce366004612cf8565b6001600160a01b039081166000908152600660205260409020541690565b61035d6103fa366004612cf8565b610c39565b61035d61040d366004612f03565b610c43565b610425610420366004612cf8565b610cb9565b60405163ffffffff90911681526020016102ba565b610329610448366004612cf8565b6001600160a01b031660009081526020819052604090205490565b610329610471366004612cf8565b610ce1565b61035d610d02565b61035d610e57565b6103297f000000000000000000000000000000000000000000000000000000000000000081565b6103296104bb366004612cf8565b6001600160a01b03166000908152600d602052604090206001015490565b6103296104e7366004612cf8565b610e8d565b6103296104fa366004612cf8565b600c6020526000908152604090205481565b61035d61051a366004612cf8565b610eab565b6009546001600160a01b031661030d565b61032961053e366004612f03565b610f2a565b61035d610551366004612cf8565b610f86565b61035d610564366004612f03565b61104e565b6102ad6110ad565b61035d61057f366004612e16565b6110bc565b610329610592366004612cf8565b6110f6565b6103297f000000000000000000000000000000000000000000000000000000000000000081565b6102d66105cc366004612dec565b61117d565b6102d66105df366004612dec565b611216565b61035d6105f2366004612e49565b611223565b600a5461030d906001600160a01b031681565b610329610618366004612cf8565b6001600160a01b03166000908152600d602052604090205490565b61035d610641366004612f03565b611359565b61035d610654366004612d82565b611407565b610329610667366004612d13565b6001600160a01b03918216600090815260016020908152604080832093909416825291909152205490565b6103297f000000000000000000000000000000000000000000000000000000000000000081565b6106cc6106c7366004612cf8565b61156b565b60408051825181526020808401519082015291810151908201526060016102ba565b6107156106fc366004612cf8565b600d602052600090815260409020805460019091015482565b604080519283526020830191909152016102ba565b61073d610738366004612ea1565b6115d1565b60408051825163ffffffff1681526020928301516001600160e01b031692810192909252016102ba565b61035d610775366004612cf8565b611655565b6107a9610788366004612cf8565b600e6020526000908152604090208054600182015460029092015490919083565b604080519384526020840192909252908201526060016102ba565b6060600380546107d390613102565b80601f01602080910402602001604051908101604052809291908181526020018280546107ff90613102565b801561084c5780601f106108215761010080835404028352916020019161084c565b820191906000526020600020905b81548152906001019060200180831161082f57829003601f168201915b5050505050905090565b60006108633384846116ed565b50600192915050565b6000610879848484611811565b6001600160a01b0384166000908152600160209081526040808320338452909152902054828110156109035760405162461bcd60e51b815260206004820152602860248201527f45524332303a207472616e7366657220616d6f756e74206578636565647320616044820152676c6c6f77616e636560c01b60648201526084015b60405180910390fd5b61091085338584036116ed565b506001949350505050565b336000818152600c60209081526040808320549051929361096993889388939101938452602084019290925260601b6bffffffffffffffffffffffff19166040830152605482015260740190565b60408051808303601f1901815282825280516020918201207f19457468657265756d205369676e6564204d6573736167653a0a33320000000082850152603c8085019190915282518085039091018152605c9093019091528151910120905060006109d482846119f6565b600a549091506001600160a01b03808316911614610a345760405162461bcd60e51b815260206004820152601a60248201527f7352656c3a20436c61696d206e6f7420617574686f72697a656400000000000060448201526064016108fa565b336000908152600c60205260408120805460019290610a549084906130b1565b90915550610a659050338686611a1a565b5050505050565b6000610a76611c0b565b905090565b6040516323b872dd60e01b8152336004820152306024820152604481018290527f00000000000000000000000000000000000000000000000000000000000000006001600160a01b0316906323b872dd90606401602060405180830381600087803b158015610ae957600080fd5b505af1158015610afd573d6000803e3d6000fd5b505050506040513d601f19601f82011682018060405250810190610b219190612ee1565b50610b2c3382611cfe565b50565b3360008181526001602090815260408083206001600160a01b03871684529091528120549091610863918590610b669086906130b1565b6116ed565b6000438210610bbc5760405162461bcd60e51b815260206004820152601f60248201527f4552433230566f7465733a20626c6f636b206e6f7420796574206d696e65640060448201526064016108fa565b6001600160a01b0383166000908152600760205260409020610bde9083611d08565b9392505050565b336000818152600d602090815260408083208381556001018390558051838152918201929092527f53a06858e4b0bb751491f078084a1a381e3fb6d6e9dd983c266e2d68e33bd79a910160405180910390a2565b610b2c3382611dc5565b600b54336000908152600d60205260409020610c60918390611e3e565b336000818152600d60205260409081902090517f53a06858e4b0bb751491f078084a1a381e3fb6d6e9dd983c266e2d68e33bd79a91610cae9181548152600190910154602082015260400190565b60405180910390a250565b6001600160a01b038116600090815260076020526040812054610cdb90611e58565b92915050565b6001600160a01b0381166000908152600e60205260408120610cdb90611ec1565b336000908152600e60205260408082209051634cbb32f560e11b815260048101919091527f000000000000000000000000000000000000000000000000000000000000000060248201527f000000000000000000000000000000000000000000000000000000000000000060448201527f0000000000000000000000000000000000000000000000000000000000000000606482015273__$b4ae538d42a0e0bb8330684d08e51a40b4$__9063997665ea9060840160206040518083038186803b158015610dcf57600080fd5b505af4158015610de3573d6000803e3d6000fd5b505050506040513d601f19601f82011682018060405250810190610e079190612f1c565b600b54336000908152600d60205260409020919250610e2891908390611e3e565b336000818152600e602052604090819020905160008051602061319083398151915291610cae91849190612ff9565b6009546001600160a01b03163314610e815760405162461bcd60e51b81526004016108fa9061307c565b610e8b6000611ed4565b565b6001600160a01b038116600090815260056020526040812054610cdb565b6009546001600160a01b03163314610ed55760405162461bcd60e51b81526004016108fa9061307c565b600a80546001600160a01b0319166001600160a01b0383169081179091556040519081527f8961078521e826adb5caac59fa1f47e24f2059266ab5fe7c7fbf9b2ccd5a21e3906020015b60405180910390a150565b6000438210610f7b5760405162461bcd60e51b815260206004820152601f60248201527f4552433230566f7465733a20626c6f636b206e6f7420796574206d696e65640060448201526064016108fa565b610cdb600883611d08565b336000908152600e60205260408120610f9e90611ec1565b6001600160a01b0383166000908152600e60205260408082203383529120919250610fc99190611f26565b610fd38282611216565b50336000818152600e60205260409081902090516000805160206131908339815191529161100391849190612ff9565b60405180910390a2336000818152600e60205260409081902090516001600160a01b038516926000805160206131908339815191529261104292612ff9565b60405180910390a25050565b6009546001600160a01b031633146110785760405162461bcd60e51b81526004016108fa9061307c565b600b8190556040518181527fe8bf8dfb4abe1420b183a0e83ced724064b765215e282a7a58dff3c1fef5e3f190602001610f1f565b6060600480546107d390613102565b6009546001600160a01b031633146110e65760405162461bcd60e51b81526004016108fa9061307c565b6110f1838383611a1a565b505050565b6001600160a01b038116600090815260076020526040812054801561116a576001600160a01b03831660009081526007602052604090206111386001836130eb565b8154811061114857611148613163565b60009182526020909120015464010000000090046001600160e01b031661116d565b60005b6001600160e01b03169392505050565b3360009081526001602090815260408083206001600160a01b0386168452909152812054828110156111ff5760405162461bcd60e51b815260206004820152602560248201527f45524332303a2064656372656173656420616c6c6f77616e63652062656c6f77604482015264207a65726f60d81b60648201526084016108fa565b61120c33858584036116ed565b5060019392505050565b6000610863338484611811565b834211156112735760405162461bcd60e51b815260206004820152601d60248201527f4552433230566f7465733a207369676e6174757265206578706972656400000060448201526064016108fa565b604080517fe48329057bfd03d55e49b547132e39cffd9c1820ad7b9d4c5307691425d15adf60208201526001600160a01b0388169181019190915260608101869052608081018590526000906112ed906112e59060a00160405160208183030381529060405280519060200120612024565b858585612072565b90506112f88161209a565b86146113465760405162461bcd60e51b815260206004820152601960248201527f4552433230566f7465733a20696e76616c6964206e6f6e63650000000000000060448201526064016108fa565b6113508188611dc5565b50505050505050565b61136333826120c2565b60405163a9059cbb60e01b8152336004820152602481018290527f00000000000000000000000000000000000000000000000000000000000000006001600160a01b03169063a9059cbb90604401602060405180830381600087803b1580156113cb57600080fd5b505af11580156113df573d6000803e3d6000fd5b505050506040513d601f19601f820116820180604052508101906114039190612ee1565b5050565b834211156114575760405162461bcd60e51b815260206004820152601d60248201527f45524332305065726d69743a206578706972656420646561646c696e6500000060448201526064016108fa565b60007f00000000000000000000000000000000000000000000000000000000000000008888886114868c61209a565b6040805160208101969096526001600160a01b0394851690860152929091166060840152608083015260a082015260c0810186905260e00160405160208183030381529060405280519060200120905060006114e182612024565b905060006114f182878787612072565b9050896001600160a01b0316816001600160a01b0316146115545760405162461bcd60e51b815260206004820152601e60248201527f45524332305065726d69743a20696e76616c6964207369676e6174757265000060448201526064016108fa565b61155f8a8a8a6116ed565b50505050505050505050565b61158f60405180606001604052806000815260200160008152602001600081525090565b506001600160a01b03166000908152600e6020908152604091829020825160608101845281548152600182015492810192909252600201549181019190915290565b60408051808201909152600080825260208201526001600160a01b0383166000908152600760205260409020805463ffffffff841690811061161557611615613163565b60009182526020918290206040805180820190915291015463ffffffff8116825264010000000090046001600160e01b0316918101919091529392505050565b6009546001600160a01b0316331461167f5760405162461bcd60e51b81526004016108fa9061307c565b6001600160a01b0381166116e45760405162461bcd60e51b815260206004820152602660248201527f4f776e61626c653a206e6577206f776e657220697320746865207a65726f206160448201526564647265737360d01b60648201526084016108fa565b610b2c81611ed4565b6001600160a01b03831661174f5760405162461bcd60e51b8152602060048201526024808201527f45524332303a20617070726f76652066726f6d20746865207a65726f206164646044820152637265737360e01b60648201526084016108fa565b6001600160a01b0382166117b05760405162461bcd60e51b815260206004820152602260248201527f45524332303a20617070726f766520746f20746865207a65726f206164647265604482015261737360f01b60648201526084016108fa565b6001600160a01b0383811660008181526001602090815260408083209487168084529482529182902085905590518481527f8c5be1e5ebec7d5bd14f71427d1e84f3dd0314c0f7b2291e5b200ac8c7c3b925910160405180910390a3505050565b6001600160a01b0383166118755760405162461bcd60e51b815260206004820152602560248201527f45524332303a207472616e736665722066726f6d20746865207a65726f206164604482015264647265737360d81b60648201526084016108fa565b6001600160a01b0382166118d75760405162461bcd60e51b815260206004820152602360248201527f45524332303a207472616e7366657220746f20746865207a65726f206164647260448201526265737360e81b60648201526084016108fa565b6118e28383836120cc565b6001600160a01b0383166000908152602081905260409020548181101561195a5760405162461bcd60e51b815260206004820152602660248201527f45524332303a207472616e7366657220616d6f756e7420657863656564732062604482015265616c616e636560d01b60648201526084016108fa565b6001600160a01b038085166000908152602081905260408082208585039055918516815290812080548492906119919084906130b1565b92505081905550826001600160a01b0316846001600160a01b03167fddf252ad1be2c89b69c2b068fc378daa952ba7f163c4a11628f55a4df523b3ef846040516119dd91815260200190565b60405180910390a36119f084848461220f565b50505050565b6000806000611a05858561221a565b91509150611a128161228a565b509392505050565b6001600160a01b0383166000908152600e6020526040908190209051632cc0060560e21b81526004810191909152602481018390526044810182905273__$b4ae538d42a0e0bb8330684d08e51a40b4$__9063b30018149060640160006040518083038186803b158015611a8d57600080fd5b505af4158015611aa1573d6000803e3d6000fd5b50506040516370a0823160e01b81523060048201527f00000000000000000000000000000000000000000000000000000000000000006001600160a01b031692506370a08231915060240160206040518083038186803b158015611b0457600080fd5b505afa158015611b18573d6000803e3d6000fd5b505050506040513d601f19601f82011682018060405250810190611b3c9190612f1c565b8183611b4760025490565b611b5191906130b1565b611b5b91906130b1565b1115611bb35760405162461bcd60e51b815260206004820152602160248201527f7352656c3a204e6f7420656e6f756768742052454c20696e20636f6e747261636044820152601d60fa1b60648201526084016108fa565b611bc683611bc183856130b1565b611cfe565b6001600160a01b0383166000818152600e602052604090819020905160008051602061319083398151915291611bfe91339190612ff9565b60405180910390a2505050565b60007f0000000000000000000000000000000000000000000000000000000000000000461415611c5a57507f000000000000000000000000000000000000000000000000000000000000000090565b50604080517f00000000000000000000000000000000000000000000000000000000000000006020808301919091527f0000000000000000000000000000000000000000000000000000000000000000828401527f000000000000000000000000000000000000000000000000000000000000000060608301524660808301523060a0808401919091528351808403909101815260c0909201909252805191012090565b6114038282612445565b8154600090815b81811015611d6c576000611d2382846124cf565b905084868281548110611d3857611d38613163565b60009182526020909120015463ffffffff161115611d5857809250611d66565b611d638160016130b1565b91505b50611d0f565b8115611db05784611d7e6001846130eb565b81548110611d8e57611d8e613163565b60009182526020909120015464010000000090046001600160e01b0316611db3565b60005b6001600160e01b031695945050505050565b6001600160a01b038281166000818152600660208181526040808420805485845282862054949093528787166001600160a01b03198416811790915590519190951694919391928592917f3134e8a2e6d97e929a7e54011ea5485d7d196dd5f0ba4d4ef95803e8e3fc257f9190a46119f08284836124ea565b818355611e4b81426130b1565b8360010181905550505050565b600063ffffffff821115611ebd5760405162461bcd60e51b815260206004820152602660248201527f53616665436173743a2076616c756520646f65736e27742066697420696e203360448201526532206269747360d01b60648201526084016108fa565b5090565b60018101548154600091610cdb916130b1565b600980546001600160a01b038381166001600160a01b0319831681179093556040519116919082907f8be0079c531659141344cd1fd0a4f28419497f9722a3daafe3b4186f6b6457e090600090a35050565b6000611f3183611ec1565b11611f7e5760405162461bcd60e51b815260206004820152601f60248201527f7352656c205574696c733a206e6f7468696e6720746f207472616e736665720060448201526064016108fa565b611f8781611ec1565b15611ffa5760405162461bcd60e51b815260206004820152603960248201527f7352656c205574696c733a2063616e6e6f74207472616e7366657220746f206160448201527f63636f756e7420776974682076657374656420746f6b656e730000000000000060648201526084016108fa565b81548155600180830180549183019190915560028084018054919093015560009283905582905555565b6000610cdb612031611c0b565b8360405161190160f01b6020820152602281018390526042810182905260009060620160405160208183030381529060405280519060200120905092915050565b600080600061208387878787612627565b915091506120908161228a565b5095945050505050565b6001600160a01b03811660009081526005602052604090208054600181018255905b50919050565b6114038282612714565b6001600160a01b03831615806120ea57506001600160a01b03831630145b156120f457505050565b336000908152600e6020526040812061210c90611ec1565b3360009081526020819052604090205461212691906130eb565b9050808211156121885760405162461bcd60e51b815260206004820152602760248201527f7352656c3a20796f752063616e6e6f74207472616e736665722076657374656460448201526620746f6b656e7360c81b60648201526084016108fa565b6001600160a01b0384166000908152600d602052604090206121aa908361272c565b6001600160a01b0384166000818152600d60205260409081902090517f53a06858e4b0bb751491f078084a1a381e3fb6d6e9dd983c266e2d68e33bd79a916122019181548152600190910154602082015260400190565b60405180910390a250505050565b6110f183838361281c565b6000808251604114156122515760208301516040840151606085015160001a61224587828585612627565b94509450505050612283565b82516040141561227b576020830151604084015161227086838361284e565b935093505050612283565b506000905060025b9250929050565b600081600481111561229e5761229e61314d565b14156122a75750565b60018160048111156122bb576122bb61314d565b14156123095760405162461bcd60e51b815260206004820152601860248201527f45434453413a20696e76616c6964207369676e6174757265000000000000000060448201526064016108fa565b600281600481111561231d5761231d61314d565b141561236b5760405162461bcd60e51b815260206004820152601f60248201527f45434453413a20696e76616c6964207369676e6174757265206c656e6774680060448201526064016108fa565b600381600481111561237f5761237f61314d565b14156123d85760405162461bcd60e51b815260206004820152602260248201527f45434453413a20696e76616c6964207369676e6174757265202773272076616c604482015261756560f01b60648201526084016108fa565b60048160048111156123ec576123ec61314d565b1415610b2c5760405162461bcd60e51b815260206004820152602260248201527f45434453413a20696e76616c6964207369676e6174757265202776272076616c604482015261756560f01b60648201526084016108fa565b61244f828261287d565b6002546001600160e01b0310156124c15760405162461bcd60e51b815260206004820152603060248201527f4552433230566f7465733a20746f74616c20737570706c79207269736b73206f60448201526f766572666c6f77696e6720766f74657360801b60648201526084016108fa565b6119f060086129708361297c565b60006124de60028484186130c9565b610bde908484166130b1565b816001600160a01b0316836001600160a01b03161415801561250c5750600081115b156110f1576001600160a01b0383161561259a576001600160a01b0383166000908152600760205260408120819061254790612af58561297c565b91509150846001600160a01b03167fdec2bacdd2f05b59de34da9b523dff8be42e5e38e818c82fdb0bae774387a724838360405161258f929190918252602082015260400190565b60405180910390a250505b6001600160a01b038216156110f1576001600160a01b038216600090815260076020526040812081906125d0906129708561297c565b91509150836001600160a01b03167fdec2bacdd2f05b59de34da9b523dff8be42e5e38e818c82fdb0bae774387a7248383604051612618929190918252602082015260400190565b60405180910390a25050505050565b6000807f7fffffffffffffffffffffffffffffff5d576e7357a4501ddfe92f46681b20a083111561265e575060009050600361270b565b8460ff16601b1415801561267657508460ff16601c14155b15612687575060009050600461270b565b6040805160008082526020820180845289905260ff881692820192909252606081018690526080810185905260019060a0016020604051602081039080840390855afa1580156126db573d6000803e3d6000fd5b5050604051601f1901519150506001600160a01b0381166127045760006001925092505061270b565b9150600090505b94509492505050565b61271e8282612b01565b6119f06008612af58361297c565b42826001015411156127905760405162461bcd60e51b815260206004820152602760248201527f7352656c205574696c733a20746f6b656e7320617265206e6f7420756e6c6f636044820152661ad959081e595d60ca1b60648201526084016108fa565b81548111156127ff5760405162461bcd60e51b815260206004820152603560248201527f7352656c205574696c733a20746f6b656e732073686f756c6420626520756e6c60448201527437b1b5b2b2103132b337b932903a3930b739b332b960591b60648201526084016108fa565b8082600001600082825461281391906130eb565b90915550505050565b6001600160a01b038381166000908152600660205260408082205485841683529120546110f1929182169116836124ea565b6000806001600160ff1b03831660ff84901c601b0161286f87828885612627565b935093505050935093915050565b6001600160a01b0382166128d35760405162461bcd60e51b815260206004820152601f60248201527f45524332303a206d696e7420746f20746865207a65726f20616464726573730060448201526064016108fa565b6128df600083836120cc565b80600260008282546128f191906130b1565b90915550506001600160a01b0382166000908152602081905260408120805483929061291e9084906130b1565b90915550506040518181526001600160a01b038316906000907fddf252ad1be2c89b69c2b068fc378daa952ba7f163c4a11628f55a4df523b3ef9060200160405180910390a36114036000838361220f565b6000610bde82846130b1565b8254600090819080156129c757856129956001836130eb565b815481106129a5576129a5613163565b60009182526020909120015464010000000090046001600160e01b03166129ca565b60005b6001600160e01b031692506129e383858763ffffffff16565b9150600081118015612a21575043866129fd6001846130eb565b81548110612a0d57612a0d613163565b60009182526020909120015463ffffffff16145b15612a8157612a2f82612c62565b86612a3b6001846130eb565b81548110612a4b57612a4b613163565b9060005260206000200160000160046101000a8154816001600160e01b0302191690836001600160e01b03160217905550612aec565b856040518060400160405280612a9643611e58565b63ffffffff168152602001612aaa85612c62565b6001600160e01b0390811690915282546001810184556000938452602093849020835194909301519091166401000000000263ffffffff909316929092179101555b50935093915050565b6000610bde82846130eb565b6001600160a01b038216612b615760405162461bcd60e51b815260206004820152602160248201527f45524332303a206275726e2066726f6d20746865207a65726f206164647265736044820152607360f81b60648201526084016108fa565b612b6d826000836120cc565b6001600160a01b03821660009081526020819052604090205481811015612be15760405162461bcd60e51b815260206004820152602260248201527f45524332303a206275726e20616d6f756e7420657863656564732062616c616e604482015261636560f01b60648201526084016108fa565b6001600160a01b0383166000908152602081905260408120838303905560028054849290612c109084906130eb565b90915550506040518281526000906001600160a01b038516907fddf252ad1be2c89b69c2b068fc378daa952ba7f163c4a11628f55a4df523b3ef9060200160405180910390a36110f18360008461220f565b60006001600160e01b03821115611ebd5760405162461bcd60e51b815260206004820152602760248201527f53616665436173743a2076616c756520646f65736e27742066697420696e20326044820152663234206269747360c81b60648201526084016108fa565b80356001600160a01b0381168114612ce257600080fd5b919050565b803560ff81168114612ce257600080fd5b600060208284031215612d0a57600080fd5b610bde82612ccb565b60008060408385031215612d2657600080fd5b612d2f83612ccb565b9150612d3d60208401612ccb565b90509250929050565b600080600060608486031215612d5b57600080fd5b612d6484612ccb565b9250612d7260208501612ccb565b9150604084013590509250925092565b600080600080600080600060e0888a031215612d9d57600080fd5b612da688612ccb565b9650612db460208901612ccb565b95506040880135945060608801359350612dd060808901612ce7565b925060a0880135915060c0880135905092959891949750929550565b60008060408385031215612dff57600080fd5b612e0883612ccb565b946020939093013593505050565b600080600060608486031215612e2b57600080fd5b612e3484612ccb565b95602085013595506040909401359392505050565b60008060008060008060c08789031215612e6257600080fd5b612e6b87612ccb565b95506020870135945060408701359350612e8760608801612ce7565b92506080870135915060a087013590509295509295509295565b60008060408385031215612eb457600080fd5b612ebd83612ccb565b9150602083013563ffffffff81168114612ed657600080fd5b809150509250929050565b600060208284031215612ef357600080fd5b81518015158114610bde57600080fd5b600060208284031215612f1557600080fd5b5035919050565b600060208284031215612f2e57600080fd5b5051919050565b600080600060608486031215612f4a57600080fd5b8335925060208401359150604084013567ffffffffffffffff80821115612f7057600080fd5b818601915086601f830112612f8457600080fd5b813581811115612f9657612f96613179565b604051601f8201601f19908116603f01168101908382118183101715612fbe57612fbe613179565b81604052828152896020848701011115612fd757600080fd5b8260208601602083013760006020848301015280955050505050509250925092565b6001600160a01b03929092168252805460208301526001810154604083015260020154606082015260800190565b600060208083528351808285015260005b8181101561305457858101830151858201604001528201613038565b81811115613066576000604083870101525b50601f01601f1916929092016040019392505050565b6020808252818101527f4f776e61626c653a2063616c6c6572206973206e6f7420746865206f776e6572604082015260600190565b600082198211156130c4576130c4613137565b500190565b6000826130e657634e487b7160e01b600052601260045260246000fd5b500490565b6000828210156130fd576130fd613137565b500390565b600181811c9082168061311657607f821691505b602082108114156120bc57634e487b7160e01b600052602260045260246000fd5b634e487b7160e01b600052601160045260246000fd5b634e487b7160e01b600052602160045260246000fd5b634e487b7160e01b600052603260045260246000fd5b634e487b7160e01b600052604160045260246000fdfe52cd33bfcaef1b1998163985f60162407a7ba572f611529d9730d1f7c3825176a2646970667358221220b331cb317fc19f870ebc78de768a4bd6691e4edc8f93612ac3a7a65ede03d5f564736f6c63430008060033",
  "libraries": {
    "Utils": "0x7bc06c482DEAd17c0e297aFbC32f6e63d3846650"
  },
  "devdoc": {
    "kind": "dev",
    "methods": {
      "DOMAIN_SEPARATOR()": {
        "details": "See {IERC20Permit-DOMAIN_SEPARATOR}."
      },
      "allowance(address,address)": {
        "details": "See {IERC20-allowance}."
      },
      "approve(address,uint256)": {
        "details": "See {IERC20-approve}. Requirements: - `spender` cannot be the zero address."
      },
      "balanceOf(address)": {
        "details": "See {IERC20-balanceOf}."
      },
      "checkpoints(address,uint32)": {
        "details": "Get the `pos`-th checkpoint for `account`."
      },
      "decimals()": {
        "details": "Returns the number of decimals used to get its user representation. For example, if `decimals` equals `2`, a balance of `505` tokens should be displayed to a user as `5.05` (`505 / 10 ** 2`). Tokens usually opt for a value of 18, imitating the relationship between Ether and Wei. This is the value {ERC20} uses, unless this function is overridden; NOTE: This information is only used for _display_ purposes: it in no way affects any of the arithmetic of the contract, including {IERC20-balanceOf} and {IERC20-transfer}."
      },
      "decreaseAllowance(address,uint256)": {
        "details": "Atomically decreases the allowance granted to `spender` by the caller. This is an alternative to {approve} that can be used as a mitigation for problems described in {IERC20-approve}. Emits an {Approval} event indicating the updated allowance. Requirements: - `spender` cannot be the zero address. - `spender` must have allowance for the caller of at least `subtractedValue`."
      },
      "delegate(address)": {
        "details": "Delegate votes from the sender to `delegatee`."
      },
      "delegateBySig(address,uint256,uint256,uint8,bytes32,bytes32)": {
        "details": "Delegates votes from signer to `delegatee`"
      },
      "delegates(address)": {
        "details": "Get the address `account` is currently delegating to."
      },
      "getPastTotalSupply(uint256)": {
        "details": "Retrieve the `totalSupply` at the end of `blockNumber`. Note, this value is the sum of all balances. It is but NOT the sum of all the delegated votes! Requirements: - `blockNumber` must have been already mined"
      },
      "getPastVotes(address,uint256)": {
        "details": "Retrieve the number of votes for `account` at the end of `blockNumber`. Requirements: - `blockNumber` must have been already mined"
      },
      "getVotes(address)": {
        "details": "Gets the current votes balance for `account`"
      },
      "increaseAllowance(address,uint256)": {
        "details": "Atomically increases the allowance granted to `spender` by the caller. This is an alternative to {approve} that can be used as a mitigation for problems described in {IERC20-approve}. Emits an {Approval} event indicating the updated allowance. Requirements: - `spender` cannot be the zero address."
      },
      "name()": {
        "details": "Returns the name of the token."
      },
      "nonces(address)": {
        "details": "See {IERC20Permit-nonces}."
      },
      "numCheckpoints(address)": {
        "details": "Get number of checkpoints for `account`."
      },
      "owner()": {
        "details": "Returns the address of the current owner."
      },
      "permit(address,address,uint256,uint256,uint8,bytes32,bytes32)": {
        "details": "See {IERC20Permit-permit}."
      },
      "renounceOwnership()": {
        "details": "Leaves the contract without owner. It will not be possible to call `onlyOwner` functions anymore. Can only be called by the current owner. NOTE: Renouncing ownership will leave the contract without an owner, thereby removing any functionality that is only available to the owner."
      },
      "symbol()": {
        "details": "Returns the symbol of the token, usually a shorter version of the name."
      },
      "totalSupply()": {
        "details": "See {IERC20-totalSupply}."
      },
      "transfer(address,uint256)": {
        "details": "See {IERC20-transfer}. Requirements: - `recipient` cannot be the zero address. - the caller must have a balance of at least `amount`."
      },
      "transferFrom(address,address,uint256)": {
        "details": "See {IERC20-transferFrom}. Emits an {Approval} event indicating the updated allowance. This is not required by the EIP. See the note at the beginning of {ERC20}. Requirements: - `sender` and `recipient` cannot be the zero address. - `sender` must have a balance of at least `amount`. - the caller must have allowance for ``sender``'s tokens of at least `amount`."
      },
      "transferOwnership(address)": {
        "details": "Transfers ownership of the contract to a new account (`newOwner`). Can only be called by the current owner."
      }
    },
    "version": 1
  },
  "userdoc": {
    "kind": "user",
    "methods": {},
    "version": 1
  },
  "storageLayout": {
    "storage": [
      {
        "astId": 3126,
        "contract": "contracts/sRel.sol:sRel",
        "label": "_balances",
        "offset": 0,
        "slot": "0",
        "type": "t_mapping(t_address,t_uint256)"
      },
      {
        "astId": 3132,
        "contract": "contracts/sRel.sol:sRel",
        "label": "_allowances",
        "offset": 0,
        "slot": "1",
        "type": "t_mapping(t_address,t_mapping(t_address,t_uint256))"
      },
      {
        "astId": 3134,
        "contract": "contracts/sRel.sol:sRel",
        "label": "_totalSupply",
        "offset": 0,
        "slot": "2",
        "type": "t_uint256"
      },
      {
        "astId": 3136,
        "contract": "contracts/sRel.sol:sRel",
        "label": "_name",
        "offset": 0,
        "slot": "3",
        "type": "t_string_storage"
      },
      {
        "astId": 3138,
        "contract": "contracts/sRel.sol:sRel",
        "label": "_symbol",
        "offset": 0,
        "slot": "4",
        "type": "t_string_storage"
      },
      {
        "astId": 4428,
        "contract": "contracts/sRel.sol:sRel",
        "label": "_nonces",
        "offset": 0,
        "slot": "5",
        "type": "t_mapping(t_address,t_struct(Counter)4935_storage)"
      },
      {
        "astId": 3757,
        "contract": "contracts/sRel.sol:sRel",
        "label": "_delegates",
        "offset": 0,
        "slot": "6",
        "type": "t_mapping(t_address,t_address)"
      },
      {
        "astId": 3763,
        "contract": "contracts/sRel.sol:sRel",
        "label": "_checkpoints",
        "offset": 0,
        "slot": "7",
        "type": "t_mapping(t_address,t_array(t_struct(Checkpoint)3748_storage)dyn_storage)"
      },
      {
        "astId": 3767,
        "contract": "contracts/sRel.sol:sRel",
        "label": "_totalSupplyCheckpoints",
        "offset": 0,
        "slot": "8",
        "type": "t_array(t_struct(Checkpoint)3748_storage)dyn_storage"
      },
      {
        "astId": 387,
        "contract": "contracts/sRel.sol:sRel",
        "label": "_owner",
        "offset": 0,
        "slot": "9",
        "type": "t_address"
      },
      {
        "astId": 7597,
        "contract": "contracts/sRel.sol:sRel",
        "label": "vestAdmin",
        "offset": 0,
        "slot": "10",
        "type": "t_address"
      },
      {
        "astId": 7600,
        "contract": "contracts/sRel.sol:sRel",
        "label": "lockPeriod",
        "offset": 0,
        "slot": "11",
        "type": "t_uint256"
      },
      {
        "astId": 7610,
        "contract": "contracts/sRel.sol:sRel",
        "label": "vestNonce",
        "offset": 0,
        "slot": "12",
        "type": "t_mapping(t_address,t_uint256)"
      },
      {
        "astId": 7615,
        "contract": "contracts/sRel.sol:sRel",
        "label": "unlocks",
        "offset": 0,
        "slot": "13",
        "type": "t_mapping(t_address,t_struct(Unlock)6881_storage)"
      },
      {
        "astId": 7620,
        "contract": "contracts/sRel.sol:sRel",
        "label": "vest",
        "offset": 0,
        "slot": "14",
        "type": "t_mapping(t_address,t_struct(Vest)6876_storage)"
      }
    ],
    "types": {
      "t_address": {
        "encoding": "inplace",
        "label": "address",
        "numberOfBytes": "20"
      },
      "t_array(t_struct(Checkpoint)3748_storage)dyn_storage": {
        "base": "t_struct(Checkpoint)3748_storage",
        "encoding": "dynamic_array",
        "label": "struct ERC20Votes.Checkpoint[]",
        "numberOfBytes": "32"
      },
      "t_mapping(t_address,t_address)": {
        "encoding": "mapping",
        "key": "t_address",
        "label": "mapping(address => address)",
        "numberOfBytes": "32",
        "value": "t_address"
      },
      "t_mapping(t_address,t_array(t_struct(Checkpoint)3748_storage)dyn_storage)": {
        "encoding": "mapping",
        "key": "t_address",
        "label": "mapping(address => struct ERC20Votes.Checkpoint[])",
        "numberOfBytes": "32",
        "value": "t_array(t_struct(Checkpoint)3748_storage)dyn_storage"
      },
      "t_mapping(t_address,t_mapping(t_address,t_uint256))": {
        "encoding": "mapping",
        "key": "t_address",
        "label": "mapping(address => mapping(address => uint256))",
        "numberOfBytes": "32",
        "value": "t_mapping(t_address,t_uint256)"
      },
      "t_mapping(t_address,t_struct(Counter)4935_storage)": {
        "encoding": "mapping",
        "key": "t_address",
        "label": "mapping(address => struct Counters.Counter)",
        "numberOfBytes": "32",
        "value": "t_struct(Counter)4935_storage"
      },
      "t_mapping(t_address,t_struct(Unlock)6881_storage)": {
        "encoding": "mapping",
        "key": "t_address",
        "label": "mapping(address => struct Utils.Unlock)",
        "numberOfBytes": "32",
        "value": "t_struct(Unlock)6881_storage"
      },
      "t_mapping(t_address,t_struct(Vest)6876_storage)": {
        "encoding": "mapping",
        "key": "t_address",
        "label": "mapping(address => struct Utils.Vest)",
        "numberOfBytes": "32",
        "value": "t_struct(Vest)6876_storage"
      },
      "t_mapping(t_address,t_uint256)": {
        "encoding": "mapping",
        "key": "t_address",
        "label": "mapping(address => uint256)",
        "numberOfBytes": "32",
        "value": "t_uint256"
      },
      "t_string_storage": {
        "encoding": "bytes",
        "label": "string",
        "numberOfBytes": "32"
      },
      "t_struct(Checkpoint)3748_storage": {
        "encoding": "inplace",
        "label": "struct ERC20Votes.Checkpoint",
        "members": [
          {
            "astId": 3745,
            "contract": "contracts/sRel.sol:sRel",
            "label": "fromBlock",
            "offset": 0,
            "slot": "0",
            "type": "t_uint32"
          },
          {
            "astId": 3747,
            "contract": "contracts/sRel.sol:sRel",
            "label": "votes",
            "offset": 4,
            "slot": "0",
            "type": "t_uint224"
          }
        ],
        "numberOfBytes": "32"
      },
      "t_struct(Counter)4935_storage": {
        "encoding": "inplace",
        "label": "struct Counters.Counter",
        "members": [
          {
            "astId": 4934,
            "contract": "contracts/sRel.sol:sRel",
            "label": "_value",
            "offset": 0,
            "slot": "0",
            "type": "t_uint256"
          }
        ],
        "numberOfBytes": "32"
      },
      "t_struct(Unlock)6881_storage": {
        "encoding": "inplace",
        "label": "struct Utils.Unlock",
        "members": [
          {
            "astId": 6878,
            "contract": "contracts/sRel.sol:sRel",
            "label": "unlockAmnt",
            "offset": 0,
            "slot": "0",
            "type": "t_uint256"
          },
          {
            "astId": 6880,
            "contract": "contracts/sRel.sol:sRel",
            "label": "unlockTime",
            "offset": 0,
            "slot": "1",
            "type": "t_uint256"
          }
        ],
        "numberOfBytes": "64"
      },
      "t_struct(Vest)6876_storage": {
        "encoding": "inplace",
        "label": "struct Utils.Vest",
        "members": [
          {
            "astId": 6871,
            "contract": "contracts/sRel.sol:sRel",
            "label": "shortAmnt",
            "offset": 0,
            "slot": "0",
            "type": "t_uint256"
          },
          {
            "astId": 6873,
            "contract": "contracts/sRel.sol:sRel",
            "label": "longAmnt",
            "offset": 0,
            "slot": "1",
            "type": "t_uint256"
          },
          {
            "astId": 6875,
            "contract": "contracts/sRel.sol:sRel",
            "label": "lastUpdate",
            "offset": 0,
            "slot": "2",
            "type": "t_uint256"
          }
        ],
        "numberOfBytes": "96"
      },
      "t_uint224": {
        "encoding": "inplace",
        "label": "uint224",
        "numberOfBytes": "28"
      },
      "t_uint256": {
        "encoding": "inplace",
        "label": "uint256",
        "numberOfBytes": "32"
      },
      "t_uint32": {
        "encoding": "inplace",
        "label": "uint32",
        "numberOfBytes": "4"
      }
    }
  }
}