{
  "address": "0xCb2E195d92E9DA36ea1F186B8DF09AaDe31a5DdA",
  "abi": [
    {
      "inputs": [
        {
          "internalType": "contract IERC20",
          "name": "_r3l",
          "type": "address"
        },
        {
          "internalType": "address",
          "name": "_vestAdmin",
          "type": "address"
        },
        {
          "internalType": "uint256",
          "name": "_vestBegin",
          "type": "uint256"
        },
        {
          "internalType": "uint256",
          "name": "_vestShort",
          "type": "uint256"
        },
        {
          "internalType": "uint256",
          "name": "_vestLong",
          "type": "uint256"
        }
      ],
      "stateMutability": "nonpayable",
      "type": "constructor"
    },
    {
      "anonymous": false,
      "inputs": [
        {
          "indexed": true,
          "internalType": "address",
          "name": "owner",
          "type": "address"
        },
        {
          "indexed": true,
          "internalType": "address",
          "name": "spender",
          "type": "address"
        },
        {
          "indexed": false,
          "internalType": "uint256",
          "name": "value",
          "type": "uint256"
        }
      ],
      "name": "Approval",
      "type": "event"
    },
    {
      "anonymous": false,
      "inputs": [
        {
          "indexed": true,
          "internalType": "address",
          "name": "delegator",
          "type": "address"
        },
        {
          "indexed": true,
          "internalType": "address",
          "name": "fromDelegate",
          "type": "address"
        },
        {
          "indexed": true,
          "internalType": "address",
          "name": "toDelegate",
          "type": "address"
        }
      ],
      "name": "DelegateChanged",
      "type": "event"
    },
    {
      "anonymous": false,
      "inputs": [
        {
          "indexed": true,
          "internalType": "address",
          "name": "delegate",
          "type": "address"
        },
        {
          "indexed": false,
          "internalType": "uint256",
          "name": "previousBalance",
          "type": "uint256"
        },
        {
          "indexed": false,
          "internalType": "uint256",
          "name": "newBalance",
          "type": "uint256"
        }
      ],
      "name": "DelegateVotesChanged",
      "type": "event"
    },
    {
      "anonymous": false,
      "inputs": [
        {
          "indexed": true,
          "internalType": "address",
          "name": "previousOwner",
          "type": "address"
        },
        {
          "indexed": true,
          "internalType": "address",
          "name": "newOwner",
          "type": "address"
        }
      ],
      "name": "OwnershipTransferred",
      "type": "event"
    },
    {
      "anonymous": false,
      "inputs": [
        {
          "indexed": true,
          "internalType": "address",
          "name": "from",
          "type": "address"
        },
        {
          "indexed": true,
          "internalType": "address",
          "name": "to",
          "type": "address"
        },
        {
          "indexed": false,
          "internalType": "uint256",
          "name": "value",
          "type": "uint256"
        }
      ],
      "name": "Transfer",
      "type": "event"
    },
    {
      "anonymous": false,
      "inputs": [
        {
          "indexed": false,
          "internalType": "uint256",
          "name": "newLockPeriod",
          "type": "uint256"
        }
      ],
      "name": "lockPeriodUpdated",
      "type": "event"
    },
    {
      "anonymous": false,
      "inputs": [
        {
          "indexed": true,
          "internalType": "address",
          "name": "account",
          "type": "address"
        },
        {
          "components": [
            {
              "internalType": "uint256",
              "name": "unlockAmnt",
              "type": "uint256"
            },
            {
              "internalType": "uint256",
              "name": "unlockTime",
              "type": "uint256"
            }
          ],
          "indexed": false,
          "internalType": "struct Utils.Unlock",
          "name": "unlockData",
          "type": "tuple"
        }
      ],
      "name": "lockUpdated",
      "type": "event"
    },
    {
      "anonymous": false,
      "inputs": [
        {
          "indexed": false,
          "internalType": "address",
          "name": "newVestAdmin",
          "type": "address"
        }
      ],
      "name": "vestAdminUpdated",
      "type": "event"
    },
    {
      "anonymous": false,
      "inputs": [
        {
          "indexed": true,
          "internalType": "address",
          "name": "account",
          "type": "address"
        },
        {
          "indexed": false,
          "internalType": "address",
          "name": "sender",
          "type": "address"
        },
        {
          "components": [
            {
              "internalType": "uint256",
              "name": "shortAmnt",
              "type": "uint256"
            },
            {
              "internalType": "uint256",
              "name": "longAmnt",
              "type": "uint256"
            },
            {
              "internalType": "uint256",
              "name": "lastUpdate",
              "type": "uint256"
            }
          ],
          "indexed": false,
          "internalType": "struct Utils.Vest",
          "name": "vestData",
          "type": "tuple"
        }
      ],
      "name": "vestUpdated",
      "type": "event"
    },
    {
      "inputs": [],
      "name": "CLAIM_HASH",
      "outputs": [
        {
          "internalType": "bytes32",
          "name": "",
          "type": "bytes32"
        }
      ],
      "stateMutability": "view",
      "type": "function"
    },
    {
      "inputs": [],
      "name": "DOMAIN_SEPARATOR",
      "outputs": [
        {
          "internalType": "bytes32",
          "name": "",
          "type": "bytes32"
        }
      ],
      "stateMutability": "view",
      "type": "function"
    },
    {
      "inputs": [
        {
          "internalType": "address",
          "name": "owner",
          "type": "address"
        },
        {
          "internalType": "address",
          "name": "spender",
          "type": "address"
        }
      ],
      "name": "allowance",
      "outputs": [
        {
          "internalType": "uint256",
          "name": "",
          "type": "uint256"
        }
      ],
      "stateMutability": "view",
      "type": "function"
    },
    {
      "inputs": [
        {
          "internalType": "address",
          "name": "spender",
          "type": "address"
        },
        {
          "internalType": "uint256",
          "name": "amount",
          "type": "uint256"
        }
      ],
      "name": "approve",
      "outputs": [
        {
          "internalType": "bool",
          "name": "",
          "type": "bool"
        }
      ],
      "stateMutability": "nonpayable",
      "type": "function"
    },
    {
      "inputs": [
        {
          "internalType": "address",
          "name": "account",
          "type": "address"
        }
      ],
      "name": "balanceOf",
      "outputs": [
        {
          "internalType": "uint256",
          "name": "",
          "type": "uint256"
        }
      ],
      "stateMutability": "view",
      "type": "function"
    },
    {
      "inputs": [
        {
          "internalType": "address",
          "name": "account",
          "type": "address"
        },
        {
          "internalType": "uint32",
          "name": "pos",
          "type": "uint32"
        }
      ],
      "name": "checkpoints",
      "outputs": [
        {
          "components": [
            {
              "internalType": "uint32",
              "name": "fromBlock",
              "type": "uint32"
            },
            {
              "internalType": "uint224",
              "name": "votes",
              "type": "uint224"
            }
          ],
          "internalType": "struct ERC20Votes.Checkpoint",
          "name": "",
          "type": "tuple"
        }
      ],
      "stateMutability": "view",
      "type": "function"
    },
    {
      "inputs": [],
      "name": "claimVestedRel",
      "outputs": [],
      "stateMutability": "nonpayable",
      "type": "function"
    },
    {
      "inputs": [],
      "name": "decimals",
      "outputs": [
        {
          "internalType": "uint8",
          "name": "",
          "type": "uint8"
        }
      ],
      "stateMutability": "view",
      "type": "function"
    },
    {
      "inputs": [
        {
          "internalType": "address",
          "name": "spender",
          "type": "address"
        },
        {
          "internalType": "uint256",
          "name": "subtractedValue",
          "type": "uint256"
        }
      ],
      "name": "decreaseAllowance",
      "outputs": [
        {
          "internalType": "bool",
          "name": "",
          "type": "bool"
        }
      ],
      "stateMutability": "nonpayable",
      "type": "function"
    },
    {
      "inputs": [
        {
          "internalType": "address",
          "name": "delegatee",
          "type": "address"
        }
      ],
      "name": "delegate",
      "outputs": [],
      "stateMutability": "nonpayable",
      "type": "function"
    },
    {
      "inputs": [
        {
          "internalType": "address",
          "name": "delegatee",
          "type": "address"
        },
        {
          "internalType": "uint256",
          "name": "nonce",
          "type": "uint256"
        },
        {
          "internalType": "uint256",
          "name": "expiry",
          "type": "uint256"
        },
        {
          "internalType": "uint8",
          "name": "v",
          "type": "uint8"
        },
        {
          "internalType": "bytes32",
          "name": "r",
          "type": "bytes32"
        },
        {
          "internalType": "bytes32",
          "name": "s",
          "type": "bytes32"
        }
      ],
      "name": "delegateBySig",
      "outputs": [],
      "stateMutability": "nonpayable",
      "type": "function"
    },
    {
      "inputs": [
        {
          "internalType": "address",
          "name": "account",
          "type": "address"
        }
      ],
      "name": "delegates",
      "outputs": [
        {
          "internalType": "address",
          "name": "",
          "type": "address"
        }
      ],
      "stateMutability": "view",
      "type": "function"
    },
    {
      "inputs": [
        {
          "internalType": "uint256",
          "name": "blockNumber",
          "type": "uint256"
        }
      ],
      "name": "getPastTotalSupply",
      "outputs": [
        {
          "internalType": "uint256",
          "name": "",
          "type": "uint256"
        }
      ],
      "stateMutability": "view",
      "type": "function"
    },
    {
      "inputs": [
        {
          "internalType": "address",
          "name": "account",
          "type": "address"
        },
        {
          "internalType": "uint256",
          "name": "blockNumber",
          "type": "uint256"
        }
      ],
      "name": "getPastVotes",
      "outputs": [
        {
          "internalType": "uint256",
          "name": "",
          "type": "uint256"
        }
      ],
      "stateMutability": "view",
      "type": "function"
    },
    {
      "inputs": [
        {
          "internalType": "address",
          "name": "account",
          "type": "address"
        }
      ],
      "name": "getVotes",
      "outputs": [
        {
          "internalType": "uint256",
          "name": "",
          "type": "uint256"
        }
      ],
      "stateMutability": "view",
      "type": "function"
    },
    {
      "inputs": [
        {
          "internalType": "address",
          "name": "spender",
          "type": "address"
        },
        {
          "internalType": "uint256",
          "name": "addedValue",
          "type": "uint256"
        }
      ],
      "name": "increaseAllowance",
      "outputs": [
        {
          "internalType": "bool",
          "name": "",
          "type": "bool"
        }
      ],
      "stateMutability": "nonpayable",
      "type": "function"
    },
    {
      "inputs": [
        {
          "internalType": "uint256",
          "name": "_shortAmount",
          "type": "uint256"
        },
        {
          "internalType": "uint256",
          "name": "_longAmount",
          "type": "uint256"
        },
        {
          "internalType": "bytes",
          "name": "_sig",
          "type": "bytes"
        }
      ],
      "name": "initVesting",
      "outputs": [],
      "stateMutability": "nonpayable",
      "type": "function"
    },
    {
      "inputs": [],
      "name": "lockPeriod",
      "outputs": [
        {
          "internalType": "uint256",
          "name": "",
          "type": "uint256"
        }
      ],
      "stateMutability": "view",
      "type": "function"
    },
    {
      "inputs": [],
      "name": "name",
      "outputs": [
        {
          "internalType": "string",
          "name": "",
          "type": "string"
        }
      ],
      "stateMutability": "view",
      "type": "function"
    },
    {
      "inputs": [
        {
          "internalType": "address",
          "name": "account",
          "type": "address"
        }
      ],
      "name": "nonceOf",
      "outputs": [
        {
          "internalType": "uint256",
          "name": "",
          "type": "uint256"
        }
      ],
      "stateMutability": "view",
      "type": "function"
    },
    {
      "inputs": [
        {
          "internalType": "address",
          "name": "owner",
          "type": "address"
        }
      ],
      "name": "nonces",
      "outputs": [
        {
          "internalType": "uint256",
          "name": "",
          "type": "uint256"
        }
      ],
      "stateMutability": "view",
      "type": "function"
    },
    {
      "inputs": [
        {
          "internalType": "address",
          "name": "account",
          "type": "address"
        }
      ],
      "name": "numCheckpoints",
      "outputs": [
        {
          "internalType": "uint32",
          "name": "",
          "type": "uint32"
        }
      ],
      "stateMutability": "view",
      "type": "function"
    },
    {
      "inputs": [],
      "name": "owner",
      "outputs": [
        {
          "internalType": "address",
          "name": "",
          "type": "address"
        }
      ],
      "stateMutability": "view",
      "type": "function"
    },
    {
      "inputs": [
        {
          "internalType": "address",
          "name": "owner",
          "type": "address"
        },
        {
          "internalType": "address",
          "name": "spender",
          "type": "address"
        },
        {
          "internalType": "uint256",
          "name": "value",
          "type": "uint256"
        },
        {
          "internalType": "uint256",
          "name": "deadline",
          "type": "uint256"
        },
        {
          "internalType": "uint8",
          "name": "v",
          "type": "uint8"
        },
        {
          "internalType": "bytes32",
          "name": "r",
          "type": "bytes32"
        },
        {
          "internalType": "bytes32",
          "name": "s",
          "type": "bytes32"
        }
      ],
      "name": "permit",
      "outputs": [],
      "stateMutability": "nonpayable",
      "type": "function"
    },
    {
      "inputs": [],
      "name": "r3l",
      "outputs": [
        {
          "internalType": "contract IERC20",
          "name": "",
          "type": "address"
        }
      ],
      "stateMutability": "view",
      "type": "function"
    },
    {
      "inputs": [],
      "name": "renounceOwnership",
      "outputs": [],
      "stateMutability": "nonpayable",
      "type": "function"
    },
    {
      "inputs": [],
      "name": "resetLock",
      "outputs": [],
      "stateMutability": "nonpayable",
      "type": "function"
    },
    {
      "inputs": [
        {
          "internalType": "address",
          "name": "account",
          "type": "address"
        },
        {
          "internalType": "uint256",
          "name": "shortAmnt",
          "type": "uint256"
        },
        {
          "internalType": "uint256",
          "name": "longAmnt",
          "type": "uint256"
        }
      ],
      "name": "setUnvestedAmount",
      "outputs": [],
      "stateMutability": "nonpayable",
      "type": "function"
    },
    {
      "inputs": [
        {
          "internalType": "address",
          "name": "newAdmin",
          "type": "address"
        }
      ],
      "name": "setVestAdmin",
      "outputs": [],
      "stateMutability": "nonpayable",
      "type": "function"
    },
    {
      "inputs": [
        {
          "internalType": "uint256",
          "name": "amount",
          "type": "uint256"
        }
      ],
      "name": "stakeRel",
      "outputs": [],
      "stateMutability": "nonpayable",
      "type": "function"
    },
    {
      "inputs": [
        {
          "internalType": "address",
          "name": "account",
          "type": "address"
        }
      ],
      "name": "staked",
      "outputs": [
        {
          "internalType": "uint256",
          "name": "",
          "type": "uint256"
        }
      ],
      "stateMutability": "view",
      "type": "function"
    },
    {
      "inputs": [],
      "name": "symbol",
      "outputs": [
        {
          "internalType": "string",
          "name": "",
          "type": "string"
        }
      ],
      "stateMutability": "view",
      "type": "function"
    },
    {
      "inputs": [],
      "name": "totalSupply",
      "outputs": [
        {
          "internalType": "uint256",
          "name": "",
          "type": "uint256"
        }
      ],
      "stateMutability": "view",
      "type": "function"
    },
    {
      "inputs": [],
      "name": "totalUnvested",
      "outputs": [
        {
          "internalType": "uint256",
          "name": "",
          "type": "uint256"
        }
      ],
      "stateMutability": "view",
      "type": "function"
    },
    {
      "inputs": [
        {
          "internalType": "address",
          "name": "recipient",
          "type": "address"
        },
        {
          "internalType": "uint256",
          "name": "amount",
          "type": "uint256"
        }
      ],
      "name": "transfer",
      "outputs": [
        {
          "internalType": "bool",
          "name": "",
          "type": "bool"
        }
      ],
      "stateMutability": "nonpayable",
      "type": "function"
    },
    {
      "inputs": [
        {
          "internalType": "address",
          "name": "sender",
          "type": "address"
        },
        {
          "internalType": "address",
          "name": "recipient",
          "type": "address"
        },
        {
          "internalType": "uint256",
          "name": "amount",
          "type": "uint256"
        }
      ],
      "name": "transferFrom",
      "outputs": [
        {
          "internalType": "bool",
          "name": "",
          "type": "bool"
        }
      ],
      "stateMutability": "nonpayable",
      "type": "function"
    },
    {
      "inputs": [
        {
          "internalType": "address",
          "name": "newOwner",
          "type": "address"
        }
      ],
      "name": "transferOwnership",
      "outputs": [],
      "stateMutability": "nonpayable",
      "type": "function"
    },
    {
      "inputs": [
        {
          "internalType": "address",
          "name": "to",
          "type": "address"
        }
      ],
      "name": "transferUnvestedTokens",
      "outputs": [],
      "stateMutability": "nonpayable",
      "type": "function"
    },
    {
      "inputs": [
        {
          "internalType": "uint256",
          "name": "amount",
          "type": "uint256"
        }
      ],
      "name": "unlock",
      "outputs": [],
      "stateMutability": "nonpayable",
      "type": "function"
    },
    {
      "inputs": [
        {
          "internalType": "address",
          "name": "account",
          "type": "address"
        }
      ],
      "name": "unlockTime",
      "outputs": [
        {
          "internalType": "uint256",
          "name": "",
          "type": "uint256"
        }
      ],
      "stateMutability": "view",
      "type": "function"
    },
    {
      "inputs": [
        {
          "internalType": "address",
          "name": "account",
          "type": "address"
        }
      ],
      "name": "unstaked",
      "outputs": [
        {
          "internalType": "uint256",
          "name": "",
          "type": "uint256"
        }
      ],
      "stateMutability": "view",
      "type": "function"
    },
    {
      "inputs": [
        {
          "internalType": "address",
          "name": "account",
          "type": "address"
        }
      ],
      "name": "unvested",
      "outputs": [
        {
          "internalType": "uint256",
          "name": "",
          "type": "uint256"
        }
      ],
      "stateMutability": "view",
      "type": "function"
    },
    {
      "inputs": [
        {
          "internalType": "uint256",
          "name": "newLockPeriod",
          "type": "uint256"
        }
      ],
      "name": "updateLockPeriod",
      "outputs": [],
      "stateMutability": "nonpayable",
      "type": "function"
    },
    {
      "inputs": [],
      "name": "vestAdmin",
      "outputs": [
        {
          "internalType": "address",
          "name": "",
          "type": "address"
        }
      ],
      "stateMutability": "view",
      "type": "function"
    },
    {
      "inputs": [],
      "name": "vestBegin",
      "outputs": [
        {
          "internalType": "uint256",
          "name": "",
          "type": "uint256"
        }
      ],
      "stateMutability": "view",
      "type": "function"
    },
    {
      "inputs": [
        {
          "internalType": "address",
          "name": "account",
          "type": "address"
        }
      ],
      "name": "vestData",
      "outputs": [
        {
          "components": [
            {
              "internalType": "uint256",
              "name": "shortAmnt",
              "type": "uint256"
            },
            {
              "internalType": "uint256",
              "name": "longAmnt",
              "type": "uint256"
            },
            {
              "internalType": "uint256",
              "name": "lastUpdate",
              "type": "uint256"
            }
          ],
          "internalType": "struct Utils.Vest",
          "name": "",
          "type": "tuple"
        }
      ],
      "stateMutability": "view",
      "type": "function"
    },
    {
      "inputs": [],
      "name": "vestLong",
      "outputs": [
        {
          "internalType": "uint256",
          "name": "",
          "type": "uint256"
        }
      ],
      "stateMutability": "view",
      "type": "function"
    },
    {
      "inputs": [],
      "name": "vestShort",
      "outputs": [
        {
          "internalType": "uint256",
          "name": "",
          "type": "uint256"
        }
      ],
      "stateMutability": "view",
      "type": "function"
    },
    {
      "inputs": [
        {
          "internalType": "uint256",
          "name": "amount",
          "type": "uint256"
        }
      ],
      "name": "withdrawRel",
      "outputs": [],
      "stateMutability": "nonpayable",
      "type": "function"
    }
  ],
  "transactionHash": "0x913b49c7dceed08827432a6242d01b8d18f3ecc246151d4714bb3fff5537f9ae",
  "args": [
    "0xb6c4267C4877BB0D6b1685Cfd85b0FBe82F105ec",
    "0x6DdF9DA4C37DF97CB2458F85050E09994Cbb9C2A",
    1633060800,
    1759204800,
    2137636800
  ],
  "solcInputHash": "ac5afc3f118c5b8c782e5fcef00aa843",
  "bytecode": "0x6101c06040527f6e71edae12b1b97f4d1f60370fef10105fa2faae0126114a169c64845d6126c96101205262054600600b553480156200003e57600080fd5b50604051620037cd380380620037cd833981016040819052620000619162000356565b6040518060400160405280600a81526020016914dd185ad9590814915360b21b81525080604051806040016040528060018152602001603160f81b8152506040518060400160405280600a81526020016914dd185ad9590814915360b21b815250604051806040016040528060048152602001631cd4915360e21b8152508160039080519060200190620000f7929190620002b0565b5080516200010d906004906020840190620002b0565b5050825160209384012082519284019290922060c083815260e08290524660a0818152604080517f8b73c3c69bb8fe3d512ecc4cf759cc79239f7b179b0ffacaa9a75d522b39400f818a018190528183019890985260608101959095526080808601939093523085830152805180860390920182529390920190925280519401939093209092526101005250620001a69050336200025e565b818311158015620001b75750808211155b620002135760405162461bcd60e51b815260206004820152602260248201527f7352656c3a20696e636f72726563742076657374696e672074696d657374616d604482015261707360f01b606482015260840160405180910390fd5b60609490941b6001600160601b0319166101405261016091909152610180526101a091909152600a80546001600160a01b0319166001600160a01b0390921691909117905562000404565b600980546001600160a01b038381166001600160a01b0319831681179093556040519116919082907f8be0079c531659141344cd1fd0a4f28419497f9722a3daafe3b4186f6b6457e090600090a35050565b828054620002be90620003ae565b90600052602060002090601f016020900481019282620002e257600085556200032d565b82601f10620002fd57805160ff19168380011785556200032d565b828001600101855582156200032d579182015b828111156200032d57825182559160200191906001019062000310565b506200033b9291506200033f565b5090565b5b808211156200033b576000815560010162000340565b600080600080600060a086880312156200036f57600080fd5b85516200037c81620003eb565b60208701519095506200038f81620003eb565b6040870151606088015160809098015196999198509695945092505050565b600181811c90821680620003c357607f821691505b60208210811415620003e557634e487b7160e01b600052602260045260246000fd5b50919050565b6001600160a01b03811681146200040157600080fd5b50565b60805160a05160c05160e05161010051610120516101405160601c61016051610180516101a051613320620004ad600039600081816104d60152610d7d0152600081816105b40152610d570152600081816106af0152610da30152600081816103060152818161092d015281816116c90152611f6a0152600061148401526000611c0c01526000611c5b01526000611c3601526000611bba01526000611be301526133206000f3fe608060405234801561001057600080fd5b50600436106102bb5760003560e01c806376b467b711610182578063b1f7996e116100e9578063e02c8fc5116100a2578063ed2a2d641161007c578063ed2a2d6414610719578063f034333f14610742578063f1127ed814610755578063f2fde38b1461079257600080fd5b8063e02c8fc5146106aa578063ea8809a6146106d1578063ebcb27801461070657600080fd5b8063b1f7996e146105fc578063c3cda5201461060f578063c50ef91e14610622578063c7c90bfb14610635578063d505accf1461065e578063dd62ed3e1461067157600080fd5b806395d89b411161013b57806395d89b411461058157806398807d84146105895780639ab24eb01461059c578063a0940960146105af578063a457c2d7146105d6578063a9059cbb146105e957600080fd5b806376b467b7146104f85780637ecebe00146105245780638adaaa84146105375780638da5cb5b1461054a5780638e539e8c1461055b57806391db7b0d1461056e57600080fd5b80633a46b1a8116102265780636cc5f01a116101df5780636cc5f01a1461045d5780636fcfff451461047057806370a082311461049857806371074519146104c1578063715018a6146104c957806376831ae5146104d157600080fd5b80633a46b1a8146103e75780633fd8b02f146103fa57806345459bcf14610403578063587cde1e1461040b5780635c19a95c146104375780636198e3391461044a57600080fd5b8063313ce56711610278578063313ce5671461036e57806333a6cc581461037d5780633644e515146103a45780633664bf2d146103ac57806336a94a57146103c157806339509351146103d457600080fd5b806306fdde03146102c0578063095ea7b3146102de578063122873281461030157806318160ddd146103405780631a7aa4f41461035257806323b872dd1461035b575b600080fd5b6102c86107a5565b6040516102d59190613162565b60405180910390f35b6102f16102ec366004612f27565b610837565b60405190151581526020016102d5565b6103287f000000000000000000000000000000000000000000000000000000000000000081565b6040516001600160a01b0390911681526020016102d5565b6002545b6040519081526020016102d5565b610344600c5481565b6102f1610369366004612e81565b61084d565b604051601281526020016102d5565b6103447faa930e3affe03e95a7e73cc03af79eab35ac3f46fe4ae69839f76986ecaa957d81565b6103446108fc565b6103bf6103ba36600461303e565b61090b565b005b6103446103cf366004612e33565b610a02565b6102f16103e2366004612f27565b610a29565b6103446103f5366004612f27565b610a65565b610344600b5481565b6103bf610adf565b610328610419366004612e33565b6001600160a01b039081166000908152600660205260409020541690565b6103bf610445366004612e33565b610b41565b6103bf61045836600461303e565b610b4b565b6103bf61046b366004613070565b610bae565b61048361047e366004612e33565b610d10565b60405163ffffffff90911681526020016102d5565b6103446104a6366004612e33565b6001600160a01b031660009081526020819052604090205490565b6103bf610d32565b6103bf610ef2565b6103447f000000000000000000000000000000000000000000000000000000000000000081565b610344610506366004612e33565b6001600160a01b03166000908152600e602052604090206001015490565b610344610532366004612e33565b610f28565b6103bf610545366004612e33565b610f46565b6009546001600160a01b0316610328565b61034461056936600461303e565b611059565b6103bf61057c36600461303e565b6110b5565b6102c8611160565b610344610597366004612e33565b61116f565b6103446105aa366004612e33565b61119c565b6103447f000000000000000000000000000000000000000000000000000000000000000081565b6102f16105e4366004612f27565b611223565b6102f16105f7366004612f27565b6112bc565b6103bf61060a366004612f51565b6112c9565b6103bf61061d366004612f84565b611303565b600a54610328906001600160a01b031681565b610344610643366004612e33565b6001600160a01b03166000908152600e602052604090205490565b6103bf61066c366004612ebd565b611430565b61034461067f366004612e4e565b6001600160a01b03918216600090815260016020908152604080832093909416825291909152205490565b6103447f000000000000000000000000000000000000000000000000000000000000000081565b6106e46106df366004612e33565b611594565b60408051825181526020808401519082015291810151908201526060016102d5565b6103bf610714366004612e33565b6115fa565b610344610727366004612e33565b6001600160a01b03166000908152600d602052604090205490565b6103bf61075036600461303e565b6116a3565b610768610763366004612fdc565b611791565b60408051825163ffffffff1681526020928301516001600160e01b031692810192909252016102d5565b6103bf6107a0366004612e33565b611815565b6060600380546107b49061323d565b80601f01602080910402602001604051908101604052809291908181526020018280546107e09061323d565b801561082d5780601f106108025761010080835404028352916020019161082d565b820191906000526020600020905b81548152906001019060200180831161081057829003601f168201915b5050505050905090565b60006108443384846118ad565b50600192915050565b600061085a8484846119d1565b6001600160a01b0384166000908152600160209081526040808320338452909152902054828110156108e45760405162461bcd60e51b815260206004820152602860248201527f45524332303a207472616e7366657220616d6f756e74206578636565647320616044820152676c6c6f77616e636560c01b60648201526084015b60405180910390fd5b6108f185338584036118ad565b506001949350505050565b6000610906611bb6565b905090565b6040516323b872dd60e01b8152336004820152306024820152604481018290527f00000000000000000000000000000000000000000000000000000000000000006001600160a01b0316906323b872dd90606401602060405180830381600087803b15801561097957600080fd5b505af115801561098d573d6000803e3d6000fd5b505050506040513d601f19601f820116820180604052508101906109b1919061301c565b6109f55760405162461bcd60e51b81526020600482015260156024820152741cd4995b0e881d1c985b9cd9995c8819985a5b1959605a1b60448201526064016108db565b6109ff3382611ca9565b50565b6001600160a01b0381166000908152600f60205260408120610a2390611d33565b92915050565b3360008181526001602090815260408083206001600160a01b03871684529091528120549091610844918590610a609086906131ec565b6118ad565b6000438210610ab65760405162461bcd60e51b815260206004820152601f60248201527f4552433230566f7465733a20626c6f636b206e6f7420796574206d696e65640060448201526064016108db565b6001600160a01b0383166000908152600760205260409020610ad89083611d46565b9392505050565b336000908152600e60205260409020610aff816000808255600190910155565b60408051825481526001830154602082015233917f53a06858e4b0bb751491f078084a1a381e3fb6d6e9dd983c266e2d68e33bd79a910160405180910390a250565b6109ff3382611e03565b336000908152600e60205260409020600b54610b6a9082908490611e7c565b60408051825481526001830154602082015233917f53a06858e4b0bb751491f078084a1a381e3fb6d6e9dd983c266e2d68e33bd79a91015b60405180910390a25050565b336000818152600d602090815260408083205481517faa930e3affe03e95a7e73cc03af79eab35ac3f46fe4ae69839f76986ecaa957d9381019390935290820193909352606081018690526080810185905260a0810183905260c0016040516020818303038152906040528051906020012090506000610c70610c2f611bb6565b8360405161190160f01b6020820152602281018390526042810182905260009060620160405160208183030381529060405280519060200120905092915050565b90506000610c7e8286611e96565b600a549091506001600160a01b03808316911614610cde5760405162461bcd60e51b815260206004820152601a60248201527f7352656c3a20436c61696d206e6f7420617574686f72697a656400000000000060448201526064016108db565b610ce98460016131ec565b336000818152600d6020526040902091909155610d07908888611eba565b50505050505050565b6001600160a01b038116600090815260076020526040812054610a23906120b3565b336000908152600f60205260408082209051631e9442d560e31b8152600481018290527f000000000000000000000000000000000000000000000000000000000000000060248201527f000000000000000000000000000000000000000000000000000000000000000060448201527f000000000000000000000000000000000000000000000000000000000000000060648201529091907392dBEa6fa85A1cd839b604D1F2852ABfb7Fa28979063f4a216a89060840160206040518083038186803b158015610e0157600080fd5b505af4158015610e15573d6000803e3d6000fd5b505050506040513d601f19601f82011682018060405250810190610e399190613057565b905060008111610e955760405162461bcd60e51b815260206004820152602160248201527f7352656c3a206e6f20756e76657374656420746f6b656e7320746f20636c61696044820152606d60f81b60648201526084016108db565b80600c6000828254610ea79190613226565b9091555050600b54336000908152600e60205260409020610ec9918390611e7c565b336001600160a01b03166000805160206132cb8339815191523384604051610ba2929190613134565b6009546001600160a01b03163314610f1c5760405162461bcd60e51b81526004016108db906131b7565b610f26600061211c565b565b6001600160a01b038116600090815260056020526040812054610a23565b6009546001600160a01b0316331480610f695750600a546001600160a01b031633145b610fac5760405162461bcd60e51b81526020600482015260146024820152731cd4995b0e881b9bdd08185d5d1a1bdc9a5e995960621b60448201526064016108db565b600a546001600160a01b03828116911614156110045760405162461bcd60e51b81526020600482015260176024820152767352656c3a206e6f7468696e6720746f2075706461746560481b60448201526064016108db565b600a80546001600160a01b0319166001600160a01b0383169081179091556040519081527f8961078521e826adb5caac59fa1f47e24f2059266ab5fe7c7fbf9b2ccd5a21e3906020015b60405180910390a150565b60004382106110aa5760405162461bcd60e51b815260206004820152601f60248201527f4552433230566f7465733a20626c6f636b206e6f7420796574206d696e65640060448201526064016108db565b610a23600883611d46565b6009546001600160a01b031633146110df5760405162461bcd60e51b81526004016108db906131b7565b80600b54141561112b5760405162461bcd60e51b81526020600482015260176024820152767352656c3a206e6f7468696e6720746f2075706461746560481b60448201526064016108db565b600b8190556040518181527fe8bf8dfb4abe1420b183a0e83ced724064b765215e282a7a58dff3c1fef5e3f19060200161104e565b6060600480546107b49061323d565b6001600160a01b0381166000908152600e602090815260408083205491839052822054610a239190613226565b6001600160a01b0381166000908152600760205260408120548015611210576001600160a01b03831660009081526007602052604090206111de600183613226565b815481106111ee576111ee61329e565b60009182526020909120015464010000000090046001600160e01b0316611213565b60005b6001600160e01b03169392505050565b3360009081526001602090815260408083206001600160a01b0386168452909152812054828110156112a55760405162461bcd60e51b815260206004820152602560248201527f45524332303a2064656372656173656420616c6c6f77616e63652062656c6f77604482015264207a65726f60d81b60648201526084016108db565b6112b233858584036118ad565b5060019392505050565b60006108443384846119d1565b6009546001600160a01b031633146112f35760405162461bcd60e51b81526004016108db906131b7565b6112fe838383611eba565b505050565b834211156113535760405162461bcd60e51b815260206004820152601d60248201527f4552433230566f7465733a207369676e6174757265206578706972656400000060448201526064016108db565b604080517fe48329057bfd03d55e49b547132e39cffd9c1820ad7b9d4c5307691425d15adf60208201526001600160a01b0388169181019190915260608101869052608081018590526000906113cd906113c59060a0016040516020818303038152906040528051906020012061216e565b85858561217b565b90506113d8816121a3565b86146114265760405162461bcd60e51b815260206004820152601960248201527f4552433230566f7465733a20696e76616c6964206e6f6e63650000000000000060448201526064016108db565b610d078188611e03565b834211156114805760405162461bcd60e51b815260206004820152601d60248201527f45524332305065726d69743a206578706972656420646561646c696e6500000060448201526064016108db565b60007f00000000000000000000000000000000000000000000000000000000000000008888886114af8c6121a3565b6040805160208101969096526001600160a01b0394851690860152929091166060840152608083015260a082015260c0810186905260e001604051602081830303815290604052805190602001209050600061150a8261216e565b9050600061151a8287878761217b565b9050896001600160a01b0316816001600160a01b03161461157d5760405162461bcd60e51b815260206004820152601e60248201527f45524332305065726d69743a20696e76616c6964207369676e6174757265000060448201526064016108db565b6115888a8a8a6118ad565b50505050505050505050565b6115b860405180606001604052806000815260200160008152602001600081525090565b506001600160a01b03166000908152600f6020908152604091829020825160608101845281548152600182015492810192909252600201549181019190915290565b336000908152600f60205260408082206001600160a01b0384168352908220909161162483611d33565b905061163083836121cb565b61163a84826112bc565b50336001600160a01b03166000805160206132cb8339815191523385604051611664929190613134565b60405180910390a2836001600160a01b03166000805160206132cb8339815191523384604051611695929190613134565b60405180910390a250505050565b6116ad33826122bd565b60405163a9059cbb60e01b8152336004820152602481018290527f00000000000000000000000000000000000000000000000000000000000000006001600160a01b03169063a9059cbb90604401602060405180830381600087803b15801561171557600080fd5b505af1158015611729573d6000803e3d6000fd5b505050506040513d601f19601f8201168201806040525081019061174d919061301c565b6109ff5760405162461bcd60e51b81526020600482015260156024820152741cd4995b0e881d1c985b9cd9995c8819985a5b1959605a1b60448201526064016108db565b60408051808201909152600080825260208201526001600160a01b0383166000908152600760205260409020805463ffffffff84169081106117d5576117d561329e565b60009182526020918290206040805180820190915291015463ffffffff8116825264010000000090046001600160e01b0316918101919091529392505050565b6009546001600160a01b0316331461183f5760405162461bcd60e51b81526004016108db906131b7565b6001600160a01b0381166118a45760405162461bcd60e51b815260206004820152602660248201527f4f776e61626c653a206e6577206f776e657220697320746865207a65726f206160448201526564647265737360d01b60648201526084016108db565b6109ff8161211c565b6001600160a01b03831661190f5760405162461bcd60e51b8152602060048201526024808201527f45524332303a20617070726f76652066726f6d20746865207a65726f206164646044820152637265737360e01b60648201526084016108db565b6001600160a01b0382166119705760405162461bcd60e51b815260206004820152602260248201527f45524332303a20617070726f766520746f20746865207a65726f206164647265604482015261737360f01b60648201526084016108db565b6001600160a01b0383811660008181526001602090815260408083209487168084529482529182902085905590518481527f8c5be1e5ebec7d5bd14f71427d1e84f3dd0314c0f7b2291e5b200ac8c7c3b925910160405180910390a3505050565b6001600160a01b038316611a355760405162461bcd60e51b815260206004820152602560248201527f45524332303a207472616e736665722066726f6d20746865207a65726f206164604482015264647265737360d81b60648201526084016108db565b6001600160a01b038216611a975760405162461bcd60e51b815260206004820152602360248201527f45524332303a207472616e7366657220746f20746865207a65726f206164647260448201526265737360e81b60648201526084016108db565b611aa28383836122d5565b6001600160a01b03831660009081526020819052604090205481811015611b1a5760405162461bcd60e51b815260206004820152602660248201527f45524332303a207472616e7366657220616d6f756e7420657863656564732062604482015265616c616e636560d01b60648201526084016108db565b6001600160a01b03808516600090815260208190526040808220858503905591851681529081208054849290611b519084906131ec565b92505081905550826001600160a01b0316846001600160a01b03167fddf252ad1be2c89b69c2b068fc378daa952ba7f163c4a11628f55a4df523b3ef84604051611b9d91815260200190565b60405180910390a3611bb084848461240c565b50505050565b60007f0000000000000000000000000000000000000000000000000000000000000000461415611c0557507f000000000000000000000000000000000000000000000000000000000000000090565b50604080517f00000000000000000000000000000000000000000000000000000000000000006020808301919091527f0000000000000000000000000000000000000000000000000000000000000000828401527f000000000000000000000000000000000000000000000000000000000000000060608301524660808301523060a0808401919091528351808403909101815260c0909201909252805191012090565b611cb3828261243e565b6002546001600160e01b031015611d255760405162461bcd60e51b815260206004820152603060248201527f4552433230566f7465733a20746f74616c20737570706c79207269736b73206f60448201526f766572666c6f77696e6720766f74657360801b60648201526084016108db565b611bb0600861253583612541565b60018101548154600091610a23916131ec565b8154600090815b81811015611daa576000611d6182846126ba565b905084868281548110611d7657611d7661329e565b60009182526020909120015463ffffffff161115611d9657809250611da4565b611da18160016131ec565b91505b50611d4d565b8115611dee5784611dbc600184613226565b81548110611dcc57611dcc61329e565b60009182526020909120015464010000000090046001600160e01b0316611df1565b60005b6001600160e01b031695945050505050565b6001600160a01b038281166000818152600660208181526040808420805485845282862054949093528787166001600160a01b03198416811790915590519190951694919391928592917f3134e8a2e6d97e929a7e54011ea5485d7d196dd5f0ba4d4ef95803e8e3fc257f9190a4611bb08284836126d5565b818355611e8981426131ec565b8360010181905550505050565b6000806000611ea58585612803565b91509150611eb281612873565b509392505050565b6001600160a01b0383166000908152600f6020526040908190209051631992dfb560e21b81526004810182905260248101849052604481018390527392dBEa6fa85A1cd839b604D1F2852ABfb7Fa28979063664b7ed49060640160006040518083038186803b158015611f2c57600080fd5b505af4158015611f40573d6000803e3d6000fd5b5050505060008284611f5291906131ec565b6040516370a0823160e01b81523060048201529091507f00000000000000000000000000000000000000000000000000000000000000006001600160a01b0316906370a082319060240160206040518083038186803b158015611fb457600080fd5b505afa158015611fc8573d6000803e3d6000fd5b505050506040513d601f19601f82011682018060405250810190611fec9190613057565b81611ff660025490565b61200091906131ec565b11156120585760405162461bcd60e51b815260206004820152602160248201527f7352656c3a204e6f7420656e6f756768742052454c20696e20636f6e747261636044820152601d60fa1b60648201526084016108db565b6120628582611ca9565b80600c600082825461207491906131ec565b92505081905550846001600160a01b03166000805160206132cb83398151915233846040516120a4929190613134565b60405180910390a25050505050565b600063ffffffff8211156121185760405162461bcd60e51b815260206004820152602660248201527f53616665436173743a2076616c756520646f65736e27742066697420696e203360448201526532206269747360d01b60648201526084016108db565b5090565b600980546001600160a01b038381166001600160a01b0319831681179093556040519116919082907f8be0079c531659141344cd1fd0a4f28419497f9722a3daafe3b4186f6b6457e090600090a35050565b6000610a23610c2f611bb6565b600080600061218c87878787612a2e565b9150915061219981612873565b5095945050505050565b6001600160a01b03811660009081526005602052604090208054600181018255905b50919050565b600182015482541761221f5760405162461bcd60e51b815260206004820152601a60248201527f7352656c553a206e6f7468696e6720746f207472616e7366657200000000000060448201526064016108db565b6001810154815417156122935760405162461bcd60e51b815260206004820152603660248201527f7352656c553a2063616e6e6f74207472616e7366657220746f206163636f756e60448201527574207769746820756e76657374656420746f6b656e7360501b60648201526084016108db565b81548155600180830180549183019190915560028084018054919093015560009283905582905555565b6122c78282612b1b565b611bb06008612c7c83612541565b6001600160a01b03831615806122f357506001600160a01b03831630145b156122fd57505050565b6001600160a01b0383166000908152600f6020526040812061231e90611d33565b6001600160a01b0385166000908152602081905260409020546123419190613226565b9050808211156123a55760405162461bcd60e51b815260206004820152602960248201527f7352656c3a20796f752063616e6e6f74207472616e7366657220756e76657374604482015268656420746f6b656e7360b81b60648201526084016108db565b6001600160a01b0384166000908152600e602052604090206123c78184612c88565b6040805182548152600183015460208201526001600160a01b038716917f53a06858e4b0bb751491f078084a1a381e3fb6d6e9dd983c266e2d68e33bd79a91016120a4565b6001600160a01b038381166000908152600660205260408082205485841683529120546112fe929182169116836126d5565b6001600160a01b0382166124945760405162461bcd60e51b815260206004820152601f60248201527f45524332303a206d696e7420746f20746865207a65726f20616464726573730060448201526064016108db565b6124a0600083836122d5565b80600260008282546124b291906131ec565b90915550506001600160a01b038216600090815260208190526040812080548392906124df9084906131ec565b90915550506040518181526001600160a01b038316906000907fddf252ad1be2c89b69c2b068fc378daa952ba7f163c4a11628f55a4df523b3ef9060200160405180910390a36125316000838361240c565b5050565b6000610ad882846131ec565b82546000908190801561258c578561255a600183613226565b8154811061256a5761256a61329e565b60009182526020909120015464010000000090046001600160e01b031661258f565b60005b6001600160e01b031692506125a883858763ffffffff16565b91506000811180156125e6575043866125c2600184613226565b815481106125d2576125d261329e565b60009182526020909120015463ffffffff16145b15612646576125f482612d6e565b86612600600184613226565b815481106126105761261061329e565b9060005260206000200160000160046101000a8154816001600160e01b0302191690836001600160e01b031602179055506126b1565b85604051806040016040528061265b436120b3565b63ffffffff16815260200161266f85612d6e565b6001600160e01b0390811690915282546001810184556000938452602093849020835194909301519091166401000000000263ffffffff909316929092179101555b50935093915050565b60006126c96002848418613204565b610ad8908484166131ec565b816001600160a01b0316836001600160a01b0316141580156126f75750600081115b156112fe576001600160a01b03831615612785576001600160a01b0383166000908152600760205260408120819061273290612c7c85612541565b91509150846001600160a01b03167fdec2bacdd2f05b59de34da9b523dff8be42e5e38e818c82fdb0bae774387a724838360405161277a929190918252602082015260400190565b60405180910390a250505b6001600160a01b038216156112fe576001600160a01b038216600090815260076020526040812081906127bb9061253585612541565b91509150836001600160a01b03167fdec2bacdd2f05b59de34da9b523dff8be42e5e38e818c82fdb0bae774387a72483836040516120a4929190918252602082015260400190565b60008082516041141561283a5760208301516040840151606085015160001a61282e87828585612a2e565b9450945050505061286c565b8251604014156128645760208301516040840151612859868383612dd7565b93509350505061286c565b506000905060025b9250929050565b600081600481111561288757612887613288565b14156128905750565b60018160048111156128a4576128a4613288565b14156128f25760405162461bcd60e51b815260206004820152601860248201527f45434453413a20696e76616c6964207369676e6174757265000000000000000060448201526064016108db565b600281600481111561290657612906613288565b14156129545760405162461bcd60e51b815260206004820152601f60248201527f45434453413a20696e76616c6964207369676e6174757265206c656e6774680060448201526064016108db565b600381600481111561296857612968613288565b14156129c15760405162461bcd60e51b815260206004820152602260248201527f45434453413a20696e76616c6964207369676e6174757265202773272076616c604482015261756560f01b60648201526084016108db565b60048160048111156129d5576129d5613288565b14156109ff5760405162461bcd60e51b815260206004820152602260248201527f45434453413a20696e76616c6964207369676e6174757265202776272076616c604482015261756560f01b60648201526084016108db565b6000807f7fffffffffffffffffffffffffffffff5d576e7357a4501ddfe92f46681b20a0831115612a655750600090506003612b12565b8460ff16601b14158015612a7d57508460ff16601c14155b15612a8e5750600090506004612b12565b6040805160008082526020820180845289905260ff881692820192909252606081018690526080810185905260019060a0016020604051602081039080840390855afa158015612ae2573d6000803e3d6000fd5b5050604051601f1901519150506001600160a01b038116612b0b57600060019250925050612b12565b9150600090505b94509492505050565b6001600160a01b038216612b7b5760405162461bcd60e51b815260206004820152602160248201527f45524332303a206275726e2066726f6d20746865207a65726f206164647265736044820152607360f81b60648201526084016108db565b612b87826000836122d5565b6001600160a01b03821660009081526020819052604090205481811015612bfb5760405162461bcd60e51b815260206004820152602260248201527f45524332303a206275726e20616d6f756e7420657863656564732062616c616e604482015261636560f01b60648201526084016108db565b6001600160a01b0383166000908152602081905260408120838303905560028054849290612c2a908490613226565b90915550506040518281526000906001600160a01b038516907fddf252ad1be2c89b69c2b068fc378daa952ba7f163c4a11628f55a4df523b3ef9060200160405180910390a36112fe8360008461240c565b6000610ad88284613226565b4282600101541115612ce75760405162461bcd60e51b815260206004820152602260248201527f7352656c553a20746f6b656e7320617265206e6f7420756e6c6f636b65642079604482015261195d60f21b60648201526084016108db565b8154811115612d515760405162461bcd60e51b815260206004820152603060248201527f7352656c553a20746f6b656e732073686f756c6420626520756e6c6f636b656460448201526f103132b337b932903a3930b739b332b960811b60648201526084016108db565b80826000016000828254612d659190613226565b90915550505050565b60006001600160e01b038211156121185760405162461bcd60e51b815260206004820152602760248201527f53616665436173743a2076616c756520646f65736e27742066697420696e20326044820152663234206269747360c81b60648201526084016108db565b6000806001600160ff1b03831660ff84901c601b01612df887828885612a2e565b935093505050935093915050565b80356001600160a01b0381168114612e1d57600080fd5b919050565b803560ff81168114612e1d57600080fd5b600060208284031215612e4557600080fd5b610ad882612e06565b60008060408385031215612e6157600080fd5b612e6a83612e06565b9150612e7860208401612e06565b90509250929050565b600080600060608486031215612e9657600080fd5b612e9f84612e06565b9250612ead60208501612e06565b9150604084013590509250925092565b600080600080600080600060e0888a031215612ed857600080fd5b612ee188612e06565b9650612eef60208901612e06565b95506040880135945060608801359350612f0b60808901612e22565b925060a0880135915060c0880135905092959891949750929550565b60008060408385031215612f3a57600080fd5b612f4383612e06565b946020939093013593505050565b600080600060608486031215612f6657600080fd5b612f6f84612e06565b95602085013595506040909401359392505050565b60008060008060008060c08789031215612f9d57600080fd5b612fa687612e06565b95506020870135945060408701359350612fc260608801612e22565b92506080870135915060a087013590509295509295509295565b60008060408385031215612fef57600080fd5b612ff883612e06565b9150602083013563ffffffff8116811461301157600080fd5b809150509250929050565b60006020828403121561302e57600080fd5b81518015158114610ad857600080fd5b60006020828403121561305057600080fd5b5035919050565b60006020828403121561306957600080fd5b5051919050565b60008060006060848603121561308557600080fd5b8335925060208401359150604084013567ffffffffffffffff808211156130ab57600080fd5b818601915086601f8301126130bf57600080fd5b8135818111156130d1576130d16132b4565b604051601f8201601f19908116603f011681019083821181831017156130f9576130f96132b4565b8160405282815289602084870101111561311257600080fd5b8260208601602083013760006020848301015280955050505050509250925092565b6001600160a01b03929092168252805460208301526001810154604083015260020154606082015260800190565b600060208083528351808285015260005b8181101561318f57858101830151858201604001528201613173565b818111156131a1576000604083870101525b50601f01601f1916929092016040019392505050565b6020808252818101527f4f776e61626c653a2063616c6c6572206973206e6f7420746865206f776e6572604082015260600190565b600082198211156131ff576131ff613272565b500190565b60008261322157634e487b7160e01b600052601260045260246000fd5b500490565b60008282101561323857613238613272565b500390565b600181811c9082168061325157607f821691505b602082108114156121c557634e487b7160e01b600052602260045260246000fd5b634e487b7160e01b600052601160045260246000fd5b634e487b7160e01b600052602160045260246000fd5b634e487b7160e01b600052603260045260246000fd5b634e487b7160e01b600052604160045260246000fdfe52cd33bfcaef1b1998163985f60162407a7ba572f611529d9730d1f7c3825176a26469706673582212206c124e494978f7d49aa3d39dea0a13cb0f1f565836e64b93af87924c5282fa8664736f6c63430008060033",
  "deployedBytecode": "0x608060405234801561001057600080fd5b50600436106102bb5760003560e01c806376b467b711610182578063b1f7996e116100e9578063e02c8fc5116100a2578063ed2a2d641161007c578063ed2a2d6414610719578063f034333f14610742578063f1127ed814610755578063f2fde38b1461079257600080fd5b8063e02c8fc5146106aa578063ea8809a6146106d1578063ebcb27801461070657600080fd5b8063b1f7996e146105fc578063c3cda5201461060f578063c50ef91e14610622578063c7c90bfb14610635578063d505accf1461065e578063dd62ed3e1461067157600080fd5b806395d89b411161013b57806395d89b411461058157806398807d84146105895780639ab24eb01461059c578063a0940960146105af578063a457c2d7146105d6578063a9059cbb146105e957600080fd5b806376b467b7146104f85780637ecebe00146105245780638adaaa84146105375780638da5cb5b1461054a5780638e539e8c1461055b57806391db7b0d1461056e57600080fd5b80633a46b1a8116102265780636cc5f01a116101df5780636cc5f01a1461045d5780636fcfff451461047057806370a082311461049857806371074519146104c1578063715018a6146104c957806376831ae5146104d157600080fd5b80633a46b1a8146103e75780633fd8b02f146103fa57806345459bcf14610403578063587cde1e1461040b5780635c19a95c146104375780636198e3391461044a57600080fd5b8063313ce56711610278578063313ce5671461036e57806333a6cc581461037d5780633644e515146103a45780633664bf2d146103ac57806336a94a57146103c157806339509351146103d457600080fd5b806306fdde03146102c0578063095ea7b3146102de578063122873281461030157806318160ddd146103405780631a7aa4f41461035257806323b872dd1461035b575b600080fd5b6102c86107a5565b6040516102d59190613162565b60405180910390f35b6102f16102ec366004612f27565b610837565b60405190151581526020016102d5565b6103287f000000000000000000000000000000000000000000000000000000000000000081565b6040516001600160a01b0390911681526020016102d5565b6002545b6040519081526020016102d5565b610344600c5481565b6102f1610369366004612e81565b61084d565b604051601281526020016102d5565b6103447faa930e3affe03e95a7e73cc03af79eab35ac3f46fe4ae69839f76986ecaa957d81565b6103446108fc565b6103bf6103ba36600461303e565b61090b565b005b6103446103cf366004612e33565b610a02565b6102f16103e2366004612f27565b610a29565b6103446103f5366004612f27565b610a65565b610344600b5481565b6103bf610adf565b610328610419366004612e33565b6001600160a01b039081166000908152600660205260409020541690565b6103bf610445366004612e33565b610b41565b6103bf61045836600461303e565b610b4b565b6103bf61046b366004613070565b610bae565b61048361047e366004612e33565b610d10565b60405163ffffffff90911681526020016102d5565b6103446104a6366004612e33565b6001600160a01b031660009081526020819052604090205490565b6103bf610d32565b6103bf610ef2565b6103447f000000000000000000000000000000000000000000000000000000000000000081565b610344610506366004612e33565b6001600160a01b03166000908152600e602052604090206001015490565b610344610532366004612e33565b610f28565b6103bf610545366004612e33565b610f46565b6009546001600160a01b0316610328565b61034461056936600461303e565b611059565b6103bf61057c36600461303e565b6110b5565b6102c8611160565b610344610597366004612e33565b61116f565b6103446105aa366004612e33565b61119c565b6103447f000000000000000000000000000000000000000000000000000000000000000081565b6102f16105e4366004612f27565b611223565b6102f16105f7366004612f27565b6112bc565b6103bf61060a366004612f51565b6112c9565b6103bf61061d366004612f84565b611303565b600a54610328906001600160a01b031681565b610344610643366004612e33565b6001600160a01b03166000908152600e602052604090205490565b6103bf61066c366004612ebd565b611430565b61034461067f366004612e4e565b6001600160a01b03918216600090815260016020908152604080832093909416825291909152205490565b6103447f000000000000000000000000000000000000000000000000000000000000000081565b6106e46106df366004612e33565b611594565b60408051825181526020808401519082015291810151908201526060016102d5565b6103bf610714366004612e33565b6115fa565b610344610727366004612e33565b6001600160a01b03166000908152600d602052604090205490565b6103bf61075036600461303e565b6116a3565b610768610763366004612fdc565b611791565b60408051825163ffffffff1681526020928301516001600160e01b031692810192909252016102d5565b6103bf6107a0366004612e33565b611815565b6060600380546107b49061323d565b80601f01602080910402602001604051908101604052809291908181526020018280546107e09061323d565b801561082d5780601f106108025761010080835404028352916020019161082d565b820191906000526020600020905b81548152906001019060200180831161081057829003601f168201915b5050505050905090565b60006108443384846118ad565b50600192915050565b600061085a8484846119d1565b6001600160a01b0384166000908152600160209081526040808320338452909152902054828110156108e45760405162461bcd60e51b815260206004820152602860248201527f45524332303a207472616e7366657220616d6f756e74206578636565647320616044820152676c6c6f77616e636560c01b60648201526084015b60405180910390fd5b6108f185338584036118ad565b506001949350505050565b6000610906611bb6565b905090565b6040516323b872dd60e01b8152336004820152306024820152604481018290527f00000000000000000000000000000000000000000000000000000000000000006001600160a01b0316906323b872dd90606401602060405180830381600087803b15801561097957600080fd5b505af115801561098d573d6000803e3d6000fd5b505050506040513d601f19601f820116820180604052508101906109b1919061301c565b6109f55760405162461bcd60e51b81526020600482015260156024820152741cd4995b0e881d1c985b9cd9995c8819985a5b1959605a1b60448201526064016108db565b6109ff3382611ca9565b50565b6001600160a01b0381166000908152600f60205260408120610a2390611d33565b92915050565b3360008181526001602090815260408083206001600160a01b03871684529091528120549091610844918590610a609086906131ec565b6118ad565b6000438210610ab65760405162461bcd60e51b815260206004820152601f60248201527f4552433230566f7465733a20626c6f636b206e6f7420796574206d696e65640060448201526064016108db565b6001600160a01b0383166000908152600760205260409020610ad89083611d46565b9392505050565b336000908152600e60205260409020610aff816000808255600190910155565b60408051825481526001830154602082015233917f53a06858e4b0bb751491f078084a1a381e3fb6d6e9dd983c266e2d68e33bd79a910160405180910390a250565b6109ff3382611e03565b336000908152600e60205260409020600b54610b6a9082908490611e7c565b60408051825481526001830154602082015233917f53a06858e4b0bb751491f078084a1a381e3fb6d6e9dd983c266e2d68e33bd79a91015b60405180910390a25050565b336000818152600d602090815260408083205481517faa930e3affe03e95a7e73cc03af79eab35ac3f46fe4ae69839f76986ecaa957d9381019390935290820193909352606081018690526080810185905260a0810183905260c0016040516020818303038152906040528051906020012090506000610c70610c2f611bb6565b8360405161190160f01b6020820152602281018390526042810182905260009060620160405160208183030381529060405280519060200120905092915050565b90506000610c7e8286611e96565b600a549091506001600160a01b03808316911614610cde5760405162461bcd60e51b815260206004820152601a60248201527f7352656c3a20436c61696d206e6f7420617574686f72697a656400000000000060448201526064016108db565b610ce98460016131ec565b336000818152600d6020526040902091909155610d07908888611eba565b50505050505050565b6001600160a01b038116600090815260076020526040812054610a23906120b3565b336000908152600f60205260408082209051631e9442d560e31b8152600481018290527f000000000000000000000000000000000000000000000000000000000000000060248201527f000000000000000000000000000000000000000000000000000000000000000060448201527f0000000000000000000000000000000000000000000000000000000000000000606482015290919073__$b4ae538d42a0e0bb8330684d08e51a40b4$__9063f4a216a89060840160206040518083038186803b158015610e0157600080fd5b505af4158015610e15573d6000803e3d6000fd5b505050506040513d601f19601f82011682018060405250810190610e399190613057565b905060008111610e955760405162461bcd60e51b815260206004820152602160248201527f7352656c3a206e6f20756e76657374656420746f6b656e7320746f20636c61696044820152606d60f81b60648201526084016108db565b80600c6000828254610ea79190613226565b9091555050600b54336000908152600e60205260409020610ec9918390611e7c565b336001600160a01b03166000805160206132cb8339815191523384604051610ba2929190613134565b6009546001600160a01b03163314610f1c5760405162461bcd60e51b81526004016108db906131b7565b610f26600061211c565b565b6001600160a01b038116600090815260056020526040812054610a23565b6009546001600160a01b0316331480610f695750600a546001600160a01b031633145b610fac5760405162461bcd60e51b81526020600482015260146024820152731cd4995b0e881b9bdd08185d5d1a1bdc9a5e995960621b60448201526064016108db565b600a546001600160a01b03828116911614156110045760405162461bcd60e51b81526020600482015260176024820152767352656c3a206e6f7468696e6720746f2075706461746560481b60448201526064016108db565b600a80546001600160a01b0319166001600160a01b0383169081179091556040519081527f8961078521e826adb5caac59fa1f47e24f2059266ab5fe7c7fbf9b2ccd5a21e3906020015b60405180910390a150565b60004382106110aa5760405162461bcd60e51b815260206004820152601f60248201527f4552433230566f7465733a20626c6f636b206e6f7420796574206d696e65640060448201526064016108db565b610a23600883611d46565b6009546001600160a01b031633146110df5760405162461bcd60e51b81526004016108db906131b7565b80600b54141561112b5760405162461bcd60e51b81526020600482015260176024820152767352656c3a206e6f7468696e6720746f2075706461746560481b60448201526064016108db565b600b8190556040518181527fe8bf8dfb4abe1420b183a0e83ced724064b765215e282a7a58dff3c1fef5e3f19060200161104e565b6060600480546107b49061323d565b6001600160a01b0381166000908152600e602090815260408083205491839052822054610a239190613226565b6001600160a01b0381166000908152600760205260408120548015611210576001600160a01b03831660009081526007602052604090206111de600183613226565b815481106111ee576111ee61329e565b60009182526020909120015464010000000090046001600160e01b0316611213565b60005b6001600160e01b03169392505050565b3360009081526001602090815260408083206001600160a01b0386168452909152812054828110156112a55760405162461bcd60e51b815260206004820152602560248201527f45524332303a2064656372656173656420616c6c6f77616e63652062656c6f77604482015264207a65726f60d81b60648201526084016108db565b6112b233858584036118ad565b5060019392505050565b60006108443384846119d1565b6009546001600160a01b031633146112f35760405162461bcd60e51b81526004016108db906131b7565b6112fe838383611eba565b505050565b834211156113535760405162461bcd60e51b815260206004820152601d60248201527f4552433230566f7465733a207369676e6174757265206578706972656400000060448201526064016108db565b604080517fe48329057bfd03d55e49b547132e39cffd9c1820ad7b9d4c5307691425d15adf60208201526001600160a01b0388169181019190915260608101869052608081018590526000906113cd906113c59060a0016040516020818303038152906040528051906020012061216e565b85858561217b565b90506113d8816121a3565b86146114265760405162461bcd60e51b815260206004820152601960248201527f4552433230566f7465733a20696e76616c6964206e6f6e63650000000000000060448201526064016108db565b610d078188611e03565b834211156114805760405162461bcd60e51b815260206004820152601d60248201527f45524332305065726d69743a206578706972656420646561646c696e6500000060448201526064016108db565b60007f00000000000000000000000000000000000000000000000000000000000000008888886114af8c6121a3565b6040805160208101969096526001600160a01b0394851690860152929091166060840152608083015260a082015260c0810186905260e001604051602081830303815290604052805190602001209050600061150a8261216e565b9050600061151a8287878761217b565b9050896001600160a01b0316816001600160a01b03161461157d5760405162461bcd60e51b815260206004820152601e60248201527f45524332305065726d69743a20696e76616c6964207369676e6174757265000060448201526064016108db565b6115888a8a8a6118ad565b50505050505050505050565b6115b860405180606001604052806000815260200160008152602001600081525090565b506001600160a01b03166000908152600f6020908152604091829020825160608101845281548152600182015492810192909252600201549181019190915290565b336000908152600f60205260408082206001600160a01b0384168352908220909161162483611d33565b905061163083836121cb565b61163a84826112bc565b50336001600160a01b03166000805160206132cb8339815191523385604051611664929190613134565b60405180910390a2836001600160a01b03166000805160206132cb8339815191523384604051611695929190613134565b60405180910390a250505050565b6116ad33826122bd565b60405163a9059cbb60e01b8152336004820152602481018290527f00000000000000000000000000000000000000000000000000000000000000006001600160a01b03169063a9059cbb90604401602060405180830381600087803b15801561171557600080fd5b505af1158015611729573d6000803e3d6000fd5b505050506040513d601f19601f8201168201806040525081019061174d919061301c565b6109ff5760405162461bcd60e51b81526020600482015260156024820152741cd4995b0e881d1c985b9cd9995c8819985a5b1959605a1b60448201526064016108db565b60408051808201909152600080825260208201526001600160a01b0383166000908152600760205260409020805463ffffffff84169081106117d5576117d561329e565b60009182526020918290206040805180820190915291015463ffffffff8116825264010000000090046001600160e01b0316918101919091529392505050565b6009546001600160a01b0316331461183f5760405162461bcd60e51b81526004016108db906131b7565b6001600160a01b0381166118a45760405162461bcd60e51b815260206004820152602660248201527f4f776e61626c653a206e6577206f776e657220697320746865207a65726f206160448201526564647265737360d01b60648201526084016108db565b6109ff8161211c565b6001600160a01b03831661190f5760405162461bcd60e51b8152602060048201526024808201527f45524332303a20617070726f76652066726f6d20746865207a65726f206164646044820152637265737360e01b60648201526084016108db565b6001600160a01b0382166119705760405162461bcd60e51b815260206004820152602260248201527f45524332303a20617070726f766520746f20746865207a65726f206164647265604482015261737360f01b60648201526084016108db565b6001600160a01b0383811660008181526001602090815260408083209487168084529482529182902085905590518481527f8c5be1e5ebec7d5bd14f71427d1e84f3dd0314c0f7b2291e5b200ac8c7c3b925910160405180910390a3505050565b6001600160a01b038316611a355760405162461bcd60e51b815260206004820152602560248201527f45524332303a207472616e736665722066726f6d20746865207a65726f206164604482015264647265737360d81b60648201526084016108db565b6001600160a01b038216611a975760405162461bcd60e51b815260206004820152602360248201527f45524332303a207472616e7366657220746f20746865207a65726f206164647260448201526265737360e81b60648201526084016108db565b611aa28383836122d5565b6001600160a01b03831660009081526020819052604090205481811015611b1a5760405162461bcd60e51b815260206004820152602660248201527f45524332303a207472616e7366657220616d6f756e7420657863656564732062604482015265616c616e636560d01b60648201526084016108db565b6001600160a01b03808516600090815260208190526040808220858503905591851681529081208054849290611b519084906131ec565b92505081905550826001600160a01b0316846001600160a01b03167fddf252ad1be2c89b69c2b068fc378daa952ba7f163c4a11628f55a4df523b3ef84604051611b9d91815260200190565b60405180910390a3611bb084848461240c565b50505050565b60007f0000000000000000000000000000000000000000000000000000000000000000461415611c0557507f000000000000000000000000000000000000000000000000000000000000000090565b50604080517f00000000000000000000000000000000000000000000000000000000000000006020808301919091527f0000000000000000000000000000000000000000000000000000000000000000828401527f000000000000000000000000000000000000000000000000000000000000000060608301524660808301523060a0808401919091528351808403909101815260c0909201909252805191012090565b611cb3828261243e565b6002546001600160e01b031015611d255760405162461bcd60e51b815260206004820152603060248201527f4552433230566f7465733a20746f74616c20737570706c79207269736b73206f60448201526f766572666c6f77696e6720766f74657360801b60648201526084016108db565b611bb0600861253583612541565b60018101548154600091610a23916131ec565b8154600090815b81811015611daa576000611d6182846126ba565b905084868281548110611d7657611d7661329e565b60009182526020909120015463ffffffff161115611d9657809250611da4565b611da18160016131ec565b91505b50611d4d565b8115611dee5784611dbc600184613226565b81548110611dcc57611dcc61329e565b60009182526020909120015464010000000090046001600160e01b0316611df1565b60005b6001600160e01b031695945050505050565b6001600160a01b038281166000818152600660208181526040808420805485845282862054949093528787166001600160a01b03198416811790915590519190951694919391928592917f3134e8a2e6d97e929a7e54011ea5485d7d196dd5f0ba4d4ef95803e8e3fc257f9190a4611bb08284836126d5565b818355611e8981426131ec565b8360010181905550505050565b6000806000611ea58585612803565b91509150611eb281612873565b509392505050565b6001600160a01b0383166000908152600f6020526040908190209051631992dfb560e21b815260048101829052602481018490526044810183905273__$b4ae538d42a0e0bb8330684d08e51a40b4$__9063664b7ed49060640160006040518083038186803b158015611f2c57600080fd5b505af4158015611f40573d6000803e3d6000fd5b5050505060008284611f5291906131ec565b6040516370a0823160e01b81523060048201529091507f00000000000000000000000000000000000000000000000000000000000000006001600160a01b0316906370a082319060240160206040518083038186803b158015611fb457600080fd5b505afa158015611fc8573d6000803e3d6000fd5b505050506040513d601f19601f82011682018060405250810190611fec9190613057565b81611ff660025490565b61200091906131ec565b11156120585760405162461bcd60e51b815260206004820152602160248201527f7352656c3a204e6f7420656e6f756768742052454c20696e20636f6e747261636044820152601d60fa1b60648201526084016108db565b6120628582611ca9565b80600c600082825461207491906131ec565b92505081905550846001600160a01b03166000805160206132cb83398151915233846040516120a4929190613134565b60405180910390a25050505050565b600063ffffffff8211156121185760405162461bcd60e51b815260206004820152602660248201527f53616665436173743a2076616c756520646f65736e27742066697420696e203360448201526532206269747360d01b60648201526084016108db565b5090565b600980546001600160a01b038381166001600160a01b0319831681179093556040519116919082907f8be0079c531659141344cd1fd0a4f28419497f9722a3daafe3b4186f6b6457e090600090a35050565b6000610a23610c2f611bb6565b600080600061218c87878787612a2e565b9150915061219981612873565b5095945050505050565b6001600160a01b03811660009081526005602052604090208054600181018255905b50919050565b600182015482541761221f5760405162461bcd60e51b815260206004820152601a60248201527f7352656c553a206e6f7468696e6720746f207472616e7366657200000000000060448201526064016108db565b6001810154815417156122935760405162461bcd60e51b815260206004820152603660248201527f7352656c553a2063616e6e6f74207472616e7366657220746f206163636f756e60448201527574207769746820756e76657374656420746f6b656e7360501b60648201526084016108db565b81548155600180830180549183019190915560028084018054919093015560009283905582905555565b6122c78282612b1b565b611bb06008612c7c83612541565b6001600160a01b03831615806122f357506001600160a01b03831630145b156122fd57505050565b6001600160a01b0383166000908152600f6020526040812061231e90611d33565b6001600160a01b0385166000908152602081905260409020546123419190613226565b9050808211156123a55760405162461bcd60e51b815260206004820152602960248201527f7352656c3a20796f752063616e6e6f74207472616e7366657220756e76657374604482015268656420746f6b656e7360b81b60648201526084016108db565b6001600160a01b0384166000908152600e602052604090206123c78184612c88565b6040805182548152600183015460208201526001600160a01b038716917f53a06858e4b0bb751491f078084a1a381e3fb6d6e9dd983c266e2d68e33bd79a91016120a4565b6001600160a01b038381166000908152600660205260408082205485841683529120546112fe929182169116836126d5565b6001600160a01b0382166124945760405162461bcd60e51b815260206004820152601f60248201527f45524332303a206d696e7420746f20746865207a65726f20616464726573730060448201526064016108db565b6124a0600083836122d5565b80600260008282546124b291906131ec565b90915550506001600160a01b038216600090815260208190526040812080548392906124df9084906131ec565b90915550506040518181526001600160a01b038316906000907fddf252ad1be2c89b69c2b068fc378daa952ba7f163c4a11628f55a4df523b3ef9060200160405180910390a36125316000838361240c565b5050565b6000610ad882846131ec565b82546000908190801561258c578561255a600183613226565b8154811061256a5761256a61329e565b60009182526020909120015464010000000090046001600160e01b031661258f565b60005b6001600160e01b031692506125a883858763ffffffff16565b91506000811180156125e6575043866125c2600184613226565b815481106125d2576125d261329e565b60009182526020909120015463ffffffff16145b15612646576125f482612d6e565b86612600600184613226565b815481106126105761261061329e565b9060005260206000200160000160046101000a8154816001600160e01b0302191690836001600160e01b031602179055506126b1565b85604051806040016040528061265b436120b3565b63ffffffff16815260200161266f85612d6e565b6001600160e01b0390811690915282546001810184556000938452602093849020835194909301519091166401000000000263ffffffff909316929092179101555b50935093915050565b60006126c96002848418613204565b610ad8908484166131ec565b816001600160a01b0316836001600160a01b0316141580156126f75750600081115b156112fe576001600160a01b03831615612785576001600160a01b0383166000908152600760205260408120819061273290612c7c85612541565b91509150846001600160a01b03167fdec2bacdd2f05b59de34da9b523dff8be42e5e38e818c82fdb0bae774387a724838360405161277a929190918252602082015260400190565b60405180910390a250505b6001600160a01b038216156112fe576001600160a01b038216600090815260076020526040812081906127bb9061253585612541565b91509150836001600160a01b03167fdec2bacdd2f05b59de34da9b523dff8be42e5e38e818c82fdb0bae774387a72483836040516120a4929190918252602082015260400190565b60008082516041141561283a5760208301516040840151606085015160001a61282e87828585612a2e565b9450945050505061286c565b8251604014156128645760208301516040840151612859868383612dd7565b93509350505061286c565b506000905060025b9250929050565b600081600481111561288757612887613288565b14156128905750565b60018160048111156128a4576128a4613288565b14156128f25760405162461bcd60e51b815260206004820152601860248201527f45434453413a20696e76616c6964207369676e6174757265000000000000000060448201526064016108db565b600281600481111561290657612906613288565b14156129545760405162461bcd60e51b815260206004820152601f60248201527f45434453413a20696e76616c6964207369676e6174757265206c656e6774680060448201526064016108db565b600381600481111561296857612968613288565b14156129c15760405162461bcd60e51b815260206004820152602260248201527f45434453413a20696e76616c6964207369676e6174757265202773272076616c604482015261756560f01b60648201526084016108db565b60048160048111156129d5576129d5613288565b14156109ff5760405162461bcd60e51b815260206004820152602260248201527f45434453413a20696e76616c6964207369676e6174757265202776272076616c604482015261756560f01b60648201526084016108db565b6000807f7fffffffffffffffffffffffffffffff5d576e7357a4501ddfe92f46681b20a0831115612a655750600090506003612b12565b8460ff16601b14158015612a7d57508460ff16601c14155b15612a8e5750600090506004612b12565b6040805160008082526020820180845289905260ff881692820192909252606081018690526080810185905260019060a0016020604051602081039080840390855afa158015612ae2573d6000803e3d6000fd5b5050604051601f1901519150506001600160a01b038116612b0b57600060019250925050612b12565b9150600090505b94509492505050565b6001600160a01b038216612b7b5760405162461bcd60e51b815260206004820152602160248201527f45524332303a206275726e2066726f6d20746865207a65726f206164647265736044820152607360f81b60648201526084016108db565b612b87826000836122d5565b6001600160a01b03821660009081526020819052604090205481811015612bfb5760405162461bcd60e51b815260206004820152602260248201527f45524332303a206275726e20616d6f756e7420657863656564732062616c616e604482015261636560f01b60648201526084016108db565b6001600160a01b0383166000908152602081905260408120838303905560028054849290612c2a908490613226565b90915550506040518281526000906001600160a01b038516907fddf252ad1be2c89b69c2b068fc378daa952ba7f163c4a11628f55a4df523b3ef9060200160405180910390a36112fe8360008461240c565b6000610ad88284613226565b4282600101541115612ce75760405162461bcd60e51b815260206004820152602260248201527f7352656c553a20746f6b656e7320617265206e6f7420756e6c6f636b65642079604482015261195d60f21b60648201526084016108db565b8154811115612d515760405162461bcd60e51b815260206004820152603060248201527f7352656c553a20746f6b656e732073686f756c6420626520756e6c6f636b656460448201526f103132b337b932903a3930b739b332b960811b60648201526084016108db565b80826000016000828254612d659190613226565b90915550505050565b60006001600160e01b038211156121185760405162461bcd60e51b815260206004820152602760248201527f53616665436173743a2076616c756520646f65736e27742066697420696e20326044820152663234206269747360c81b60648201526084016108db565b6000806001600160ff1b03831660ff84901c601b01612df887828885612a2e565b935093505050935093915050565b80356001600160a01b0381168114612e1d57600080fd5b919050565b803560ff81168114612e1d57600080fd5b600060208284031215612e4557600080fd5b610ad882612e06565b60008060408385031215612e6157600080fd5b612e6a83612e06565b9150612e7860208401612e06565b90509250929050565b600080600060608486031215612e9657600080fd5b612e9f84612e06565b9250612ead60208501612e06565b9150604084013590509250925092565b600080600080600080600060e0888a031215612ed857600080fd5b612ee188612e06565b9650612eef60208901612e06565b95506040880135945060608801359350612f0b60808901612e22565b925060a0880135915060c0880135905092959891949750929550565b60008060408385031215612f3a57600080fd5b612f4383612e06565b946020939093013593505050565b600080600060608486031215612f6657600080fd5b612f6f84612e06565b95602085013595506040909401359392505050565b60008060008060008060c08789031215612f9d57600080fd5b612fa687612e06565b95506020870135945060408701359350612fc260608801612e22565b92506080870135915060a087013590509295509295509295565b60008060408385031215612fef57600080fd5b612ff883612e06565b9150602083013563ffffffff8116811461301157600080fd5b809150509250929050565b60006020828403121561302e57600080fd5b81518015158114610ad857600080fd5b60006020828403121561305057600080fd5b5035919050565b60006020828403121561306957600080fd5b5051919050565b60008060006060848603121561308557600080fd5b8335925060208401359150604084013567ffffffffffffffff808211156130ab57600080fd5b818601915086601f8301126130bf57600080fd5b8135818111156130d1576130d16132b4565b604051601f8201601f19908116603f011681019083821181831017156130f9576130f96132b4565b8160405282815289602084870101111561311257600080fd5b8260208601602083013760006020848301015280955050505050509250925092565b6001600160a01b03929092168252805460208301526001810154604083015260020154606082015260800190565b600060208083528351808285015260005b8181101561318f57858101830151858201604001528201613173565b818111156131a1576000604083870101525b50601f01601f1916929092016040019392505050565b6020808252818101527f4f776e61626c653a2063616c6c6572206973206e6f7420746865206f776e6572604082015260600190565b600082198211156131ff576131ff613272565b500190565b60008261322157634e487b7160e01b600052601260045260246000fd5b500490565b60008282101561323857613238613272565b500390565b600181811c9082168061325157607f821691505b602082108114156121c557634e487b7160e01b600052602260045260246000fd5b634e487b7160e01b600052601160045260246000fd5b634e487b7160e01b600052602160045260246000fd5b634e487b7160e01b600052603260045260246000fd5b634e487b7160e01b600052604160045260246000fdfe52cd33bfcaef1b1998163985f60162407a7ba572f611529d9730d1f7c3825176a26469706673582212206c124e494978f7d49aa3d39dea0a13cb0f1f565836e64b93af87924c5282fa8664736f6c63430008060033",
  "libraries": {
    "Utils": "0x92dBEa6fa85A1cd839b604D1F2852ABfb7Fa2897"
  },
  "devdoc": {
    "kind": "dev",
    "methods": {
      "DOMAIN_SEPARATOR()": {
        "details": "See {IERC20Permit-DOMAIN_SEPARATOR}."
      },
      "allowance(address,address)": {
        "details": "See {IERC20-allowance}."
      },
      "approve(address,uint256)": {
        "details": "See {IERC20-approve}. Requirements: - `spender` cannot be the zero address."
      },
      "balanceOf(address)": {
        "details": "See {IERC20-balanceOf}."
      },
      "checkpoints(address,uint32)": {
        "details": "Get the `pos`-th checkpoint for `account`."
      },
      "decimals()": {
        "details": "Returns the number of decimals used to get its user representation. For example, if `decimals` equals `2`, a balance of `505` tokens should be displayed to a user as `5.05` (`505 / 10 ** 2`). Tokens usually opt for a value of 18, imitating the relationship between Ether and Wei. This is the value {ERC20} uses, unless this function is overridden; NOTE: This information is only used for _display_ purposes: it in no way affects any of the arithmetic of the contract, including {IERC20-balanceOf} and {IERC20-transfer}."
      },
      "decreaseAllowance(address,uint256)": {
        "details": "Atomically decreases the allowance granted to `spender` by the caller. This is an alternative to {approve} that can be used as a mitigation for problems described in {IERC20-approve}. Emits an {Approval} event indicating the updated allowance. Requirements: - `spender` cannot be the zero address. - `spender` must have allowance for the caller of at least `subtractedValue`."
      },
      "delegate(address)": {
        "details": "Delegate votes from the sender to `delegatee`."
      },
      "delegateBySig(address,uint256,uint256,uint8,bytes32,bytes32)": {
        "details": "Delegates votes from signer to `delegatee`"
      },
      "delegates(address)": {
        "details": "Get the address `account` is currently delegating to."
      },
      "getPastTotalSupply(uint256)": {
        "details": "Retrieve the `totalSupply` at the end of `blockNumber`. Note, this value is the sum of all balances. It is but NOT the sum of all the delegated votes! Requirements: - `blockNumber` must have been already mined"
      },
      "getPastVotes(address,uint256)": {
        "details": "Retrieve the number of votes for `account` at the end of `blockNumber`. Requirements: - `blockNumber` must have been already mined"
      },
      "getVotes(address)": {
        "details": "Gets the current votes balance for `account`"
      },
      "increaseAllowance(address,uint256)": {
        "details": "Atomically increases the allowance granted to `spender` by the caller. This is an alternative to {approve} that can be used as a mitigation for problems described in {IERC20-approve}. Emits an {Approval} event indicating the updated allowance. Requirements: - `spender` cannot be the zero address."
      },
      "name()": {
        "details": "Returns the name of the token."
      },
      "nonces(address)": {
        "details": "See {IERC20Permit-nonces}."
      },
      "numCheckpoints(address)": {
        "details": "Get number of checkpoints for `account`."
      },
      "owner()": {
        "details": "Returns the address of the current owner."
      },
      "permit(address,address,uint256,uint256,uint8,bytes32,bytes32)": {
        "details": "See {IERC20Permit-permit}."
      },
      "renounceOwnership()": {
        "details": "Leaves the contract without owner. It will not be possible to call `onlyOwner` functions anymore. Can only be called by the current owner. NOTE: Renouncing ownership will leave the contract without an owner, thereby removing any functionality that is only available to the owner."
      },
      "symbol()": {
        "details": "Returns the symbol of the token, usually a shorter version of the name."
      },
      "totalSupply()": {
        "details": "See {IERC20-totalSupply}."
      },
      "transfer(address,uint256)": {
        "details": "See {IERC20-transfer}. Requirements: - `recipient` cannot be the zero address. - the caller must have a balance of at least `amount`."
      },
      "transferFrom(address,address,uint256)": {
        "details": "See {IERC20-transferFrom}. Emits an {Approval} event indicating the updated allowance. This is not required by the EIP. See the note at the beginning of {ERC20}. Requirements: - `sender` and `recipient` cannot be the zero address. - `sender` must have a balance of at least `amount`. - the caller must have allowance for ``sender``'s tokens of at least `amount`."
      },
      "transferOwnership(address)": {
        "details": "Transfers ownership of the contract to a new account (`newOwner`). Can only be called by the current owner."
      }
    },
    "version": 1
  },
  "userdoc": {
    "kind": "user",
    "methods": {},
    "version": 1
  },
  "storageLayout": {
    "storage": [
      {
        "astId": 3126,
        "contract": "contracts/sRel.sol:sRel",
        "label": "_balances",
        "offset": 0,
        "slot": "0",
        "type": "t_mapping(t_address,t_uint256)"
      },
      {
        "astId": 3132,
        "contract": "contracts/sRel.sol:sRel",
        "label": "_allowances",
        "offset": 0,
        "slot": "1",
        "type": "t_mapping(t_address,t_mapping(t_address,t_uint256))"
      },
      {
        "astId": 3134,
        "contract": "contracts/sRel.sol:sRel",
        "label": "_totalSupply",
        "offset": 0,
        "slot": "2",
        "type": "t_uint256"
      },
      {
        "astId": 3136,
        "contract": "contracts/sRel.sol:sRel",
        "label": "_name",
        "offset": 0,
        "slot": "3",
        "type": "t_string_storage"
      },
      {
        "astId": 3138,
        "contract": "contracts/sRel.sol:sRel",
        "label": "_symbol",
        "offset": 0,
        "slot": "4",
        "type": "t_string_storage"
      },
      {
        "astId": 4428,
        "contract": "contracts/sRel.sol:sRel",
        "label": "_nonces",
        "offset": 0,
        "slot": "5",
        "type": "t_mapping(t_address,t_struct(Counter)4935_storage)"
      },
      {
        "astId": 3757,
        "contract": "contracts/sRel.sol:sRel",
        "label": "_delegates",
        "offset": 0,
        "slot": "6",
        "type": "t_mapping(t_address,t_address)"
      },
      {
        "astId": 3763,
        "contract": "contracts/sRel.sol:sRel",
        "label": "_checkpoints",
        "offset": 0,
        "slot": "7",
        "type": "t_mapping(t_address,t_array(t_struct(Checkpoint)3748_storage)dyn_storage)"
      },
      {
        "astId": 3767,
        "contract": "contracts/sRel.sol:sRel",
        "label": "_totalSupplyCheckpoints",
        "offset": 0,
        "slot": "8",
        "type": "t_array(t_struct(Checkpoint)3748_storage)dyn_storage"
      },
      {
        "astId": 387,
        "contract": "contracts/sRel.sol:sRel",
        "label": "_owner",
        "offset": 0,
        "slot": "9",
        "type": "t_address"
      },
      {
        "astId": 7596,
        "contract": "contracts/sRel.sol:sRel",
        "label": "vestAdmin",
        "offset": 0,
        "slot": "10",
        "type": "t_address"
      },
      {
        "astId": 7599,
        "contract": "contracts/sRel.sol:sRel",
        "label": "lockPeriod",
        "offset": 0,
        "slot": "11",
        "type": "t_uint256"
      },
      {
        "astId": 7607,
        "contract": "contracts/sRel.sol:sRel",
        "label": "totalUnvested",
        "offset": 0,
        "slot": "12",
        "type": "t_uint256"
      },
      {
        "astId": 7611,
        "contract": "contracts/sRel.sol:sRel",
        "label": "vestNonce",
        "offset": 0,
        "slot": "13",
        "type": "t_mapping(t_address,t_uint256)"
      },
      {
        "astId": 7616,
        "contract": "contracts/sRel.sol:sRel",
        "label": "unlocks",
        "offset": 0,
        "slot": "14",
        "type": "t_mapping(t_address,t_struct(Unlock)6895_storage)"
      },
      {
        "astId": 7621,
        "contract": "contracts/sRel.sol:sRel",
        "label": "vest",
        "offset": 0,
        "slot": "15",
        "type": "t_mapping(t_address,t_struct(Vest)6890_storage)"
      }
    ],
    "types": {
      "t_address": {
        "encoding": "inplace",
        "label": "address",
        "numberOfBytes": "20"
      },
      "t_array(t_struct(Checkpoint)3748_storage)dyn_storage": {
        "base": "t_struct(Checkpoint)3748_storage",
        "encoding": "dynamic_array",
        "label": "struct ERC20Votes.Checkpoint[]",
        "numberOfBytes": "32"
      },
      "t_mapping(t_address,t_address)": {
        "encoding": "mapping",
        "key": "t_address",
        "label": "mapping(address => address)",
        "numberOfBytes": "32",
        "value": "t_address"
      },
      "t_mapping(t_address,t_array(t_struct(Checkpoint)3748_storage)dyn_storage)": {
        "encoding": "mapping",
        "key": "t_address",
        "label": "mapping(address => struct ERC20Votes.Checkpoint[])",
        "numberOfBytes": "32",
        "value": "t_array(t_struct(Checkpoint)3748_storage)dyn_storage"
      },
      "t_mapping(t_address,t_mapping(t_address,t_uint256))": {
        "encoding": "mapping",
        "key": "t_address",
        "label": "mapping(address => mapping(address => uint256))",
        "numberOfBytes": "32",
        "value": "t_mapping(t_address,t_uint256)"
      },
      "t_mapping(t_address,t_struct(Counter)4935_storage)": {
        "encoding": "mapping",
        "key": "t_address",
        "label": "mapping(address => struct Counters.Counter)",
        "numberOfBytes": "32",
        "value": "t_struct(Counter)4935_storage"
      },
      "t_mapping(t_address,t_struct(Unlock)6895_storage)": {
        "encoding": "mapping",
        "key": "t_address",
        "label": "mapping(address => struct Utils.Unlock)",
        "numberOfBytes": "32",
        "value": "t_struct(Unlock)6895_storage"
      },
      "t_mapping(t_address,t_struct(Vest)6890_storage)": {
        "encoding": "mapping",
        "key": "t_address",
        "label": "mapping(address => struct Utils.Vest)",
        "numberOfBytes": "32",
        "value": "t_struct(Vest)6890_storage"
      },
      "t_mapping(t_address,t_uint256)": {
        "encoding": "mapping",
        "key": "t_address",
        "label": "mapping(address => uint256)",
        "numberOfBytes": "32",
        "value": "t_uint256"
      },
      "t_string_storage": {
        "encoding": "bytes",
        "label": "string",
        "numberOfBytes": "32"
      },
      "t_struct(Checkpoint)3748_storage": {
        "encoding": "inplace",
        "label": "struct ERC20Votes.Checkpoint",
        "members": [
          {
            "astId": 3745,
            "contract": "contracts/sRel.sol:sRel",
            "label": "fromBlock",
            "offset": 0,
            "slot": "0",
            "type": "t_uint32"
          },
          {
            "astId": 3747,
            "contract": "contracts/sRel.sol:sRel",
            "label": "votes",
            "offset": 4,
            "slot": "0",
            "type": "t_uint224"
          }
        ],
        "numberOfBytes": "32"
      },
      "t_struct(Counter)4935_storage": {
        "encoding": "inplace",
        "label": "struct Counters.Counter",
        "members": [
          {
            "astId": 4934,
            "contract": "contracts/sRel.sol:sRel",
            "label": "_value",
            "offset": 0,
            "slot": "0",
            "type": "t_uint256"
          }
        ],
        "numberOfBytes": "32"
      },
      "t_struct(Unlock)6895_storage": {
        "encoding": "inplace",
        "label": "struct Utils.Unlock",
        "members": [
          {
            "astId": 6892,
            "contract": "contracts/sRel.sol:sRel",
            "label": "unlockAmnt",
            "offset": 0,
            "slot": "0",
            "type": "t_uint256"
          },
          {
            "astId": 6894,
            "contract": "contracts/sRel.sol:sRel",
            "label": "unlockTime",
            "offset": 0,
            "slot": "1",
            "type": "t_uint256"
          }
        ],
        "numberOfBytes": "64"
      },
      "t_struct(Vest)6890_storage": {
        "encoding": "inplace",
        "label": "struct Utils.Vest",
        "members": [
          {
            "astId": 6885,
            "contract": "contracts/sRel.sol:sRel",
            "label": "shortAmnt",
            "offset": 0,
            "slot": "0",
            "type": "t_uint256"
          },
          {
            "astId": 6887,
            "contract": "contracts/sRel.sol:sRel",
            "label": "longAmnt",
            "offset": 0,
            "slot": "1",
            "type": "t_uint256"
          },
          {
            "astId": 6889,
            "contract": "contracts/sRel.sol:sRel",
            "label": "lastUpdate",
            "offset": 0,
            "slot": "2",
            "type": "t_uint256"
          }
        ],
        "numberOfBytes": "96"
      },
      "t_uint224": {
        "encoding": "inplace",
        "label": "uint224",
        "numberOfBytes": "28"
      },
      "t_uint256": {
        "encoding": "inplace",
        "label": "uint256",
        "numberOfBytes": "32"
      },
      "t_uint32": {
        "encoding": "inplace",
        "label": "uint32",
        "numberOfBytes": "4"
      }
    }
  }
}