{
  "address": "0xc351628EB244ec633d5f21fBD6621e1a683B1181",
  "abi": [
    {
      "inputs": [
        {
          "internalType": "address",
          "name": "_r3l",
          "type": "address"
        },
        {
          "internalType": "address",
          "name": "_vestAdmin",
          "type": "address"
        },
        {
          "internalType": "uint256",
          "name": "_vestBegin",
          "type": "uint256"
        },
        {
          "internalType": "uint256",
          "name": "_vestShort",
          "type": "uint256"
        },
        {
          "internalType": "uint256",
          "name": "_vestLong",
          "type": "uint256"
        }
      ],
      "stateMutability": "nonpayable",
      "type": "constructor"
    },
    {
      "anonymous": false,
      "inputs": [
        {
          "indexed": true,
          "internalType": "address",
          "name": "owner",
          "type": "address"
        },
        {
          "indexed": true,
          "internalType": "address",
          "name": "spender",
          "type": "address"
        },
        {
          "indexed": false,
          "internalType": "uint256",
          "name": "value",
          "type": "uint256"
        }
      ],
      "name": "Approval",
      "type": "event"
    },
    {
      "anonymous": false,
      "inputs": [
        {
          "indexed": true,
          "internalType": "address",
          "name": "delegator",
          "type": "address"
        },
        {
          "indexed": true,
          "internalType": "address",
          "name": "fromDelegate",
          "type": "address"
        },
        {
          "indexed": true,
          "internalType": "address",
          "name": "toDelegate",
          "type": "address"
        }
      ],
      "name": "DelegateChanged",
      "type": "event"
    },
    {
      "anonymous": false,
      "inputs": [
        {
          "indexed": true,
          "internalType": "address",
          "name": "delegate",
          "type": "address"
        },
        {
          "indexed": false,
          "internalType": "uint256",
          "name": "previousBalance",
          "type": "uint256"
        },
        {
          "indexed": false,
          "internalType": "uint256",
          "name": "newBalance",
          "type": "uint256"
        }
      ],
      "name": "DelegateVotesChanged",
      "type": "event"
    },
    {
      "anonymous": false,
      "inputs": [
        {
          "indexed": true,
          "internalType": "address",
          "name": "previousOwner",
          "type": "address"
        },
        {
          "indexed": true,
          "internalType": "address",
          "name": "newOwner",
          "type": "address"
        }
      ],
      "name": "OwnershipTransferred",
      "type": "event"
    },
    {
      "anonymous": false,
      "inputs": [
        {
          "indexed": true,
          "internalType": "address",
          "name": "from",
          "type": "address"
        },
        {
          "indexed": true,
          "internalType": "address",
          "name": "to",
          "type": "address"
        },
        {
          "indexed": false,
          "internalType": "uint256",
          "name": "value",
          "type": "uint256"
        }
      ],
      "name": "Transfer",
      "type": "event"
    },
    {
      "anonymous": false,
      "inputs": [
        {
          "indexed": false,
          "internalType": "uint256",
          "name": "newLockPeriod",
          "type": "uint256"
        }
      ],
      "name": "lockPeriodUpdated",
      "type": "event"
    },
    {
      "anonymous": false,
      "inputs": [
        {
          "indexed": true,
          "internalType": "address",
          "name": "account",
          "type": "address"
        },
        {
          "components": [
            {
              "internalType": "uint256",
              "name": "unlockAmnt",
              "type": "uint256"
            },
            {
              "internalType": "uint256",
              "name": "unlockTime",
              "type": "uint256"
            }
          ],
          "indexed": false,
          "internalType": "struct Utils.Unlock",
          "name": "unlockData",
          "type": "tuple"
        }
      ],
      "name": "lockUpdated",
      "type": "event"
    },
    {
      "anonymous": false,
      "inputs": [
        {
          "indexed": false,
          "internalType": "address",
          "name": "newVestAdmin",
          "type": "address"
        }
      ],
      "name": "vestAdminUpdated",
      "type": "event"
    },
    {
      "anonymous": false,
      "inputs": [
        {
          "indexed": true,
          "internalType": "address",
          "name": "account",
          "type": "address"
        },
        {
          "indexed": false,
          "internalType": "address",
          "name": "sender",
          "type": "address"
        },
        {
          "components": [
            {
              "internalType": "uint256",
              "name": "shortAmnt",
              "type": "uint256"
            },
            {
              "internalType": "uint256",
              "name": "longAmnt",
              "type": "uint256"
            },
            {
              "internalType": "uint256",
              "name": "lastUpdate",
              "type": "uint256"
            }
          ],
          "indexed": false,
          "internalType": "struct Utils.Vest",
          "name": "vestData",
          "type": "tuple"
        }
      ],
      "name": "vestUpdated",
      "type": "event"
    },
    {
      "inputs": [],
      "name": "DOMAIN_SEPARATOR",
      "outputs": [
        {
          "internalType": "bytes32",
          "name": "",
          "type": "bytes32"
        }
      ],
      "stateMutability": "view",
      "type": "function"
    },
    {
      "inputs": [
        {
          "internalType": "address",
          "name": "owner",
          "type": "address"
        },
        {
          "internalType": "address",
          "name": "spender",
          "type": "address"
        }
      ],
      "name": "allowance",
      "outputs": [
        {
          "internalType": "uint256",
          "name": "",
          "type": "uint256"
        }
      ],
      "stateMutability": "view",
      "type": "function"
    },
    {
      "inputs": [
        {
          "internalType": "address",
          "name": "spender",
          "type": "address"
        },
        {
          "internalType": "uint256",
          "name": "amount",
          "type": "uint256"
        }
      ],
      "name": "approve",
      "outputs": [
        {
          "internalType": "bool",
          "name": "",
          "type": "bool"
        }
      ],
      "stateMutability": "nonpayable",
      "type": "function"
    },
    {
      "inputs": [
        {
          "internalType": "address",
          "name": "account",
          "type": "address"
        }
      ],
      "name": "balanceOf",
      "outputs": [
        {
          "internalType": "uint256",
          "name": "",
          "type": "uint256"
        }
      ],
      "stateMutability": "view",
      "type": "function"
    },
    {
      "inputs": [
        {
          "internalType": "address",
          "name": "account",
          "type": "address"
        },
        {
          "internalType": "uint32",
          "name": "pos",
          "type": "uint32"
        }
      ],
      "name": "checkpoints",
      "outputs": [
        {
          "components": [
            {
              "internalType": "uint32",
              "name": "fromBlock",
              "type": "uint32"
            },
            {
              "internalType": "uint224",
              "name": "votes",
              "type": "uint224"
            }
          ],
          "internalType": "struct ERC20Votes.Checkpoint",
          "name": "",
          "type": "tuple"
        }
      ],
      "stateMutability": "view",
      "type": "function"
    },
    {
      "inputs": [],
      "name": "claimVestedRel",
      "outputs": [],
      "stateMutability": "nonpayable",
      "type": "function"
    },
    {
      "inputs": [],
      "name": "decimals",
      "outputs": [
        {
          "internalType": "uint8",
          "name": "",
          "type": "uint8"
        }
      ],
      "stateMutability": "view",
      "type": "function"
    },
    {
      "inputs": [
        {
          "internalType": "address",
          "name": "spender",
          "type": "address"
        },
        {
          "internalType": "uint256",
          "name": "subtractedValue",
          "type": "uint256"
        }
      ],
      "name": "decreaseAllowance",
      "outputs": [
        {
          "internalType": "bool",
          "name": "",
          "type": "bool"
        }
      ],
      "stateMutability": "nonpayable",
      "type": "function"
    },
    {
      "inputs": [
        {
          "internalType": "address",
          "name": "delegatee",
          "type": "address"
        }
      ],
      "name": "delegate",
      "outputs": [],
      "stateMutability": "nonpayable",
      "type": "function"
    },
    {
      "inputs": [
        {
          "internalType": "address",
          "name": "delegatee",
          "type": "address"
        },
        {
          "internalType": "uint256",
          "name": "nonce",
          "type": "uint256"
        },
        {
          "internalType": "uint256",
          "name": "expiry",
          "type": "uint256"
        },
        {
          "internalType": "uint8",
          "name": "v",
          "type": "uint8"
        },
        {
          "internalType": "bytes32",
          "name": "r",
          "type": "bytes32"
        },
        {
          "internalType": "bytes32",
          "name": "s",
          "type": "bytes32"
        }
      ],
      "name": "delegateBySig",
      "outputs": [],
      "stateMutability": "nonpayable",
      "type": "function"
    },
    {
      "inputs": [
        {
          "internalType": "address",
          "name": "account",
          "type": "address"
        }
      ],
      "name": "delegates",
      "outputs": [
        {
          "internalType": "address",
          "name": "",
          "type": "address"
        }
      ],
      "stateMutability": "view",
      "type": "function"
    },
    {
      "inputs": [
        {
          "internalType": "uint256",
          "name": "blockNumber",
          "type": "uint256"
        }
      ],
      "name": "getPastTotalSupply",
      "outputs": [
        {
          "internalType": "uint256",
          "name": "",
          "type": "uint256"
        }
      ],
      "stateMutability": "view",
      "type": "function"
    },
    {
      "inputs": [
        {
          "internalType": "address",
          "name": "account",
          "type": "address"
        },
        {
          "internalType": "uint256",
          "name": "blockNumber",
          "type": "uint256"
        }
      ],
      "name": "getPastVotes",
      "outputs": [
        {
          "internalType": "uint256",
          "name": "",
          "type": "uint256"
        }
      ],
      "stateMutability": "view",
      "type": "function"
    },
    {
      "inputs": [
        {
          "internalType": "address",
          "name": "account",
          "type": "address"
        }
      ],
      "name": "getVotes",
      "outputs": [
        {
          "internalType": "uint256",
          "name": "",
          "type": "uint256"
        }
      ],
      "stateMutability": "view",
      "type": "function"
    },
    {
      "inputs": [
        {
          "internalType": "address",
          "name": "spender",
          "type": "address"
        },
        {
          "internalType": "uint256",
          "name": "addedValue",
          "type": "uint256"
        }
      ],
      "name": "increaseAllowance",
      "outputs": [
        {
          "internalType": "bool",
          "name": "",
          "type": "bool"
        }
      ],
      "stateMutability": "nonpayable",
      "type": "function"
    },
    {
      "inputs": [],
      "name": "lockPeriod",
      "outputs": [
        {
          "internalType": "uint256",
          "name": "",
          "type": "uint256"
        }
      ],
      "stateMutability": "view",
      "type": "function"
    },
    {
      "inputs": [],
      "name": "name",
      "outputs": [
        {
          "internalType": "string",
          "name": "",
          "type": "string"
        }
      ],
      "stateMutability": "view",
      "type": "function"
    },
    {
      "inputs": [
        {
          "internalType": "address",
          "name": "account",
          "type": "address"
        }
      ],
      "name": "nonceOf",
      "outputs": [
        {
          "internalType": "uint256",
          "name": "",
          "type": "uint256"
        }
      ],
      "stateMutability": "view",
      "type": "function"
    },
    {
      "inputs": [
        {
          "internalType": "address",
          "name": "owner",
          "type": "address"
        }
      ],
      "name": "nonces",
      "outputs": [
        {
          "internalType": "uint256",
          "name": "",
          "type": "uint256"
        }
      ],
      "stateMutability": "view",
      "type": "function"
    },
    {
      "inputs": [
        {
          "internalType": "address",
          "name": "account",
          "type": "address"
        }
      ],
      "name": "numCheckpoints",
      "outputs": [
        {
          "internalType": "uint32",
          "name": "",
          "type": "uint32"
        }
      ],
      "stateMutability": "view",
      "type": "function"
    },
    {
      "inputs": [],
      "name": "owner",
      "outputs": [
        {
          "internalType": "address",
          "name": "",
          "type": "address"
        }
      ],
      "stateMutability": "view",
      "type": "function"
    },
    {
      "inputs": [
        {
          "internalType": "address",
          "name": "owner",
          "type": "address"
        },
        {
          "internalType": "address",
          "name": "spender",
          "type": "address"
        },
        {
          "internalType": "uint256",
          "name": "value",
          "type": "uint256"
        },
        {
          "internalType": "uint256",
          "name": "deadline",
          "type": "uint256"
        },
        {
          "internalType": "uint8",
          "name": "v",
          "type": "uint8"
        },
        {
          "internalType": "bytes32",
          "name": "r",
          "type": "bytes32"
        },
        {
          "internalType": "bytes32",
          "name": "s",
          "type": "bytes32"
        }
      ],
      "name": "permit",
      "outputs": [],
      "stateMutability": "nonpayable",
      "type": "function"
    },
    {
      "inputs": [],
      "name": "r3l",
      "outputs": [
        {
          "internalType": "address",
          "name": "",
          "type": "address"
        }
      ],
      "stateMutability": "view",
      "type": "function"
    },
    {
      "inputs": [],
      "name": "renounceOwnership",
      "outputs": [],
      "stateMutability": "nonpayable",
      "type": "function"
    },
    {
      "inputs": [],
      "name": "resetLock",
      "outputs": [],
      "stateMutability": "nonpayable",
      "type": "function"
    },
    {
      "inputs": [
        {
          "internalType": "address",
          "name": "newAdmin",
          "type": "address"
        }
      ],
      "name": "setVestAdmin",
      "outputs": [],
      "stateMutability": "nonpayable",
      "type": "function"
    },
    {
      "inputs": [
        {
          "internalType": "address",
          "name": "account",
          "type": "address"
        },
        {
          "internalType": "uint256",
          "name": "shortAmnt",
          "type": "uint256"
        },
        {
          "internalType": "uint256",
          "name": "longAmnt",
          "type": "uint256"
        }
      ],
      "name": "setVestedAmount",
      "outputs": [],
      "stateMutability": "nonpayable",
      "type": "function"
    },
    {
      "inputs": [
        {
          "internalType": "uint256",
          "name": "amount",
          "type": "uint256"
        }
      ],
      "name": "stakeRel",
      "outputs": [],
      "stateMutability": "nonpayable",
      "type": "function"
    },
    {
      "inputs": [
        {
          "internalType": "address",
          "name": "account",
          "type": "address"
        }
      ],
      "name": "staked",
      "outputs": [
        {
          "internalType": "uint256",
          "name": "",
          "type": "uint256"
        }
      ],
      "stateMutability": "view",
      "type": "function"
    },
    {
      "inputs": [],
      "name": "symbol",
      "outputs": [
        {
          "internalType": "string",
          "name": "",
          "type": "string"
        }
      ],
      "stateMutability": "view",
      "type": "function"
    },
    {
      "inputs": [],
      "name": "totalSupply",
      "outputs": [
        {
          "internalType": "uint256",
          "name": "",
          "type": "uint256"
        }
      ],
      "stateMutability": "view",
      "type": "function"
    },
    {
      "inputs": [
        {
          "internalType": "address",
          "name": "recipient",
          "type": "address"
        },
        {
          "internalType": "uint256",
          "name": "amount",
          "type": "uint256"
        }
      ],
      "name": "transfer",
      "outputs": [
        {
          "internalType": "bool",
          "name": "",
          "type": "bool"
        }
      ],
      "stateMutability": "nonpayable",
      "type": "function"
    },
    {
      "inputs": [
        {
          "internalType": "address",
          "name": "sender",
          "type": "address"
        },
        {
          "internalType": "address",
          "name": "recipient",
          "type": "address"
        },
        {
          "internalType": "uint256",
          "name": "amount",
          "type": "uint256"
        }
      ],
      "name": "transferFrom",
      "outputs": [
        {
          "internalType": "bool",
          "name": "",
          "type": "bool"
        }
      ],
      "stateMutability": "nonpayable",
      "type": "function"
    },
    {
      "inputs": [
        {
          "internalType": "address",
          "name": "newOwner",
          "type": "address"
        }
      ],
      "name": "transferOwnership",
      "outputs": [],
      "stateMutability": "nonpayable",
      "type": "function"
    },
    {
      "inputs": [
        {
          "internalType": "address",
          "name": "to",
          "type": "address"
        }
      ],
      "name": "transferVestedTokens",
      "outputs": [],
      "stateMutability": "nonpayable",
      "type": "function"
    },
    {
      "inputs": [
        {
          "internalType": "uint256",
          "name": "amount",
          "type": "uint256"
        }
      ],
      "name": "unlock",
      "outputs": [],
      "stateMutability": "nonpayable",
      "type": "function"
    },
    {
      "inputs": [
        {
          "internalType": "address",
          "name": "account",
          "type": "address"
        }
      ],
      "name": "unlockTime",
      "outputs": [
        {
          "internalType": "uint256",
          "name": "",
          "type": "uint256"
        }
      ],
      "stateMutability": "view",
      "type": "function"
    },
    {
      "inputs": [
        {
          "internalType": "uint256",
          "name": "amount",
          "type": "uint256"
        }
      ],
      "name": "unstakeRel",
      "outputs": [],
      "stateMutability": "nonpayable",
      "type": "function"
    },
    {
      "inputs": [
        {
          "internalType": "address",
          "name": "account",
          "type": "address"
        }
      ],
      "name": "unstaked",
      "outputs": [
        {
          "internalType": "uint256",
          "name": "",
          "type": "uint256"
        }
      ],
      "stateMutability": "view",
      "type": "function"
    },
    {
      "inputs": [
        {
          "internalType": "uint256",
          "name": "newLockPeriod",
          "type": "uint256"
        }
      ],
      "name": "updateLockPeriod",
      "outputs": [],
      "stateMutability": "nonpayable",
      "type": "function"
    },
    {
      "inputs": [],
      "name": "vestAdmin",
      "outputs": [
        {
          "internalType": "address",
          "name": "",
          "type": "address"
        }
      ],
      "stateMutability": "view",
      "type": "function"
    },
    {
      "inputs": [],
      "name": "vestBegin",
      "outputs": [
        {
          "internalType": "uint256",
          "name": "",
          "type": "uint256"
        }
      ],
      "stateMutability": "view",
      "type": "function"
    },
    {
      "inputs": [
        {
          "internalType": "address",
          "name": "account",
          "type": "address"
        }
      ],
      "name": "vestData",
      "outputs": [
        {
          "components": [
            {
              "internalType": "uint256",
              "name": "shortAmnt",
              "type": "uint256"
            },
            {
              "internalType": "uint256",
              "name": "longAmnt",
              "type": "uint256"
            },
            {
              "internalType": "uint256",
              "name": "lastUpdate",
              "type": "uint256"
            }
          ],
          "internalType": "struct Utils.Vest",
          "name": "",
          "type": "tuple"
        }
      ],
      "stateMutability": "view",
      "type": "function"
    },
    {
      "inputs": [],
      "name": "vestLong",
      "outputs": [
        {
          "internalType": "uint256",
          "name": "",
          "type": "uint256"
        }
      ],
      "stateMutability": "view",
      "type": "function"
    },
    {
      "inputs": [],
      "name": "vestShort",
      "outputs": [
        {
          "internalType": "uint256",
          "name": "",
          "type": "uint256"
        }
      ],
      "stateMutability": "view",
      "type": "function"
    },
    {
      "inputs": [
        {
          "internalType": "uint256",
          "name": "_shortAmount",
          "type": "uint256"
        },
        {
          "internalType": "uint256",
          "name": "_longAmount",
          "type": "uint256"
        },
        {
          "internalType": "bytes",
          "name": "_sig",
          "type": "bytes"
        }
      ],
      "name": "vestTokens",
      "outputs": [],
      "stateMutability": "nonpayable",
      "type": "function"
    },
    {
      "inputs": [
        {
          "internalType": "address",
          "name": "account",
          "type": "address"
        }
      ],
      "name": "vested",
      "outputs": [
        {
          "internalType": "uint256",
          "name": "",
          "type": "uint256"
        }
      ],
      "stateMutability": "view",
      "type": "function"
    }
  ],
  "transactionHash": "0x81df8f986c6774d155a8864e604f1449b305f1cd3f9f741049cdb7be04f52c44",
  "args": [
    "0xb6c4267C4877BB0D6b1685Cfd85b0FBe82F105ec",
    "0x70997970C51812dc3A010C7d01b50e0d17dc79C8",
    1633060800,
    1759204800,
    2137636800
  ],
  "solcInputHash": "3edf8e6df95d0ac5d841883bd29ecff1",
  "bytecode": "0x6101c06040527f6e71edae12b1b97f4d1f60370fef10105fa2faae0126114a169c64845d6126c96101205262054600600b553480156200003e57600080fd5b50604051620035dc380380620035dc833981016040819052620000619162000306565b6040518060400160405280600a81526020016914dd185ad9590814915360b21b81525080604051806040016040528060018152602001603160f81b8152506040518060400160405280600a81526020016914dd185ad9590814915360b21b815250604051806040016040528060048152602001631cd4915360e21b8152508160039080519060200190620000f792919062000243565b5080516200010d90600490602084019062000243565b5050825160209384012082519284019290922060c083815260e08290524660a0818152604080517f8b73c3c69bb8fe3d512ecc4cf759cc79239f7b179b0ffacaa9a75d522b39400f818a018190528183019890985260608101959095526080808601939093523085830152805180860390920182529390920190925280519401939093209092526101005250620001a6905033620001f1565b60609490941b6001600160601b0319166101405261016091909152610180526101a091909152600a80546001600160a01b0319166001600160a01b0390921691909117905562000396565b600980546001600160a01b038381166001600160a01b0319831681179093556040519116919082907f8be0079c531659141344cd1fd0a4f28419497f9722a3daafe3b4186f6b6457e090600090a35050565b828054620002519062000359565b90600052602060002090601f016020900481019282620002755760008555620002c0565b82601f106200029057805160ff1916838001178555620002c0565b82800160010185558215620002c0579182015b82811115620002c0578251825591602001919060010190620002a3565b50620002ce929150620002d2565b5090565b5b80821115620002ce5760008155600101620002d3565b80516001600160a01b03811681146200030157600080fd5b919050565b600080600080600060a086880312156200031f57600080fd5b6200032a86620002e9565b94506200033a60208701620002e9565b6040870151606088015160809098015196999198509695945092505050565b600181811c908216806200036e57607f821691505b602082108114156200039057634e487b7160e01b600052602260045260246000fd5b50919050565b60805160a05160c05160e05161010051610120516101405160601c61016051610180516101a05161319d6200043f600039600081816104800152610cd90152600081816105840152610cb301526000818161067f0152610cff0152600081816102e001528181610a28015281816113370152611a700152600061141301526000611c1901526000611c6801526000611c4301526000611bc701526000611bf0015261319d6000f3fe608060405234801561001057600080fd5b50600436106102955760003560e01c80637ecebe0011610167578063a9059cbb116100ce578063dd62ed3e11610087578063dd62ed3e14610641578063e02c8fc51461067a578063ea8809a6146106a1578063ed2a2d64146106d6578063f1127ed8146106ff578063f2fde38b1461073c57600080fd5b8063a9059cbb146105b9578063c3cda520146105cc578063c50ef91e146105df578063c7c90bfb146105f2578063c9b493c81461061b578063d505accf1461062e57600080fd5b806395d89b411161012057806395d89b411461053e578063983ebeb51461054657806398807d84146105595780639ab24eb01461056c578063a09409601461057f578063a457c2d7146105a657600080fd5b80637ecebe00146104ce5780638adaaa84146104e15780638da5cb5b146104f45780638e539e8c146105055780638ec944741461051857806391db7b0d1461052b57600080fd5b80633fd8b02f1161020b57806370a08231116101c457806370a082311461042f5780637102b72814610458578063710745191461046b578063715018a61461047357806376831ae51461047b57806376b467b7146104a257600080fd5b80633fd8b02f146103a457806345459bcf146103ad578063587cde1e146103b55780635c19a95c146103e15780636198e339146103f45780636fcfff451461040757600080fd5b8063294d1bf01161025d578063294d1bf01461033f578063313ce567146103545780633644e515146103635780633664bf2d1461036b578063395093511461037e5780633a46b1a81461039157600080fd5b806306fdde031461029a578063095ea7b3146102b857806312287328146102db57806318160ddd1461031a57806323b872dd1461032c575b600080fd5b6102a261074f565b6040516102af9190612fdf565b60405180910390f35b6102cb6102c6366004612da4565b6107e1565b60405190151581526020016102af565b6103027f000000000000000000000000000000000000000000000000000000000000000081565b6040516001600160a01b0390911681526020016102af565b6002545b6040519081526020016102af565b6102cb61033a366004612cfe565b6107f7565b61035261034d366004612eed565b6108a6565b005b604051601281526020016102af565b61031e6109f7565b610352610379366004612ebb565b610a06565b6102cb61038c366004612da4565b610aba565b61031e61039f366004612da4565b610af6565b61031e600b5481565b610352610b70565b6103026103c3366004612cb0565b6001600160a01b039081166000908152600660205260409020541690565b6103526103ef366004612cb0565b610bc4565b610352610402366004612ebb565b610bce565b61041a610415366004612cb0565b610c44565b60405163ffffffff90911681526020016102af565b61031e61043d366004612cb0565b6001600160a01b031660009081526020819052604090205490565b61031e610466366004612cb0565b610c6c565b610352610c8d565b610352610de2565b61031e7f000000000000000000000000000000000000000000000000000000000000000081565b61031e6104b0366004612cb0565b6001600160a01b03166000908152600d602052604090206001015490565b61031e6104dc366004612cb0565b610e18565b6103526104ef366004612cb0565b610e36565b6009546001600160a01b0316610302565b61031e610513366004612ebb565b610eb5565b610352610526366004612cb0565b610f11565b610352610539366004612ebb565b610fd9565b6102a2611038565b610352610554366004612dce565b611047565b61031e610567366004612cb0565b611081565b61031e61057a366004612cb0565b6110ae565b61031e7f000000000000000000000000000000000000000000000000000000000000000081565b6102cb6105b4366004612da4565b611135565b6102cb6105c7366004612da4565b6111ce565b6103526105da366004612e01565b6111db565b600a54610302906001600160a01b031681565b61031e610600366004612cb0565b6001600160a01b03166000908152600d602052604090205490565b610352610629366004612ebb565b611311565b61035261063c366004612d3a565b6113bf565b61031e61064f366004612ccb565b6001600160a01b03918216600090815260016020908152604080832093909416825291909152205490565b61031e7f000000000000000000000000000000000000000000000000000000000000000081565b6106b46106af366004612cb0565b611523565b60408051825181526020808401519082015291810151908201526060016102af565b61031e6106e4366004612cb0565b6001600160a01b03166000908152600c602052604090205490565b61071261070d366004612e59565b611589565b60408051825163ffffffff1681526020928301516001600160e01b031692810192909252016102af565b61035261074a366004612cb0565b61160d565b60606003805461075e906130ba565b80601f016020809104026020016040519081016040528092919081815260200182805461078a906130ba565b80156107d75780601f106107ac576101008083540402835291602001916107d7565b820191906000526020600020905b8154815290600101906020018083116107ba57829003601f168201915b5050505050905090565b60006107ee3384846116a5565b50600192915050565b60006108048484846117c9565b6001600160a01b03841660009081526001602090815260408083203384529091529020548281101561088e5760405162461bcd60e51b815260206004820152602860248201527f45524332303a207472616e7366657220616d6f756e74206578636565647320616044820152676c6c6f77616e636560c01b60648201526084015b60405180910390fd5b61089b85338584036116a5565b506001949350505050565b336000818152600c6020908152604080832054905192936108f493889388939101938452602084019290925260601b6bffffffffffffffffffffffff19166040830152605482015260740190565b60408051808303601f1901815282825280516020918201207f19457468657265756d205369676e6564204d6573736167653a0a33320000000082850152603c8085019190915282518085039091018152605c90930190915281519101209050600061095f82846119ae565b600a549091506001600160a01b038083169116146109bf5760405162461bcd60e51b815260206004820152601a60248201527f7352656c3a20436c61696d206e6f7420617574686f72697a65640000000000006044820152606401610885565b336000908152600c602052604081208054600192906109df908490613069565b909155506109f090503386866119d2565b5050505050565b6000610a01611bc3565b905090565b6040516323b872dd60e01b8152336004820152306024820152604481018290527f00000000000000000000000000000000000000000000000000000000000000006001600160a01b0316906323b872dd90606401602060405180830381600087803b158015610a7457600080fd5b505af1158015610a88573d6000803e3d6000fd5b505050506040513d601f19601f82011682018060405250810190610aac9190612e99565b50610ab73382611cb6565b50565b3360008181526001602090815260408083206001600160a01b038716845290915281205490916107ee918590610af1908690613069565b6116a5565b6000438210610b475760405162461bcd60e51b815260206004820152601f60248201527f4552433230566f7465733a20626c6f636b206e6f7420796574206d696e6564006044820152606401610885565b6001600160a01b0383166000908152600760205260409020610b699083611cc0565b9392505050565b336000818152600d602090815260408083208381556001018390558051838152918201929092527f53a06858e4b0bb751491f078084a1a381e3fb6d6e9dd983c266e2d68e33bd79a910160405180910390a2565b610ab73382611d7d565b600b54336000908152600d60205260409020610beb918390611df6565b336000818152600d60205260409081902090517f53a06858e4b0bb751491f078084a1a381e3fb6d6e9dd983c266e2d68e33bd79a91610c399181548152600190910154602082015260400190565b60405180910390a250565b6001600160a01b038116600090815260076020526040812054610c6690611e10565b92915050565b6001600160a01b0381166000908152600e60205260408120610c6690611e79565b336000908152600e60205260408082209051634cbb32f560e11b815260048101919091527f000000000000000000000000000000000000000000000000000000000000000060248201527f000000000000000000000000000000000000000000000000000000000000000060448201527f00000000000000000000000000000000000000000000000000000000000000006064820152737bc06c482DEAd17c0e297aFbC32f6e63d38466509063997665ea9060840160206040518083038186803b158015610d5a57600080fd5b505af4158015610d6e573d6000803e3d6000fd5b505050506040513d601f19601f82011682018060405250810190610d929190612ed4565b600b54336000908152600d60205260409020919250610db391908390611df6565b336000818152600e602052604090819020905160008051602061314883398151915291610c3991849190612fb1565b6009546001600160a01b03163314610e0c5760405162461bcd60e51b815260040161088590613034565b610e166000611e8c565b565b6001600160a01b038116600090815260056020526040812054610c66565b6009546001600160a01b03163314610e605760405162461bcd60e51b815260040161088590613034565b600a80546001600160a01b0319166001600160a01b0383169081179091556040519081527f8961078521e826adb5caac59fa1f47e24f2059266ab5fe7c7fbf9b2ccd5a21e3906020015b60405180910390a150565b6000438210610f065760405162461bcd60e51b815260206004820152601f60248201527f4552433230566f7465733a20626c6f636b206e6f7420796574206d696e6564006044820152606401610885565b610c66600883611cc0565b336000908152600e60205260408120610f2990611e79565b6001600160a01b0383166000908152600e60205260408082203383529120919250610f549190611ede565b610f5e82826111ce565b50336000818152600e602052604090819020905160008051602061314883398151915291610f8e91849190612fb1565b60405180910390a2336000818152600e60205260409081902090516001600160a01b0385169260008051602061314883398151915292610fcd92612fb1565b60405180910390a25050565b6009546001600160a01b031633146110035760405162461bcd60e51b815260040161088590613034565b600b8190556040518181527fe8bf8dfb4abe1420b183a0e83ced724064b765215e282a7a58dff3c1fef5e3f190602001610eaa565b60606004805461075e906130ba565b6009546001600160a01b031633146110715760405162461bcd60e51b815260040161088590613034565b61107c8383836119d2565b505050565b6001600160a01b0381166000908152600d602090815260408083205491839052822054610c6691906130a3565b6001600160a01b0381166000908152600760205260408120548015611122576001600160a01b03831660009081526007602052604090206110f06001836130a3565b815481106111005761110061311b565b60009182526020909120015464010000000090046001600160e01b0316611125565b60005b6001600160e01b03169392505050565b3360009081526001602090815260408083206001600160a01b0386168452909152812054828110156111b75760405162461bcd60e51b815260206004820152602560248201527f45524332303a2064656372656173656420616c6c6f77616e63652062656c6f77604482015264207a65726f60d81b6064820152608401610885565b6111c433858584036116a5565b5060019392505050565b60006107ee3384846117c9565b8342111561122b5760405162461bcd60e51b815260206004820152601d60248201527f4552433230566f7465733a207369676e617475726520657870697265640000006044820152606401610885565b604080517fe48329057bfd03d55e49b547132e39cffd9c1820ad7b9d4c5307691425d15adf60208201526001600160a01b0388169181019190915260608101869052608081018590526000906112a59061129d9060a00160405160208183030381529060405280519060200120611fdc565b85858561202a565b90506112b081612052565b86146112fe5760405162461bcd60e51b815260206004820152601960248201527f4552433230566f7465733a20696e76616c6964206e6f6e6365000000000000006044820152606401610885565b6113088188611d7d565b50505050505050565b61131b338261207a565b60405163a9059cbb60e01b8152336004820152602481018290527f00000000000000000000000000000000000000000000000000000000000000006001600160a01b03169063a9059cbb90604401602060405180830381600087803b15801561138357600080fd5b505af1158015611397573d6000803e3d6000fd5b505050506040513d601f19601f820116820180604052508101906113bb9190612e99565b5050565b8342111561140f5760405162461bcd60e51b815260206004820152601d60248201527f45524332305065726d69743a206578706972656420646561646c696e650000006044820152606401610885565b60007f000000000000000000000000000000000000000000000000000000000000000088888861143e8c612052565b6040805160208101969096526001600160a01b0394851690860152929091166060840152608083015260a082015260c0810186905260e001604051602081830303815290604052805190602001209050600061149982611fdc565b905060006114a98287878761202a565b9050896001600160a01b0316816001600160a01b03161461150c5760405162461bcd60e51b815260206004820152601e60248201527f45524332305065726d69743a20696e76616c6964207369676e617475726500006044820152606401610885565b6115178a8a8a6116a5565b50505050505050505050565b61154760405180606001604052806000815260200160008152602001600081525090565b506001600160a01b03166000908152600e6020908152604091829020825160608101845281548152600182015492810192909252600201549181019190915290565b60408051808201909152600080825260208201526001600160a01b0383166000908152600760205260409020805463ffffffff84169081106115cd576115cd61311b565b60009182526020918290206040805180820190915291015463ffffffff8116825264010000000090046001600160e01b0316918101919091529392505050565b6009546001600160a01b031633146116375760405162461bcd60e51b815260040161088590613034565b6001600160a01b03811661169c5760405162461bcd60e51b815260206004820152602660248201527f4f776e61626c653a206e6577206f776e657220697320746865207a65726f206160448201526564647265737360d01b6064820152608401610885565b610ab781611e8c565b6001600160a01b0383166117075760405162461bcd60e51b8152602060048201526024808201527f45524332303a20617070726f76652066726f6d20746865207a65726f206164646044820152637265737360e01b6064820152608401610885565b6001600160a01b0382166117685760405162461bcd60e51b815260206004820152602260248201527f45524332303a20617070726f766520746f20746865207a65726f206164647265604482015261737360f01b6064820152608401610885565b6001600160a01b0383811660008181526001602090815260408083209487168084529482529182902085905590518481527f8c5be1e5ebec7d5bd14f71427d1e84f3dd0314c0f7b2291e5b200ac8c7c3b925910160405180910390a3505050565b6001600160a01b03831661182d5760405162461bcd60e51b815260206004820152602560248201527f45524332303a207472616e736665722066726f6d20746865207a65726f206164604482015264647265737360d81b6064820152608401610885565b6001600160a01b03821661188f5760405162461bcd60e51b815260206004820152602360248201527f45524332303a207472616e7366657220746f20746865207a65726f206164647260448201526265737360e81b6064820152608401610885565b61189a838383612084565b6001600160a01b038316600090815260208190526040902054818110156119125760405162461bcd60e51b815260206004820152602660248201527f45524332303a207472616e7366657220616d6f756e7420657863656564732062604482015265616c616e636560d01b6064820152608401610885565b6001600160a01b03808516600090815260208190526040808220858503905591851681529081208054849290611949908490613069565b92505081905550826001600160a01b0316846001600160a01b03167fddf252ad1be2c89b69c2b068fc378daa952ba7f163c4a11628f55a4df523b3ef8460405161199591815260200190565b60405180910390a36119a88484846121c7565b50505050565b60008060006119bd85856121d2565b915091506119ca81612242565b509392505050565b6001600160a01b0383166000908152600e6020526040908190209051632cc0060560e21b815260048101919091526024810183905260448101829052737bc06c482DEAd17c0e297aFbC32f6e63d38466509063b30018149060640160006040518083038186803b158015611a4557600080fd5b505af4158015611a59573d6000803e3d6000fd5b50506040516370a0823160e01b81523060048201527f00000000000000000000000000000000000000000000000000000000000000006001600160a01b031692506370a08231915060240160206040518083038186803b158015611abc57600080fd5b505afa158015611ad0573d6000803e3d6000fd5b505050506040513d601f19601f82011682018060405250810190611af49190612ed4565b8183611aff60025490565b611b099190613069565b611b139190613069565b1115611b6b5760405162461bcd60e51b815260206004820152602160248201527f7352656c3a204e6f7420656e6f756768742052454c20696e20636f6e747261636044820152601d60fa1b6064820152608401610885565b611b7e83611b798385613069565b611cb6565b6001600160a01b0383166000818152600e602052604090819020905160008051602061314883398151915291611bb691339190612fb1565b60405180910390a2505050565b60007f0000000000000000000000000000000000000000000000000000000000000000461415611c1257507f000000000000000000000000000000000000000000000000000000000000000090565b50604080517f00000000000000000000000000000000000000000000000000000000000000006020808301919091527f0000000000000000000000000000000000000000000000000000000000000000828401527f000000000000000000000000000000000000000000000000000000000000000060608301524660808301523060a0808401919091528351808403909101815260c0909201909252805191012090565b6113bb82826123fd565b8154600090815b81811015611d24576000611cdb8284612487565b905084868281548110611cf057611cf061311b565b60009182526020909120015463ffffffff161115611d1057809250611d1e565b611d1b816001613069565b91505b50611cc7565b8115611d685784611d366001846130a3565b81548110611d4657611d4661311b565b60009182526020909120015464010000000090046001600160e01b0316611d6b565b60005b6001600160e01b031695945050505050565b6001600160a01b038281166000818152600660208181526040808420805485845282862054949093528787166001600160a01b03198416811790915590519190951694919391928592917f3134e8a2e6d97e929a7e54011ea5485d7d196dd5f0ba4d4ef95803e8e3fc257f9190a46119a88284836124a2565b818355611e038142613069565b8360010181905550505050565b600063ffffffff821115611e755760405162461bcd60e51b815260206004820152602660248201527f53616665436173743a2076616c756520646f65736e27742066697420696e203360448201526532206269747360d01b6064820152608401610885565b5090565b60018101548154600091610c6691613069565b600980546001600160a01b038381166001600160a01b0319831681179093556040519116919082907f8be0079c531659141344cd1fd0a4f28419497f9722a3daafe3b4186f6b6457e090600090a35050565b6000611ee983611e79565b11611f365760405162461bcd60e51b815260206004820152601f60248201527f7352656c205574696c733a206e6f7468696e6720746f207472616e73666572006044820152606401610885565b611f3f81611e79565b15611fb25760405162461bcd60e51b815260206004820152603960248201527f7352656c205574696c733a2063616e6e6f74207472616e7366657220746f206160448201527f63636f756e7420776974682076657374656420746f6b656e73000000000000006064820152608401610885565b81548155600180830180549183019190915560028084018054919093015560009283905582905555565b6000610c66611fe9611bc3565b8360405161190160f01b6020820152602281018390526042810182905260009060620160405160208183030381529060405280519060200120905092915050565b600080600061203b878787876125df565b9150915061204881612242565b5095945050505050565b6001600160a01b03811660009081526005602052604090208054600181018255905b50919050565b6113bb82826126cc565b6001600160a01b03831615806120a257506001600160a01b03831630145b156120ac57505050565b336000908152600e602052604081206120c490611e79565b336000908152602081905260409020546120de91906130a3565b9050808211156121405760405162461bcd60e51b815260206004820152602760248201527f7352656c3a20796f752063616e6e6f74207472616e736665722076657374656460448201526620746f6b656e7360c81b6064820152608401610885565b6001600160a01b0384166000908152600d6020526040902061216290836126e4565b6001600160a01b0384166000818152600d60205260409081902090517f53a06858e4b0bb751491f078084a1a381e3fb6d6e9dd983c266e2d68e33bd79a916121b99181548152600190910154602082015260400190565b60405180910390a250505050565b61107c8383836127d4565b6000808251604114156122095760208301516040840151606085015160001a6121fd878285856125df565b9450945050505061223b565b8251604014156122335760208301516040840151612228868383612806565b93509350505061223b565b506000905060025b9250929050565b600081600481111561225657612256613105565b141561225f5750565b600181600481111561227357612273613105565b14156122c15760405162461bcd60e51b815260206004820152601860248201527f45434453413a20696e76616c6964207369676e617475726500000000000000006044820152606401610885565b60028160048111156122d5576122d5613105565b14156123235760405162461bcd60e51b815260206004820152601f60248201527f45434453413a20696e76616c6964207369676e6174757265206c656e677468006044820152606401610885565b600381600481111561233757612337613105565b14156123905760405162461bcd60e51b815260206004820152602260248201527f45434453413a20696e76616c6964207369676e6174757265202773272076616c604482015261756560f01b6064820152608401610885565b60048160048111156123a4576123a4613105565b1415610ab75760405162461bcd60e51b815260206004820152602260248201527f45434453413a20696e76616c6964207369676e6174757265202776272076616c604482015261756560f01b6064820152608401610885565b6124078282612835565b6002546001600160e01b0310156124795760405162461bcd60e51b815260206004820152603060248201527f4552433230566f7465733a20746f74616c20737570706c79207269736b73206f60448201526f766572666c6f77696e6720766f74657360801b6064820152608401610885565b6119a8600861292883612934565b60006124966002848418613081565b610b6990848416613069565b816001600160a01b0316836001600160a01b0316141580156124c45750600081115b1561107c576001600160a01b03831615612552576001600160a01b038316600090815260076020526040812081906124ff90612aad85612934565b91509150846001600160a01b03167fdec2bacdd2f05b59de34da9b523dff8be42e5e38e818c82fdb0bae774387a7248383604051612547929190918252602082015260400190565b60405180910390a250505b6001600160a01b0382161561107c576001600160a01b038216600090815260076020526040812081906125889061292885612934565b91509150836001600160a01b03167fdec2bacdd2f05b59de34da9b523dff8be42e5e38e818c82fdb0bae774387a72483836040516125d0929190918252602082015260400190565b60405180910390a25050505050565b6000807f7fffffffffffffffffffffffffffffff5d576e7357a4501ddfe92f46681b20a083111561261657506000905060036126c3565b8460ff16601b1415801561262e57508460ff16601c14155b1561263f57506000905060046126c3565b6040805160008082526020820180845289905260ff881692820192909252606081018690526080810185905260019060a0016020604051602081039080840390855afa158015612693573d6000803e3d6000fd5b5050604051601f1901519150506001600160a01b0381166126bc576000600192509250506126c3565b9150600090505b94509492505050565b6126d68282612ab9565b6119a86008612aad83612934565b42826001015411156127485760405162461bcd60e51b815260206004820152602760248201527f7352656c205574696c733a20746f6b656e7320617265206e6f7420756e6c6f636044820152661ad959081e595d60ca1b6064820152608401610885565b81548111156127b75760405162461bcd60e51b815260206004820152603560248201527f7352656c205574696c733a20746f6b656e732073686f756c6420626520756e6c60448201527437b1b5b2b2103132b337b932903a3930b739b332b960591b6064820152608401610885565b808260000160008282546127cb91906130a3565b90915550505050565b6001600160a01b0383811660009081526006602052604080822054858416835291205461107c929182169116836124a2565b6000806001600160ff1b03831660ff84901c601b01612827878288856125df565b935093505050935093915050565b6001600160a01b03821661288b5760405162461bcd60e51b815260206004820152601f60248201527f45524332303a206d696e7420746f20746865207a65726f2061646472657373006044820152606401610885565b61289760008383612084565b80600260008282546128a99190613069565b90915550506001600160a01b038216600090815260208190526040812080548392906128d6908490613069565b90915550506040518181526001600160a01b038316906000907fddf252ad1be2c89b69c2b068fc378daa952ba7f163c4a11628f55a4df523b3ef9060200160405180910390a36113bb600083836121c7565b6000610b698284613069565b82546000908190801561297f578561294d6001836130a3565b8154811061295d5761295d61311b565b60009182526020909120015464010000000090046001600160e01b0316612982565b60005b6001600160e01b0316925061299b83858763ffffffff16565b91506000811180156129d9575043866129b56001846130a3565b815481106129c5576129c561311b565b60009182526020909120015463ffffffff16145b15612a39576129e782612c1a565b866129f36001846130a3565b81548110612a0357612a0361311b565b9060005260206000200160000160046101000a8154816001600160e01b0302191690836001600160e01b03160217905550612aa4565b856040518060400160405280612a4e43611e10565b63ffffffff168152602001612a6285612c1a565b6001600160e01b0390811690915282546001810184556000938452602093849020835194909301519091166401000000000263ffffffff909316929092179101555b50935093915050565b6000610b6982846130a3565b6001600160a01b038216612b195760405162461bcd60e51b815260206004820152602160248201527f45524332303a206275726e2066726f6d20746865207a65726f206164647265736044820152607360f81b6064820152608401610885565b612b2582600083612084565b6001600160a01b03821660009081526020819052604090205481811015612b995760405162461bcd60e51b815260206004820152602260248201527f45524332303a206275726e20616d6f756e7420657863656564732062616c616e604482015261636560f01b6064820152608401610885565b6001600160a01b0383166000908152602081905260408120838303905560028054849290612bc89084906130a3565b90915550506040518281526000906001600160a01b038516907fddf252ad1be2c89b69c2b068fc378daa952ba7f163c4a11628f55a4df523b3ef9060200160405180910390a361107c836000846121c7565b60006001600160e01b03821115611e755760405162461bcd60e51b815260206004820152602760248201527f53616665436173743a2076616c756520646f65736e27742066697420696e20326044820152663234206269747360c81b6064820152608401610885565b80356001600160a01b0381168114612c9a57600080fd5b919050565b803560ff81168114612c9a57600080fd5b600060208284031215612cc257600080fd5b610b6982612c83565b60008060408385031215612cde57600080fd5b612ce783612c83565b9150612cf560208401612c83565b90509250929050565b600080600060608486031215612d1357600080fd5b612d1c84612c83565b9250612d2a60208501612c83565b9150604084013590509250925092565b600080600080600080600060e0888a031215612d5557600080fd5b612d5e88612c83565b9650612d6c60208901612c83565b95506040880135945060608801359350612d8860808901612c9f565b925060a0880135915060c0880135905092959891949750929550565b60008060408385031215612db757600080fd5b612dc083612c83565b946020939093013593505050565b600080600060608486031215612de357600080fd5b612dec84612c83565b95602085013595506040909401359392505050565b60008060008060008060c08789031215612e1a57600080fd5b612e2387612c83565b95506020870135945060408701359350612e3f60608801612c9f565b92506080870135915060a087013590509295509295509295565b60008060408385031215612e6c57600080fd5b612e7583612c83565b9150602083013563ffffffff81168114612e8e57600080fd5b809150509250929050565b600060208284031215612eab57600080fd5b81518015158114610b6957600080fd5b600060208284031215612ecd57600080fd5b5035919050565b600060208284031215612ee657600080fd5b5051919050565b600080600060608486031215612f0257600080fd5b8335925060208401359150604084013567ffffffffffffffff80821115612f2857600080fd5b818601915086601f830112612f3c57600080fd5b813581811115612f4e57612f4e613131565b604051601f8201601f19908116603f01168101908382118183101715612f7657612f76613131565b81604052828152896020848701011115612f8f57600080fd5b8260208601602083013760006020848301015280955050505050509250925092565b6001600160a01b03929092168252805460208301526001810154604083015260020154606082015260800190565b600060208083528351808285015260005b8181101561300c57858101830151858201604001528201612ff0565b8181111561301e576000604083870101525b50601f01601f1916929092016040019392505050565b6020808252818101527f4f776e61626c653a2063616c6c6572206973206e6f7420746865206f776e6572604082015260600190565b6000821982111561307c5761307c6130ef565b500190565b60008261309e57634e487b7160e01b600052601260045260246000fd5b500490565b6000828210156130b5576130b56130ef565b500390565b600181811c908216806130ce57607f821691505b6020821081141561207457634e487b7160e01b600052602260045260246000fd5b634e487b7160e01b600052601160045260246000fd5b634e487b7160e01b600052602160045260246000fd5b634e487b7160e01b600052603260045260246000fd5b634e487b7160e01b600052604160045260246000fdfe52cd33bfcaef1b1998163985f60162407a7ba572f611529d9730d1f7c3825176a264697066735822122062add87476d1eaf6c97abfa0adb8f2a81c52cd76a46805fb8dd10c2dd762c8cb64736f6c63430008060033",
  "deployedBytecode": "0x608060405234801561001057600080fd5b50600436106102955760003560e01c80637ecebe0011610167578063a9059cbb116100ce578063dd62ed3e11610087578063dd62ed3e14610641578063e02c8fc51461067a578063ea8809a6146106a1578063ed2a2d64146106d6578063f1127ed8146106ff578063f2fde38b1461073c57600080fd5b8063a9059cbb146105b9578063c3cda520146105cc578063c50ef91e146105df578063c7c90bfb146105f2578063c9b493c81461061b578063d505accf1461062e57600080fd5b806395d89b411161012057806395d89b411461053e578063983ebeb51461054657806398807d84146105595780639ab24eb01461056c578063a09409601461057f578063a457c2d7146105a657600080fd5b80637ecebe00146104ce5780638adaaa84146104e15780638da5cb5b146104f45780638e539e8c146105055780638ec944741461051857806391db7b0d1461052b57600080fd5b80633fd8b02f1161020b57806370a08231116101c457806370a082311461042f5780637102b72814610458578063710745191461046b578063715018a61461047357806376831ae51461047b57806376b467b7146104a257600080fd5b80633fd8b02f146103a457806345459bcf146103ad578063587cde1e146103b55780635c19a95c146103e15780636198e339146103f45780636fcfff451461040757600080fd5b8063294d1bf01161025d578063294d1bf01461033f578063313ce567146103545780633644e515146103635780633664bf2d1461036b578063395093511461037e5780633a46b1a81461039157600080fd5b806306fdde031461029a578063095ea7b3146102b857806312287328146102db57806318160ddd1461031a57806323b872dd1461032c575b600080fd5b6102a261074f565b6040516102af9190612fdf565b60405180910390f35b6102cb6102c6366004612da4565b6107e1565b60405190151581526020016102af565b6103027f000000000000000000000000000000000000000000000000000000000000000081565b6040516001600160a01b0390911681526020016102af565b6002545b6040519081526020016102af565b6102cb61033a366004612cfe565b6107f7565b61035261034d366004612eed565b6108a6565b005b604051601281526020016102af565b61031e6109f7565b610352610379366004612ebb565b610a06565b6102cb61038c366004612da4565b610aba565b61031e61039f366004612da4565b610af6565b61031e600b5481565b610352610b70565b6103026103c3366004612cb0565b6001600160a01b039081166000908152600660205260409020541690565b6103526103ef366004612cb0565b610bc4565b610352610402366004612ebb565b610bce565b61041a610415366004612cb0565b610c44565b60405163ffffffff90911681526020016102af565b61031e61043d366004612cb0565b6001600160a01b031660009081526020819052604090205490565b61031e610466366004612cb0565b610c6c565b610352610c8d565b610352610de2565b61031e7f000000000000000000000000000000000000000000000000000000000000000081565b61031e6104b0366004612cb0565b6001600160a01b03166000908152600d602052604090206001015490565b61031e6104dc366004612cb0565b610e18565b6103526104ef366004612cb0565b610e36565b6009546001600160a01b0316610302565b61031e610513366004612ebb565b610eb5565b610352610526366004612cb0565b610f11565b610352610539366004612ebb565b610fd9565b6102a2611038565b610352610554366004612dce565b611047565b61031e610567366004612cb0565b611081565b61031e61057a366004612cb0565b6110ae565b61031e7f000000000000000000000000000000000000000000000000000000000000000081565b6102cb6105b4366004612da4565b611135565b6102cb6105c7366004612da4565b6111ce565b6103526105da366004612e01565b6111db565b600a54610302906001600160a01b031681565b61031e610600366004612cb0565b6001600160a01b03166000908152600d602052604090205490565b610352610629366004612ebb565b611311565b61035261063c366004612d3a565b6113bf565b61031e61064f366004612ccb565b6001600160a01b03918216600090815260016020908152604080832093909416825291909152205490565b61031e7f000000000000000000000000000000000000000000000000000000000000000081565b6106b46106af366004612cb0565b611523565b60408051825181526020808401519082015291810151908201526060016102af565b61031e6106e4366004612cb0565b6001600160a01b03166000908152600c602052604090205490565b61071261070d366004612e59565b611589565b60408051825163ffffffff1681526020928301516001600160e01b031692810192909252016102af565b61035261074a366004612cb0565b61160d565b60606003805461075e906130ba565b80601f016020809104026020016040519081016040528092919081815260200182805461078a906130ba565b80156107d75780601f106107ac576101008083540402835291602001916107d7565b820191906000526020600020905b8154815290600101906020018083116107ba57829003601f168201915b5050505050905090565b60006107ee3384846116a5565b50600192915050565b60006108048484846117c9565b6001600160a01b03841660009081526001602090815260408083203384529091529020548281101561088e5760405162461bcd60e51b815260206004820152602860248201527f45524332303a207472616e7366657220616d6f756e74206578636565647320616044820152676c6c6f77616e636560c01b60648201526084015b60405180910390fd5b61089b85338584036116a5565b506001949350505050565b336000818152600c6020908152604080832054905192936108f493889388939101938452602084019290925260601b6bffffffffffffffffffffffff19166040830152605482015260740190565b60408051808303601f1901815282825280516020918201207f19457468657265756d205369676e6564204d6573736167653a0a33320000000082850152603c8085019190915282518085039091018152605c90930190915281519101209050600061095f82846119ae565b600a549091506001600160a01b038083169116146109bf5760405162461bcd60e51b815260206004820152601a60248201527f7352656c3a20436c61696d206e6f7420617574686f72697a65640000000000006044820152606401610885565b336000908152600c602052604081208054600192906109df908490613069565b909155506109f090503386866119d2565b5050505050565b6000610a01611bc3565b905090565b6040516323b872dd60e01b8152336004820152306024820152604481018290527f00000000000000000000000000000000000000000000000000000000000000006001600160a01b0316906323b872dd90606401602060405180830381600087803b158015610a7457600080fd5b505af1158015610a88573d6000803e3d6000fd5b505050506040513d601f19601f82011682018060405250810190610aac9190612e99565b50610ab73382611cb6565b50565b3360008181526001602090815260408083206001600160a01b038716845290915281205490916107ee918590610af1908690613069565b6116a5565b6000438210610b475760405162461bcd60e51b815260206004820152601f60248201527f4552433230566f7465733a20626c6f636b206e6f7420796574206d696e6564006044820152606401610885565b6001600160a01b0383166000908152600760205260409020610b699083611cc0565b9392505050565b336000818152600d602090815260408083208381556001018390558051838152918201929092527f53a06858e4b0bb751491f078084a1a381e3fb6d6e9dd983c266e2d68e33bd79a910160405180910390a2565b610ab73382611d7d565b600b54336000908152600d60205260409020610beb918390611df6565b336000818152600d60205260409081902090517f53a06858e4b0bb751491f078084a1a381e3fb6d6e9dd983c266e2d68e33bd79a91610c399181548152600190910154602082015260400190565b60405180910390a250565b6001600160a01b038116600090815260076020526040812054610c6690611e10565b92915050565b6001600160a01b0381166000908152600e60205260408120610c6690611e79565b336000908152600e60205260408082209051634cbb32f560e11b815260048101919091527f000000000000000000000000000000000000000000000000000000000000000060248201527f000000000000000000000000000000000000000000000000000000000000000060448201527f0000000000000000000000000000000000000000000000000000000000000000606482015273__$b4ae538d42a0e0bb8330684d08e51a40b4$__9063997665ea9060840160206040518083038186803b158015610d5a57600080fd5b505af4158015610d6e573d6000803e3d6000fd5b505050506040513d601f19601f82011682018060405250810190610d929190612ed4565b600b54336000908152600d60205260409020919250610db391908390611df6565b336000818152600e602052604090819020905160008051602061314883398151915291610c3991849190612fb1565b6009546001600160a01b03163314610e0c5760405162461bcd60e51b815260040161088590613034565b610e166000611e8c565b565b6001600160a01b038116600090815260056020526040812054610c66565b6009546001600160a01b03163314610e605760405162461bcd60e51b815260040161088590613034565b600a80546001600160a01b0319166001600160a01b0383169081179091556040519081527f8961078521e826adb5caac59fa1f47e24f2059266ab5fe7c7fbf9b2ccd5a21e3906020015b60405180910390a150565b6000438210610f065760405162461bcd60e51b815260206004820152601f60248201527f4552433230566f7465733a20626c6f636b206e6f7420796574206d696e6564006044820152606401610885565b610c66600883611cc0565b336000908152600e60205260408120610f2990611e79565b6001600160a01b0383166000908152600e60205260408082203383529120919250610f549190611ede565b610f5e82826111ce565b50336000818152600e602052604090819020905160008051602061314883398151915291610f8e91849190612fb1565b60405180910390a2336000818152600e60205260409081902090516001600160a01b0385169260008051602061314883398151915292610fcd92612fb1565b60405180910390a25050565b6009546001600160a01b031633146110035760405162461bcd60e51b815260040161088590613034565b600b8190556040518181527fe8bf8dfb4abe1420b183a0e83ced724064b765215e282a7a58dff3c1fef5e3f190602001610eaa565b60606004805461075e906130ba565b6009546001600160a01b031633146110715760405162461bcd60e51b815260040161088590613034565b61107c8383836119d2565b505050565b6001600160a01b0381166000908152600d602090815260408083205491839052822054610c6691906130a3565b6001600160a01b0381166000908152600760205260408120548015611122576001600160a01b03831660009081526007602052604090206110f06001836130a3565b815481106111005761110061311b565b60009182526020909120015464010000000090046001600160e01b0316611125565b60005b6001600160e01b03169392505050565b3360009081526001602090815260408083206001600160a01b0386168452909152812054828110156111b75760405162461bcd60e51b815260206004820152602560248201527f45524332303a2064656372656173656420616c6c6f77616e63652062656c6f77604482015264207a65726f60d81b6064820152608401610885565b6111c433858584036116a5565b5060019392505050565b60006107ee3384846117c9565b8342111561122b5760405162461bcd60e51b815260206004820152601d60248201527f4552433230566f7465733a207369676e617475726520657870697265640000006044820152606401610885565b604080517fe48329057bfd03d55e49b547132e39cffd9c1820ad7b9d4c5307691425d15adf60208201526001600160a01b0388169181019190915260608101869052608081018590526000906112a59061129d9060a00160405160208183030381529060405280519060200120611fdc565b85858561202a565b90506112b081612052565b86146112fe5760405162461bcd60e51b815260206004820152601960248201527f4552433230566f7465733a20696e76616c6964206e6f6e6365000000000000006044820152606401610885565b6113088188611d7d565b50505050505050565b61131b338261207a565b60405163a9059cbb60e01b8152336004820152602481018290527f00000000000000000000000000000000000000000000000000000000000000006001600160a01b03169063a9059cbb90604401602060405180830381600087803b15801561138357600080fd5b505af1158015611397573d6000803e3d6000fd5b505050506040513d601f19601f820116820180604052508101906113bb9190612e99565b5050565b8342111561140f5760405162461bcd60e51b815260206004820152601d60248201527f45524332305065726d69743a206578706972656420646561646c696e650000006044820152606401610885565b60007f000000000000000000000000000000000000000000000000000000000000000088888861143e8c612052565b6040805160208101969096526001600160a01b0394851690860152929091166060840152608083015260a082015260c0810186905260e001604051602081830303815290604052805190602001209050600061149982611fdc565b905060006114a98287878761202a565b9050896001600160a01b0316816001600160a01b03161461150c5760405162461bcd60e51b815260206004820152601e60248201527f45524332305065726d69743a20696e76616c6964207369676e617475726500006044820152606401610885565b6115178a8a8a6116a5565b50505050505050505050565b61154760405180606001604052806000815260200160008152602001600081525090565b506001600160a01b03166000908152600e6020908152604091829020825160608101845281548152600182015492810192909252600201549181019190915290565b60408051808201909152600080825260208201526001600160a01b0383166000908152600760205260409020805463ffffffff84169081106115cd576115cd61311b565b60009182526020918290206040805180820190915291015463ffffffff8116825264010000000090046001600160e01b0316918101919091529392505050565b6009546001600160a01b031633146116375760405162461bcd60e51b815260040161088590613034565b6001600160a01b03811661169c5760405162461bcd60e51b815260206004820152602660248201527f4f776e61626c653a206e6577206f776e657220697320746865207a65726f206160448201526564647265737360d01b6064820152608401610885565b610ab781611e8c565b6001600160a01b0383166117075760405162461bcd60e51b8152602060048201526024808201527f45524332303a20617070726f76652066726f6d20746865207a65726f206164646044820152637265737360e01b6064820152608401610885565b6001600160a01b0382166117685760405162461bcd60e51b815260206004820152602260248201527f45524332303a20617070726f766520746f20746865207a65726f206164647265604482015261737360f01b6064820152608401610885565b6001600160a01b0383811660008181526001602090815260408083209487168084529482529182902085905590518481527f8c5be1e5ebec7d5bd14f71427d1e84f3dd0314c0f7b2291e5b200ac8c7c3b925910160405180910390a3505050565b6001600160a01b03831661182d5760405162461bcd60e51b815260206004820152602560248201527f45524332303a207472616e736665722066726f6d20746865207a65726f206164604482015264647265737360d81b6064820152608401610885565b6001600160a01b03821661188f5760405162461bcd60e51b815260206004820152602360248201527f45524332303a207472616e7366657220746f20746865207a65726f206164647260448201526265737360e81b6064820152608401610885565b61189a838383612084565b6001600160a01b038316600090815260208190526040902054818110156119125760405162461bcd60e51b815260206004820152602660248201527f45524332303a207472616e7366657220616d6f756e7420657863656564732062604482015265616c616e636560d01b6064820152608401610885565b6001600160a01b03808516600090815260208190526040808220858503905591851681529081208054849290611949908490613069565b92505081905550826001600160a01b0316846001600160a01b03167fddf252ad1be2c89b69c2b068fc378daa952ba7f163c4a11628f55a4df523b3ef8460405161199591815260200190565b60405180910390a36119a88484846121c7565b50505050565b60008060006119bd85856121d2565b915091506119ca81612242565b509392505050565b6001600160a01b0383166000908152600e6020526040908190209051632cc0060560e21b81526004810191909152602481018390526044810182905273__$b4ae538d42a0e0bb8330684d08e51a40b4$__9063b30018149060640160006040518083038186803b158015611a4557600080fd5b505af4158015611a59573d6000803e3d6000fd5b50506040516370a0823160e01b81523060048201527f00000000000000000000000000000000000000000000000000000000000000006001600160a01b031692506370a08231915060240160206040518083038186803b158015611abc57600080fd5b505afa158015611ad0573d6000803e3d6000fd5b505050506040513d601f19601f82011682018060405250810190611af49190612ed4565b8183611aff60025490565b611b099190613069565b611b139190613069565b1115611b6b5760405162461bcd60e51b815260206004820152602160248201527f7352656c3a204e6f7420656e6f756768742052454c20696e20636f6e747261636044820152601d60fa1b6064820152608401610885565b611b7e83611b798385613069565b611cb6565b6001600160a01b0383166000818152600e602052604090819020905160008051602061314883398151915291611bb691339190612fb1565b60405180910390a2505050565b60007f0000000000000000000000000000000000000000000000000000000000000000461415611c1257507f000000000000000000000000000000000000000000000000000000000000000090565b50604080517f00000000000000000000000000000000000000000000000000000000000000006020808301919091527f0000000000000000000000000000000000000000000000000000000000000000828401527f000000000000000000000000000000000000000000000000000000000000000060608301524660808301523060a0808401919091528351808403909101815260c0909201909252805191012090565b6113bb82826123fd565b8154600090815b81811015611d24576000611cdb8284612487565b905084868281548110611cf057611cf061311b565b60009182526020909120015463ffffffff161115611d1057809250611d1e565b611d1b816001613069565b91505b50611cc7565b8115611d685784611d366001846130a3565b81548110611d4657611d4661311b565b60009182526020909120015464010000000090046001600160e01b0316611d6b565b60005b6001600160e01b031695945050505050565b6001600160a01b038281166000818152600660208181526040808420805485845282862054949093528787166001600160a01b03198416811790915590519190951694919391928592917f3134e8a2e6d97e929a7e54011ea5485d7d196dd5f0ba4d4ef95803e8e3fc257f9190a46119a88284836124a2565b818355611e038142613069565b8360010181905550505050565b600063ffffffff821115611e755760405162461bcd60e51b815260206004820152602660248201527f53616665436173743a2076616c756520646f65736e27742066697420696e203360448201526532206269747360d01b6064820152608401610885565b5090565b60018101548154600091610c6691613069565b600980546001600160a01b038381166001600160a01b0319831681179093556040519116919082907f8be0079c531659141344cd1fd0a4f28419497f9722a3daafe3b4186f6b6457e090600090a35050565b6000611ee983611e79565b11611f365760405162461bcd60e51b815260206004820152601f60248201527f7352656c205574696c733a206e6f7468696e6720746f207472616e73666572006044820152606401610885565b611f3f81611e79565b15611fb25760405162461bcd60e51b815260206004820152603960248201527f7352656c205574696c733a2063616e6e6f74207472616e7366657220746f206160448201527f63636f756e7420776974682076657374656420746f6b656e73000000000000006064820152608401610885565b81548155600180830180549183019190915560028084018054919093015560009283905582905555565b6000610c66611fe9611bc3565b8360405161190160f01b6020820152602281018390526042810182905260009060620160405160208183030381529060405280519060200120905092915050565b600080600061203b878787876125df565b9150915061204881612242565b5095945050505050565b6001600160a01b03811660009081526005602052604090208054600181018255905b50919050565b6113bb82826126cc565b6001600160a01b03831615806120a257506001600160a01b03831630145b156120ac57505050565b336000908152600e602052604081206120c490611e79565b336000908152602081905260409020546120de91906130a3565b9050808211156121405760405162461bcd60e51b815260206004820152602760248201527f7352656c3a20796f752063616e6e6f74207472616e736665722076657374656460448201526620746f6b656e7360c81b6064820152608401610885565b6001600160a01b0384166000908152600d6020526040902061216290836126e4565b6001600160a01b0384166000818152600d60205260409081902090517f53a06858e4b0bb751491f078084a1a381e3fb6d6e9dd983c266e2d68e33bd79a916121b99181548152600190910154602082015260400190565b60405180910390a250505050565b61107c8383836127d4565b6000808251604114156122095760208301516040840151606085015160001a6121fd878285856125df565b9450945050505061223b565b8251604014156122335760208301516040840151612228868383612806565b93509350505061223b565b506000905060025b9250929050565b600081600481111561225657612256613105565b141561225f5750565b600181600481111561227357612273613105565b14156122c15760405162461bcd60e51b815260206004820152601860248201527f45434453413a20696e76616c6964207369676e617475726500000000000000006044820152606401610885565b60028160048111156122d5576122d5613105565b14156123235760405162461bcd60e51b815260206004820152601f60248201527f45434453413a20696e76616c6964207369676e6174757265206c656e677468006044820152606401610885565b600381600481111561233757612337613105565b14156123905760405162461bcd60e51b815260206004820152602260248201527f45434453413a20696e76616c6964207369676e6174757265202773272076616c604482015261756560f01b6064820152608401610885565b60048160048111156123a4576123a4613105565b1415610ab75760405162461bcd60e51b815260206004820152602260248201527f45434453413a20696e76616c6964207369676e6174757265202776272076616c604482015261756560f01b6064820152608401610885565b6124078282612835565b6002546001600160e01b0310156124795760405162461bcd60e51b815260206004820152603060248201527f4552433230566f7465733a20746f74616c20737570706c79207269736b73206f60448201526f766572666c6f77696e6720766f74657360801b6064820152608401610885565b6119a8600861292883612934565b60006124966002848418613081565b610b6990848416613069565b816001600160a01b0316836001600160a01b0316141580156124c45750600081115b1561107c576001600160a01b03831615612552576001600160a01b038316600090815260076020526040812081906124ff90612aad85612934565b91509150846001600160a01b03167fdec2bacdd2f05b59de34da9b523dff8be42e5e38e818c82fdb0bae774387a7248383604051612547929190918252602082015260400190565b60405180910390a250505b6001600160a01b0382161561107c576001600160a01b038216600090815260076020526040812081906125889061292885612934565b91509150836001600160a01b03167fdec2bacdd2f05b59de34da9b523dff8be42e5e38e818c82fdb0bae774387a72483836040516125d0929190918252602082015260400190565b60405180910390a25050505050565b6000807f7fffffffffffffffffffffffffffffff5d576e7357a4501ddfe92f46681b20a083111561261657506000905060036126c3565b8460ff16601b1415801561262e57508460ff16601c14155b1561263f57506000905060046126c3565b6040805160008082526020820180845289905260ff881692820192909252606081018690526080810185905260019060a0016020604051602081039080840390855afa158015612693573d6000803e3d6000fd5b5050604051601f1901519150506001600160a01b0381166126bc576000600192509250506126c3565b9150600090505b94509492505050565b6126d68282612ab9565b6119a86008612aad83612934565b42826001015411156127485760405162461bcd60e51b815260206004820152602760248201527f7352656c205574696c733a20746f6b656e7320617265206e6f7420756e6c6f636044820152661ad959081e595d60ca1b6064820152608401610885565b81548111156127b75760405162461bcd60e51b815260206004820152603560248201527f7352656c205574696c733a20746f6b656e732073686f756c6420626520756e6c60448201527437b1b5b2b2103132b337b932903a3930b739b332b960591b6064820152608401610885565b808260000160008282546127cb91906130a3565b90915550505050565b6001600160a01b0383811660009081526006602052604080822054858416835291205461107c929182169116836124a2565b6000806001600160ff1b03831660ff84901c601b01612827878288856125df565b935093505050935093915050565b6001600160a01b03821661288b5760405162461bcd60e51b815260206004820152601f60248201527f45524332303a206d696e7420746f20746865207a65726f2061646472657373006044820152606401610885565b61289760008383612084565b80600260008282546128a99190613069565b90915550506001600160a01b038216600090815260208190526040812080548392906128d6908490613069565b90915550506040518181526001600160a01b038316906000907fddf252ad1be2c89b69c2b068fc378daa952ba7f163c4a11628f55a4df523b3ef9060200160405180910390a36113bb600083836121c7565b6000610b698284613069565b82546000908190801561297f578561294d6001836130a3565b8154811061295d5761295d61311b565b60009182526020909120015464010000000090046001600160e01b0316612982565b60005b6001600160e01b0316925061299b83858763ffffffff16565b91506000811180156129d9575043866129b56001846130a3565b815481106129c5576129c561311b565b60009182526020909120015463ffffffff16145b15612a39576129e782612c1a565b866129f36001846130a3565b81548110612a0357612a0361311b565b9060005260206000200160000160046101000a8154816001600160e01b0302191690836001600160e01b03160217905550612aa4565b856040518060400160405280612a4e43611e10565b63ffffffff168152602001612a6285612c1a565b6001600160e01b0390811690915282546001810184556000938452602093849020835194909301519091166401000000000263ffffffff909316929092179101555b50935093915050565b6000610b6982846130a3565b6001600160a01b038216612b195760405162461bcd60e51b815260206004820152602160248201527f45524332303a206275726e2066726f6d20746865207a65726f206164647265736044820152607360f81b6064820152608401610885565b612b2582600083612084565b6001600160a01b03821660009081526020819052604090205481811015612b995760405162461bcd60e51b815260206004820152602260248201527f45524332303a206275726e20616d6f756e7420657863656564732062616c616e604482015261636560f01b6064820152608401610885565b6001600160a01b0383166000908152602081905260408120838303905560028054849290612bc89084906130a3565b90915550506040518281526000906001600160a01b038516907fddf252ad1be2c89b69c2b068fc378daa952ba7f163c4a11628f55a4df523b3ef9060200160405180910390a361107c836000846121c7565b60006001600160e01b03821115611e755760405162461bcd60e51b815260206004820152602760248201527f53616665436173743a2076616c756520646f65736e27742066697420696e20326044820152663234206269747360c81b6064820152608401610885565b80356001600160a01b0381168114612c9a57600080fd5b919050565b803560ff81168114612c9a57600080fd5b600060208284031215612cc257600080fd5b610b6982612c83565b60008060408385031215612cde57600080fd5b612ce783612c83565b9150612cf560208401612c83565b90509250929050565b600080600060608486031215612d1357600080fd5b612d1c84612c83565b9250612d2a60208501612c83565b9150604084013590509250925092565b600080600080600080600060e0888a031215612d5557600080fd5b612d5e88612c83565b9650612d6c60208901612c83565b95506040880135945060608801359350612d8860808901612c9f565b925060a0880135915060c0880135905092959891949750929550565b60008060408385031215612db757600080fd5b612dc083612c83565b946020939093013593505050565b600080600060608486031215612de357600080fd5b612dec84612c83565b95602085013595506040909401359392505050565b60008060008060008060c08789031215612e1a57600080fd5b612e2387612c83565b95506020870135945060408701359350612e3f60608801612c9f565b92506080870135915060a087013590509295509295509295565b60008060408385031215612e6c57600080fd5b612e7583612c83565b9150602083013563ffffffff81168114612e8e57600080fd5b809150509250929050565b600060208284031215612eab57600080fd5b81518015158114610b6957600080fd5b600060208284031215612ecd57600080fd5b5035919050565b600060208284031215612ee657600080fd5b5051919050565b600080600060608486031215612f0257600080fd5b8335925060208401359150604084013567ffffffffffffffff80821115612f2857600080fd5b818601915086601f830112612f3c57600080fd5b813581811115612f4e57612f4e613131565b604051601f8201601f19908116603f01168101908382118183101715612f7657612f76613131565b81604052828152896020848701011115612f8f57600080fd5b8260208601602083013760006020848301015280955050505050509250925092565b6001600160a01b03929092168252805460208301526001810154604083015260020154606082015260800190565b600060208083528351808285015260005b8181101561300c57858101830151858201604001528201612ff0565b8181111561301e576000604083870101525b50601f01601f1916929092016040019392505050565b6020808252818101527f4f776e61626c653a2063616c6c6572206973206e6f7420746865206f776e6572604082015260600190565b6000821982111561307c5761307c6130ef565b500190565b60008261309e57634e487b7160e01b600052601260045260246000fd5b500490565b6000828210156130b5576130b56130ef565b500390565b600181811c908216806130ce57607f821691505b6020821081141561207457634e487b7160e01b600052602260045260246000fd5b634e487b7160e01b600052601160045260246000fd5b634e487b7160e01b600052602160045260246000fd5b634e487b7160e01b600052603260045260246000fd5b634e487b7160e01b600052604160045260246000fdfe52cd33bfcaef1b1998163985f60162407a7ba572f611529d9730d1f7c3825176a264697066735822122062add87476d1eaf6c97abfa0adb8f2a81c52cd76a46805fb8dd10c2dd762c8cb64736f6c63430008060033",
  "libraries": {
    "Utils": "0x7bc06c482DEAd17c0e297aFbC32f6e63d3846650"
  },
  "devdoc": {
    "kind": "dev",
    "methods": {
      "DOMAIN_SEPARATOR()": {
        "details": "See {IERC20Permit-DOMAIN_SEPARATOR}."
      },
      "allowance(address,address)": {
        "details": "See {IERC20-allowance}."
      },
      "approve(address,uint256)": {
        "details": "See {IERC20-approve}. Requirements: - `spender` cannot be the zero address."
      },
      "balanceOf(address)": {
        "details": "See {IERC20-balanceOf}."
      },
      "checkpoints(address,uint32)": {
        "details": "Get the `pos`-th checkpoint for `account`."
      },
      "decimals()": {
        "details": "Returns the number of decimals used to get its user representation. For example, if `decimals` equals `2`, a balance of `505` tokens should be displayed to a user as `5.05` (`505 / 10 ** 2`). Tokens usually opt for a value of 18, imitating the relationship between Ether and Wei. This is the value {ERC20} uses, unless this function is overridden; NOTE: This information is only used for _display_ purposes: it in no way affects any of the arithmetic of the contract, including {IERC20-balanceOf} and {IERC20-transfer}."
      },
      "decreaseAllowance(address,uint256)": {
        "details": "Atomically decreases the allowance granted to `spender` by the caller. This is an alternative to {approve} that can be used as a mitigation for problems described in {IERC20-approve}. Emits an {Approval} event indicating the updated allowance. Requirements: - `spender` cannot be the zero address. - `spender` must have allowance for the caller of at least `subtractedValue`."
      },
      "delegate(address)": {
        "details": "Delegate votes from the sender to `delegatee`."
      },
      "delegateBySig(address,uint256,uint256,uint8,bytes32,bytes32)": {
        "details": "Delegates votes from signer to `delegatee`"
      },
      "delegates(address)": {
        "details": "Get the address `account` is currently delegating to."
      },
      "getPastTotalSupply(uint256)": {
        "details": "Retrieve the `totalSupply` at the end of `blockNumber`. Note, this value is the sum of all balances. It is but NOT the sum of all the delegated votes! Requirements: - `blockNumber` must have been already mined"
      },
      "getPastVotes(address,uint256)": {
        "details": "Retrieve the number of votes for `account` at the end of `blockNumber`. Requirements: - `blockNumber` must have been already mined"
      },
      "getVotes(address)": {
        "details": "Gets the current votes balance for `account`"
      },
      "increaseAllowance(address,uint256)": {
        "details": "Atomically increases the allowance granted to `spender` by the caller. This is an alternative to {approve} that can be used as a mitigation for problems described in {IERC20-approve}. Emits an {Approval} event indicating the updated allowance. Requirements: - `spender` cannot be the zero address."
      },
      "name()": {
        "details": "Returns the name of the token."
      },
      "nonces(address)": {
        "details": "See {IERC20Permit-nonces}."
      },
      "numCheckpoints(address)": {
        "details": "Get number of checkpoints for `account`."
      },
      "owner()": {
        "details": "Returns the address of the current owner."
      },
      "permit(address,address,uint256,uint256,uint8,bytes32,bytes32)": {
        "details": "See {IERC20Permit-permit}."
      },
      "renounceOwnership()": {
        "details": "Leaves the contract without owner. It will not be possible to call `onlyOwner` functions anymore. Can only be called by the current owner. NOTE: Renouncing ownership will leave the contract without an owner, thereby removing any functionality that is only available to the owner."
      },
      "symbol()": {
        "details": "Returns the symbol of the token, usually a shorter version of the name."
      },
      "totalSupply()": {
        "details": "See {IERC20-totalSupply}."
      },
      "transfer(address,uint256)": {
        "details": "See {IERC20-transfer}. Requirements: - `recipient` cannot be the zero address. - the caller must have a balance of at least `amount`."
      },
      "transferFrom(address,address,uint256)": {
        "details": "See {IERC20-transferFrom}. Emits an {Approval} event indicating the updated allowance. This is not required by the EIP. See the note at the beginning of {ERC20}. Requirements: - `sender` and `recipient` cannot be the zero address. - `sender` must have a balance of at least `amount`. - the caller must have allowance for ``sender``'s tokens of at least `amount`."
      },
      "transferOwnership(address)": {
        "details": "Transfers ownership of the contract to a new account (`newOwner`). Can only be called by the current owner."
      }
    },
    "version": 1
  },
  "userdoc": {
    "kind": "user",
    "methods": {},
    "version": 1
  },
  "storageLayout": {
    "storage": [
      {
        "astId": 3126,
        "contract": "contracts/sRel.sol:sRel",
        "label": "_balances",
        "offset": 0,
        "slot": "0",
        "type": "t_mapping(t_address,t_uint256)"
      },
      {
        "astId": 3132,
        "contract": "contracts/sRel.sol:sRel",
        "label": "_allowances",
        "offset": 0,
        "slot": "1",
        "type": "t_mapping(t_address,t_mapping(t_address,t_uint256))"
      },
      {
        "astId": 3134,
        "contract": "contracts/sRel.sol:sRel",
        "label": "_totalSupply",
        "offset": 0,
        "slot": "2",
        "type": "t_uint256"
      },
      {
        "astId": 3136,
        "contract": "contracts/sRel.sol:sRel",
        "label": "_name",
        "offset": 0,
        "slot": "3",
        "type": "t_string_storage"
      },
      {
        "astId": 3138,
        "contract": "contracts/sRel.sol:sRel",
        "label": "_symbol",
        "offset": 0,
        "slot": "4",
        "type": "t_string_storage"
      },
      {
        "astId": 4428,
        "contract": "contracts/sRel.sol:sRel",
        "label": "_nonces",
        "offset": 0,
        "slot": "5",
        "type": "t_mapping(t_address,t_struct(Counter)4935_storage)"
      },
      {
        "astId": 3757,
        "contract": "contracts/sRel.sol:sRel",
        "label": "_delegates",
        "offset": 0,
        "slot": "6",
        "type": "t_mapping(t_address,t_address)"
      },
      {
        "astId": 3763,
        "contract": "contracts/sRel.sol:sRel",
        "label": "_checkpoints",
        "offset": 0,
        "slot": "7",
        "type": "t_mapping(t_address,t_array(t_struct(Checkpoint)3748_storage)dyn_storage)"
      },
      {
        "astId": 3767,
        "contract": "contracts/sRel.sol:sRel",
        "label": "_totalSupplyCheckpoints",
        "offset": 0,
        "slot": "8",
        "type": "t_array(t_struct(Checkpoint)3748_storage)dyn_storage"
      },
      {
        "astId": 387,
        "contract": "contracts/sRel.sol:sRel",
        "label": "_owner",
        "offset": 0,
        "slot": "9",
        "type": "t_address"
      },
      {
        "astId": 7611,
        "contract": "contracts/sRel.sol:sRel",
        "label": "vestAdmin",
        "offset": 0,
        "slot": "10",
        "type": "t_address"
      },
      {
        "astId": 7614,
        "contract": "contracts/sRel.sol:sRel",
        "label": "lockPeriod",
        "offset": 0,
        "slot": "11",
        "type": "t_uint256"
      },
      {
        "astId": 7624,
        "contract": "contracts/sRel.sol:sRel",
        "label": "vestNonce",
        "offset": 0,
        "slot": "12",
        "type": "t_mapping(t_address,t_uint256)"
      },
      {
        "astId": 7629,
        "contract": "contracts/sRel.sol:sRel",
        "label": "unlocks",
        "offset": 0,
        "slot": "13",
        "type": "t_mapping(t_address,t_struct(Unlock)6895_storage)"
      },
      {
        "astId": 7634,
        "contract": "contracts/sRel.sol:sRel",
        "label": "vest",
        "offset": 0,
        "slot": "14",
        "type": "t_mapping(t_address,t_struct(Vest)6890_storage)"
      }
    ],
    "types": {
      "t_address": {
        "encoding": "inplace",
        "label": "address",
        "numberOfBytes": "20"
      },
      "t_array(t_struct(Checkpoint)3748_storage)dyn_storage": {
        "base": "t_struct(Checkpoint)3748_storage",
        "encoding": "dynamic_array",
        "label": "struct ERC20Votes.Checkpoint[]",
        "numberOfBytes": "32"
      },
      "t_mapping(t_address,t_address)": {
        "encoding": "mapping",
        "key": "t_address",
        "label": "mapping(address => address)",
        "numberOfBytes": "32",
        "value": "t_address"
      },
      "t_mapping(t_address,t_array(t_struct(Checkpoint)3748_storage)dyn_storage)": {
        "encoding": "mapping",
        "key": "t_address",
        "label": "mapping(address => struct ERC20Votes.Checkpoint[])",
        "numberOfBytes": "32",
        "value": "t_array(t_struct(Checkpoint)3748_storage)dyn_storage"
      },
      "t_mapping(t_address,t_mapping(t_address,t_uint256))": {
        "encoding": "mapping",
        "key": "t_address",
        "label": "mapping(address => mapping(address => uint256))",
        "numberOfBytes": "32",
        "value": "t_mapping(t_address,t_uint256)"
      },
      "t_mapping(t_address,t_struct(Counter)4935_storage)": {
        "encoding": "mapping",
        "key": "t_address",
        "label": "mapping(address => struct Counters.Counter)",
        "numberOfBytes": "32",
        "value": "t_struct(Counter)4935_storage"
      },
      "t_mapping(t_address,t_struct(Unlock)6895_storage)": {
        "encoding": "mapping",
        "key": "t_address",
        "label": "mapping(address => struct Utils.Unlock)",
        "numberOfBytes": "32",
        "value": "t_struct(Unlock)6895_storage"
      },
      "t_mapping(t_address,t_struct(Vest)6890_storage)": {
        "encoding": "mapping",
        "key": "t_address",
        "label": "mapping(address => struct Utils.Vest)",
        "numberOfBytes": "32",
        "value": "t_struct(Vest)6890_storage"
      },
      "t_mapping(t_address,t_uint256)": {
        "encoding": "mapping",
        "key": "t_address",
        "label": "mapping(address => uint256)",
        "numberOfBytes": "32",
        "value": "t_uint256"
      },
      "t_string_storage": {
        "encoding": "bytes",
        "label": "string",
        "numberOfBytes": "32"
      },
      "t_struct(Checkpoint)3748_storage": {
        "encoding": "inplace",
        "label": "struct ERC20Votes.Checkpoint",
        "members": [
          {
            "astId": 3745,
            "contract": "contracts/sRel.sol:sRel",
            "label": "fromBlock",
            "offset": 0,
            "slot": "0",
            "type": "t_uint32"
          },
          {
            "astId": 3747,
            "contract": "contracts/sRel.sol:sRel",
            "label": "votes",
            "offset": 4,
            "slot": "0",
            "type": "t_uint224"
          }
        ],
        "numberOfBytes": "32"
      },
      "t_struct(Counter)4935_storage": {
        "encoding": "inplace",
        "label": "struct Counters.Counter",
        "members": [
          {
            "astId": 4934,
            "contract": "contracts/sRel.sol:sRel",
            "label": "_value",
            "offset": 0,
            "slot": "0",
            "type": "t_uint256"
          }
        ],
        "numberOfBytes": "32"
      },
      "t_struct(Unlock)6895_storage": {
        "encoding": "inplace",
        "label": "struct Utils.Unlock",
        "members": [
          {
            "astId": 6892,
            "contract": "contracts/sRel.sol:sRel",
            "label": "unlockAmnt",
            "offset": 0,
            "slot": "0",
            "type": "t_uint256"
          },
          {
            "astId": 6894,
            "contract": "contracts/sRel.sol:sRel",
            "label": "unlockTime",
            "offset": 0,
            "slot": "1",
            "type": "t_uint256"
          }
        ],
        "numberOfBytes": "64"
      },
      "t_struct(Vest)6890_storage": {
        "encoding": "inplace",
        "label": "struct Utils.Vest",
        "members": [
          {
            "astId": 6885,
            "contract": "contracts/sRel.sol:sRel",
            "label": "shortAmnt",
            "offset": 0,
            "slot": "0",
            "type": "t_uint256"
          },
          {
            "astId": 6887,
            "contract": "contracts/sRel.sol:sRel",
            "label": "longAmnt",
            "offset": 0,
            "slot": "1",
            "type": "t_uint256"
          },
          {
            "astId": 6889,
            "contract": "contracts/sRel.sol:sRel",
            "label": "lastUpdate",
            "offset": 0,
            "slot": "2",
            "type": "t_uint256"
          }
        ],
        "numberOfBytes": "96"
      },
      "t_uint224": {
        "encoding": "inplace",
        "label": "uint224",
        "numberOfBytes": "28"
      },
      "t_uint256": {
        "encoding": "inplace",
        "label": "uint256",
        "numberOfBytes": "32"
      },
      "t_uint32": {
        "encoding": "inplace",
        "label": "uint32",
        "numberOfBytes": "4"
      }
    }
  }
}