{
  "contractName": "InflationaryToken",
  "abi": [
    {
      "constant": true,
      "inputs": [],
      "name": "currentPeriod",
      "outputs": [
        {
          "name": "",
          "type": "uint256"
        }
      ],
      "payable": false,
      "stateMutability": "view",
      "type": "function"
    },
    {
      "constant": true,
      "inputs": [],
      "name": "name",
      "outputs": [
        {
          "name": "",
          "type": "string"
        }
      ],
      "payable": false,
      "stateMutability": "view",
      "type": "function"
    },
    {
      "constant": false,
      "inputs": [
        {
          "name": "spender",
          "type": "address"
        },
        {
          "name": "value",
          "type": "uint256"
        }
      ],
      "name": "approve",
      "outputs": [
        {
          "name": "",
          "type": "bool"
        }
      ],
      "payable": false,
      "stateMutability": "nonpayable",
      "type": "function"
    },
    {
      "constant": true,
      "inputs": [],
      "name": "totalSupply",
      "outputs": [
        {
          "name": "",
          "type": "uint256"
        }
      ],
      "payable": false,
      "stateMutability": "view",
      "type": "function"
    },
    {
      "constant": true,
      "inputs": [],
      "name": "halvingTime",
      "outputs": [
        {
          "name": "",
          "type": "uint256"
        }
      ],
      "payable": false,
      "stateMutability": "view",
      "type": "function"
    },
    {
      "constant": false,
      "inputs": [
        {
          "name": "from",
          "type": "address"
        },
        {
          "name": "to",
          "type": "address"
        },
        {
          "name": "value",
          "type": "uint256"
        }
      ],
      "name": "transferFrom",
      "outputs": [
        {
          "name": "",
          "type": "bool"
        }
      ],
      "payable": false,
      "stateMutability": "nonpayable",
      "type": "function"
    },
    {
      "constant": true,
      "inputs": [],
      "name": "decimals",
      "outputs": [
        {
          "name": "",
          "type": "uint8"
        }
      ],
      "payable": false,
      "stateMutability": "view",
      "type": "function"
    },
    {
      "constant": true,
      "inputs": [],
      "name": "constantRewardStart",
      "outputs": [
        {
          "name": "",
          "type": "uint256"
        }
      ],
      "payable": false,
      "stateMutability": "view",
      "type": "function"
    },
    {
      "constant": false,
      "inputs": [
        {
          "name": "spender",
          "type": "address"
        },
        {
          "name": "addedValue",
          "type": "uint256"
        }
      ],
      "name": "increaseAllowance",
      "outputs": [
        {
          "name": "",
          "type": "bool"
        }
      ],
      "payable": false,
      "stateMutability": "nonpayable",
      "type": "function"
    },
    {
      "constant": false,
      "inputs": [
        {
          "name": "to",
          "type": "address"
        },
        {
          "name": "value",
          "type": "uint256"
        }
      ],
      "name": "mint",
      "outputs": [
        {
          "name": "",
          "type": "bool"
        }
      ],
      "payable": false,
      "stateMutability": "nonpayable",
      "type": "function"
    },
    {
      "constant": true,
      "inputs": [],
      "name": "startBlock",
      "outputs": [
        {
          "name": "",
          "type": "uint256"
        }
      ],
      "payable": false,
      "stateMutability": "view",
      "type": "function"
    },
    {
      "constant": true,
      "inputs": [],
      "name": "currentPeriodStart",
      "outputs": [
        {
          "name": "",
          "type": "uint256"
        }
      ],
      "payable": false,
      "stateMutability": "view",
      "type": "function"
    },
    {
      "constant": true,
      "inputs": [],
      "name": "version",
      "outputs": [
        {
          "name": "",
          "type": "string"
        }
      ],
      "payable": false,
      "stateMutability": "view",
      "type": "function"
    },
    {
      "constant": true,
      "inputs": [
        {
          "name": "owner",
          "type": "address"
        }
      ],
      "name": "balanceOf",
      "outputs": [
        {
          "name": "",
          "type": "uint256"
        }
      ],
      "payable": false,
      "stateMutability": "view",
      "type": "function"
    },
    {
      "constant": false,
      "inputs": [],
      "name": "renounceOwnership",
      "outputs": [],
      "payable": false,
      "stateMutability": "nonpayable",
      "type": "function"
    },
    {
      "constant": true,
      "inputs": [],
      "name": "allocatedRewards",
      "outputs": [
        {
          "name": "",
          "type": "uint256"
        }
      ],
      "payable": false,
      "stateMutability": "view",
      "type": "function"
    },
    {
      "constant": true,
      "inputs": [],
      "name": "developmentFund",
      "outputs": [
        {
          "name": "",
          "type": "uint256"
        }
      ],
      "payable": false,
      "stateMutability": "view",
      "type": "function"
    },
    {
      "constant": true,
      "inputs": [],
      "name": "owner",
      "outputs": [
        {
          "name": "",
          "type": "address"
        }
      ],
      "payable": false,
      "stateMutability": "view",
      "type": "function"
    },
    {
      "constant": true,
      "inputs": [],
      "name": "isOwner",
      "outputs": [
        {
          "name": "",
          "type": "bool"
        }
      ],
      "payable": false,
      "stateMutability": "view",
      "type": "function"
    },
    {
      "constant": true,
      "inputs": [],
      "name": "symbol",
      "outputs": [
        {
          "name": "",
          "type": "string"
        }
      ],
      "payable": false,
      "stateMutability": "view",
      "type": "function"
    },
    {
      "constant": true,
      "inputs": [],
      "name": "initBlockReward",
      "outputs": [
        {
          "name": "",
          "type": "uint256"
        }
      ],
      "payable": false,
      "stateMutability": "view",
      "type": "function"
    },
    {
      "constant": false,
      "inputs": [
        {
          "name": "account",
          "type": "address"
        }
      ],
      "name": "addMinter",
      "outputs": [],
      "payable": false,
      "stateMutability": "nonpayable",
      "type": "function"
    },
    {
      "constant": false,
      "inputs": [],
      "name": "renounceMinter",
      "outputs": [],
      "payable": false,
      "stateMutability": "nonpayable",
      "type": "function"
    },
    {
      "constant": false,
      "inputs": [
        {
          "name": "spender",
          "type": "address"
        },
        {
          "name": "subtractedValue",
          "type": "uint256"
        }
      ],
      "name": "decreaseAllowance",
      "outputs": [
        {
          "name": "",
          "type": "bool"
        }
      ],
      "payable": false,
      "stateMutability": "nonpayable",
      "type": "function"
    },
    {
      "constant": false,
      "inputs": [
        {
          "name": "to",
          "type": "address"
        },
        {
          "name": "value",
          "type": "uint256"
        }
      ],
      "name": "transfer",
      "outputs": [
        {
          "name": "",
          "type": "bool"
        }
      ],
      "payable": false,
      "stateMutability": "nonpayable",
      "type": "function"
    },
    {
      "constant": true,
      "inputs": [
        {
          "name": "account",
          "type": "address"
        }
      ],
      "name": "isMinter",
      "outputs": [
        {
          "name": "",
          "type": "bool"
        }
      ],
      "payable": false,
      "stateMutability": "view",
      "type": "function"
    },
    {
      "constant": true,
      "inputs": [],
      "name": "devFundAddress",
      "outputs": [
        {
          "name": "",
          "type": "address"
        }
      ],
      "payable": false,
      "stateMutability": "view",
      "type": "function"
    },
    {
      "constant": true,
      "inputs": [
        {
          "name": "owner",
          "type": "address"
        },
        {
          "name": "spender",
          "type": "address"
        }
      ],
      "name": "allowance",
      "outputs": [
        {
          "name": "",
          "type": "uint256"
        }
      ],
      "payable": false,
      "stateMutability": "view",
      "type": "function"
    },
    {
      "constant": true,
      "inputs": [],
      "name": "lastReleaseBlock",
      "outputs": [
        {
          "name": "",
          "type": "uint256"
        }
      ],
      "payable": false,
      "stateMutability": "view",
      "type": "function"
    },
    {
      "constant": true,
      "inputs": [],
      "name": "currBlockReward",
      "outputs": [
        {
          "name": "",
          "type": "uint256"
        }
      ],
      "payable": false,
      "stateMutability": "view",
      "type": "function"
    },
    {
      "constant": true,
      "inputs": [],
      "name": "rewardFund",
      "outputs": [
        {
          "name": "",
          "type": "uint256"
        }
      ],
      "payable": false,
      "stateMutability": "view",
      "type": "function"
    },
    {
      "constant": true,
      "inputs": [],
      "name": "lastHalvingPeriod",
      "outputs": [
        {
          "name": "",
          "type": "uint256"
        }
      ],
      "payable": false,
      "stateMutability": "view",
      "type": "function"
    },
    {
      "constant": false,
      "inputs": [
        {
          "name": "newOwner",
          "type": "address"
        }
      ],
      "name": "transferOwnership",
      "outputs": [],
      "payable": false,
      "stateMutability": "nonpayable",
      "type": "function"
    },
    {
      "constant": true,
      "inputs": [],
      "name": "allocatedAirdrops",
      "outputs": [
        {
          "name": "",
          "type": "uint256"
        }
      ],
      "payable": false,
      "stateMutability": "view",
      "type": "function"
    },
    {
      "constant": true,
      "inputs": [],
      "name": "airdropFund",
      "outputs": [
        {
          "name": "",
          "type": "uint256"
        }
      ],
      "payable": false,
      "stateMutability": "view",
      "type": "function"
    },
    {
      "anonymous": false,
      "inputs": [
        {
          "indexed": false,
          "name": "releasableTokens",
          "type": "uint256"
        },
        {
          "indexed": false,
          "name": "rewardFund",
          "type": "uint256"
        },
        {
          "indexed": false,
          "name": "airdropFund",
          "type": "uint256"
        },
        {
          "indexed": false,
          "name": "developmentFund",
          "type": "uint256"
        }
      ],
      "name": "Released",
      "type": "event"
    },
    {
      "anonymous": false,
      "inputs": [
        {
          "indexed": true,
          "name": "account",
          "type": "address"
        }
      ],
      "name": "MinterAdded",
      "type": "event"
    },
    {
      "anonymous": false,
      "inputs": [
        {
          "indexed": true,
          "name": "account",
          "type": "address"
        }
      ],
      "name": "MinterRemoved",
      "type": "event"
    },
    {
      "anonymous": false,
      "inputs": [
        {
          "indexed": true,
          "name": "previousOwner",
          "type": "address"
        },
        {
          "indexed": true,
          "name": "newOwner",
          "type": "address"
        }
      ],
      "name": "OwnershipTransferred",
      "type": "event"
    },
    {
      "anonymous": false,
      "inputs": [
        {
          "indexed": true,
          "name": "from",
          "type": "address"
        },
        {
          "indexed": true,
          "name": "to",
          "type": "address"
        },
        {
          "indexed": false,
          "name": "value",
          "type": "uint256"
        }
      ],
      "name": "Transfer",
      "type": "event"
    },
    {
      "anonymous": false,
      "inputs": [
        {
          "indexed": true,
          "name": "owner",
          "type": "address"
        },
        {
          "indexed": true,
          "name": "spender",
          "type": "address"
        },
        {
          "indexed": false,
          "name": "value",
          "type": "uint256"
        }
      ],
      "name": "Approval",
      "type": "event"
    },
    {
      "constant": false,
      "inputs": [
        {
          "name": "sender",
          "type": "address"
        }
      ],
      "name": "initialize",
      "outputs": [],
      "payable": false,
      "stateMutability": "nonpayable",
      "type": "function"
    },
    {
      "constant": false,
      "inputs": [
        {
          "name": "_name",
          "type": "string"
        },
        {
          "name": "_decimals",
          "type": "uint8"
        },
        {
          "name": "_symbol",
          "type": "string"
        },
        {
          "name": "_version",
          "type": "string"
        },
        {
          "name": "_devFundAddress",
          "type": "address"
        },
        {
          "name": "_initBlockReward",
          "type": "uint256"
        },
        {
          "name": "_halvingTime",
          "type": "uint256"
        },
        {
          "name": "_lastHalvingPeriod",
          "type": "uint256"
        }
      ],
      "name": "initialize",
      "outputs": [],
      "payable": false,
      "stateMutability": "nonpayable",
      "type": "function"
    },
    {
      "constant": false,
      "inputs": [],
      "name": "releaseTokens",
      "outputs": [],
      "payable": false,
      "stateMutability": "nonpayable",
      "type": "function"
    },
    {
      "constant": false,
      "inputs": [
        {
          "name": "rewards",
          "type": "uint256"
        }
      ],
      "name": "allocateRewards",
      "outputs": [
        {
          "name": "",
          "type": "bool"
        }
      ],
      "payable": false,
      "stateMutability": "nonpayable",
      "type": "function"
    },
    {
      "constant": false,
      "inputs": [
        {
          "name": "rewards",
          "type": "uint256"
        }
      ],
      "name": "allocateAirdrops",
      "outputs": [
        {
          "name": "",
          "type": "bool"
        }
      ],
      "payable": false,
      "stateMutability": "nonpayable",
      "type": "function"
    },
    {
      "constant": false,
      "inputs": [
        {
          "name": "_amount",
          "type": "uint256"
        },
        {
          "name": "_sig",
          "type": "bytes"
        }
      ],
      "name": "claimTokens",
      "outputs": [
        {
          "name": "",
          "type": "bool"
        }
      ],
      "payable": false,
      "stateMutability": "nonpayable",
      "type": "function"
    },
    {
      "constant": true,
      "inputs": [],
      "name": "blockNum",
      "outputs": [
        {
          "name": "",
          "type": "uint256"
        }
      ],
      "payable": false,
      "stateMutability": "view",
      "type": "function"
    },
    {
      "constant": false,
      "inputs": [],
      "name": "blockMiner",
      "outputs": [],
      "payable": false,
      "stateMutability": "nonpayable",
      "type": "function"
    },
    {
      "constant": true,
      "inputs": [
        {
          "name": "_account",
          "type": "address"
        }
      ],
      "name": "nonceOf",
      "outputs": [
        {
          "name": "",
          "type": "uint256"
        }
      ],
      "payable": false,
      "stateMutability": "view",
      "type": "function"
    }
  ],
  "bytecode": "0x608060405234801561001057600080fd5b50613aba806100206000396000f3fe60806040526004361061021a576000357c0100000000000000000000000000000000000000000000000000000000900463ffffffff168063060406181461021f57806306fdde031461024a578063095ea7b3146102da57806314d8bbf11461034d57806318160ddd1461043757806322eb93631461046257806323b872dd1461048d57806328fc33c714610520578063313ce5671461057357806336c82b59146105a457806339509351146105cf57806340c10f191461064257806344f7200b146106b557806348cd4cb1146106cc5780634d483d5c146106f757806354fd4d501461072257806370a08231146107b2578063715018a6146108175780637d556df01461082e5780638a2381d7146108595780638ae63d6d146108845780638da5cb5b146108af5780638f32d59b1461090657806395d89b411461093557806397e9a4c9146109c5578063983b2d56146109f05780639865027514610a41578063a457c2d714610a58578063a9059cbb14610acb578063a96f866814610b3e578063aa271e1a14610b55578063b480f6ad14610bbe578063c4d66de814610c15578063ca6da57e14610c66578063dd62ed3e14610cb9578063e830323d14610d3e578063ebf1919a14610f80578063ece839fc14610fab578063ed2a2d6414610fd6578063efe222661461103b578063f1c461b314611066578063f2fde38b14611091578063f73c1390146110e2578063fd6a93fb1461110d575b600080fd5b34801561022b57600080fd5b50610234611138565b6040518082815260200191505060405180910390f35b34801561025657600080fd5b5061025f61113f565b6040518080602001828103825283818151815260200191508051906020019080838360005b8381101561029f578082015181840152602081019050610284565b50505050905090810190601f1680156102cc5780820380516001836020036101000a031916815260200191505b509250505060405180910390f35b3480156102e657600080fd5b50610333600480360360408110156102fd57600080fd5b81019080803573ffffffffffffffffffffffffffffffffffffffff169060200190929190803590602001909291905050506111de565b604051808215151515815260200191505060405180910390f35b34801561035957600080fd5b5061041d6004803603604081101561037057600080fd5b81019080803590602001909291908035906020019064010000000081111561039757600080fd5b8201836020820111156103a957600080fd5b803590602001918460018302840111640100000000831117156103cb57600080fd5b91908080601f016020809104026020016040519081016040528093929190818152602001838380828437600081840152601f19601f82011690508083019250505050505050919291929050505061130b565b604051808215151515815260200191505060405180910390f35b34801561044357600080fd5b5061044c6116a8565b6040518082815260200191505060405180910390f35b34801561046e57600080fd5b506104776116b2565b6040518082815260200191505060405180910390f35b34801561049957600080fd5b50610506600480360360608110156104b057600080fd5b81019080803573ffffffffffffffffffffffffffffffffffffffff169060200190929190803573ffffffffffffffffffffffffffffffffffffffff169060200190929190803590602001909291905050506116b9565b604051808215151515815260200191505060405180910390f35b34801561052c57600080fd5b506105596004803603602081101561054357600080fd5b81019080803590602001909291905050506118c1565b604051808215151515815260200191505060405180910390f35b34801561057f57600080fd5b506105886119ae565b604051808260ff1660ff16815260200191505060405180910390f35b3480156105b057600080fd5b506105b96119c2565b6040518082815260200191505060405180910390f35b3480156105db57600080fd5b50610628600480360360408110156105f257600080fd5b81019080803573ffffffffffffffffffffffffffffffffffffffff169060200190929190803590602001909291905050506119c9565b604051808215151515815260200191505060405180910390f35b34801561064e57600080fd5b5061069b6004803603604081101561066557600080fd5b81019080803573ffffffffffffffffffffffffffffffffffffffff16906020019092919080359060200190929190505050611c00565b604051808215151515815260200191505060405180910390f35b3480156106c157600080fd5b506106ca611c2a565b005b3480156106d857600080fd5b506106e1611c79565b6040518082815260200191505060405180910390f35b34801561070357600080fd5b5061070c611c80565b6040518082815260200191505060405180910390f35b34801561072e57600080fd5b50610737611c87565b6040518080602001828103825283818151815260200191508051906020019080838360005b8381101561077757808201518184015260208101905061075c565b50505050905090810190601f1680156107a45780820380516001836020036101000a031916815260200191505b509250505060405180910390f35b3480156107be57600080fd5b50610801600480360360208110156107d557600080fd5b81019080803573ffffffffffffffffffffffffffffffffffffffff169060200190929190505050611d26565b6040518082815260200191505060405180910390f35b34801561082357600080fd5b5061082c611d6f565b005b34801561083a57600080fd5b50610843611e43565b6040518082815260200191505060405180910390f35b34801561086557600080fd5b5061086e611e4a565b6040518082815260200191505060405180910390f35b34801561089057600080fd5b50610899611e51565b6040518082815260200191505060405180910390f35b3480156108bb57600080fd5b506108c4611e59565b604051808273ffffffffffffffffffffffffffffffffffffffff1673ffffffffffffffffffffffffffffffffffffffff16815260200191505060405180910390f35b34801561091257600080fd5b5061091b611e83565b604051808215151515815260200191505060405180910390f35b34801561094157600080fd5b5061094a611edb565b6040518080602001828103825283818151815260200191508051906020019080838360005b8381101561098a57808201518184015260208101905061096f565b50505050905090810190601f1680156109b75780820380516001836020036101000a031916815260200191505b509250505060405180910390f35b3480156109d157600080fd5b506109da611f7a565b6040518082815260200191505060405180910390f35b3480156109fc57600080fd5b50610a3f60048036036020811015610a1357600080fd5b81019080803573ffffffffffffffffffffffffffffffffffffffff169060200190929190505050611f81565b005b348015610a4d57600080fd5b50610a56611fa1565b005b348015610a6457600080fd5b50610ab160048036036040811015610a7b57600080fd5b81019080803573ffffffffffffffffffffffffffffffffffffffff16906020019092919080359060200190929190505050611fac565b604051808215151515815260200191505060405180910390f35b348015610ad757600080fd5b50610b2460048036036040811015610aee57600080fd5b81019080803573ffffffffffffffffffffffffffffffffffffffff169060200190929190803590602001909291905050506121e3565b604051808215151515815260200191505060405180910390f35b348015610b4a57600080fd5b50610b536121fa565b005b348015610b6157600080fd5b50610ba460048036036020811015610b7857600080fd5b81019080803573ffffffffffffffffffffffffffffffffffffffff16906020019092919050505061266a565b604051808215151515815260200191505060405180910390f35b348015610bca57600080fd5b50610bd3612687565b604051808273ffffffffffffffffffffffffffffffffffffffff1673ffffffffffffffffffffffffffffffffffffffff16815260200191505060405180910390f35b348015610c2157600080fd5b50610c6460048036036020811015610c3857600080fd5b81019080803573ffffffffffffffffffffffffffffffffffffffff1690602001909291905050506126ae565b005b348015610c7257600080fd5b50610c9f60048036036020811015610c8957600080fd5b81019080803590602001909291905050506127ed565b604051808215151515815260200191505060405180910390f35b348015610cc557600080fd5b50610d2860048036036040811015610cdc57600080fd5b81019080803573ffffffffffffffffffffffffffffffffffffffff169060200190929190803573ffffffffffffffffffffffffffffffffffffffff1690602001909291905050506128da565b6040518082815260200191505060405180910390f35b348015610d4a57600080fd5b50610f7e6004803603610100811015610d6257600080fd5b8101908080359060200190640100000000811115610d7f57600080fd5b820183602082011115610d9157600080fd5b80359060200191846001830284011164010000000083111715610db357600080fd5b91908080601f016020809104026020016040519081016040528093929190818152602001838380828437600081840152601f19601f820116905080830192505050505050509192919290803560ff16906020019092919080359060200190640100000000811115610e2357600080fd5b820183602082011115610e3557600080fd5b80359060200191846001830284011164010000000083111715610e5757600080fd5b91908080601f016020809104026020016040519081016040528093929190818152602001838380828437600081840152601f19601f82011690508083019250505050505050919291929080359060200190640100000000811115610eba57600080fd5b820183602082011115610ecc57600080fd5b80359060200191846001830284011164010000000083111715610eee57600080fd5b91908080601f016020809104026020016040519081016040528093929190818152602001838380828437600081840152601f19601f820116905080830192505050505050509192919290803573ffffffffffffffffffffffffffffffffffffffff169060200190929190803590602001909291908035906020019092919080359060200190929190505050612961565b005b348015610f8c57600080fd5b50610f95612bab565b6040518082815260200191505060405180910390f35b348015610fb757600080fd5b50610fc0612bb2565b6040518082815260200191505060405180910390f35b348015610fe257600080fd5b5061102560048036036020811015610ff957600080fd5b81019080803573ffffffffffffffffffffffffffffffffffffffff169060200190929190505050612bb9565b6040518082815260200191505060405180910390f35b34801561104757600080fd5b50611050612c03565b6040518082815260200191505060405180910390f35b34801561107257600080fd5b5061107b612c0a565b6040518082815260200191505060405180910390f35b34801561109d57600080fd5b506110e0600480360360208110156110b457600080fd5b81019080803573ffffffffffffffffffffffffffffffffffffffff169060200190929190505050612c11565b005b3480156110ee57600080fd5b506110f7612c30565b6040518082815260200191505060405180910390f35b34801561111957600080fd5b50611122612c37565b6040518082815260200191505060405180910390f35b61010b5481565b6101008054600181600116156101000203166002900480601f0160208091040260200160405190810160405280929190818152602001828054600181600116156101000203166002900480156111d65780601f106111ab576101008083540402835291602001916111d6565b820191906000526020600020905b8154815290600101906020018083116111b957829003601f168201915b505050505081565b60008073ffffffffffffffffffffffffffffffffffffffff168373ffffffffffffffffffffffffffffffffffffffff161415151561121b57600080fd5b81603460003373ffffffffffffffffffffffffffffffffffffffff1673ffffffffffffffffffffffffffffffffffffffff16815260200190815260200160002060008573ffffffffffffffffffffffffffffffffffffffff1673ffffffffffffffffffffffffffffffffffffffff168152602001908152602001600020819055508273ffffffffffffffffffffffffffffffffffffffff163373ffffffffffffffffffffffffffffffffffffffff167f8c5be1e5ebec7d5bd14f71427d1e84f3dd0314c0f7b2291e5b200ac8c7c3b925846040518082815260200191505060405180910390a36001905092915050565b600082610111541015151561131f57600080fd5b6000833361011360003373ffffffffffffffffffffffffffffffffffffffff1673ffffffffffffffffffffffffffffffffffffffff16815260200190815260200160002054604051602001808481526020018373ffffffffffffffffffffffffffffffffffffffff1673ffffffffffffffffffffffffffffffffffffffff166c0100000000000000000000000002815260140182815260200193505050506040516020818303038152906040528051906020012090508060405160200180807f19457468657265756d205369676e6564204d6573736167653a0a333200000000815250601c0182815260200191505060405160208183030381529060405280519060200120905060006114328285612c3e565b90508073ffffffffffffffffffffffffffffffffffffffff16611453611e59565b73ffffffffffffffffffffffffffffffffffffffff161415156114de576040517f08c379a00000000000000000000000000000000000000000000000000000000081526004018080602001828103825260148152602001807f436c61696d206e6f7420617574686f72697a656400000000000000000000000081525060200191505060405180910390fd5b600161011360003373ffffffffffffffffffffffffffffffffffffffff1673ffffffffffffffffffffffffffffffffffffffff168152602001908152602001600020600082825401925050819055506115438561011154612d2290919063ffffffff16565b610111819055503073ffffffffffffffffffffffffffffffffffffffff1663a9059cbb33876040518363ffffffff167c0100000000000000000000000000000000000000000000000000000000028152600401808373ffffffffffffffffffffffffffffffffffffffff1673ffffffffffffffffffffffffffffffffffffffff16815260200182815260200192505050602060405180830381600087803b1580156115ed57600080fd5b505af1158015611601573d6000803e3d6000fd5b505050506040513d602081101561161757600080fd5b8101908080519060200190929190505050151561169c576040517f08c379a000000000000000000000000000000000000000000000000000000000815260040180806020018281038252601b8152602001807f5472616e7366657220746f20636c61696d616e74206661696c6564000000000081525060200191505060405180910390fd5b60019250505092915050565b6000603554905090565b6101075481565b600061174a82603460008773ffffffffffffffffffffffffffffffffffffffff1673ffffffffffffffffffffffffffffffffffffffff16815260200190815260200160002060003373ffffffffffffffffffffffffffffffffffffffff1673ffffffffffffffffffffffffffffffffffffffff16815260200190815260200160002054612d2290919063ffffffff16565b603460008673ffffffffffffffffffffffffffffffffffffffff1673ffffffffffffffffffffffffffffffffffffffff16815260200190815260200160002060003373ffffffffffffffffffffffffffffffffffffffff1673ffffffffffffffffffffffffffffffffffffffff168152602001908152602001600020819055506117d5848484612d44565b3373ffffffffffffffffffffffffffffffffffffffff168473ffffffffffffffffffffffffffffffffffffffff167f8c5be1e5ebec7d5bd14f71427d1e84f3dd0314c0f7b2291e5b200ac8c7c3b925603460008873ffffffffffffffffffffffffffffffffffffffff1673ffffffffffffffffffffffffffffffffffffffff16815260200190815260200160002060003373ffffffffffffffffffffffffffffffffffffffff1673ffffffffffffffffffffffffffffffffffffffff168152602001908152602001600020546040518082815260200191505060405180910390a3600190509392505050565b60006118cb611e83565b15156118d657600080fd5b61010e548211151515611977576040517f08c379a00000000000000000000000000000000000000000000000000000000081526004018080602001828103825260258152602001807f4e6f7420656e6f756768206375726174696f6e2072657761726473206176616981526020017f6c61626c6500000000000000000000000000000000000000000000000000000081525060400191505060405180910390fd5b61198d8261010e54612d2290919063ffffffff16565b61010e81905550816101116000828254019250508190555060019050919050565b61010160009054906101000a900460ff1681565b61010d5481565b60008073ffffffffffffffffffffffffffffffffffffffff168373ffffffffffffffffffffffffffffffffffffffff1614151515611a0657600080fd5b611a9582603460003373ffffffffffffffffffffffffffffffffffffffff1673ffffffffffffffffffffffffffffffffffffffff16815260200190815260200160002060008673ffffffffffffffffffffffffffffffffffffffff1673ffffffffffffffffffffffffffffffffffffffff16815260200190815260200160002054612f1490919063ffffffff16565b603460003373ffffffffffffffffffffffffffffffffffffffff1673ffffffffffffffffffffffffffffffffffffffff16815260200190815260200160002060008573ffffffffffffffffffffffffffffffffffffffff1673ffffffffffffffffffffffffffffffffffffffff168152602001908152602001600020819055508273ffffffffffffffffffffffffffffffffffffffff163373ffffffffffffffffffffffffffffffffffffffff167f8c5be1e5ebec7d5bd14f71427d1e84f3dd0314c0f7b2291e5b200ac8c7c3b925603460003373ffffffffffffffffffffffffffffffffffffffff1673ffffffffffffffffffffffffffffffffffffffff16815260200190815260200160002060008773ffffffffffffffffffffffffffffffffffffffff1673ffffffffffffffffffffffffffffffffffffffff168152602001908152602001600020546040518082815260200191505060405180910390a36001905092915050565b6000611c0b3361266a565b1515611c1657600080fd5b611c208383612f35565b6001905092915050565b6040805190810160405280600781526020017f4e65774e616d65000000000000000000000000000000000000000000000000008152506101009080519060200190611c769291906139e9565b50565b6101095481565b61010c5481565b6101038054600181600116156101000203166002900480601f016020809104026020016040519081016040528092919081815260200182805460018160011615610100020316600290048015611d1e5780601f10611cf357610100808354040283529160200191611d1e565b820191906000526020600020905b815481529060010190602001808311611d0157829003601f168201915b505050505081565b6000603360008373ffffffffffffffffffffffffffffffffffffffff1673ffffffffffffffffffffffffffffffffffffffff168152602001908152602001600020549050919050565b611d77611e83565b1515611d8257600080fd5b600073ffffffffffffffffffffffffffffffffffffffff16606860009054906101000a900473ffffffffffffffffffffffffffffffffffffffff1673ffffffffffffffffffffffffffffffffffffffff167f8be0079c531659141344cd1fd0a4f28419497f9722a3daafe3b4186f6b6457e060405160405180910390a36000606860006101000a81548173ffffffffffffffffffffffffffffffffffffffff021916908373ffffffffffffffffffffffffffffffffffffffff160217905550565b6101115481565b6101105481565b600043905090565b6000606860009054906101000a900473ffffffffffffffffffffffffffffffffffffffff16905090565b6000606860009054906101000a900473ffffffffffffffffffffffffffffffffffffffff1673ffffffffffffffffffffffffffffffffffffffff163373ffffffffffffffffffffffffffffffffffffffff1614905090565b6101028054600181600116156101000203166002900480601f016020809104026020016040519081016040528092919081815260200182805460018160011615610100020316600290048015611f725780601f10611f4757610100808354040283529160200191611f72565b820191906000526020600020905b815481529060010190602001808311611f5557829003601f168201915b505050505081565b6101055481565b611f8a3361266a565b1515611f9557600080fd5b611f9e8161308b565b50565b611faa336130e5565b565b60008073ffffffffffffffffffffffffffffffffffffffff168373ffffffffffffffffffffffffffffffffffffffff1614151515611fe957600080fd5b61207882603460003373ffffffffffffffffffffffffffffffffffffffff1673ffffffffffffffffffffffffffffffffffffffff16815260200190815260200160002060008673ffffffffffffffffffffffffffffffffffffffff1673ffffffffffffffffffffffffffffffffffffffff16815260200190815260200160002054612d2290919063ffffffff16565b603460003373ffffffffffffffffffffffffffffffffffffffff1673ffffffffffffffffffffffffffffffffffffffff16815260200190815260200160002060008573ffffffffffffffffffffffffffffffffffffffff1673ffffffffffffffffffffffffffffffffffffffff168152602001908152602001600020819055508273ffffffffffffffffffffffffffffffffffffffff163373ffffffffffffffffffffffffffffffffffffffff167f8c5be1e5ebec7d5bd14f71427d1e84f3dd0314c0f7b2291e5b200ac8c7c3b925603460003373ffffffffffffffffffffffffffffffffffffffff1673ffffffffffffffffffffffffffffffffffffffff16815260200190815260200160002060008773ffffffffffffffffffffffffffffffffffffffff1673ffffffffffffffffffffffffffffffffffffffff168152602001908152602001600020546040518082815260200191505060405180910390a36001905092915050565b60006121f0338484612d44565b6001905092915050565b600080612205611e51565b90508061010a54101515612281576040517f08c379a00000000000000000000000000000000000000000000000000000000081526004018080602001828103825260188152602001807f4e6f206e6577207265776172647320617661696c61626c65000000000000000081525060200191505060405180910390fd5b6122ac6101075461229e6101095484612d2290919063ffffffff16565b61313f90919063ffffffff16565b61010b819055506101085461010b5410156122e9576122dd61010b5460020a6101055461313f90919063ffffffff16565b6101068190555061230d565b6123056101085460020a6101055461313f90919063ffffffff16565b610106819055505b600061233d6101075461232f6101095461010a54612d2290919063ffffffff16565b61313f90919063ffffffff16565b9050600061010a54830390508161010b54148061235d5750610108548210155b156123875761010654810293506101085482101515612382576123803085611c00565b505b612564565b60008290505b61010b54811115156124e35760006123b48260020a6101055461313f90919063ffffffff16565b90508382141561242e5760006123fe6123ec610107546123de600189612f1490919063ffffffff16565b61316990919063ffffffff16565b61010954612f1490919063ffffffff16565b90506124288261241a61010a5484612d2290919063ffffffff16565b61316990919063ffffffff16565b87019650505b61010b548214156124a2576124676124556101075461010b5461316990919063ffffffff16565b61010954612f1490919063ffffffff16565b61010c8190555061249d8161248f61010c54612481611e51565b612d2290919063ffffffff16565b61316990919063ffffffff16565b860195505b8382141580156124b5575061010b548214155b156124d5576124d0816101075461316990919063ffffffff16565b860195505b50808060010191505061238d565b506101085482111580156124fd57506101085461010b5410155b156125635760006125206101085460020a6101055461313f90919063ffffffff16565b905060006125538261254561010d54612537611e51565b612d2290919063ffffffff16565b61316990919063ffffffff16565b905061255f3082611c00565b5050505b5b600061258d600561257f60048861316990919063ffffffff16565b61313f90919063ffffffff16565b90506125a360028261313f90919063ffffffff16565b61010f600082825401925050819055506125c760028261313f90919063ffffffff16565b61010e600082825401925050819055506125eb60058661313f90919063ffffffff16565b610110600082825401925050819055506126036131a7565b8361010a819055507f39c15e2884a29a8ddf54563c3cb131c46f3667ecc29b194be9f5cf91b28797258561010e5461010f54610110546040518085815260200184815260200183815260200182815260200194505050505060405180910390a15050505050565b600061268082609b61335090919063ffffffff16565b9050919050565b61010460009054906101000a900473ffffffffffffffffffffffffffffffffffffffff1681565b600060019054906101000a900460ff16806126cd57506126cc6133e4565b5b806126e457506000809054906101000a900460ff16155b151561277e576040517f08c379a000000000000000000000000000000000000000000000000000000000815260040180806020018281038252602e8152602001807f436f6e747261637420696e7374616e63652068617320616c726561647920626581526020017f656e20696e697469616c697a656400000000000000000000000000000000000081525060400191505060405180910390fd5b60008060019054906101000a900460ff1690506001600060016101000a81548160ff02191690831515021790555060016000806101000a81548160ff0219169083151502179055506127cf826133f5565b80600060016101000a81548160ff0219169083151502179055505050565b60006127f7611e83565b151561280257600080fd5b61010f5482111515156128a3576040517f08c379a00000000000000000000000000000000000000000000000000000000081526004018080602001828103825260248152602001807f4e6f7420656e6f7567682061697264726f70207265776172647320617661696c81526020017f61626c650000000000000000000000000000000000000000000000000000000081525060400191505060405180910390fd5b6128b98261010f54612d2290919063ffffffff16565b61010f81905550816101126000828254019250508190555060019050919050565b6000603460008473ffffffffffffffffffffffffffffffffffffffff1673ffffffffffffffffffffffffffffffffffffffff16815260200190815260200160002060008373ffffffffffffffffffffffffffffffffffffffff1673ffffffffffffffffffffffffffffffffffffffff16815260200190815260200160002054905092915050565b600060019054906101000a900460ff1680612980575061297f6133e4565b5b8061299757506000809054906101000a900460ff16155b1515612a31576040517f08c379a000000000000000000000000000000000000000000000000000000000815260040180806020018281038252602e8152602001807f436f6e747261637420696e7374616e63652068617320616c726561647920626581526020017f656e20696e697469616c697a656400000000000000000000000000000000000081525060400191505060405180910390fd5b60008060019054906101000a900460ff1690506001600060016101000a81548160ff02191690831515021790555060016000806101000a81548160ff021916908315150217905550612a8233613544565b612a8b336126ae565b886101009080519060200190612aa29291906139e9565b508761010160006101000a81548160ff021916908360ff160217905550866101029080519060200190612ad69291906139e9565b50856101039080519060200190612aee9291906139e9565b508461010460006101000a81548173ffffffffffffffffffffffffffffffffffffffff021916908373ffffffffffffffffffffffffffffffffffffffff160217905550836101058190555082610107819055508161010881905550436101098190555061010554610106819055504361010a81905550612b77838361316990919063ffffffff16565b61010d81905550612b86613738565b80600060016101000a81548160ff021916908315150217905550505050505050505050565b61010a5481565b6101065481565b600061011360008373ffffffffffffffffffffffffffffffffffffffff1673ffffffffffffffffffffffffffffffffffffffff168152602001908152602001600020549050919050565b61010e5481565b6101085481565b612c19611e83565b1515612c2457600080fd5b612c2d8161378e565b50565b6101125481565b61010f5481565b60008060008060418551141515612c5b5760009350505050612d1c565b6020850151925060408501519150606085015160001a9050601b8160ff161015612c8657601b810190505b601b8160ff1614158015612c9e5750601c8160ff1614155b15612caf5760009350505050612d1c565b60018682858560405160008152602001604052604051808581526020018460ff1660ff1681526020018381526020018281526020019450505050506020604051602081039080840390855afa158015612d0c573d6000803e3d6000fd5b5050506020604051035193505050505b92915050565b6000828211151515612d3357600080fd5b600082840390508091505092915050565b600073ffffffffffffffffffffffffffffffffffffffff168273ffffffffffffffffffffffffffffffffffffffff1614151515612d8057600080fd5b612dd281603360008673ffffffffffffffffffffffffffffffffffffffff1673ffffffffffffffffffffffffffffffffffffffff16815260200190815260200160002054612d2290919063ffffffff16565b603360008573ffffffffffffffffffffffffffffffffffffffff1673ffffffffffffffffffffffffffffffffffffffff16815260200190815260200160002081905550612e6781603360008573ffffffffffffffffffffffffffffffffffffffff1673ffffffffffffffffffffffffffffffffffffffff16815260200190815260200160002054612f1490919063ffffffff16565b603360008473ffffffffffffffffffffffffffffffffffffffff1673ffffffffffffffffffffffffffffffffffffffff168152602001908152602001600020819055508173ffffffffffffffffffffffffffffffffffffffff168373ffffffffffffffffffffffffffffffffffffffff167fddf252ad1be2c89b69c2b068fc378daa952ba7f163c4a11628f55a4df523b3ef836040518082815260200191505060405180910390a3505050565b6000808284019050838110151515612f2b57600080fd5b8091505092915050565b600073ffffffffffffffffffffffffffffffffffffffff168273ffffffffffffffffffffffffffffffffffffffff1614151515612f7157600080fd5b612f8681603554612f1490919063ffffffff16565b603581905550612fde81603360008573ffffffffffffffffffffffffffffffffffffffff1673ffffffffffffffffffffffffffffffffffffffff16815260200190815260200160002054612f1490919063ffffffff16565b603360008473ffffffffffffffffffffffffffffffffffffffff1673ffffffffffffffffffffffffffffffffffffffff168152602001908152602001600020819055508173ffffffffffffffffffffffffffffffffffffffff16600073ffffffffffffffffffffffffffffffffffffffff167fddf252ad1be2c89b69c2b068fc378daa952ba7f163c4a11628f55a4df523b3ef836040518082815260200191505060405180910390a35050565b61309f81609b61388a90919063ffffffff16565b8073ffffffffffffffffffffffffffffffffffffffff167f6ae172837ea30b801fbfcdd4108aa1d5bf8ff775444fd70256b44e6bf3dfc3f660405160405180910390a250565b6130f981609b61393a90919063ffffffff16565b8073ffffffffffffffffffffffffffffffffffffffff167fe94479a9f7e1952cc78f2d6baab678adc1b772d936c6583def489e524cb6669260405160405180910390a250565b6000808211151561314f57600080fd5b6000828481151561315c57fe5b0490508091505092915050565b60008083141561317c57600090506131a1565b6000828402905082848281151561318f57fe5b0414151561319c57600080fd5b809150505b92915050565b3073ffffffffffffffffffffffffffffffffffffffff1663a9059cbb61010460009054906101000a900473ffffffffffffffffffffffffffffffffffffffff16610110546040518363ffffffff167c0100000000000000000000000000000000000000000000000000000000028152600401808373ffffffffffffffffffffffffffffffffffffffff1673ffffffffffffffffffffffffffffffffffffffff16815260200182815260200192505050602060405180830381600087803b15801561327057600080fd5b505af1158015613284573d6000803e3d6000fd5b505050506040513d602081101561329a57600080fd5b81019080805190602001909291905050501515613345576040517f08c379a00000000000000000000000000000000000000000000000000000000081526004018080602001828103825260218152602001807f5472616e7366657220746f2064657646756e6441646472657373206661696c6581526020017f640000000000000000000000000000000000000000000000000000000000000081525060400191505060405180910390fd5b600061011081905550565b60008073ffffffffffffffffffffffffffffffffffffffff168273ffffffffffffffffffffffffffffffffffffffff161415151561338d57600080fd5b8260000160008373ffffffffffffffffffffffffffffffffffffffff1673ffffffffffffffffffffffffffffffffffffffff16815260200190815260200160002060009054906101000a900460ff16905092915050565b600080303b90506000811491505090565b600060019054906101000a900460ff168061341457506134136133e4565b5b8061342b57506000809054906101000a900460ff16155b15156134c5576040517f08c379a000000000000000000000000000000000000000000000000000000000815260040180806020018281038252602e8152602001807f436f6e747261637420696e7374616e63652068617320616c726561647920626581526020017f656e20696e697469616c697a656400000000000000000000000000000000000081525060400191505060405180910390fd5b60008060019054906101000a900460ff1690506001600060016101000a81548160ff02191690831515021790555060016000806101000a81548160ff0219169083151502179055506135168261266a565b1515613526576135258261308b565b5b80600060016101000a81548160ff0219169083151502179055505050565b600060019054906101000a900460ff168061356357506135626133e4565b5b8061357a57506000809054906101000a900460ff16155b1515613614576040517f08c379a000000000000000000000000000000000000000000000000000000000815260040180806020018281038252602e8152602001807f436f6e747261637420696e7374616e63652068617320616c726561647920626581526020017f656e20696e697469616c697a656400000000000000000000000000000000000081525060400191505060405180910390fd5b60008060019054906101000a900460ff1690506001600060016101000a81548160ff02191690831515021790555060016000806101000a81548160ff02191690831515021790555081606860006101000a81548173ffffffffffffffffffffffffffffffffffffffff021916908373ffffffffffffffffffffffffffffffffffffffff160217905550606860009054906101000a900473ffffffffffffffffffffffffffffffffffffffff1673ffffffffffffffffffffffffffffffffffffffff16600073ffffffffffffffffffffffffffffffffffffffff167f8be0079c531659141344cd1fd0a4f28419497f9722a3daafe3b4186f6b6457e060405160405180910390a380600060016101000a81548160ff0219169083151502179055505050565b60008060008090505b6101085481101561377e576137658160020a6101055461313f90919063ffffffff16565b9150610107548202830192508080600101915050613741565b506137893083611c00565b505050565b600073ffffffffffffffffffffffffffffffffffffffff168173ffffffffffffffffffffffffffffffffffffffff16141515156137ca57600080fd5b8073ffffffffffffffffffffffffffffffffffffffff16606860009054906101000a900473ffffffffffffffffffffffffffffffffffffffff1673ffffffffffffffffffffffffffffffffffffffff167f8be0079c531659141344cd1fd0a4f28419497f9722a3daafe3b4186f6b6457e060405160405180910390a380606860006101000a81548173ffffffffffffffffffffffffffffffffffffffff021916908373ffffffffffffffffffffffffffffffffffffffff16021790555050565b600073ffffffffffffffffffffffffffffffffffffffff168173ffffffffffffffffffffffffffffffffffffffff16141515156138c657600080fd5b6138d08282613350565b1515156138dc57600080fd5b60018260000160008373ffffffffffffffffffffffffffffffffffffffff1673ffffffffffffffffffffffffffffffffffffffff16815260200190815260200160002060006101000a81548160ff0219169083151502179055505050565b600073ffffffffffffffffffffffffffffffffffffffff168173ffffffffffffffffffffffffffffffffffffffff161415151561397657600080fd5b6139808282613350565b151561398b57600080fd5b60008260000160008373ffffffffffffffffffffffffffffffffffffffff1673ffffffffffffffffffffffffffffffffffffffff16815260200190815260200160002060006101000a81548160ff0219169083151502179055505050565b828054600181600116156101000203166002900490600052602060002090601f016020900481019282601f10613a2a57805160ff1916838001178555613a58565b82800160010185558215613a58579182015b82811115613a57578251825591602001919060010190613a3c565b5b509050613a659190613a69565b5090565b613a8b91905b80821115613a87576000816000905550600101613a6f565b5090565b9056fea165627a7a72305820313403ca80f21c49a78f680525f3f7f9c9a42ec6cedbe26a5597b5375a00259d0029",
  "source": "pragma solidity ^0.5.0;\n\nimport \"openzeppelin-eth/contracts/token/ERC20/ERC20Mintable.sol\";\nimport \"openzeppelin-eth/contracts/token/ERC20/ERC20.sol\";\nimport \"openzeppelin-eth/contracts/ownership/Ownable.sol\";\nimport \"openzeppelin-eth/contracts/cryptography/ECDSA.sol\";\nimport \"zos-lib/contracts/Initializable.sol\";\n\n\n/**\n * @title An Inflationary Token with Premint and Gradual Release\n */\n\ncontract InflationaryToken is Initializable, ERC20, Ownable, ERC20Mintable {\n\n    event Released(uint256 releasableTokens, uint256 rewardFund, uint256 airdropFund, uint256 developmentFund);\n    // event ParameterUpdate(string param);\n\n    string public name;\n    uint8 public decimals;\n    string public symbol;\n    string public version;\n    address public devFundAddress;\n    uint256 public initBlockReward;\n    uint256 public currBlockReward;\n    uint256 public halvingTime;\n    uint256 public lastHalvingPeriod;\n\n    uint256 public startBlock; // Block number at which the contract is deployed\n    uint256 public lastReleaseBlock; // Block number at which the last release was made\n    uint256 public currentPeriod; // Number of the currently active halving period\n    uint256 public currentPeriodStart; // Number of last block from previous period\n    uint256 public constantRewardStart; // Number of block from which rewards stay constant\n    \n    uint256 public rewardFund; // Bucket of inflationary tokens available to be allocated for curation rewards\n    uint256 public airdropFund; // Bucket of inflationary tokens available for airdrops/new user/referral rewards\n    uint256 public developmentFund; // Bucket of inflationary tokens reserved for development - gets transferred to devFundAddress immediately\n    uint256 public allocatedRewards; // Bucket of curation reward tokens reserved/'spoken for' but not yet claimed by users\n    uint256 public allocatedAirdrops; // Bucket of airdrop reward tokens reserved/'spoken for' but not yet claimed by users\n\n    mapping(address => uint256) nonces;\n\n    /**\n     * @dev PreInflationaryToken constructor\n     * @param _devFundAddress Address that receives and manages newly minted tokens for development fund\n     * @param _initBlockReward Number of released inflationary tokens per block during the first period - should be multiple of a power of 2 (at least 2^_lastHalvingPeriod) to make halving simple\n     * @param _halvingTime Number of blocks after which reward halves (e.g. 2102400 for 1 year on Ethereum based on 15 seconds block time)\n     * @param _lastHalvingPeriod Number of halvingTime periods after which the reward should stay constant\n     */\n    function initialize(\n        string memory _name, \n        uint8 _decimals, \n        string memory _symbol, \n        string memory _version, \n        address _devFundAddress,\n        uint256 _initBlockReward,\n        uint256 _halvingTime,\n        uint256 _lastHalvingPeriod\n    )   public \n        initializer \n    {\n        Ownable.initialize(msg.sender);\n        ERC20Mintable.initialize(msg.sender);\n\n        name = _name;\n        decimals = _decimals;\n        symbol = _symbol;\n        version = _version;\n        devFundAddress = _devFundAddress;\n        initBlockReward = _initBlockReward;\n        halvingTime = _halvingTime;\n        lastHalvingPeriod = _lastHalvingPeriod;\n\n        startBlock = block.number;\n        currBlockReward = initBlockReward;\n        lastReleaseBlock = block.number;\n        constantRewardStart = _lastHalvingPeriod.mul(_halvingTime);\n\n        preMintTokens();\n    }\n\n    /**\n     * @dev Calculate and mint the number of inflationary tokens until lastHalvingPeriod at the beginning.\n     */\n    function preMintTokens() internal {\n        uint256 totalRewards;\n        uint256 periodBlockReward;\n        \n        for (uint i = 0; i < lastHalvingPeriod; i++) {\n            periodBlockReward = initBlockReward.div(2**i);\n            totalRewards += periodBlockReward * halvingTime;\n        }\n        mint(address(this), totalRewards);\n    }\n\n    // @TODO: refactor into several smaller functions?!\n    /**\n     * @dev Calculate and release currently releasable inflationary rewards. \n     */\n    function releaseTokens() public {\n        uint256 releasableTokens;\n        uint256 currBlock = blockNum();\n\n        // Check if already called for the current block\n        require(lastReleaseBlock < currBlock, \"No new rewards available\");\n\n        // Determine what halving period we are in and what the corresponding block reward is\n        currentPeriod = (currBlock.sub(startBlock)).div(halvingTime);\n        if (currentPeriod < lastHalvingPeriod) {\n            currBlockReward = initBlockReward.div(2**currentPeriod);\n        } else {\n            currBlockReward = initBlockReward.div(2**lastHalvingPeriod);\n        }\n\n        // Determine the period in which the last release was made,\n        // in order to calculate how many new tokens are eligible for release\n        uint256 lastReleasePeriod = lastReleaseBlock.sub(startBlock).div(halvingTime);\n        uint256 blocksPassed = currBlock - lastReleaseBlock;\n\n        if (currentPeriod == lastReleasePeriod || lastReleasePeriod >= lastHalvingPeriod) {\n            // If last release and current block are in the same halving period OR if we are past the last halving event,\n            // rewards are simply the number of passed blocks times the current block reward.\n            releasableTokens = blocksPassed * currBlockReward;\n            if (lastReleasePeriod >= lastHalvingPeriod) {\n            // if we are past the lastHalvingPeriod we still have to mint these\n                mint(address(this), releasableTokens);\n            }\n        } else {\n            // If last release block was in a different period, we have to add up the rewards for each period, separately\n            for (uint i = lastReleasePeriod; i <= currentPeriod; i++) {\n                uint256 periodBlockReward = initBlockReward.div(2**i);\n                if (i == lastReleasePeriod) {\n                    uint256 nextPeriodStart = startBlock.add((lastReleasePeriod.add(1)).mul(halvingTime));\n                    releasableTokens += (nextPeriodStart.sub(lastReleaseBlock)).mul(periodBlockReward);\n                }\n                if (i == currentPeriod) {\n                    currentPeriodStart = startBlock.add(currentPeriod.mul(halvingTime));\n                    releasableTokens += (blockNum().sub(currentPeriodStart)).mul(periodBlockReward);\n                }\n                if (i != lastReleasePeriod && i != currentPeriod) {\n                    releasableTokens += halvingTime.mul(periodBlockReward);\n                }\n            }\n            if (lastReleasePeriod <= lastHalvingPeriod && currentPeriod >= lastHalvingPeriod) {\n                // if we are releasing tokens for the first time after the lastHalvingPeriod and the last release was\n                // still within the halving periods, we have to mint new tokens\n                uint256 constantBlockReward = initBlockReward.div(2**lastHalvingPeriod);\n                uint256 toBeMinted = (blockNum().sub(constantRewardStart)).mul(constantBlockReward);\n                mint(address(this), toBeMinted);\n            }\n        }\n        // @Note: When we divide by 5 the remainder gets lost - this is very small though if we have 18 decimals\n        uint256 userRewards = releasableTokens.mul(4).div(5); // 80% of inflation goes to the users\n        // For now half of the user rewards are curation rewards and half are signup/referral/airdrop rewards\n        airdropFund += userRewards.div(2);\n        rewardFund += userRewards.div(2);\n\n        // @Proposal: Formula for calculating airdrop vs curation reward split: airdrops = user rewards * airdrop base share ^ (#months)\n        // uint256 monthsPassed = (currBlock - startBlock).div(172800); // 172800 blocks per month\n        // uint256 airdropShare = 0.8 ** monthsPassed; // @TODO: figure out decimals / precision\n        // airdropFund += userRewards.mul(airdropShare);\n        // rewardFund += userRewards.mul(1-airdropShare);\n\n        developmentFund += releasableTokens.div(5); // 20% of inflation goes to devFund\n        toDevFund(); // transfer these out immediately\n\n        // Set current block as last release\n        lastReleaseBlock = currBlock;\n\n        emit Released(releasableTokens, rewardFund, airdropFund, developmentFund);\n        \n    }\n\n\n    /**\n     * @dev Transfer eligible tokens from devFund bucket to devFundAddress\n     */\n\n    function toDevFund() internal {\n        require(this.transfer(devFundAddress, developmentFund), \"Transfer to devFundAddress failed\");\n        developmentFund = 0;\n    }\n\n\n    /**\n    * @dev Allocate rewards\n    * @param rewards to be reserved for users claims\n    */\n    function allocateRewards(uint256 rewards) public onlyOwner returns(bool) {\n        require(rewards <= rewardFund, \"Not enough curation rewards available\");\n        rewardFund = rewardFund.sub(rewards);\n        allocatedRewards += rewards;\n        return true;\n    }\n\n\n    /**\n    * @dev Allocate airdrops\n    * @param rewards to be reserved for user claims\n    */\n    function allocateAirdrops(uint256 rewards) public onlyOwner returns(bool) {\n        require(rewards <= airdropFund, \"Not enough airdrop rewards available\");\n        airdropFund = airdropFund.sub(rewards);\n        allocatedAirdrops += rewards;\n        return true;\n    }\n\n\n    /**\n    * @dev Claim curation reward tokens (to be called by user)\n    * @param  _amount amount to be transferred to user\n    * @param  _sig Signature by contract owner authorizing the transaction\n    */\n    function claimTokens(uint256 _amount, bytes memory _sig) public returns(bool) {\n        // check _amount + account matches hash\n        require(allocatedRewards >= _amount);\n\n        bytes32 hash = keccak256(abi.encodePacked(_amount, msg.sender, nonces[msg.sender]));\n        hash = keccak256(abi.encodePacked(\"\\x19Ethereum Signed Message:\\n32\", hash));\n\n        // check that the message was signed by contract owner        \n        address recOwner = ECDSA.recover(hash, _sig);\n        require(owner() == recOwner, \"Claim not authorized\");\n        nonces[msg.sender] += 1;\n        allocatedRewards = allocatedRewards.sub(_amount);\n        require(this.transfer(msg.sender, _amount), \"Transfer to claimant failed\");\n        return true;\n    }\n\n\n    /**\n     * @dev Return current block number\n     */\n    function blockNum() public view returns (uint256) {\n        return block.number;\n    }\n\n    /**\n     * @dev Mock transaction to simulate change in block number for testing\n     */\n    // @TODO: remove in production\n    function blockMiner() public {\n        name = \"NewName\";\n    }\n\n\n    /**\n    * @dev Nonce of user\n    * @param _account User account address\n    * @return nonce of user\n    */\n    function nonceOf(address _account) public view returns(uint256) {\n        return nonces[_account];\n    }\n\n}\n\n",
  "sourcePath": "/home/achill/Projects/token/contracts/PreInflationaryToken.sol",
  "compiler": {
    "name": "solc",
    "version": "0.5.0+commit.1d4f565a.Emscripten.clang"
  },
  "schemaVersion": "3.0.1",
  "updatedAt": "2019-02-06T21:39:48.205Z",
  "devdoc": {
    "methods": {
      "allocateAirdrops(uint256)": {
        "details": "Allocate airdrops",
        "params": {
          "rewards": "to be reserved for user claims"
        }
      },
      "allocateRewards(uint256)": {
        "details": "Allocate rewards",
        "params": {
          "rewards": "to be reserved for users claims"
        }
      },
      "allowance(address,address)": {
        "details": "Function to check the amount of tokens that an owner allowed to a spender.",
        "params": {
          "owner": "address The address which owns the funds.",
          "spender": "address The address which will spend the funds."
        },
        "return": "A uint256 specifying the amount of tokens still available for the spender."
      },
      "approve(address,uint256)": {
        "details": "Approve the passed address to spend the specified amount of tokens on behalf of msg.sender. Beware that changing an allowance with this method brings the risk that someone may use both the old and the new allowance by unfortunate transaction ordering. One possible solution to mitigate this race condition is to first reduce the spender's allowance to 0 and set the desired value afterwards: https://github.com/ethereum/EIPs/issues/20#issuecomment-263524729",
        "params": {
          "spender": "The address which will spend the funds.",
          "value": "The amount of tokens to be spent."
        }
      },
      "balanceOf(address)": {
        "details": "Gets the balance of the specified address.",
        "params": {
          "owner": "The address to query the balance of."
        },
        "return": "An uint256 representing the amount owned by the passed address."
      },
      "blockMiner()": {
        "details": "Mock transaction to simulate change in block number for testing"
      },
      "blockNum()": {
        "details": "Return current block number"
      },
      "claimTokens(uint256,bytes)": {
        "details": "Claim curation reward tokens (to be called by user)",
        "params": {
          "_amount": "amount to be transferred to user",
          "_sig": "Signature by contract owner authorizing the transaction"
        }
      },
      "decreaseAllowance(address,uint256)": {
        "details": "Decrease the amount of tokens that an owner allowed to a spender. approve should be called when allowed_[_spender] == 0. To decrement allowed value is better to use this function to avoid 2 calls (and wait until the first transaction is mined) From MonolithDAO Token.sol Emits an Approval event.",
        "params": {
          "spender": "The address which will spend the funds.",
          "subtractedValue": "The amount of tokens to decrease the allowance by."
        }
      },
      "increaseAllowance(address,uint256)": {
        "details": "Increase the amount of tokens that an owner allowed to a spender. approve should be called when allowed_[_spender] == 0. To increment allowed value is better to use this function to avoid 2 calls (and wait until the first transaction is mined) From MonolithDAO Token.sol Emits an Approval event.",
        "params": {
          "addedValue": "The amount of tokens to increase the allowance by.",
          "spender": "The address which will spend the funds."
        }
      },
      "initialize(string,uint8,string,string,address,uint256,uint256,uint256)": {
        "details": "PreInflationaryToken constructor",
        "params": {
          "_devFundAddress": "Address that receives and manages newly minted tokens for development fund",
          "_halvingTime": "Number of blocks after which reward halves (e.g. 2102400 for 1 year on Ethereum based on 15 seconds block time)",
          "_initBlockReward": "Number of released inflationary tokens per block during the first period - should be multiple of a power of 2 (at least 2^_lastHalvingPeriod) to make halving simple",
          "_lastHalvingPeriod": "Number of halvingTime periods after which the reward should stay constant"
        }
      },
      "isOwner()": {
        "return": "true if `msg.sender` is the owner of the contract."
      },
      "mint(address,uint256)": {
        "details": "Function to mint tokens",
        "params": {
          "to": "The address that will receive the minted tokens.",
          "value": "The amount of tokens to mint."
        },
        "return": "A boolean that indicates if the operation was successful."
      },
      "nonceOf(address)": {
        "details": "Nonce of user",
        "params": {
          "_account": "User account address"
        },
        "return": "nonce of user"
      },
      "owner()": {
        "return": "the address of the owner."
      },
      "releaseTokens()": {
        "details": "Calculate and release currently releasable inflationary rewards. "
      },
      "renounceOwnership()": {
        "details": "Allows the current owner to relinquish control of the contract."
      },
      "totalSupply()": {
        "details": "Total number of tokens in existence"
      },
      "transfer(address,uint256)": {
        "details": "Transfer token for a specified address",
        "params": {
          "to": "The address to transfer to.",
          "value": "The amount to be transferred."
        }
      },
      "transferFrom(address,address,uint256)": {
        "details": "Transfer tokens from one address to another. Note that while this function emits an Approval event, this is not required as per the specification, and other compliant implementations may not emit the event.",
        "params": {
          "from": "address The address which you want to send tokens from",
          "to": "address The address which you want to transfer to",
          "value": "uint256 the amount of tokens to be transferred"
        }
      },
      "transferOwnership(address)": {
        "details": "Allows the current owner to transfer control of the contract to a newOwner.",
        "params": {
          "newOwner": "The address to transfer ownership to."
        }
      }
    },
    "title": "An Inflationary Token with Premint and Gradual Release"
  },
  "userdoc": {
    "methods": {
      "renounceOwnership()": {
        "notice": "Renouncing to ownership will leave the contract without an owner. It will not be possible to call the functions with the `onlyOwner` modifier anymore."
      }
    }
  }
}