{
  "contractName": "InflationaryToken",
  "abi": [
    {
      "constant": true,
      "inputs": [],
      "name": "name",
      "outputs": [
        {
          "name": "",
          "type": "string"
        }
      ],
      "payable": false,
      "stateMutability": "view",
      "type": "function"
    },
    {
      "constant": false,
      "inputs": [
        {
          "name": "spender",
          "type": "address"
        },
        {
          "name": "value",
          "type": "uint256"
        }
      ],
      "name": "approve",
      "outputs": [
        {
          "name": "",
          "type": "bool"
        }
      ],
      "payable": false,
      "stateMutability": "nonpayable",
      "type": "function"
    },
    {
      "constant": true,
      "inputs": [],
      "name": "totalSupply",
      "outputs": [
        {
          "name": "",
          "type": "uint256"
        }
      ],
      "payable": false,
      "stateMutability": "view",
      "type": "function"
    },
    {
      "constant": false,
      "inputs": [
        {
          "name": "from",
          "type": "address"
        },
        {
          "name": "to",
          "type": "address"
        },
        {
          "name": "value",
          "type": "uint256"
        }
      ],
      "name": "transferFrom",
      "outputs": [
        {
          "name": "",
          "type": "bool"
        }
      ],
      "payable": false,
      "stateMutability": "nonpayable",
      "type": "function"
    },
    {
      "constant": true,
      "inputs": [],
      "name": "currentMintedTokens",
      "outputs": [
        {
          "name": "",
          "type": "uint256"
        }
      ],
      "payable": false,
      "stateMutability": "view",
      "type": "function"
    },
    {
      "constant": true,
      "inputs": [],
      "name": "decimals",
      "outputs": [
        {
          "name": "",
          "type": "uint8"
        }
      ],
      "payable": false,
      "stateMutability": "view",
      "type": "function"
    },
    {
      "constant": true,
      "inputs": [],
      "name": "inflationRate",
      "outputs": [
        {
          "name": "",
          "type": "uint256"
        }
      ],
      "payable": false,
      "stateMutability": "view",
      "type": "function"
    },
    {
      "constant": true,
      "inputs": [],
      "name": "initialSupply",
      "outputs": [
        {
          "name": "",
          "type": "uint256"
        }
      ],
      "payable": false,
      "stateMutability": "view",
      "type": "function"
    },
    {
      "constant": false,
      "inputs": [
        {
          "name": "spender",
          "type": "address"
        },
        {
          "name": "addedValue",
          "type": "uint256"
        }
      ],
      "name": "increaseAllowance",
      "outputs": [
        {
          "name": "",
          "type": "bool"
        }
      ],
      "payable": false,
      "stateMutability": "nonpayable",
      "type": "function"
    },
    {
      "constant": false,
      "inputs": [
        {
          "name": "to",
          "type": "address"
        },
        {
          "name": "value",
          "type": "uint256"
        }
      ],
      "name": "mint",
      "outputs": [
        {
          "name": "",
          "type": "bool"
        }
      ],
      "payable": false,
      "stateMutability": "nonpayable",
      "type": "function"
    },
    {
      "constant": true,
      "inputs": [],
      "name": "startBlock",
      "outputs": [
        {
          "name": "",
          "type": "uint256"
        }
      ],
      "payable": false,
      "stateMutability": "view",
      "type": "function"
    },
    {
      "constant": true,
      "inputs": [],
      "name": "version",
      "outputs": [
        {
          "name": "",
          "type": "string"
        }
      ],
      "payable": false,
      "stateMutability": "view",
      "type": "function"
    },
    {
      "constant": true,
      "inputs": [
        {
          "name": "owner",
          "type": "address"
        }
      ],
      "name": "balanceOf",
      "outputs": [
        {
          "name": "",
          "type": "uint256"
        }
      ],
      "payable": false,
      "stateMutability": "view",
      "type": "function"
    },
    {
      "constant": false,
      "inputs": [],
      "name": "renounceOwnership",
      "outputs": [],
      "payable": false,
      "stateMutability": "nonpayable",
      "type": "function"
    },
    {
      "constant": true,
      "inputs": [],
      "name": "lastInitializedRound",
      "outputs": [
        {
          "name": "",
          "type": "uint256"
        }
      ],
      "payable": false,
      "stateMutability": "view",
      "type": "function"
    },
    {
      "constant": true,
      "inputs": [],
      "name": "roundLength",
      "outputs": [
        {
          "name": "",
          "type": "uint256"
        }
      ],
      "payable": false,
      "stateMutability": "view",
      "type": "function"
    },
    {
      "constant": true,
      "inputs": [],
      "name": "owner",
      "outputs": [
        {
          "name": "",
          "type": "address"
        }
      ],
      "payable": false,
      "stateMutability": "view",
      "type": "function"
    },
    {
      "constant": true,
      "inputs": [],
      "name": "isOwner",
      "outputs": [
        {
          "name": "",
          "type": "bool"
        }
      ],
      "payable": false,
      "stateMutability": "view",
      "type": "function"
    },
    {
      "constant": true,
      "inputs": [],
      "name": "symbol",
      "outputs": [
        {
          "name": "",
          "type": "string"
        }
      ],
      "payable": false,
      "stateMutability": "view",
      "type": "function"
    },
    {
      "constant": false,
      "inputs": [
        {
          "name": "account",
          "type": "address"
        }
      ],
      "name": "addMinter",
      "outputs": [],
      "payable": false,
      "stateMutability": "nonpayable",
      "type": "function"
    },
    {
      "constant": false,
      "inputs": [],
      "name": "renounceMinter",
      "outputs": [],
      "payable": false,
      "stateMutability": "nonpayable",
      "type": "function"
    },
    {
      "constant": true,
      "inputs": [],
      "name": "currentMintableTokens",
      "outputs": [
        {
          "name": "",
          "type": "uint256"
        }
      ],
      "payable": false,
      "stateMutability": "view",
      "type": "function"
    },
    {
      "constant": false,
      "inputs": [
        {
          "name": "spender",
          "type": "address"
        },
        {
          "name": "subtractedValue",
          "type": "uint256"
        }
      ],
      "name": "decreaseAllowance",
      "outputs": [
        {
          "name": "",
          "type": "bool"
        }
      ],
      "payable": false,
      "stateMutability": "nonpayable",
      "type": "function"
    },
    {
      "constant": false,
      "inputs": [
        {
          "name": "to",
          "type": "address"
        },
        {
          "name": "value",
          "type": "uint256"
        }
      ],
      "name": "transfer",
      "outputs": [
        {
          "name": "",
          "type": "bool"
        }
      ],
      "payable": false,
      "stateMutability": "nonpayable",
      "type": "function"
    },
    {
      "constant": true,
      "inputs": [
        {
          "name": "account",
          "type": "address"
        }
      ],
      "name": "isMinter",
      "outputs": [
        {
          "name": "",
          "type": "bool"
        }
      ],
      "payable": false,
      "stateMutability": "view",
      "type": "function"
    },
    {
      "constant": true,
      "inputs": [],
      "name": "distributor",
      "outputs": [
        {
          "name": "",
          "type": "address"
        }
      ],
      "payable": false,
      "stateMutability": "view",
      "type": "function"
    },
    {
      "constant": true,
      "inputs": [
        {
          "name": "owner",
          "type": "address"
        },
        {
          "name": "spender",
          "type": "address"
        }
      ],
      "name": "allowance",
      "outputs": [
        {
          "name": "",
          "type": "uint256"
        }
      ],
      "payable": false,
      "stateMutability": "view",
      "type": "function"
    },
    {
      "constant": false,
      "inputs": [
        {
          "name": "newOwner",
          "type": "address"
        }
      ],
      "name": "transferOwnership",
      "outputs": [],
      "payable": false,
      "stateMutability": "nonpayable",
      "type": "function"
    },
    {
      "anonymous": false,
      "inputs": [
        {
          "indexed": false,
          "name": "round",
          "type": "uint256"
        }
      ],
      "name": "NewRound",
      "type": "event"
    },
    {
      "anonymous": false,
      "inputs": [
        {
          "indexed": false,
          "name": "param",
          "type": "string"
        }
      ],
      "name": "ParameterUpdate",
      "type": "event"
    },
    {
      "anonymous": false,
      "inputs": [
        {
          "indexed": true,
          "name": "account",
          "type": "address"
        }
      ],
      "name": "MinterAdded",
      "type": "event"
    },
    {
      "anonymous": false,
      "inputs": [
        {
          "indexed": true,
          "name": "account",
          "type": "address"
        }
      ],
      "name": "MinterRemoved",
      "type": "event"
    },
    {
      "anonymous": false,
      "inputs": [
        {
          "indexed": true,
          "name": "previousOwner",
          "type": "address"
        },
        {
          "indexed": true,
          "name": "newOwner",
          "type": "address"
        }
      ],
      "name": "OwnershipTransferred",
      "type": "event"
    },
    {
      "anonymous": false,
      "inputs": [
        {
          "indexed": true,
          "name": "from",
          "type": "address"
        },
        {
          "indexed": true,
          "name": "to",
          "type": "address"
        },
        {
          "indexed": false,
          "name": "value",
          "type": "uint256"
        }
      ],
      "name": "Transfer",
      "type": "event"
    },
    {
      "anonymous": false,
      "inputs": [
        {
          "indexed": true,
          "name": "owner",
          "type": "address"
        },
        {
          "indexed": true,
          "name": "spender",
          "type": "address"
        },
        {
          "indexed": false,
          "name": "value",
          "type": "uint256"
        }
      ],
      "name": "Approval",
      "type": "event"
    },
    {
      "constant": false,
      "inputs": [
        {
          "name": "_name",
          "type": "string"
        },
        {
          "name": "_decimals",
          "type": "uint8"
        },
        {
          "name": "_symbol",
          "type": "string"
        },
        {
          "name": "_version",
          "type": "string"
        },
        {
          "name": "_inflationRate",
          "type": "uint256"
        },
        {
          "name": "_initialSupply",
          "type": "uint256"
        },
        {
          "name": "_distributor",
          "type": "address"
        },
        {
          "name": "_roundLength",
          "type": "uint256"
        }
      ],
      "name": "initialize",
      "outputs": [],
      "payable": false,
      "stateMutability": "nonpayable",
      "type": "function"
    },
    {
      "constant": false,
      "inputs": [
        {
          "name": "sender",
          "type": "address"
        }
      ],
      "name": "initialize",
      "outputs": [],
      "payable": false,
      "stateMutability": "nonpayable",
      "type": "function"
    },
    {
      "constant": false,
      "inputs": [],
      "name": "mintInitialSupply",
      "outputs": [],
      "payable": false,
      "stateMutability": "nonpayable",
      "type": "function"
    },
    {
      "constant": false,
      "inputs": [],
      "name": "mintCurrentInflation",
      "outputs": [],
      "payable": false,
      "stateMutability": "nonpayable",
      "type": "function"
    },
    {
      "constant": false,
      "inputs": [],
      "name": "initializeRound",
      "outputs": [],
      "payable": false,
      "stateMutability": "nonpayable",
      "type": "function"
    },
    {
      "constant": true,
      "inputs": [],
      "name": "currentRound",
      "outputs": [
        {
          "name": "",
          "type": "uint256"
        }
      ],
      "payable": false,
      "stateMutability": "view",
      "type": "function"
    },
    {
      "constant": true,
      "inputs": [],
      "name": "blockNum",
      "outputs": [
        {
          "name": "",
          "type": "uint256"
        }
      ],
      "payable": false,
      "stateMutability": "view",
      "type": "function"
    },
    {
      "constant": false,
      "inputs": [],
      "name": "blockMiner",
      "outputs": [],
      "payable": false,
      "stateMutability": "nonpayable",
      "type": "function"
    }
  ],
  "bytecode": "0x608060405234801561001057600080fd5b50612ca2806100206000396000f3fe6080604052600436106101c2576000357c0100000000000000000000000000000000000000000000000000000000900463ffffffff16806306fdde03146101c7578063095ea7b314610257578063136c1a78146102ca57806318160ddd146102e157806323b872dd1461030c5780632de22cdb1461039f578063313ce567146103ca57806331f9e35b146103fb578063370dc8ff14610426578063378dc3dc14610668578063395093511461069357806340c10f191461070657806344f7200b1461077957806348cd4cb11461079057806354fd4d50146107bb57806370a082311461084b578063715018a6146108b05780638807f36e146108c75780638a19c8bc146108f25780638ae63d6d1461091d5780638b649b94146109485780638da5cb5b146109735780638f32d59b146109ca57806395d89b41146109f9578063983b2d5614610a895780639865027514610ada5780639ae6309a14610af1578063a457c2d714610b1c578063a7fd973314610b8f578063a9059cbb14610ba6578063aa271e1a14610c19578063bfe1092814610c82578063c4d66de814610cd9578063d4807fb214610d2a578063dd62ed3e14610d41578063f2fde38b14610dc6575b600080fd5b3480156101d357600080fd5b506101dc610e17565b6040518080602001828103825283818151815260200191508051906020019080838360005b8381101561021c578082015181840152602081019050610201565b50505050905090810190601f1680156102495780820380516001836020036101000a031916815260200191505b509250505060405180910390f35b34801561026357600080fd5b506102b06004803603604081101561027a57600080fd5b81019080803573ffffffffffffffffffffffffffffffffffffffff16906020019092919080359060200190929190505050610eb6565b604051808215151515815260200191505060405180910390f35b3480156102d657600080fd5b506102df610fe3565b005b3480156102ed57600080fd5b506102f6611016565b6040518082815260200191505060405180910390f35b34801561031857600080fd5b506103856004803603606081101561032f57600080fd5b81019080803573ffffffffffffffffffffffffffffffffffffffff169060200190929190803573ffffffffffffffffffffffffffffffffffffffff16906020019092919080359060200190929190505050611020565b604051808215151515815260200191505060405180910390f35b3480156103ab57600080fd5b506103b4611228565b6040518082815260200191505060405180910390f35b3480156103d657600080fd5b506103df61122f565b604051808260ff1660ff16815260200191505060405180910390f35b34801561040757600080fd5b50610410611243565b6040518082815260200191505060405180910390f35b34801561043257600080fd5b50610666600480360361010081101561044a57600080fd5b810190808035906020019064010000000081111561046757600080fd5b82018360208201111561047957600080fd5b8035906020019184600183028401116401000000008311171561049b57600080fd5b91908080601f016020809104026020016040519081016040528093929190818152602001838380828437600081840152601f19601f820116905080830192505050505050509192919290803560ff1690602001909291908035906020019064010000000081111561050b57600080fd5b82018360208201111561051d57600080fd5b8035906020019184600183028401116401000000008311171561053f57600080fd5b91908080601f016020809104026020016040519081016040528093929190818152602001838380828437600081840152601f19601f820116905080830192505050505050509192919290803590602001906401000000008111156105a257600080fd5b8201836020820111156105b457600080fd5b803590602001918460018302840111640100000000831117156105d657600080fd5b91908080601f016020809104026020016040519081016040528093929190818152602001838380828437600081840152601f19601f8201169050808301925050505050505091929192908035906020019092919080359060200190929190803573ffffffffffffffffffffffffffffffffffffffff1690602001909291908035906020019092919050505061124a565b005b34801561067457600080fd5b5061067d6114dc565b6040518082815260200191505060405180910390f35b34801561069f57600080fd5b506106ec600480360360408110156106b657600080fd5b81019080803573ffffffffffffffffffffffffffffffffffffffff169060200190929190803590602001909291905050506114e3565b604051808215151515815260200191505060405180910390f35b34801561071257600080fd5b5061075f6004803603604081101561072957600080fd5b81019080803573ffffffffffffffffffffffffffffffffffffffff1690602001909291908035906020019092919050505061171a565b604051808215151515815260200191505060405180910390f35b34801561078557600080fd5b5061078e611744565b005b34801561079c57600080fd5b506107a5611793565b6040518082815260200191505060405180910390f35b3480156107c757600080fd5b506107d061179a565b6040518080602001828103825283818151815260200191508051906020019080838360005b838110156108105780820151818401526020810190506107f5565b50505050905090810190601f16801561083d5780820380516001836020036101000a031916815260200191505b509250505060405180910390f35b34801561085757600080fd5b5061089a6004803603602081101561086e57600080fd5b81019080803573ffffffffffffffffffffffffffffffffffffffff169060200190929190505050611839565b6040518082815260200191505060405180910390f35b3480156108bc57600080fd5b506108c5611882565b005b3480156108d357600080fd5b506108dc611956565b6040518082815260200191505060405180910390f35b3480156108fe57600080fd5b5061090761195d565b6040518082815260200191505060405180910390f35b34801561092957600080fd5b5061093261199b565b6040518082815260200191505060405180910390f35b34801561095457600080fd5b5061095d6119a3565b6040518082815260200191505060405180910390f35b34801561097f57600080fd5b506109886119aa565b604051808273ffffffffffffffffffffffffffffffffffffffff1673ffffffffffffffffffffffffffffffffffffffff16815260200191505060405180910390f35b3480156109d657600080fd5b506109df6119d4565b604051808215151515815260200191505060405180910390f35b348015610a0557600080fd5b50610a0e611a2c565b6040518080602001828103825283818151815260200191508051906020019080838360005b83811015610a4e578082015181840152602081019050610a33565b50505050905090810190601f168015610a7b5780820380516001836020036101000a031916815260200191505b509250505060405180910390f35b348015610a9557600080fd5b50610ad860048036036020811015610aac57600080fd5b81019080803573ffffffffffffffffffffffffffffffffffffffff169060200190929190505050611acb565b005b348015610ae657600080fd5b50610aef611aeb565b005b348015610afd57600080fd5b50610b06611af6565b6040518082815260200191505060405180910390f35b348015610b2857600080fd5b50610b7560048036036040811015610b3f57600080fd5b81019080803573ffffffffffffffffffffffffffffffffffffffff16906020019092919080359060200190929190505050611afd565b604051808215151515815260200191505060405180910390f35b348015610b9b57600080fd5b50610ba4611d34565b005b348015610bb257600080fd5b50610bff60048036036040811015610bc957600080fd5b81019080803573ffffffffffffffffffffffffffffffffffffffff16906020019092919080359060200190929190505050611d67565b604051808215151515815260200191505060405180910390f35b348015610c2557600080fd5b50610c6860048036036020811015610c3c57600080fd5b81019080803573ffffffffffffffffffffffffffffffffffffffff169060200190929190505050611d7e565b604051808215151515815260200191505060405180910390f35b348015610c8e57600080fd5b50610c97611d9b565b604051808273ffffffffffffffffffffffffffffffffffffffff1673ffffffffffffffffffffffffffffffffffffffff16815260200191505060405180910390f35b348015610ce557600080fd5b50610d2860048036036020811015610cfc57600080fd5b81019080803573ffffffffffffffffffffffffffffffffffffffff169060200190929190505050611dc2565b005b348015610d3657600080fd5b50610d3f611f01565b005b348015610d4d57600080fd5b50610db060048036036040811015610d6457600080fd5b81019080803573ffffffffffffffffffffffffffffffffffffffff169060200190929190803573ffffffffffffffffffffffffffffffffffffffff169060200190929190505050611ff8565b6040518082815260200191505060405180910390f35b348015610dd257600080fd5b50610e1560048036036020811015610de957600080fd5b81019080803573ffffffffffffffffffffffffffffffffffffffff16906020019092919050505061207f565b005b6101008054600181600116156101000203166002900480601f016020809104026020016040519081016040528092919081815260200182805460018160011615610100020316600290048015610eae5780601f10610e8357610100808354040283529160200191610eae565b820191906000526020600020905b815481529060010190602001808311610e9157829003601f168201915b505050505081565b60008073ffffffffffffffffffffffffffffffffffffffff168373ffffffffffffffffffffffffffffffffffffffff1614151515610ef357600080fd5b81603460003373ffffffffffffffffffffffffffffffffffffffff1673ffffffffffffffffffffffffffffffffffffffff16815260200190815260200160002060008573ffffffffffffffffffffffffffffffffffffffff1673ffffffffffffffffffffffffffffffffffffffff168152602001908152602001600020819055508273ffffffffffffffffffffffffffffffffffffffff163373ffffffffffffffffffffffffffffffffffffffff167f8c5be1e5ebec7d5bd14f71427d1e84f3dd0314c0f7b2291e5b200ac8c7c3b925846040518082815260200191505060405180910390a36001905092915050565b61101361010660009054906101000a900473ffffffffffffffffffffffffffffffffffffffff166101085461171a565b50565b6000603554905090565b60006110b182603460008773ffffffffffffffffffffffffffffffffffffffff1673ffffffffffffffffffffffffffffffffffffffff16815260200190815260200160002060003373ffffffffffffffffffffffffffffffffffffffff1673ffffffffffffffffffffffffffffffffffffffff1681526020019081526020016000205461209e90919063ffffffff16565b603460008673ffffffffffffffffffffffffffffffffffffffff1673ffffffffffffffffffffffffffffffffffffffff16815260200190815260200160002060003373ffffffffffffffffffffffffffffffffffffffff1673ffffffffffffffffffffffffffffffffffffffff1681526020019081526020016000208190555061113c8484846120c0565b3373ffffffffffffffffffffffffffffffffffffffff168473ffffffffffffffffffffffffffffffffffffffff167f8c5be1e5ebec7d5bd14f71427d1e84f3dd0314c0f7b2291e5b200ac8c7c3b925603460008873ffffffffffffffffffffffffffffffffffffffff1673ffffffffffffffffffffffffffffffffffffffff16815260200190815260200160002060003373ffffffffffffffffffffffffffffffffffffffff1673ffffffffffffffffffffffffffffffffffffffff168152602001908152602001600020546040518082815260200191505060405180910390a3600190509392505050565b6101095481565b61010160009054906101000a900460ff1681565b6101055481565b600060019054906101000a900460ff16806112695750611268612290565b5b8061128057506000809054906101000a900460ff16155b151561131a576040517f08c379a000000000000000000000000000000000000000000000000000000000815260040180806020018281038252602e8152602001807f436f6e747261637420696e7374616e63652068617320616c726561647920626581526020017f656e20696e697469616c697a656400000000000000000000000000000000000081525060400191505060405180910390fd5b60008060019054906101000a900460ff1690506001600060016101000a81548160ff02191690831515021790555060016000806101000a81548160ff02191690831515021790555061136b836122a1565b61137483611dc2565b88610100908051906020019061138b929190612bd1565b508761010160006101000a81548160ff021916908360ff1602179055508661010290805190602001906113bf929190612bd1565b508561010390805190602001906113d7929190612bd1565b506113e185612495565b1515611455576040517f08c379a00000000000000000000000000000000000000000000000000000000081526004018080602001828103825260178152602001807f496e76616c696420696e666c6174696f6e2076616c756500000000000000000081525060200191505060405180910390fd5b846101058190555083610104819055508261010660006101000a81548173ffffffffffffffffffffffffffffffffffffffff021916908373ffffffffffffffffffffffffffffffffffffffff16021790555081610107819055504361010b8190555080600060016101000a81548160ff021916908315150217905550505050505050505050565b6101045481565b60008073ffffffffffffffffffffffffffffffffffffffff168373ffffffffffffffffffffffffffffffffffffffff161415151561152057600080fd5b6115af82603460003373ffffffffffffffffffffffffffffffffffffffff1673ffffffffffffffffffffffffffffffffffffffff16815260200190815260200160002060008673ffffffffffffffffffffffffffffffffffffffff1673ffffffffffffffffffffffffffffffffffffffff168152602001908152602001600020546124a590919063ffffffff16565b603460003373ffffffffffffffffffffffffffffffffffffffff1673ffffffffffffffffffffffffffffffffffffffff16815260200190815260200160002060008573ffffffffffffffffffffffffffffffffffffffff1673ffffffffffffffffffffffffffffffffffffffff168152602001908152602001600020819055508273ffffffffffffffffffffffffffffffffffffffff163373ffffffffffffffffffffffffffffffffffffffff167f8c5be1e5ebec7d5bd14f71427d1e84f3dd0314c0f7b2291e5b200ac8c7c3b925603460003373ffffffffffffffffffffffffffffffffffffffff1673ffffffffffffffffffffffffffffffffffffffff16815260200190815260200160002060008773ffffffffffffffffffffffffffffffffffffffff1673ffffffffffffffffffffffffffffffffffffffff168152602001908152602001600020546040518082815260200191505060405180910390a36001905092915050565b600061172533611d7e565b151561173057600080fd5b61173a83836124c6565b6001905092915050565b6040805190810160405280600781526020017f4e65774e616d65000000000000000000000000000000000000000000000000008152506101009080519060200190611790929190612bd1565b50565b61010b5481565b6101038054600181600116156101000203166002900480601f0160208091040260200160405190810160405280929190818152602001828054600181600116156101000203166002900480156118315780601f1061180657610100808354040283529160200191611831565b820191906000526020600020905b81548152906001019060200180831161181457829003601f168201915b505050505081565b6000603360008373ffffffffffffffffffffffffffffffffffffffff1673ffffffffffffffffffffffffffffffffffffffff168152602001908152602001600020549050919050565b61188a6119d4565b151561189557600080fd5b600073ffffffffffffffffffffffffffffffffffffffff16606860009054906101000a900473ffffffffffffffffffffffffffffffffffffffff1673ffffffffffffffffffffffffffffffffffffffff167f8be0079c531659141344cd1fd0a4f28419497f9722a3daafe3b4186f6b6457e060405160405180910390a36000606860006101000a81548173ffffffffffffffffffffffffffffffffffffffff021916908373ffffffffffffffffffffffffffffffffffffffff160217905550565b61010a5481565b6000806119926101075461198461010b5461197661199b565b61209e90919063ffffffff16565b61261c90919063ffffffff16565b90508091505090565b600043905090565b6101075481565b6000606860009054906101000a900473ffffffffffffffffffffffffffffffffffffffff16905090565b6000606860009054906101000a900473ffffffffffffffffffffffffffffffffffffffff1673ffffffffffffffffffffffffffffffffffffffff163373ffffffffffffffffffffffffffffffffffffffff1614905090565b6101028054600181600116156101000203166002900480601f016020809104026020016040519081016040528092919081815260200182805460018160011615610100020316600290048015611ac35780601f10611a9857610100808354040283529160200191611ac3565b820191906000526020600020905b815481529060010190602001808311611aa657829003601f168201915b505050505081565b611ad433611d7e565b1515611adf57600080fd5b611ae881612646565b50565b611af4336126a0565b565b6101085481565b60008073ffffffffffffffffffffffffffffffffffffffff168373ffffffffffffffffffffffffffffffffffffffff1614151515611b3a57600080fd5b611bc982603460003373ffffffffffffffffffffffffffffffffffffffff1673ffffffffffffffffffffffffffffffffffffffff16815260200190815260200160002060008673ffffffffffffffffffffffffffffffffffffffff1673ffffffffffffffffffffffffffffffffffffffff1681526020019081526020016000205461209e90919063ffffffff16565b603460003373ffffffffffffffffffffffffffffffffffffffff1673ffffffffffffffffffffffffffffffffffffffff16815260200190815260200160002060008573ffffffffffffffffffffffffffffffffffffffff1673ffffffffffffffffffffffffffffffffffffffff168152602001908152602001600020819055508273ffffffffffffffffffffffffffffffffffffffff163373ffffffffffffffffffffffffffffffffffffffff167f8c5be1e5ebec7d5bd14f71427d1e84f3dd0314c0f7b2291e5b200ac8c7c3b925603460003373ffffffffffffffffffffffffffffffffffffffff1673ffffffffffffffffffffffffffffffffffffffff16815260200190815260200160002060008773ffffffffffffffffffffffffffffffffffffffff1673ffffffffffffffffffffffffffffffffffffffff168152602001908152602001600020546040518082815260200191505060405180910390a36001905092915050565b611d6461010660009054906101000a900473ffffffffffffffffffffffffffffffffffffffff166101045461171a565b50565b6000611d743384846120c0565b6001905092915050565b6000611d9482609b6126fa90919063ffffffff16565b9050919050565b61010660009054906101000a900473ffffffffffffffffffffffffffffffffffffffff1681565b600060019054906101000a900460ff1680611de15750611de0612290565b5b80611df857506000809054906101000a900460ff16155b1515611e92576040517f08c379a000000000000000000000000000000000000000000000000000000000815260040180806020018281038252602e8152602001807f436f6e747261637420696e7374616e63652068617320616c726561647920626581526020017f656e20696e697469616c697a656400000000000000000000000000000000000081525060400191505060405180910390fd5b60008060019054906101000a900460ff1690506001600060016101000a81548160ff02191690831515021790555060016000806101000a81548160ff021916908315150217905550611ee38261278e565b80600060016101000a81548160ff0219169083151502179055505050565b6000611f0b61195d565b90508061010a54101515611fad576040517f08c379a00000000000000000000000000000000000000000000000000000000081526004018080602001828103825260218152602001807f43757272656e7420726f756e6420616c726561647920696e697469616c697a6581526020017f640000000000000000000000000000000000000000000000000000000000000081525060400191505060405180910390fd5b8061010a81905550611fbd6128dd565b507fa2b5357eea32aeb35142ba36b087f9fe674f34f8b57ce94d30e9f4f572195bcf816040518082815260200191505060405180910390a150565b6000603460008473ffffffffffffffffffffffffffffffffffffffff1673ffffffffffffffffffffffffffffffffffffffff16815260200190815260200160002060008373ffffffffffffffffffffffffffffffffffffffff1673ffffffffffffffffffffffffffffffffffffffff16815260200190815260200160002054905092915050565b6120876119d4565b151561209257600080fd5b61209b81612906565b50565b60008282111515156120af57600080fd5b600082840390508091505092915050565b600073ffffffffffffffffffffffffffffffffffffffff168273ffffffffffffffffffffffffffffffffffffffff16141515156120fc57600080fd5b61214e81603360008673ffffffffffffffffffffffffffffffffffffffff1673ffffffffffffffffffffffffffffffffffffffff1681526020019081526020016000205461209e90919063ffffffff16565b603360008573ffffffffffffffffffffffffffffffffffffffff1673ffffffffffffffffffffffffffffffffffffffff168152602001908152602001600020819055506121e381603360008573ffffffffffffffffffffffffffffffffffffffff1673ffffffffffffffffffffffffffffffffffffffff168152602001908152602001600020546124a590919063ffffffff16565b603360008473ffffffffffffffffffffffffffffffffffffffff1673ffffffffffffffffffffffffffffffffffffffff168152602001908152602001600020819055508173ffffffffffffffffffffffffffffffffffffffff168373ffffffffffffffffffffffffffffffffffffffff167fddf252ad1be2c89b69c2b068fc378daa952ba7f163c4a11628f55a4df523b3ef836040518082815260200191505060405180910390a3505050565b600080303b90506000811491505090565b600060019054906101000a900460ff16806122c057506122bf612290565b5b806122d757506000809054906101000a900460ff16155b1515612371576040517f08c379a000000000000000000000000000000000000000000000000000000000815260040180806020018281038252602e8152602001807f436f6e747261637420696e7374616e63652068617320616c726561647920626581526020017f656e20696e697469616c697a656400000000000000000000000000000000000081525060400191505060405180910390fd5b60008060019054906101000a900460ff1690506001600060016101000a81548160ff02191690831515021790555060016000806101000a81548160ff02191690831515021790555081606860006101000a81548173ffffffffffffffffffffffffffffffffffffffff021916908373ffffffffffffffffffffffffffffffffffffffff160217905550606860009054906101000a900473ffffffffffffffffffffffffffffffffffffffff1673ffffffffffffffffffffffffffffffffffffffff16600073ffffffffffffffffffffffffffffffffffffffff167f8be0079c531659141344cd1fd0a4f28419497f9722a3daafe3b4186f6b6457e060405160405180910390a380600060016101000a81548160ff0219169083151502179055505050565b6000620f42408211159050919050565b60008082840190508381101515156124bc57600080fd5b8091505092915050565b600073ffffffffffffffffffffffffffffffffffffffff168273ffffffffffffffffffffffffffffffffffffffff161415151561250257600080fd5b612517816035546124a590919063ffffffff16565b60358190555061256f81603360008573ffffffffffffffffffffffffffffffffffffffff1673ffffffffffffffffffffffffffffffffffffffff168152602001908152602001600020546124a590919063ffffffff16565b603360008473ffffffffffffffffffffffffffffffffffffffff1673ffffffffffffffffffffffffffffffffffffffff168152602001908152602001600020819055508173ffffffffffffffffffffffffffffffffffffffff16600073ffffffffffffffffffffffffffffffffffffffff167fddf252ad1be2c89b69c2b068fc378daa952ba7f163c4a11628f55a4df523b3ef836040518082815260200191505060405180910390a35050565b6000808211151561262c57600080fd5b6000828481151561263957fe5b0490508091505092915050565b61265a81609b612a0290919063ffffffff16565b8073ffffffffffffffffffffffffffffffffffffffff167f6ae172837ea30b801fbfcdd4108aa1d5bf8ff775444fd70256b44e6bf3dfc3f660405160405180910390a250565b6126b481609b612ab290919063ffffffff16565b8073ffffffffffffffffffffffffffffffffffffffff167fe94479a9f7e1952cc78f2d6baab678adc1b772d936c6583def489e524cb6669260405160405180910390a250565b60008073ffffffffffffffffffffffffffffffffffffffff168273ffffffffffffffffffffffffffffffffffffffff161415151561273757600080fd5b8260000160008373ffffffffffffffffffffffffffffffffffffffff1673ffffffffffffffffffffffffffffffffffffffff16815260200190815260200160002060009054906101000a900460ff16905092915050565b600060019054906101000a900460ff16806127ad57506127ac612290565b5b806127c457506000809054906101000a900460ff16155b151561285e576040517f08c379a000000000000000000000000000000000000000000000000000000000815260040180806020018281038252602e8152602001807f436f6e747261637420696e7374616e63652068617320616c726561647920626581526020017f656e20696e697469616c697a656400000000000000000000000000000000000081525060400191505060405180910390fd5b60008060019054906101000a900460ff1690506001600060016101000a81548160ff02191690831515021790555060016000806101000a81548160ff0219169083151502179055506128af82611d7e565b15156128bf576128be82612646565b5b80600060016101000a81548160ff0219169083151502179055505050565b60006128f36128ea611016565b61010554612b61565b6101088190555060006101098190555090565b600073ffffffffffffffffffffffffffffffffffffffff168173ffffffffffffffffffffffffffffffffffffffff161415151561294257600080fd5b8073ffffffffffffffffffffffffffffffffffffffff16606860009054906101000a900473ffffffffffffffffffffffffffffffffffffffff1673ffffffffffffffffffffffffffffffffffffffff167f8be0079c531659141344cd1fd0a4f28419497f9722a3daafe3b4186f6b6457e060405160405180910390a380606860006101000a81548173ffffffffffffffffffffffffffffffffffffffff021916908373ffffffffffffffffffffffffffffffffffffffff16021790555050565b600073ffffffffffffffffffffffffffffffffffffffff168173ffffffffffffffffffffffffffffffffffffffff1614151515612a3e57600080fd5b612a4882826126fa565b151515612a5457600080fd5b60018260000160008373ffffffffffffffffffffffffffffffffffffffff1673ffffffffffffffffffffffffffffffffffffffff16815260200190815260200160002060006101000a81548160ff0219169083151502179055505050565b600073ffffffffffffffffffffffffffffffffffffffff168173ffffffffffffffffffffffffffffffffffffffff1614151515612aee57600080fd5b612af882826126fa565b1515612b0357600080fd5b60008260000160008373ffffffffffffffffffffffffffffffffffffffff1673ffffffffffffffffffffffffffffffffffffffff16815260200190815260200160002060006101000a81548160ff0219169083151502179055505050565b6000612b8b620f4240612b7d8486612b9390919063ffffffff16565b61261c90919063ffffffff16565b905092915050565b600080831415612ba65760009050612bcb565b60008284029050828482811515612bb957fe5b04141515612bc657600080fd5b809150505b92915050565b828054600181600116156101000203166002900490600052602060002090601f016020900481019282601f10612c1257805160ff1916838001178555612c40565b82800160010185558215612c40579182015b82811115612c3f578251825591602001919060010190612c24565b5b509050612c4d9190612c51565b5090565b612c7391905b80821115612c6f576000816000905550600101612c57565b5090565b9056fea165627a7a723058205b24424e716b0e18af87a41d98e28a1dcd776b5fd8f791dcbf35b17b1534df6d0029",
  "source": "pragma solidity ^0.5.0;\n\nimport \"openzeppelin-eth/contracts/token/ERC20/ERC20Mintable.sol\";\nimport \"openzeppelin-eth/contracts/token/ERC20/ERC20.sol\";\nimport \"openzeppelin-eth/contracts/ownership/Ownable.sol\";\nimport \"zos-lib/contracts/Initializable.sol\";\nimport \"./MathUtils.sol\";\n\n\n/**\n * @title A General Inflationary Token\n */\n\ncontract InflationaryToken is Initializable, ERC20, Ownable, ERC20Mintable {\n\n    event NewRound(uint256 round);\n    event ParameterUpdate(string param);\n\n    string public name;\n    uint8 public decimals;\n    string public symbol;\n    string public version;\n    uint256 public initialSupply;\n    uint256 public inflationRate;\n    address public distributor;\n    uint256 public roundLength;\n    // Current number of mintable tokens. Reset every round\n    uint256 public currentMintableTokens;\n    // Current number of minted tokens. Reset every round\n    uint256 public currentMintedTokens;\n    // Last initialized round. After first round, this is the last round during which initializeRound() was called\n    uint256 public lastInitializedRound;\n    // Block in which the contract is deployed\n    uint256 public startBlock;\n\n    /**\n     * @dev InflationaryToken constructor\n     * @param _initialSupply Token supply to start off with - gets minted to the distributor on mintInitialSupply()\n     * @param _inflationRate Base inflation rate per round as a percentage of current total token supply (expressed in ppm)\n     * @param _distributor Address of person/contract that receives newly minted tokens\n     * @param _roundLength Round length in blocks\n     */\n    function initialize(\n        string memory _name, \n        uint8 _decimals, \n        string memory _symbol, \n        string memory _version, \n        uint256 _inflationRate,\n        uint256 _initialSupply,\n        address _distributor,\n        uint256 _roundLength\n    )   public \n        initializer \n    {\n        Ownable.initialize(_distributor);\n        ERC20Mintable.initialize(_distributor);\n\n        name = _name;\n        decimals = _decimals;\n        symbol = _symbol;\n        version = _version;\n        // Inflation must be valid percentage\n        require(MathUtils.validPerc(_inflationRate), \"Invalid inflation value\");\n        inflationRate = _inflationRate;\n        initialSupply = _initialSupply;\n        distributor = _distributor;\n        roundLength = _roundLength;\n\n        startBlock = block.number;\n    }\n\n    /**\n     * @dev Mint initial supply. \n            Can only be called by owner.\n     */\n    function mintInitialSupply() external {\n        mint(distributor, initialSupply);\n    }\n\n    /**\n     * @dev Calculate and set the number of mintable tokens for the current round.\n     */\n    function setCurrentInflation() internal returns (uint256) {\n        // At this point we can later dynamically adjust the inflation based e.g. on participation:\n        // setInflation();\n\n        // Set mintable tokens based on current inflation and current total token supply\n        currentMintableTokens = MathUtils.percOf(totalSupply(), inflationRate);\n        currentMintedTokens = 0;\n    }\n\n    /**\n     * @dev Mint inflationary tokens for the round. \n            Can only be called by owner. \n            For now, all inflationary token of the current round get minted at once and go to the distributor.\n            Later this could be called by the user to get the appropriate fraction of currentMintableTokens directly from the contract.\n     */\n    function mintCurrentInflation() public {\n        mint(distributor, currentMintableTokens);\n    }\n\n    /**\n     * @dev Initialize the current round. \n            Can only be called once per round.\n     */\n    function initializeRound() external {\n        uint256 currRound = currentRound();\n\n        // Check if already called for the current round\n        require(lastInitializedRound < currRound, \"Current round already initialized\");\n\n        // Set current round as initialized\n        lastInitializedRound = currRound;\n        // Set active transcoders for the round\n\n        // Set mintable rewards for the round\n        setCurrentInflation();\n\n        emit NewRound(currRound);\n    }\n\n    /**\n     * @dev Return current round\n     */\n    function currentRound() public view returns (uint256) {\n        // Compute # of rounds since start (div truncates quotient)\n        uint256 roundsSinceStart = blockNum().sub(startBlock).div(roundLength);\n        return roundsSinceStart;\n    }\n\n    /**\n     * @dev Return current block number\n     */\n    function blockNum() public view returns (uint256) {\n        return block.number;\n    }\n\n    /**\n     * @dev Mock transaction to simulate change in block number for testing\n     */\n    function blockMiner() public {\n        name = \"NewName\";\n    }\n}\n\n",
  "sourcePath": "/home/achill/Projects/inflationary-token/contracts/InflationaryToken.sol",
  "compiler": {
    "name": "solc",
    "version": "0.5.0+commit.1d4f565a.Emscripten.clang"
  },
  "schemaVersion": "3.0.1",
  "updatedAt": "2019-01-27T23:02:10.821Z",
  "devdoc": {
    "methods": {
      "allowance(address,address)": {
        "details": "Function to check the amount of tokens that an owner allowed to a spender.",
        "params": {
          "owner": "address The address which owns the funds.",
          "spender": "address The address which will spend the funds."
        },
        "return": "A uint256 specifying the amount of tokens still available for the spender."
      },
      "approve(address,uint256)": {
        "details": "Approve the passed address to spend the specified amount of tokens on behalf of msg.sender. Beware that changing an allowance with this method brings the risk that someone may use both the old and the new allowance by unfortunate transaction ordering. One possible solution to mitigate this race condition is to first reduce the spender's allowance to 0 and set the desired value afterwards: https://github.com/ethereum/EIPs/issues/20#issuecomment-263524729",
        "params": {
          "spender": "The address which will spend the funds.",
          "value": "The amount of tokens to be spent."
        }
      },
      "balanceOf(address)": {
        "details": "Gets the balance of the specified address.",
        "params": {
          "owner": "The address to query the balance of."
        },
        "return": "An uint256 representing the amount owned by the passed address."
      },
      "blockMiner()": {
        "details": "Mock transaction to simulate change in block number for testing"
      },
      "blockNum()": {
        "details": "Return current block number"
      },
      "currentRound()": {
        "details": "Return current round"
      },
      "decreaseAllowance(address,uint256)": {
        "details": "Decrease the amount of tokens that an owner allowed to a spender. approve should be called when allowed_[_spender] == 0. To decrement allowed value is better to use this function to avoid 2 calls (and wait until the first transaction is mined) From MonolithDAO Token.sol Emits an Approval event.",
        "params": {
          "spender": "The address which will spend the funds.",
          "subtractedValue": "The amount of tokens to decrease the allowance by."
        }
      },
      "increaseAllowance(address,uint256)": {
        "details": "Increase the amount of tokens that an owner allowed to a spender. approve should be called when allowed_[_spender] == 0. To increment allowed value is better to use this function to avoid 2 calls (and wait until the first transaction is mined) From MonolithDAO Token.sol Emits an Approval event.",
        "params": {
          "addedValue": "The amount of tokens to increase the allowance by.",
          "spender": "The address which will spend the funds."
        }
      },
      "initialize(string,uint8,string,string,uint256,uint256,address,uint256)": {
        "details": "InflationaryToken constructor",
        "params": {
          "_distributor": "Address of person/contract that receives newly minted tokens",
          "_inflationRate": "Base inflation rate per round as a percentage of current total token supply (expressed in ppm)",
          "_initialSupply": "Token supply to start off with - gets minted to the distributor on mintInitialSupply()",
          "_roundLength": "Round length in blocks"
        }
      },
      "initializeRound()": {
        "details": "Initialize the current round.  Can only be called once per round."
      },
      "isOwner()": {
        "return": "true if `msg.sender` is the owner of the contract."
      },
      "mint(address,uint256)": {
        "details": "Function to mint tokens",
        "params": {
          "to": "The address that will receive the minted tokens.",
          "value": "The amount of tokens to mint."
        },
        "return": "A boolean that indicates if the operation was successful."
      },
      "mintCurrentInflation()": {
        "details": "Mint inflationary tokens for the round.  Can only be called by owner.  For now, all inflationary token of the current round get minted at once and go to the distributor. Later this could be called by the user to get the appropriate fraction of currentMintableTokens directly from the contract."
      },
      "mintInitialSupply()": {
        "details": "Mint initial supply.  Can only be called by owner."
      },
      "owner()": {
        "return": "the address of the owner."
      },
      "renounceOwnership()": {
        "details": "Allows the current owner to relinquish control of the contract."
      },
      "totalSupply()": {
        "details": "Total number of tokens in existence"
      },
      "transfer(address,uint256)": {
        "details": "Transfer token for a specified address",
        "params": {
          "to": "The address to transfer to.",
          "value": "The amount to be transferred."
        }
      },
      "transferFrom(address,address,uint256)": {
        "details": "Transfer tokens from one address to another. Note that while this function emits an Approval event, this is not required as per the specification, and other compliant implementations may not emit the event.",
        "params": {
          "from": "address The address which you want to send tokens from",
          "to": "address The address which you want to transfer to",
          "value": "uint256 the amount of tokens to be transferred"
        }
      },
      "transferOwnership(address)": {
        "details": "Allows the current owner to transfer control of the contract to a newOwner.",
        "params": {
          "newOwner": "The address to transfer ownership to."
        }
      }
    },
    "title": "A General Inflationary Token"
  },
  "userdoc": {
    "methods": {
      "renounceOwnership()": {
        "notice": "Renouncing to ownership will leave the contract without an owner. It will not be possible to call the functions with the `onlyOwner` modifier anymore."
      }
    }
  }
}