{
  "contractName": "MathUtils",
  "abi": [
    {
      "constant": true,
      "inputs": [],
      "name": "PERC_DIVISOR",
      "outputs": [
        {
          "name": "",
          "type": "uint256"
        }
      ],
      "payable": false,
      "stateMutability": "view",
      "type": "function"
    }
  ],
  "bytecode": "0x60aa61002f600b82828239805160001a6073146000811461001f57610021565bfe5b5030600052607381538281f3fe73000000000000000000000000000000000000000030146080604052600436106056576000357c0100000000000000000000000000000000000000000000000000000000900463ffffffff168063cce2a07814605b575b600080fd5b60616077565b6040518082815260200191505060405180910390f35b620f42408156fea165627a7a7230582025fa0b55fe309b4887ad7ae248b19ecaff42b3407187cf1203982fa2f05aaf4a0029",
  "source": "pragma solidity ^0.5.0;\n\nimport \"openzeppelin-eth/contracts/math/SafeMath.sol\";\n\n\nlibrary MathUtils {\n    using SafeMath for uint256;\n\n    // Divisor used for representing percentages\n    uint256 public constant PERC_DIVISOR = 1000000;\n\n    /*\n     * @dev Returns whether an amount is a valid percentage out of PERC_DIVISOR\n     * @param _amount Amount that is supposed to be a percentage\n     */\n    function validPerc(uint256 _amount) internal pure returns (bool) {\n        return _amount <= PERC_DIVISOR;\n    }\n\n    /*\n     * @dev Compute percentage of a value with the percentage represented by a fraction\n     * @param _amount Amount to take the percentage of\n     * @param _fracNum Numerator of fraction representing the percentage\n     * @param _fracDenom Denominator of fraction representing the percentage\n     */\n    function percOf(uint256 _amount, uint256 _fracNum, uint256 _fracDenom) internal pure returns (uint256) {\n        return _amount.mul(percPoints(_fracNum, _fracDenom)).div(PERC_DIVISOR);\n    }\n\n    /*\n     * @dev Compute percentage of a value with the percentage represented by a fraction over PERC_DIVISOR\n     * @param _amount Amount to take the percentage of\n     * @param _fracNum Numerator of fraction representing the percentage with PERC_DIVISOR as the denominator\n     */\n    function percOf(uint256 _amount, uint256 _fracNum) internal pure returns (uint256) {\n        return _amount.mul(_fracNum).div(PERC_DIVISOR);\n    }\n\n    /*\n     * @dev Compute percentage representation of a fraction\n     * @param _fracNum Numerator of fraction represeting the percentage\n     * @param _fracDenom Denominator of fraction represeting the percentage\n     */\n    function percPoints(uint256 _fracNum, uint256 _fracDenom) internal pure returns (uint256) {\n        return _fracNum.mul(PERC_DIVISOR).div(_fracDenom);\n    }\n}",
  "sourcePath": "/home/achill/Projects/token/contracts/MathUtils.sol",
  "compiler": {
    "name": "solc",
    "version": "0.5.0+commit.1d4f565a.Emscripten.clang"
  },
  "schemaVersion": "3.0.1",
  "updatedAt": "2019-02-06T21:39:48.202Z",
  "devdoc": {
    "methods": {}
  },
  "userdoc": {
    "methods": {}
  }
}