{
  "contractName": "RelevantTokenMock",
  "abi": [
    {
      "constant": true,
      "inputs": [],
      "name": "name",
      "outputs": [
        {
          "name": "",
          "type": "string"
        }
      ],
      "payable": false,
      "stateMutability": "view",
      "type": "function"
    },
    {
      "constant": false,
      "inputs": [
        {
          "name": "spender",
          "type": "address"
        },
        {
          "name": "value",
          "type": "uint256"
        }
      ],
      "name": "approve",
      "outputs": [
        {
          "name": "",
          "type": "bool"
        }
      ],
      "payable": false,
      "stateMutability": "nonpayable",
      "type": "function"
    },
    {
      "constant": false,
      "inputs": [
        {
          "name": "_amount",
          "type": "uint256"
        },
        {
          "name": "_sig",
          "type": "bytes"
        }
      ],
      "name": "claimTokens",
      "outputs": [
        {
          "name": "",
          "type": "bool"
        }
      ],
      "payable": false,
      "stateMutability": "nonpayable",
      "type": "function"
    },
    {
      "constant": true,
      "inputs": [],
      "name": "targetRound",
      "outputs": [
        {
          "name": "",
          "type": "uint256"
        }
      ],
      "payable": false,
      "stateMutability": "view",
      "type": "function"
    },
    {
      "constant": true,
      "inputs": [],
      "name": "totalSupply",
      "outputs": [
        {
          "name": "",
          "type": "uint256"
        }
      ],
      "payable": false,
      "stateMutability": "view",
      "type": "function"
    },
    {
      "constant": true,
      "inputs": [
        {
          "name": "from",
          "type": "address"
        },
        {
          "name": "to",
          "type": "address"
        },
        {
          "name": "value",
          "type": "uint256"
        }
      ],
      "name": "hello",
      "outputs": [
        {
          "name": "",
          "type": "uint256"
        }
      ],
      "payable": false,
      "stateMutability": "view",
      "type": "function"
    },
    {
      "constant": false,
      "inputs": [
        {
          "name": "from",
          "type": "address"
        },
        {
          "name": "to",
          "type": "address"
        },
        {
          "name": "value",
          "type": "uint256"
        }
      ],
      "name": "transferFrom",
      "outputs": [
        {
          "name": "",
          "type": "bool"
        }
      ],
      "payable": false,
      "stateMutability": "nonpayable",
      "type": "function"
    },
    {
      "constant": false,
      "inputs": [
        {
          "name": "_rewards",
          "type": "uint256"
        }
      ],
      "name": "allocateRewards",
      "outputs": [
        {
          "name": "",
          "type": "bool"
        }
      ],
      "payable": false,
      "stateMutability": "nonpayable",
      "type": "function"
    },
    {
      "constant": true,
      "inputs": [],
      "name": "initRoundReward",
      "outputs": [
        {
          "name": "",
          "type": "uint256"
        }
      ],
      "payable": false,
      "stateMutability": "view",
      "type": "function"
    },
    {
      "constant": true,
      "inputs": [
        {
          "name": "_name",
          "type": "string"
        },
        {
          "name": "_decimals",
          "type": "uint8"
        },
        {
          "name": "_symbol",
          "type": "string"
        },
        {
          "name": "_version",
          "type": "string"
        },
        {
          "name": "_devFundAddress",
          "type": "address"
        },
        {
          "name": "_initRoundReward",
          "type": "uint256"
        },
        {
          "name": "_timeConstant",
          "type": "uint256"
        },
        {
          "name": "_targetInflation",
          "type": "uint256"
        },
        {
          "name": "_targetRound",
          "type": "uint256"
        },
        {
          "name": "_roundLength",
          "type": "uint256"
        },
        {
          "name": "_roundDecay",
          "type": "uint256"
        },
        {
          "name": "_totalPremint",
          "type": "uint256"
        }
      ],
      "name": "decimals",
      "outputs": [
        {
          "name": "",
          "type": "uint8"
        }
      ],
      "payable": false,
      "stateMutability": "view",
      "type": "function"
    },
    {
      "constant": false,
      "inputs": [
        {
          "name": "_name",
          "type": "string"
        },
        {
          "name": "_decimals",
          "type": "uint8"
        },
        {
          "name": "_symbol",
          "type": "string"
        },
        {
          "name": "_version",
          "type": "string"
        },
        {
          "name": "_devFundAddress",
          "type": "address"
        },
        {
          "name": "_initRoundReward",
          "type": "uint256"
        },
        {
          "name": "_timeConstant",
          "type": "uint256"
        },
        {
          "name": "_targetInflation",
          "type": "uint256"
        },
        {
          "name": "_targetRound",
          "type": "uint256"
        },
        {
          "name": "_roundLength",
          "type": "uint256"
        },
        {
          "name": "_roundDecay",
          "type": "uint256"
        },
        {
          "name": "_totalPremint",
          "type": "uint256"
        }
      ],
      "name": "initialize",
      "outputs": [
        {
          "name": "",
          "type": "bool"
        }
      ],
      "payable": false,
      "stateMutability": "nonpayable",
      "type": "function"
    },
    {
      "constant": false,
      "inputs": [
        {
          "name": "spender",
          "type": "address"
        },
        {
          "name": "addedValue",
          "type": "uint256"
        }
      ],
      "name": "increaseAllowance",
      "outputs": [
        {
          "name": "",
          "type": "bool"
        }
      ],
      "payable": false,
      "stateMutability": "nonpayable",
      "type": "function"
    },
    {
      "constant": false,
      "inputs": [
        {
          "name": "to",
          "type": "address"
        },
        {
          "name": "value",
          "type": "uint256"
        }
      ],
      "name": "mint",
      "outputs": [
        {
          "name": "",
          "type": "bool"
        }
      ],
      "payable": false,
      "stateMutability": "nonpayable",
      "type": "function"
    },
    {
      "constant": true,
      "inputs": [],
      "name": "timeConstant",
      "outputs": [
        {
          "name": "",
          "type": "uint256"
        }
      ],
      "payable": false,
      "stateMutability": "view",
      "type": "function"
    },
    {
      "constant": true,
      "inputs": [],
      "name": "startBlock",
      "outputs": [
        {
          "name": "",
          "type": "uint256"
        }
      ],
      "payable": false,
      "stateMutability": "view",
      "type": "function"
    },
    {
      "constant": true,
      "inputs": [],
      "name": "roundsSincleLast",
      "outputs": [
        {
          "name": "",
          "type": "uint256"
        }
      ],
      "payable": false,
      "stateMutability": "view",
      "type": "function"
    },
    {
      "constant": true,
      "inputs": [],
      "name": "version",
      "outputs": [
        {
          "name": "",
          "type": "string"
        }
      ],
      "payable": false,
      "stateMutability": "view",
      "type": "function"
    },
    {
      "constant": true,
      "inputs": [
        {
          "name": "owner",
          "type": "address"
        }
      ],
      "name": "roundDecay",
      "outputs": [
        {
          "name": "",
          "type": "uint256"
        }
      ],
      "payable": false,
      "stateMutability": "view",
      "type": "function"
    },
    {
      "constant": true,
      "inputs": [
        {
          "name": "owner",
          "type": "address"
        }
      ],
      "name": "balanceOf",
      "outputs": [
        {
          "name": "",
          "type": "uint256"
        }
      ],
      "payable": false,
      "stateMutability": "view",
      "type": "function"
    },
    {
      "constant": false,
      "inputs": [],
      "name": "renounceOwnership",
      "outputs": [
        {
          "name": "",
          "type": "uint256"
        }
      ],
      "payable": false,
      "stateMutability": "nonpayable",
      "type": "function"
    },
    {
      "constant": true,
      "inputs": [],
      "name": "targetInflation",
      "outputs": [
        {
          "name": "",
          "type": "uint256"
        }
      ],
      "payable": false,
      "stateMutability": "view",
      "type": "function"
    },
    {
      "constant": true,
      "inputs": [],
      "name": "allocatedRewards",
      "outputs": [
        {
          "name": "",
          "type": "uint256"
        }
      ],
      "payable": false,
      "stateMutability": "view",
      "type": "function"
    },
    {
      "constant": true,
      "inputs": [],
      "name": "lastRound",
      "outputs": [
        {
          "name": "",
          "type": "uint256"
        }
      ],
      "payable": false,
      "stateMutability": "view",
      "type": "function"
    },
    {
      "constant": true,
      "inputs": [],
      "name": "currentRound",
      "outputs": [
        {
          "name": "",
          "type": "uint256"
        }
      ],
      "payable": false,
      "stateMutability": "view",
      "type": "function"
    },
    {
      "constant": true,
      "inputs": [],
      "name": "developmentFund",
      "outputs": [
        {
          "name": "",
          "type": "uint256"
        }
      ],
      "payable": false,
      "stateMutability": "view",
      "type": "function"
    },
    {
      "constant": true,
      "inputs": [],
      "name": "roundLength",
      "outputs": [
        {
          "name": "",
          "type": "uint256"
        }
      ],
      "payable": false,
      "stateMutability": "view",
      "type": "function"
    },
    {
      "constant": true,
      "inputs": [],
      "name": "owner",
      "outputs": [
        {
          "name": "",
          "type": "address"
        }
      ],
      "payable": false,
      "stateMutability": "view",
      "type": "function"
    },
    {
      "constant": true,
      "inputs": [],
      "name": "isOwner",
      "outputs": [
        {
          "name": "",
          "type": "bool"
        }
      ],
      "payable": false,
      "stateMutability": "view",
      "type": "function"
    },
    {
      "constant": true,
      "inputs": [
        {
          "name": "_round",
          "type": "uint256"
        }
      ],
      "name": "symbol",
      "outputs": [
        {
          "name": "",
          "type": "string"
        }
      ],
      "payable": false,
      "stateMutability": "view",
      "type": "function"
    },
    {
      "constant": true,
      "inputs": [
        {
          "name": "_round",
          "type": "uint256"
        }
      ],
      "name": "partialSum",
      "outputs": [
        {
          "name": "",
          "type": "uint256"
        }
      ],
      "payable": false,
      "stateMutability": "view",
      "type": "function"
    },
    {
      "constant": false,
      "inputs": [
        {
          "name": "account",
          "type": "address"
        }
      ],
      "name": "addMinter",
      "outputs": [],
      "payable": false,
      "stateMutability": "nonpayable",
      "type": "function"
    },
    {
      "constant": false,
      "inputs": [
        {
          "name": "spender",
          "type": "address"
        },
        {
          "name": "subtractedValue",
          "type": "uint256"
        }
      ],
      "name": "renounceMinter",
      "outputs": [
        {
          "name": "",
          "type": "bool"
        }
      ],
      "payable": false,
      "stateMutability": "nonpayable",
      "type": "function"
    },
    {
      "constant": false,
      "inputs": [
        {
          "name": "spender",
          "type": "address"
        },
        {
          "name": "subtractedValue",
          "type": "uint256"
        }
      ],
      "name": "decreaseAllowance",
      "outputs": [
        {
          "name": "",
          "type": "bool"
        }
      ],
      "payable": false,
      "stateMutability": "nonpayable",
      "type": "function"
    },
    {
      "constant": true,
      "inputs": [
        {
          "name": "to",
          "type": "address"
        },
        {
          "name": "value",
          "type": "uint256"
        }
      ],
      "name": "currRoundReward",
      "outputs": [
        {
          "name": "",
          "type": "uint256"
        }
      ],
      "payable": false,
      "stateMutability": "view",
      "type": "function"
    },
    {
      "constant": false,
      "inputs": [
        {
          "name": "to",
          "type": "address"
        },
        {
          "name": "value",
          "type": "uint256"
        }
      ],
      "name": "transfer",
      "outputs": [
        {
          "name": "",
          "type": "bool"
        }
      ],
      "payable": false,
      "stateMutability": "nonpayable",
      "type": "function"
    },
    {
      "constant": false,
      "inputs": [
        {
          "name": "account",
          "type": "address"
        }
      ],
      "name": "releaseTokens",
      "outputs": [
        {
          "name": "",
          "type": "bool"
        }
      ],
      "payable": false,
      "stateMutability": "nonpayable",
      "type": "function"
    },
    {
      "constant": true,
      "inputs": [
        {
          "name": "account",
          "type": "address"
        }
      ],
      "name": "isMinter",
      "outputs": [
        {
          "name": "",
          "type": "bool"
        }
      ],
      "payable": false,
      "stateMutability": "view",
      "type": "function"
    },
    {
      "constant": true,
      "inputs": [],
      "name": "devFundAddress",
      "outputs": [
        {
          "name": "",
          "type": "address"
        }
      ],
      "payable": false,
      "stateMutability": "view",
      "type": "function"
    },
    {
      "constant": true,
      "inputs": [
        {
          "name": "sender",
          "type": "address"
        }
      ],
      "name": "reserveFund",
      "outputs": [
        {
          "name": "",
          "type": "uint256"
        }
      ],
      "payable": false,
      "stateMutability": "view",
      "type": "function"
    },
    {
      "constant": false,
      "inputs": [
        {
          "name": "sender",
          "type": "address"
        }
      ],
      "name": "initialize",
      "outputs": [
        {
          "name": "",
          "type": "bool"
        }
      ],
      "payable": false,
      "stateMutability": "nonpayable",
      "type": "function"
    },
    {
      "constant": false,
      "inputs": [],
      "name": "helloThere",
      "outputs": [
        {
          "name": "",
          "type": "uint256"
        }
      ],
      "payable": false,
      "stateMutability": "nonpayable",
      "type": "function"
    },
    {
      "constant": false,
      "inputs": [
        {
          "name": "_rewards",
          "type": "uint256"
        },
        {
          "name": "spender",
          "type": "address"
        }
      ],
      "name": "allocateAirdrops",
      "outputs": [
        {
          "name": "",
          "type": "bool"
        }
      ],
      "payable": false,
      "stateMutability": "nonpayable",
      "type": "function"
    },
    {
      "constant": true,
      "inputs": [],
      "name": "lastRoundReward",
      "outputs": [
        {
          "name": "",
          "type": "uint256"
        }
      ],
      "payable": false,
      "stateMutability": "view",
      "type": "function"
    },
    {
      "constant": true,
      "inputs": [
        {
          "name": "owner",
          "type": "address"
        },
        {
          "name": "spender",
          "type": "address"
        }
      ],
      "name": "allowance",
      "outputs": [
        {
          "name": "",
          "type": "uint256"
        }
      ],
      "payable": false,
      "stateMutability": "view",
      "type": "function"
    },
    {
      "constant": true,
      "inputs": [
        {
          "name": "_account",
          "type": "address"
        }
      ],
      "name": "totalPremint",
      "outputs": [
        {
          "name": "",
          "type": "uint256"
        }
      ],
      "payable": false,
      "stateMutability": "view",
      "type": "function"
    },
    {
      "constant": true,
      "inputs": [],
      "name": "totalReleased",
      "outputs": [
        {
          "name": "",
          "type": "uint256"
        }
      ],
      "payable": false,
      "stateMutability": "view",
      "type": "function"
    },
    {
      "constant": true,
      "inputs": [
        {
          "name": "_account",
          "type": "address"
        }
      ],
      "name": "nonceOf",
      "outputs": [
        {
          "name": "",
          "type": "uint256"
        }
      ],
      "payable": false,
      "stateMutability": "view",
      "type": "function"
    },
    {
      "constant": true,
      "inputs": [],
      "name": "rewardFund",
      "outputs": [
        {
          "name": "",
          "type": "uint256"
        }
      ],
      "payable": false,
      "stateMutability": "view",
      "type": "function"
    },
    {
      "constant": false,
      "inputs": [
        {
          "name": "newOwner",
          "type": "address"
        }
      ],
      "name": "transferOwnership",
      "outputs": [
        {
          "name": "",
          "type": "uint256"
        }
      ],
      "payable": false,
      "stateMutability": "nonpayable",
      "type": "function"
    },
    {
      "anonymous": false,
      "inputs": [
        {
          "indexed": false,
          "name": "releasableTokens",
          "type": "uint256"
        },
        {
          "indexed": false,
          "name": "rewardFund",
          "type": "uint256"
        },
        {
          "indexed": false,
          "name": "airdropFund",
          "type": "uint256"
        },
        {
          "indexed": false,
          "name": "developmentFund",
          "type": "uint256"
        }
      ],
      "name": "allocatedAirdrops",
      "type": "function",
      "constant": true,
      "outputs": [
        {
          "name": "",
          "type": "uint256"
        }
      ],
      "payable": false,
      "stateMutability": "view"
    },
    {
      "anonymous": false,
      "inputs": [
        {
          "indexed": true,
          "name": "account",
          "type": "address"
        }
      ],
      "name": "airdropFund",
      "type": "function",
      "constant": true,
      "outputs": [
        {
          "name": "",
          "type": "uint256"
        }
      ],
      "payable": false,
      "stateMutability": "view"
    },
    {
      "anonymous": false,
      "inputs": [
        {
          "indexed": false,
          "name": "releasableTokens",
          "type": "uint256"
        },
        {
          "indexed": false,
          "name": "rewardFund",
          "type": "uint256"
        },
        {
          "indexed": false,
          "name": "airdropFund",
          "type": "uint256"
        },
        {
          "indexed": false,
          "name": "developmentFund",
          "type": "uint256"
        }
      ],
      "name": "Released",
      "type": "event"
    },
    {
      "anonymous": false,
      "inputs": [
        {
          "indexed": true,
          "name": "account",
          "type": "address"
        },
        {
          "indexed": true,
          "name": "newOwner",
          "type": "address"
        }
      ],
      "name": "MinterAdded",
      "type": "event"
    },
    {
      "anonymous": false,
      "inputs": [
        {
          "indexed": true,
          "name": "account",
          "type": "address"
        },
        {
          "indexed": true,
          "name": "to",
          "type": "address"
        },
        {
          "indexed": false,
          "name": "value",
          "type": "uint256"
        }
      ],
      "name": "MinterRemoved",
      "type": "event"
    },
    {
      "anonymous": false,
      "inputs": [
        {
          "indexed": true,
          "name": "previousOwner",
          "type": "address"
        },
        {
          "indexed": true,
          "name": "newOwner",
          "type": "address"
        },
        {
          "indexed": false,
          "name": "value",
          "type": "uint256"
        }
      ],
      "name": "OwnershipTransferred",
      "type": "event"
    },
    {
      "constant": true,
      "inputs": [
        {
          "indexed": true,
          "name": "from",
          "type": "address"
        },
        {
          "indexed": true,
          "name": "to",
          "type": "address"
        },
        {
          "indexed": false,
          "name": "value",
          "type": "uint256"
        }
      ],
      "name": "Transfer",
      "outputs": [
        {
          "name": "",
          "type": "uint256"
        }
      ],
      "payable": false,
      "stateMutability": "view",
      "type": "event",
      "anonymous": false
    },
    {
      "constant": false,
      "inputs": [
        {
          "name": "owner",
          "type": "address",
          "indexed": true
        },
        {
          "indexed": true,
          "name": "spender",
          "type": "address"
        },
        {
          "indexed": false,
          "name": "value",
          "type": "uint256"
        }
      ],
      "name": "Approval",
      "outputs": [
        {
          "name": "",
          "type": "uint256"
        }
      ],
      "payable": false,
      "stateMutability": "nonpayable",
      "type": "event",
      "anonymous": false
    },
    {
      "constant": true,
      "inputs": [
        {
          "name": "_roundNum",
          "type": "uint256"
        },
        {
          "name": "_lastRoundReward",
          "type": "uint256"
        },
        {
          "name": "_totalReleased",
          "type": "uint256"
        }
      ],
      "name": "roundNum",
      "outputs": [
        {
          "name": "",
          "type": "uint256"
        }
      ],
      "payable": false,
      "stateMutability": "view",
      "type": "function"
    },
    {
      "constant": false,
      "inputs": [
        {
          "name": "_roundNum",
          "type": "uint256"
        }
      ],
      "name": "setRoundNum",
      "outputs": [
        {
          "name": "",
          "type": "uint256"
        }
      ],
      "payable": false,
      "stateMutability": "nonpayable",
      "type": "function"
    },
    {
      "constant": false,
      "inputs": [
        {
          "name": "_roundNum",
          "type": "uint256"
        },
        {
          "name": "_lastRoundReward",
          "type": "uint256"
        },
        {
          "name": "_totalReleased",
          "type": "uint256"
        }
      ],
      "name": "setLastRound",
      "outputs": [
        {
          "name": "",
          "type": "uint256"
        }
      ],
      "payable": false,
      "stateMutability": "nonpayable",
      "type": "function"
    },
    {
      "constant": false,
      "inputs": [],
      "name": "emptyDevBalance",
      "outputs": [],
      "payable": false,
      "stateMutability": "nonpayable",
      "type": "function"
    }
  ],
  "bytecode": "0x608060405234801561001057600080fd5b5061409d806100206000396000f3fe608060405260043610610293576000357c0100000000000000000000000000000000000000000000000000000000900463ffffffff16806306fdde0314610298578063095ea7b314610328578063119b22b31461039b57806314d8bbf1146103c65780631727bcc7146104b057806318160ddd146104db57806319ff1d211461050657806323b872dd1461053157806328fc33c7146105c457806329a0f85b14610617578063313ce567146106425780633180bfe11461067357806339509351146108dd57806340c10f191461095057806343568eae146109c357806348cd4cb1146109ee5780634cf9b9aa14610a195780634e33946114610a4457806354fd4d5014610aa7578063672ff5d414610b3757806370a0823114610b62578063715018a614610bc75780637581d1d114610bde5780637d556df014610c0957806382bc07e614610c345780638a19c8bc14610c5f5780638a2381d714610c8a5780638b649b9414610cb55780638da5cb5b14610ce05780638f32d59b14610d3757806395d89b4114610d665780639701fa3414610df6578063983b2d5614610e455780639865027514610e96578063a457c2d714610ead578063a59efddd14610f20578063a9059cbb14610f4b578063a96f866814610fbe578063aa271e1a14610fed578063b480f6ad14611056578063b7f92b71146110ad578063c4d66de8146110d8578063c6f0a0ff14611129578063ca6da57e14611140578063d756832414611193578063dd62ed3e146111be578063de70289e14611243578063dea95ff81461126e578063e33b7de3146112bd578063e5f2e383146112e8578063ed2a2d64146112ff578063efe2226614611364578063f2fde38b1461138f578063f73c1390146113e0578063fd6a93fb1461140b575b600080fd5b3480156102a457600080fd5b506102ad611436565b6040518080602001828103825283818151815260200191508051906020019080838360005b838110156102ed5780820151818401526020810190506102d2565b50505050905090810190601f16801561031a5780820380516001836020036101000a031916815260200191505b509250505060405180910390f35b34801561033457600080fd5b506103816004803603604081101561034b57600080fd5b81019080803573ffffffffffffffffffffffffffffffffffffffff169060200190929190803590602001909291905050506114d5565b604051808215151515815260200191505060405180910390f35b3480156103a757600080fd5b506103b0611602565b6040518082815260200191505060405180910390f35b3480156103d257600080fd5b50610496600480360360408110156103e957600080fd5b81019080803590602001909291908035906020019064010000000081111561041057600080fd5b82018360208201111561042257600080fd5b8035906020019184600183028401116401000000008311171561044457600080fd5b91908080601f016020809104026020016040519081016040528093929190818152602001838380828437600081840152601f19601f82011690508083019250505050505050919291929050505061160d565b604051808215151515815260200191505060405180910390f35b3480156104bc57600080fd5b506104c56119aa565b6040518082815260200191505060405180910390f35b3480156104e757600080fd5b506104f06119b1565b6040518082815260200191505060405180910390f35b34801561051257600080fd5b5061051b6119bb565b6040518082815260200191505060405180910390f35b34801561053d57600080fd5b506105aa6004803603606081101561055457600080fd5b81019080803573ffffffffffffffffffffffffffffffffffffffff169060200190929190803573ffffffffffffffffffffffffffffffffffffffff169060200190929190803590602001909291905050506119c2565b604051808215151515815260200191505060405180910390f35b3480156105d057600080fd5b506105fd600480360360208110156105e757600080fd5b8101908080359060200190929190505050611bca565b604051808215151515815260200191505060405180910390f35b34801561062357600080fd5b5061062c611cc3565b6040518082815260200191505060405180910390f35b34801561064e57600080fd5b50610657611cca565b604051808260ff1660ff16815260200191505060405180910390f35b34801561067f57600080fd5b506108db600480360361018081101561069757600080fd5b81019080803590602001906401000000008111156106b457600080fd5b8201836020820111156106c657600080fd5b803590602001918460018302840111640100000000831117156106e857600080fd5b91908080601f016020809104026020016040519081016040528093929190818152602001838380828437600081840152601f19601f820116905080830192505050505050509192919290803560ff1690602001909291908035906020019064010000000081111561075857600080fd5b82018360208201111561076a57600080fd5b8035906020019184600183028401116401000000008311171561078c57600080fd5b91908080601f016020809104026020016040519081016040528093929190818152602001838380828437600081840152601f19601f820116905080830192505050505050509192919290803590602001906401000000008111156107ef57600080fd5b82018360208201111561080157600080fd5b8035906020019184600183028401116401000000008311171561082357600080fd5b91908080601f016020809104026020016040519081016040528093929190818152602001838380828437600081840152601f19601f820116905080830192505050505050509192919290803573ffffffffffffffffffffffffffffffffffffffff16906020019092919080359060200190929190803590602001909291908035906020019092919080359060200190929190803590602001909291908035906020019092919080359060200190929190505050611cde565b005b3480156108e957600080fd5b506109366004803603604081101561090057600080fd5b81019080803573ffffffffffffffffffffffffffffffffffffffff16906020019092919080359060200190929190505050611f40565b604051808215151515815260200191505060405180910390f35b34801561095c57600080fd5b506109a96004803603604081101561097357600080fd5b81019080803573ffffffffffffffffffffffffffffffffffffffff16906020019092919080359060200190929190505050612177565b604051808215151515815260200191505060405180910390f35b3480156109cf57600080fd5b506109d86121a1565b6040518082815260200191505060405180910390f35b3480156109fa57600080fd5b50610a036121a8565b6040518082815260200191505060405180910390f35b348015610a2557600080fd5b50610a2e6121af565b6040518082815260200191505060405180910390f35b348015610a5057600080fd5b50610a9160048036036060811015610a6757600080fd5b810190808035906020019092919080359060200190929190803590602001909291905050506121c3565b6040518082815260200191505060405180910390f35b348015610ab357600080fd5b50610abc612327565b6040518080602001828103825283818151815260200191508051906020019080838360005b83811015610afc578082015181840152602081019050610ae1565b50505050905090810190601f168015610b295780820380516001836020036101000a031916815260200191505b509250505060405180910390f35b348015610b4357600080fd5b50610b4c6123c6565b6040518082815260200191505060405180910390f35b348015610b6e57600080fd5b50610bb160048036036020811015610b8557600080fd5b81019080803573ffffffffffffffffffffffffffffffffffffffff1690602001909291905050506123cd565b6040518082815260200191505060405180910390f35b348015610bd357600080fd5b50610bdc612416565b005b348015610bea57600080fd5b50610bf36124ea565b6040518082815260200191505060405180910390f35b348015610c1557600080fd5b50610c1e6124f1565b6040518082815260200191505060405180910390f35b348015610c4057600080fd5b50610c496124f8565b6040518082815260200191505060405180910390f35b348015610c6b57600080fd5b50610c746124ff565b6040518082815260200191505060405180910390f35b348015610c9657600080fd5b50610c9f612506565b6040518082815260200191505060405180910390f35b348015610cc157600080fd5b50610cca61250d565b6040518082815260200191505060405180910390f35b348015610cec57600080fd5b50610cf5612514565b604051808273ffffffffffffffffffffffffffffffffffffffff1673ffffffffffffffffffffffffffffffffffffffff16815260200191505060405180910390f35b348015610d4357600080fd5b50610d4c61253e565b604051808215151515815260200191505060405180910390f35b348015610d7257600080fd5b50610d7b612596565b6040518080602001828103825283818151815260200191508051906020019080838360005b83811015610dbb578082015181840152602081019050610da0565b50505050905090810190601f168015610de85780820380516001836020036101000a031916815260200191505b509250505060405180910390f35b348015610e0257600080fd5b50610e2f60048036036020811015610e1957600080fd5b8101908080359060200190929190505050612635565b6040518082815260200191505060405180910390f35b348015610e5157600080fd5b50610e9460048036036020811015610e6857600080fd5b81019080803573ffffffffffffffffffffffffffffffffffffffff16906020019092919050505061263c565b005b348015610ea257600080fd5b50610eab61265c565b005b348015610eb957600080fd5b50610f0660048036036040811015610ed057600080fd5b81019080803573ffffffffffffffffffffffffffffffffffffffff16906020019092919080359060200190929190505050612667565b604051808215151515815260200191505060405180910390f35b348015610f2c57600080fd5b50610f3561289e565b6040518082815260200191505060405180910390f35b348015610f5757600080fd5b50610fa460048036036040811015610f6e57600080fd5b81019080803573ffffffffffffffffffffffffffffffffffffffff169060200190929190803590602001909291905050506128a5565b604051808215151515815260200191505060405180910390f35b348015610fca57600080fd5b50610fd36128bc565b604051808215151515815260200191505060405180910390f35b348015610ff957600080fd5b5061103c6004803603602081101561101057600080fd5b81019080803573ffffffffffffffffffffffffffffffffffffffff169060200190929190505050612a84565b604051808215151515815260200191505060405180910390f35b34801561106257600080fd5b5061106b612aa1565b604051808273ffffffffffffffffffffffffffffffffffffffff1673ffffffffffffffffffffffffffffffffffffffff16815260200191505060405180910390f35b3480156110b957600080fd5b506110c2612ac8565b6040518082815260200191505060405180910390f35b3480156110e457600080fd5b50611127600480360360208110156110fb57600080fd5b81019080803573ffffffffffffffffffffffffffffffffffffffff169060200190929190505050612acf565b005b34801561113557600080fd5b5061113e612c0e565b005b34801561114c57600080fd5b506111796004803603602081101561116357600080fd5b8101908080359060200190929190505050612c19565b604051808215151515815260200191505060405180910390f35b34801561119f57600080fd5b506111a8612d12565b6040518082815260200191505060405180910390f35b3480156111ca57600080fd5b5061122d600480360360408110156111e157600080fd5b81019080803573ffffffffffffffffffffffffffffffffffffffff169060200190929190803573ffffffffffffffffffffffffffffffffffffffff169060200190929190505050612d19565b6040518082815260200191505060405180910390f35b34801561124f57600080fd5b50611258612da0565b6040518082815260200191505060405180910390f35b34801561127a57600080fd5b506112a76004803603602081101561129157600080fd5b8101908080359060200190929190505050612da7565b6040518082815260200191505060405180910390f35b3480156112c957600080fd5b506112d2612dbc565b6040518082815260200191505060405180910390f35b3480156112f457600080fd5b506112fd612dc3565b005b34801561130b57600080fd5b5061134e6004803603602081101561132257600080fd5b81019080803573ffffffffffffffffffffffffffffffffffffffff169060200190929190505050612f2e565b6040518082815260200191505060405180910390f35b34801561137057600080fd5b50611379612f78565b6040518082815260200191505060405180910390f35b34801561139b57600080fd5b506113de600480360360208110156113b257600080fd5b81019080803573ffffffffffffffffffffffffffffffffffffffff169060200190929190505050612f7f565b005b3480156113ec57600080fd5b506113f5612f9e565b6040518082815260200191505060405180910390f35b34801561141757600080fd5b50611420612fa5565b6040518082815260200191505060405180910390f35b6101008054600181600116156101000203166002900480601f0160208091040260200160405190810160405280929190818152602001828054600181600116156101000203166002900480156114cd5780601f106114a2576101008083540402835291602001916114cd565b820191906000526020600020905b8154815290600101906020018083116114b057829003601f168201915b505050505081565b60008073ffffffffffffffffffffffffffffffffffffffff168373ffffffffffffffffffffffffffffffffffffffff161415151561151257600080fd5b81603460003373ffffffffffffffffffffffffffffffffffffffff1673ffffffffffffffffffffffffffffffffffffffff16815260200190815260200160002060008573ffffffffffffffffffffffffffffffffffffffff1673ffffffffffffffffffffffffffffffffffffffff168152602001908152602001600020819055508273ffffffffffffffffffffffffffffffffffffffff163373ffffffffffffffffffffffffffffffffffffffff167f8c5be1e5ebec7d5bd14f71427d1e84f3dd0314c0f7b2291e5b200ac8c7c3b925846040518082815260200191505060405180910390a36001905092915050565b600061010d54905090565b600082610116541015151561162157600080fd5b6000833361011860003373ffffffffffffffffffffffffffffffffffffffff1673ffffffffffffffffffffffffffffffffffffffff16815260200190815260200160002054604051602001808481526020018373ffffffffffffffffffffffffffffffffffffffff1673ffffffffffffffffffffffffffffffffffffffff166c0100000000000000000000000002815260140182815260200193505050506040516020818303038152906040528051906020012090508060405160200180807f19457468657265756d205369676e6564204d6573736167653a0a333200000000815250601c0182815260200191505060405160208183030381529060405280519060200120905060006117348285612fac565b90508073ffffffffffffffffffffffffffffffffffffffff16611755612514565b73ffffffffffffffffffffffffffffffffffffffff161415156117e0576040517f08c379a00000000000000000000000000000000000000000000000000000000081526004018080602001828103825260148152602001807f436c61696d206e6f7420617574686f72697a656400000000000000000000000081525060200191505060405180910390fd5b600161011860003373ffffffffffffffffffffffffffffffffffffffff1673ffffffffffffffffffffffffffffffffffffffff16815260200190815260200160002060008282540192505081905550611845856101165461309090919063ffffffff16565b610116819055503073ffffffffffffffffffffffffffffffffffffffff1663a9059cbb33876040518363ffffffff167c0100000000000000000000000000000000000000000000000000000000028152600401808373ffffffffffffffffffffffffffffffffffffffff1673ffffffffffffffffffffffffffffffffffffffff16815260200182815260200192505050602060405180830381600087803b1580156118ef57600080fd5b505af1158015611903573d6000803e3d6000fd5b505050506040513d602081101561191957600080fd5b8101908080519060200190929190505050151561199e576040517f08c379a000000000000000000000000000000000000000000000000000000000815260040180806020018281038252601b8152602001807f5472616e7366657220746f20636c61696d616e74206661696c6564000000000081525060200191505060405180910390fd5b60019250505092915050565b6101095481565b6000603554905090565b6101195481565b6000611a5382603460008773ffffffffffffffffffffffffffffffffffffffff1673ffffffffffffffffffffffffffffffffffffffff16815260200190815260200160002060003373ffffffffffffffffffffffffffffffffffffffff1673ffffffffffffffffffffffffffffffffffffffff1681526020019081526020016000205461309090919063ffffffff16565b603460008673ffffffffffffffffffffffffffffffffffffffff1673ffffffffffffffffffffffffffffffffffffffff16815260200190815260200160002060003373ffffffffffffffffffffffffffffffffffffffff1673ffffffffffffffffffffffffffffffffffffffff16815260200190815260200160002081905550611ade8484846130b2565b3373ffffffffffffffffffffffffffffffffffffffff168473ffffffffffffffffffffffffffffffffffffffff167f8c5be1e5ebec7d5bd14f71427d1e84f3dd0314c0f7b2291e5b200ac8c7c3b925603460008873ffffffffffffffffffffffffffffffffffffffff1673ffffffffffffffffffffffffffffffffffffffff16815260200190815260200160002060003373ffffffffffffffffffffffffffffffffffffffff1673ffffffffffffffffffffffffffffffffffffffff168152602001908152602001600020546040518082815260200191505060405180910390a3600190509392505050565b6000611bd461253e565b1515611bdf57600080fd5b610112548211151515611c80576040517f08c379a00000000000000000000000000000000000000000000000000000000081526004018080602001828103825260258152602001807f4e6f7420656e6f756768206375726174696f6e2072657761726473206176616981526020017f6c61626c6500000000000000000000000000000000000000000000000000000081525060400191505060405180910390fd5b611c96826101125461309090919063ffffffff16565b61011281905550611cb3826101165461328290919063ffffffff16565b6101168190555060019050919050565b6101055481565b61010160009054906101000a900460ff1681565b600060019054906101000a900460ff1680611cfd5750611cfc6132a3565b5b80611d1457506000809054906101000a900460ff16155b1515611dae576040517f08c379a000000000000000000000000000000000000000000000000000000000815260040180806020018281038252602e8152602001807f436f6e747261637420696e7374616e63652068617320616c726561647920626581526020017f656e20696e697469616c697a656400000000000000000000000000000000000081525060400191505060405180910390fd5b60008060019054906101000a900460ff1690506001600060016101000a81548160ff02191690831515021790555060016000806101000a81548160ff021916908315150217905550611dff336132b4565b611e0833612acf565b8c6101009080519060200190611e1f929190613fcc565b508b61010160006101000a81548160ff021916908360ff1602179055508a6101029080519060200190611e53929190613fcc565b50896101039080519060200190611e6b929190613fcc565b508861010460006101000a81548173ffffffffffffffffffffffffffffffffffffffff021916908373ffffffffffffffffffffffffffffffffffffffff16021790555087610105819055508661010781905550856101088190555084610109819055508361010a819055508261010b819055504361010e819055506101055461010681905550600061010f8190555061010554610110819055508161010c81905550611f16826134a8565b5080600060016101000a81548160ff02191690831515021790555050505050505050505050505050565b60008073ffffffffffffffffffffffffffffffffffffffff168373ffffffffffffffffffffffffffffffffffffffff1614151515611f7d57600080fd5b61200c82603460003373ffffffffffffffffffffffffffffffffffffffff1673ffffffffffffffffffffffffffffffffffffffff16815260200190815260200160002060008673ffffffffffffffffffffffffffffffffffffffff1673ffffffffffffffffffffffffffffffffffffffff1681526020019081526020016000205461328290919063ffffffff16565b603460003373ffffffffffffffffffffffffffffffffffffffff1673ffffffffffffffffffffffffffffffffffffffff16815260200190815260200160002060008573ffffffffffffffffffffffffffffffffffffffff1673ffffffffffffffffffffffffffffffffffffffff168152602001908152602001600020819055508273ffffffffffffffffffffffffffffffffffffffff163373ffffffffffffffffffffffffffffffffffffffff167f8c5be1e5ebec7d5bd14f71427d1e84f3dd0314c0f7b2291e5b200ac8c7c3b925603460003373ffffffffffffffffffffffffffffffffffffffff1673ffffffffffffffffffffffffffffffffffffffff16815260200190815260200160002060008773ffffffffffffffffffffffffffffffffffffffff1673ffffffffffffffffffffffffffffffffffffffff168152602001908152602001600020546040518082815260200191505060405180910390a36001905092915050565b600061218233612a84565b151561218d57600080fd5b61219783836134be565b6001905092915050565b6101075481565b61010e5481565b600061010f546121bd611602565b03905090565b60006121cd61253e565b15156121d857600080fd5b61010d5484101515612278576040517f08c379a00000000000000000000000000000000000000000000000000000000081526004018080602001828103825260298152602001807f4c6173742072656c65617365206d757374206265206265666f7265206375727281526020017f656e7420726f756e64000000000000000000000000000000000000000000000081525060400191505060405180910390fd5b8361010f81905550826101108190555081610111819055506122b7600f6122a960048561361490919063ffffffff16565b61365290919063ffffffff16565b610112819055506122e5600f6122d760048561361490919063ffffffff16565b61365290919063ffffffff16565b61011381905550612313600f61230560048561361490919063ffffffff16565b61365290919063ffffffff16565b6101148190555061010f5490509392505050565b6101038054600181600116156101000203166002900480601f0160208091040260200160405190810160405280929190818152602001828054600181600116156101000203166002900480156123be5780601f10612393576101008083540402835291602001916123be565b820191906000526020600020905b8154815290600101906020018083116123a157829003601f168201915b505050505081565b61010b5481565b6000603360008373ffffffffffffffffffffffffffffffffffffffff1673ffffffffffffffffffffffffffffffffffffffff168152602001908152602001600020549050919050565b61241e61253e565b151561242957600080fd5b600073ffffffffffffffffffffffffffffffffffffffff16606860009054906101000a900473ffffffffffffffffffffffffffffffffffffffff1673ffffffffffffffffffffffffffffffffffffffff167f8be0079c531659141344cd1fd0a4f28419497f9722a3daafe3b4186f6b6457e060405160405180910390a36000606860006101000a81548173ffffffffffffffffffffffffffffffffffffffff021916908373ffffffffffffffffffffffffffffffffffffffff160217905550565b6101085481565b6101165481565b61010f5481565b61010d5481565b6101155481565b61010a5481565b6000606860009054906101000a900473ffffffffffffffffffffffffffffffffffffffff16905090565b6000606860009054906101000a900473ffffffffffffffffffffffffffffffffffffffff1673ffffffffffffffffffffffffffffffffffffffff163373ffffffffffffffffffffffffffffffffffffffff1614905090565b6101028054600181600116156101000203166002900480601f01602080910402602001604051908101604052809291908181526020018280546001816001161561010002031660029004801561262d5780601f106126025761010080835404028352916020019161262d565b820191906000526020600020905b81548152906001019060200180831161261057829003601f168201915b505050505081565b6000919050565b61264533612a84565b151561265057600080fd5b6126598161367c565b50565b612665336136d6565b565b60008073ffffffffffffffffffffffffffffffffffffffff168373ffffffffffffffffffffffffffffffffffffffff16141515156126a457600080fd5b61273382603460003373ffffffffffffffffffffffffffffffffffffffff1673ffffffffffffffffffffffffffffffffffffffff16815260200190815260200160002060008673ffffffffffffffffffffffffffffffffffffffff1673ffffffffffffffffffffffffffffffffffffffff1681526020019081526020016000205461309090919063ffffffff16565b603460003373ffffffffffffffffffffffffffffffffffffffff1673ffffffffffffffffffffffffffffffffffffffff16815260200190815260200160002060008573ffffffffffffffffffffffffffffffffffffffff1673ffffffffffffffffffffffffffffffffffffffff168152602001908152602001600020819055508273ffffffffffffffffffffffffffffffffffffffff163373ffffffffffffffffffffffffffffffffffffffff167f8c5be1e5ebec7d5bd14f71427d1e84f3dd0314c0f7b2291e5b200ac8c7c3b925603460003373ffffffffffffffffffffffffffffffffffffffff1673ffffffffffffffffffffffffffffffffffffffff16815260200190815260200160002060008773ffffffffffffffffffffffffffffffffffffffff1673ffffffffffffffffffffffffffffffffffffffff168152602001908152602001600020546040518082815260200191505060405180910390a36001905092915050565b6101065481565b60006128b23384846130b2565b6001905092915050565b60008060006128c9611602565b90508061010f54101515612945576040517f08c379a00000000000000000000000000000000000000000000000000000000081526004018080602001828103825260188152602001807f4e6f206e6577207265776172647320617661696c61626c65000000000000000081525060200191505060405180910390fd5b600061295d61010f548361309090919063ffffffff16565b90506101095461010f541015156129935760006101115490506129808183613730565b935061298c3085612177565b50506129eb565b610109548210156129ae576129a7816137cc565b92506129ea565b60006129b861387b565b905060006129c5846138a0565b90506129da818361328290919063ffffffff16565b94506129e63082612177565b5050505b5b6129f4836138ef565b6129fc6139de565b508161010f81905550612a1b836101115461328290919063ffffffff16565b610111819055507f39c15e2884a29a8ddf54563c3cb131c46f3667ecc29b194be9f5cf91b2879725836101125461011354610115546040518085815260200184815260200183815260200182815260200194505050505060405180910390a16001935050505090565b6000612a9a82609b613b8e90919063ffffffff16565b9050919050565b61010460009054906101000a900473ffffffffffffffffffffffffffffffffffffffff1681565b6101145481565b600060019054906101000a900460ff1680612aee5750612aed6132a3565b5b80612b0557506000809054906101000a900460ff16155b1515612b9f576040517f08c379a000000000000000000000000000000000000000000000000000000000815260040180806020018281038252602e8152602001807f436f6e747261637420696e7374616e63652068617320616c726561647920626581526020017f656e20696e697469616c697a656400000000000000000000000000000000000081525060400191505060405180910390fd5b60008060019054906101000a900460ff1690506001600060016101000a81548160ff02191690831515021790555060016000806101000a81548160ff021916908315150217905550612bf082613c22565b80600060016101000a81548160ff0219169083151502179055505050565b600a61011981905550565b6000612c2361253e565b1515612c2e57600080fd5b610113548211151515612ccf576040517f08c379a00000000000000000000000000000000000000000000000000000000081526004018080602001828103825260248152602001807f4e6f7420656e6f7567682061697264726f70207265776172647320617661696c81526020017f61626c650000000000000000000000000000000000000000000000000000000081525060400191505060405180910390fd5b612ce5826101135461309090919063ffffffff16565b61011381905550612d02826101175461328290919063ffffffff16565b6101178190555060019050919050565b6101105481565b6000603460008473ffffffffffffffffffffffffffffffffffffffff1673ffffffffffffffffffffffffffffffffffffffff16815260200190815260200160002060008373ffffffffffffffffffffffffffffffffffffffff1673ffffffffffffffffffffffffffffffffffffffff16815260200190815260200160002054905092915050565b61010c5481565b60008161010d8190555061010d549050919050565b6101115481565b6000612df161010460009054906101000a900473ffffffffffffffffffffffffffffffffffffffff166123cd565b90503073ffffffffffffffffffffffffffffffffffffffff166323b872dd61010460009054906101000a900473ffffffffffffffffffffffffffffffffffffffff16610123846040518463ffffffff167c0100000000000000000000000000000000000000000000000000000000028152600401808473ffffffffffffffffffffffffffffffffffffffff1673ffffffffffffffffffffffffffffffffffffffff1681526020018373ffffffffffffffffffffffffffffffffffffffff1673ffffffffffffffffffffffffffffffffffffffff1681526020018281526020019350505050602060405180830381600087803b158015612eef57600080fd5b505af1158015612f03573d6000803e3d6000fd5b505050506040513d6020811015612f1957600080fd5b81019080805190602001909291905050505050565b600061011860008373ffffffffffffffffffffffffffffffffffffffff1673ffffffffffffffffffffffffffffffffffffffff168152602001908152602001600020549050919050565b6101125481565b612f8761253e565b1515612f9257600080fd5b612f9b81613d71565b50565b6101175481565b6101135481565b60008060008060418551141515612fc9576000935050505061308a565b6020850151925060408501519150606085015160001a9050601b8160ff161015612ff457601b810190505b601b8160ff161415801561300c5750601c8160ff1614155b1561301d576000935050505061308a565b60018682858560405160008152602001604052604051808581526020018460ff1660ff1681526020018381526020018281526020019450505050506020604051602081039080840390855afa15801561307a573d6000803e3d6000fd5b5050506020604051035193505050505b92915050565b60008282111515156130a157600080fd5b600082840390508091505092915050565b600073ffffffffffffffffffffffffffffffffffffffff168273ffffffffffffffffffffffffffffffffffffffff16141515156130ee57600080fd5b61314081603360008673ffffffffffffffffffffffffffffffffffffffff1673ffffffffffffffffffffffffffffffffffffffff1681526020019081526020016000205461309090919063ffffffff16565b603360008573ffffffffffffffffffffffffffffffffffffffff1673ffffffffffffffffffffffffffffffffffffffff168152602001908152602001600020819055506131d581603360008573ffffffffffffffffffffffffffffffffffffffff1673ffffffffffffffffffffffffffffffffffffffff1681526020019081526020016000205461328290919063ffffffff16565b603360008473ffffffffffffffffffffffffffffffffffffffff1673ffffffffffffffffffffffffffffffffffffffff168152602001908152602001600020819055508173ffffffffffffffffffffffffffffffffffffffff168373ffffffffffffffffffffffffffffffffffffffff167fddf252ad1be2c89b69c2b068fc378daa952ba7f163c4a11628f55a4df523b3ef836040518082815260200191505060405180910390a3505050565b600080828401905083811015151561329957600080fd5b8091505092915050565b600080303b90506000811491505090565b600060019054906101000a900460ff16806132d357506132d26132a3565b5b806132ea57506000809054906101000a900460ff16155b1515613384576040517f08c379a000000000000000000000000000000000000000000000000000000000815260040180806020018281038252602e8152602001807f436f6e747261637420696e7374616e63652068617320616c726561647920626581526020017f656e20696e697469616c697a656400000000000000000000000000000000000081525060400191505060405180910390fd5b60008060019054906101000a900460ff1690506001600060016101000a81548160ff02191690831515021790555060016000806101000a81548160ff02191690831515021790555081606860006101000a81548173ffffffffffffffffffffffffffffffffffffffff021916908373ffffffffffffffffffffffffffffffffffffffff160217905550606860009054906101000a900473ffffffffffffffffffffffffffffffffffffffff1673ffffffffffffffffffffffffffffffffffffffff16600073ffffffffffffffffffffffffffffffffffffffff167f8be0079c531659141344cd1fd0a4f28419497f9722a3daafe3b4186f6b6457e060405160405180910390a380600060016101000a81548160ff0219169083151502179055505050565b60006134b43083612177565b5060019050919050565b600073ffffffffffffffffffffffffffffffffffffffff168273ffffffffffffffffffffffffffffffffffffffff16141515156134fa57600080fd5b61350f8160355461328290919063ffffffff16565b60358190555061356781603360008573ffffffffffffffffffffffffffffffffffffffff1673ffffffffffffffffffffffffffffffffffffffff1681526020019081526020016000205461328290919063ffffffff16565b603360008473ffffffffffffffffffffffffffffffffffffffff1673ffffffffffffffffffffffffffffffffffffffff168152602001908152602001600020819055508173ffffffffffffffffffffffffffffffffffffffff16600073ffffffffffffffffffffffffffffffffffffffff167fddf252ad1be2c89b69c2b068fc378daa952ba7f163c4a11628f55a4df523b3ef836040518082815260200191505060405180910390a35050565b600080831415613627576000905061364c565b6000828402905082848281151561363a57fe5b0414151561364757600080fd5b809150505b92915050565b6000808211151561366257600080fd5b6000828481151561366f57fe5b0490508091505092915050565b61369081609b613e6d90919063ffffffff16565b8073ffffffffffffffffffffffffffffffffffffffff167f6ae172837ea30b801fbfcdd4108aa1d5bf8ff775444fd70256b44e6bf3dfc3f660405160405180910390a250565b6136ea81609b613f1d90919063ffffffff16565b8073ffffffffffffffffffffffffffffffffffffffff167fe94479a9f7e1952cc78f2d6baab678adc1b772d936c6583def489e524cb6669260405160405180910390a250565b600080839050600080600090505b848110156137c057600061378661010160009054906101000a900460ff1660ff16600a0a613778866101085461361490919063ffffffff16565b61365290919063ffffffff16565b905061379b818461328290919063ffffffff16565b92506137b0818561328290919063ffffffff16565b935050808060010191505061373e565b50809250505092915050565b600080600061010f5414156137e2576101055490505b620186a083101561387157600080600090505b8481101561386a5761383e61010160009054906101000a900460ff1660ff16600a0a6138306101105461010b5461361490919063ffffffff16565b61365290919063ffffffff16565b9150613853828461328290919063ffffffff16565b9250816101108190555080806001019150506137f5565b5050613872565b5b80915050919050565b6000806138976101115461010c5461309090919063ffffffff16565b90508091505090565b60008061010c54905060006138d460016138c6610109548761309090919063ffffffff16565b61328290919063ffffffff16565b905060006138e28383613730565b9050809350505050919050565b6000613918600561390a60048561361490919063ffffffff16565b61365290919063ffffffff16565b905061394361393160038361365290919063ffffffff16565b6101135461328290919063ffffffff16565b6101138190555061397361396160038361365290919063ffffffff16565b6101125461328290919063ffffffff16565b610112819055506139a361399160038361365290919063ffffffff16565b6101145461328290919063ffffffff16565b610114819055506139d36139c160058461365290919063ffffffff16565b6101155461328290919063ffffffff16565b610115819055505050565b60003073ffffffffffffffffffffffffffffffffffffffff1663a9059cbb61010460009054906101000a900473ffffffffffffffffffffffffffffffffffffffff16610115546040518363ffffffff167c0100000000000000000000000000000000000000000000000000000000028152600401808373ffffffffffffffffffffffffffffffffffffffff1673ffffffffffffffffffffffffffffffffffffffff16815260200182815260200192505050602060405180830381600087803b158015613aa957600080fd5b505af1158015613abd573d6000803e3d6000fd5b505050506040513d6020811015613ad357600080fd5b81019080805190602001909291905050501515613b7e576040517f08c379a00000000000000000000000000000000000000000000000000000000081526004018080602001828103825260218152602001807f5472616e7366657220746f2064657646756e6441646472657373206661696c6581526020017f640000000000000000000000000000000000000000000000000000000000000081525060400191505060405180910390fd5b6000610115819055506001905090565b60008073ffffffffffffffffffffffffffffffffffffffff168273ffffffffffffffffffffffffffffffffffffffff1614151515613bcb57600080fd5b8260000160008373ffffffffffffffffffffffffffffffffffffffff1673ffffffffffffffffffffffffffffffffffffffff16815260200190815260200160002060009054906101000a900460ff16905092915050565b600060019054906101000a900460ff1680613c415750613c406132a3565b5b80613c5857506000809054906101000a900460ff16155b1515613cf2576040517f08c379a000000000000000000000000000000000000000000000000000000000815260040180806020018281038252602e8152602001807f436f6e747261637420696e7374616e63652068617320616c726561647920626581526020017f656e20696e697469616c697a656400000000000000000000000000000000000081525060400191505060405180910390fd5b60008060019054906101000a900460ff1690506001600060016101000a81548160ff02191690831515021790555060016000806101000a81548160ff021916908315150217905550613d4382612a84565b1515613d5357613d528261367c565b5b80600060016101000a81548160ff0219169083151502179055505050565b600073ffffffffffffffffffffffffffffffffffffffff168173ffffffffffffffffffffffffffffffffffffffff1614151515613dad57600080fd5b8073ffffffffffffffffffffffffffffffffffffffff16606860009054906101000a900473ffffffffffffffffffffffffffffffffffffffff1673ffffffffffffffffffffffffffffffffffffffff167f8be0079c531659141344cd1fd0a4f28419497f9722a3daafe3b4186f6b6457e060405160405180910390a380606860006101000a81548173ffffffffffffffffffffffffffffffffffffffff021916908373ffffffffffffffffffffffffffffffffffffffff16021790555050565b600073ffffffffffffffffffffffffffffffffffffffff168173ffffffffffffffffffffffffffffffffffffffff1614151515613ea957600080fd5b613eb38282613b8e565b151515613ebf57600080fd5b60018260000160008373ffffffffffffffffffffffffffffffffffffffff1673ffffffffffffffffffffffffffffffffffffffff16815260200190815260200160002060006101000a81548160ff0219169083151502179055505050565b600073ffffffffffffffffffffffffffffffffffffffff168173ffffffffffffffffffffffffffffffffffffffff1614151515613f5957600080fd5b613f638282613b8e565b1515613f6e57600080fd5b60008260000160008373ffffffffffffffffffffffffffffffffffffffff1673ffffffffffffffffffffffffffffffffffffffff16815260200190815260200160002060006101000a81548160ff0219169083151502179055505050565b828054600181600116156101000203166002900490600052602060002090601f016020900481019282601f1061400d57805160ff191683800117855561403b565b8280016001018555821561403b579182015b8281111561403a57825182559160200191906001019061401f565b5b509050614048919061404c565b5090565b61406e91905b8082111561406a576000816000905550600101614052565b5090565b9056fea165627a7a7230582006719cbdf88498bcfafa444db6ee5fa5d2cadb6c47688c89b61b108be557718c0029",
  "source": "pragma solidity ^0.5.0;\n\nimport \"../RelevantToken.sol\";\n\ncontract RelevantTokenMock is RelevantToken{\n  /**\n   * @dev Return current round number // using the state variable set by setRoundNum, for testing\n   */\n  function roundNum() public view returns (uint256) {\n    // return (block.number.sub(startBlock)).div(roundLength);\n    return currentRound;\n  }\n\n  /**\n   * @dev Artificially increases current round number // auxiliary function for testing (simulating block progression)\n   */\n  function setRoundNum(uint256 _roundNum) public returns (uint256) {\n    currentRound = _roundNum;\n    return currentRound;\n  }\n\n  /**\n   * @dev Artificially sets the last release round // auxiliary function for testing (simulating reward release)\n   */\n  function setLastRound(uint256 _roundNum, uint256 _lastRoundReward, uint256 _totalReleased) public onlyOwner returns (uint256) {\n    require(_roundNum < currentRound, \"Last release must be before current round\");\n    lastRound = _roundNum;\n    lastRoundReward = _lastRoundReward;\n    totalReleased = _totalReleased;\n    rewardFund = _totalReleased.mul(4).div(5 * 3);\n    airdropFund = _totalReleased.mul(4).div(5 * 3);\n    reserveFund = _totalReleased.mul(4).div(5 * 3);\n    // devFund is always 0 since it gets transferred right away\n    return lastRound;\n  }\n\n  /**\n   * @dev Artificially empties the devFund account of all accumulated tokens // auxiliary function for testing\n   */\n  function emptyDevBalance() public {\n    uint devBalance = balanceOf(devFundAddress);\n    this.transferFrom(devFundAddress, address(0x123), devBalance);\n  }\n}\n",
  "sourcePath": "/Users/acrudol/Documents/Code/Relevant/token/contracts/mocks/RelevantTokenMock.sol",
  "compiler": {
    "name": "solc",
    "version": "0.5.0+commit.1d4f565a.Emscripten.clang"
  },
  "schemaVersion": "3.0.9",
  "updatedAt": "2019-05-14T08:11:16.358Z",
  "devdoc": {
    "methods": {
      "allocateAirdrops(uint256)": {
        "details": "Allocate airdrop rewards",
        "params": {
          "_rewards": "to be reserved for user claims"
        }
      },
      "allocateRewards(uint256)": {
        "details": "Allocate curation rewards",
        "params": {
          "_rewards": "to be reserved for users claims"
        }
      },
      "allowance(address,address)": {
        "details": "Function to check the amount of tokens that an owner allowed to a spender.",
        "params": {
          "owner": "address The address which owns the funds.",
          "spender": "address The address which will spend the funds."
        },
        "return": "A uint256 specifying the amount of tokens still available for the spender."
      },
      "approve(address,uint256)": {
        "details": "Approve the passed address to spend the specified amount of tokens on behalf of msg.sender. Beware that changing an allowance with this method brings the risk that someone may use both the old and the new allowance by unfortunate transaction ordering. One possible solution to mitigate this race condition is to first reduce the spender's allowance to 0 and set the desired value afterwards: https://github.com/ethereum/EIPs/issues/20#issuecomment-263524729",
        "params": {
          "spender": "The address which will spend the funds.",
          "value": "The amount of tokens to be spent."
        }
      },
      "balanceOf(address)": {
        "details": "Gets the balance of the specified address.",
        "params": {
          "owner": "The address to query the balance of."
        },
        "return": "An uint256 representing the amount owned by the passed address."
      },
      "claimTokens(uint256,bytes)": {
        "details": "Claim curation reward tokens (to be called by user)",
        "params": {
          "_amount": "amount to be transferred to user",
          "_sig": "Signature by contract owner authorizing the transaction"
        }
      },
      "decreaseAllowance(address,uint256)": {
        "details": "Decrease the amount of tokens that an owner allowed to a spender. approve should be called when allowed_[_spender] == 0. To decrement allowed value is better to use this function to avoid 2 calls (and wait until the first transaction is mined) From MonolithDAO Token.sol Emits an Approval event.",
        "params": {
          "spender": "The address which will spend the funds.",
          "subtractedValue": "The amount of tokens to decrease the allowance by."
        }
      },
      "emptyDevBalance()": {
        "details": "Artificially empties the devFund account of all accumulated tokens // auxiliary function for testing"
      },
      "increaseAllowance(address,uint256)": {
        "details": "Increase the amount of tokens that an owner allowed to a spender. approve should be called when allowed_[_spender] == 0. To increment allowed value is better to use this function to avoid 2 calls (and wait until the first transaction is mined) From MonolithDAO Token.sol Emits an Approval event.",
        "params": {
          "addedValue": "The amount of tokens to increase the allowance by.",
          "spender": "The address which will spend the funds."
        }
      },
      "initialize(string,uint8,string,string,address,uint256,uint256,uint256,uint256,uint256,uint256,uint256)": {
        "details": "ContPreInflationaryToken constructor",
        "params": {
          "_devFundAddress": "Address that receives and manages newly minted tokens for development fund",
          "_initRoundReward": "Number of released inflationary tokens per round during the first round",
          "_roundDecay": "Decay factor for the reward reduction during one round - can be calculated from timeConstant and roundLength",
          "_roundLength": "Number of blocks that make up an inflation release round",
          "_targetInflation": "Target inflation rate per round at which the reward decay should stop - can be calculated from target yearly inflation rate",
          "_targetRound": "Number of round from which inflation stays constant - can be calculated from timeConstant, initRoundReward and targetInflation",
          "_timeConstant": "Number of blocks after which reward reduces to 37% of initial value during exponential decay - can be calculated from half-life",
          "_totalPremint": "Rewards that are preminted (all until decay stops) - can be calculated from timeConstant, initRoundReward and targetInflation"
        }
      },
      "isOwner()": {
        "return": "true if `msg.sender` is the owner of the contract."
      },
      "mint(address,uint256)": {
        "details": "Function to mint tokens",
        "params": {
          "to": "The address that will receive the minted tokens.",
          "value": "The amount of tokens to mint."
        },
        "return": "A boolean that indicates if the operation was successful."
      },
      "nonceOf(address)": {
        "details": "Nonce of user",
        "params": {
          "_account": "User account address"
        },
        "return": "nonce of user"
      },
      "owner()": {
        "return": "the address of the owner."
      },
      "partialSum(uint256)": {
        "details": "Calculates total number of tokens to be minted during the decay phase until _round",
        "params": {
          "_round": "Round until which the partial sum is taken"
        }
      },
      "releaseTokens()": {
        "details": "Compute and release currently releasable inflationary rewards"
      },
      "renounceOwnership()": {
        "details": "Allows the current owner to relinquish control of the contract."
      },
      "roundNum()": {
        "details": "Return current round number // using the state variable set by setRoundNum, for testing"
      },
      "roundsSincleLast()": {
        "details": "Return rounds since last release"
      },
      "setLastRound(uint256,uint256,uint256)": {
        "details": "Artificially sets the last release round // auxiliary function for testing (simulating reward release)"
      },
      "setRoundNum(uint256)": {
        "details": "Artificially increases current round number // auxiliary function for testing (simulating block progression)"
      },
      "totalSupply()": {
        "details": "Total number of tokens in existence"
      },
      "transfer(address,uint256)": {
        "details": "Transfer token for a specified address",
        "params": {
          "to": "The address to transfer to.",
          "value": "The amount to be transferred."
        }
      },
      "transferFrom(address,address,uint256)": {
        "details": "Transfer tokens from one address to another. Note that while this function emits an Approval event, this is not required as per the specification, and other compliant implementations may not emit the event.",
        "params": {
          "from": "address The address which you want to send tokens from",
          "to": "address The address which you want to transfer to",
          "value": "uint256 the amount of tokens to be transferred"
        }
      },
      "transferOwnership(address)": {
        "details": "Allows the current owner to transfer control of the contract to a newOwner.",
        "params": {
          "newOwner": "The address to transfer ownership to."
        }
      }
    }
  },
  "userdoc": {
    "methods": {
      "renounceOwnership()": {
        "notice": "Renouncing to ownership will leave the contract without an owner. It will not be possible to call the functions with the `onlyOwner` modifier anymore."
      }
    }
  }
}