{
  "contractName": "RelevantTokenMock",
  "abi": [
    {
      "constant": true,
      "inputs": [],
      "name": "name",
      "outputs": [
        {
          "name": "",
          "type": "string"
        }
      ],
      "payable": false,
      "stateMutability": "view",
      "type": "function"
    },
    {
      "constant": false,
      "inputs": [
        {
          "name": "spender",
          "type": "address"
        },
        {
          "name": "value",
          "type": "uint256"
        }
      ],
      "name": "approve",
      "outputs": [
        {
          "name": "",
          "type": "bool"
        }
      ],
      "payable": false,
      "stateMutability": "nonpayable",
      "type": "function"
    },
    {
      "constant": false,
      "inputs": [
        {
          "name": "_amount",
          "type": "uint256"
        },
        {
          "name": "_sig",
          "type": "bytes"
        }
      ],
      "name": "claimTokens",
      "outputs": [
        {
          "name": "",
          "type": "bool"
        }
      ],
      "payable": false,
      "stateMutability": "nonpayable",
      "type": "function"
    },
    {
      "constant": true,
      "inputs": [],
      "name": "targetRound",
      "outputs": [
        {
          "name": "",
          "type": "uint256"
        }
      ],
      "payable": false,
      "stateMutability": "view",
      "type": "function"
    },
    {
      "constant": true,
      "inputs": [],
      "name": "totalSupply",
      "outputs": [
        {
          "name": "",
          "type": "uint256"
        }
      ],
      "payable": false,
      "stateMutability": "view",
      "type": "function"
    },
    {
      "constant": false,
      "inputs": [
        {
          "name": "from",
          "type": "address"
        },
        {
          "name": "to",
          "type": "address"
        },
        {
          "name": "value",
          "type": "uint256"
        }
      ],
      "name": "transferFrom",
      "outputs": [
        {
          "name": "",
          "type": "bool"
        }
      ],
      "payable": false,
      "stateMutability": "nonpayable",
      "type": "function"
    },
    {
      "constant": false,
      "inputs": [
        {
          "name": "_rewards",
          "type": "uint256"
        }
      ],
      "name": "allocateRewards",
      "outputs": [
        {
          "name": "",
          "type": "bool"
        }
      ],
      "payable": false,
      "stateMutability": "nonpayable",
      "type": "function"
    },
    {
      "constant": true,
      "inputs": [],
      "name": "initRoundReward",
      "outputs": [
        {
          "name": "",
          "type": "uint256"
        }
      ],
      "payable": false,
      "stateMutability": "view",
      "type": "function"
    },
    {
      "constant": true,
      "inputs": [],
      "name": "decimals",
      "outputs": [
        {
          "name": "",
          "type": "uint8"
        }
      ],
      "payable": false,
      "stateMutability": "view",
      "type": "function"
    },
    {
      "constant": false,
      "inputs": [
        {
          "name": "_name",
          "type": "string"
        },
        {
          "name": "_decimals",
          "type": "uint8"
        },
        {
          "name": "_symbol",
          "type": "string"
        },
        {
          "name": "_version",
          "type": "string"
        },
        {
          "name": "_devFundAddress",
          "type": "address"
        },
        {
          "name": "_initRoundReward",
          "type": "uint256"
        },
        {
          "name": "_timeConstant",
          "type": "uint256"
        },
        {
          "name": "_targetInflation",
          "type": "uint256"
        },
        {
          "name": "_targetRound",
          "type": "uint256"
        },
        {
          "name": "_roundLength",
          "type": "uint256"
        },
        {
          "name": "_roundDecay",
          "type": "uint256"
        },
        {
          "name": "_totalPremint",
          "type": "uint256"
        }
      ],
      "name": "initialize",
      "outputs": [],
      "payable": false,
      "stateMutability": "nonpayable",
      "type": "function"
    },
    {
      "constant": false,
      "inputs": [
        {
          "name": "spender",
          "type": "address"
        },
        {
          "name": "addedValue",
          "type": "uint256"
        }
      ],
      "name": "increaseAllowance",
      "outputs": [
        {
          "name": "",
          "type": "bool"
        }
      ],
      "payable": false,
      "stateMutability": "nonpayable",
      "type": "function"
    },
    {
      "constant": false,
      "inputs": [
        {
          "name": "to",
          "type": "address"
        },
        {
          "name": "value",
          "type": "uint256"
        }
      ],
      "name": "mint",
      "outputs": [
        {
          "name": "",
          "type": "bool"
        }
      ],
      "payable": false,
      "stateMutability": "nonpayable",
      "type": "function"
    },
    {
      "constant": true,
      "inputs": [],
      "name": "timeConstant",
      "outputs": [
        {
          "name": "",
          "type": "uint256"
        }
      ],
      "payable": false,
      "stateMutability": "view",
      "type": "function"
    },
    {
      "constant": true,
      "inputs": [],
      "name": "startBlock",
      "outputs": [
        {
          "name": "",
          "type": "uint256"
        }
      ],
      "payable": false,
      "stateMutability": "view",
      "type": "function"
    },
    {
      "constant": true,
      "inputs": [],
      "name": "roundsSincleLast",
      "outputs": [
        {
          "name": "",
          "type": "uint256"
        }
      ],
      "payable": false,
      "stateMutability": "view",
      "type": "function"
    },
    {
      "constant": true,
      "inputs": [],
      "name": "version",
      "outputs": [
        {
          "name": "",
          "type": "string"
        }
      ],
      "payable": false,
      "stateMutability": "view",
      "type": "function"
    },
    {
      "constant": true,
      "inputs": [],
      "name": "airdropSwitchRound",
      "outputs": [
        {
          "name": "",
          "type": "uint256"
        }
      ],
      "payable": false,
      "stateMutability": "view",
      "type": "function"
    },
    {
      "constant": true,
      "inputs": [],
      "name": "roundDecay",
      "outputs": [
        {
          "name": "",
          "type": "uint256"
        }
      ],
      "payable": false,
      "stateMutability": "view",
      "type": "function"
    },
    {
      "constant": true,
      "inputs": [
        {
          "name": "owner",
          "type": "address"
        }
      ],
      "name": "balanceOf",
      "outputs": [
        {
          "name": "",
          "type": "uint256"
        }
      ],
      "payable": false,
      "stateMutability": "view",
      "type": "function"
    },
    {
      "constant": false,
      "inputs": [],
      "name": "renounceOwnership",
      "outputs": [],
      "payable": false,
      "stateMutability": "nonpayable",
      "type": "function"
    },
    {
      "constant": true,
      "inputs": [],
      "name": "targetInflation",
      "outputs": [
        {
          "name": "",
          "type": "uint256"
        }
      ],
      "payable": false,
      "stateMutability": "view",
      "type": "function"
    },
    {
      "constant": true,
      "inputs": [],
      "name": "allocatedRewards",
      "outputs": [
        {
          "name": "",
          "type": "uint256"
        }
      ],
      "payable": false,
      "stateMutability": "view",
      "type": "function"
    },
    {
      "constant": true,
      "inputs": [],
      "name": "lastRound",
      "outputs": [
        {
          "name": "",
          "type": "uint256"
        }
      ],
      "payable": false,
      "stateMutability": "view",
      "type": "function"
    },
    {
      "constant": true,
      "inputs": [],
      "name": "currentRound",
      "outputs": [
        {
          "name": "",
          "type": "uint256"
        }
      ],
      "payable": false,
      "stateMutability": "view",
      "type": "function"
    },
    {
      "constant": true,
      "inputs": [],
      "name": "developmentFund",
      "outputs": [
        {
          "name": "",
          "type": "uint256"
        }
      ],
      "payable": false,
      "stateMutability": "view",
      "type": "function"
    },
    {
      "constant": true,
      "inputs": [],
      "name": "roundLength",
      "outputs": [
        {
          "name": "",
          "type": "uint256"
        }
      ],
      "payable": false,
      "stateMutability": "view",
      "type": "function"
    },
    {
      "constant": true,
      "inputs": [],
      "name": "owner",
      "outputs": [
        {
          "name": "",
          "type": "address"
        }
      ],
      "payable": false,
      "stateMutability": "view",
      "type": "function"
    },
    {
      "constant": true,
      "inputs": [],
      "name": "isOwner",
      "outputs": [
        {
          "name": "",
          "type": "bool"
        }
      ],
      "payable": false,
      "stateMutability": "view",
      "type": "function"
    },
    {
      "constant": true,
      "inputs": [],
      "name": "symbol",
      "outputs": [
        {
          "name": "",
          "type": "string"
        }
      ],
      "payable": false,
      "stateMutability": "view",
      "type": "function"
    },
    {
      "constant": true,
      "inputs": [
        {
          "name": "_round",
          "type": "uint256"
        }
      ],
      "name": "partialSum",
      "outputs": [
        {
          "name": "",
          "type": "uint256"
        }
      ],
      "payable": false,
      "stateMutability": "view",
      "type": "function"
    },
    {
      "constant": false,
      "inputs": [
        {
          "name": "account",
          "type": "address"
        }
      ],
      "name": "addMinter",
      "outputs": [],
      "payable": false,
      "stateMutability": "nonpayable",
      "type": "function"
    },
    {
      "constant": false,
      "inputs": [],
      "name": "renounceMinter",
      "outputs": [],
      "payable": false,
      "stateMutability": "nonpayable",
      "type": "function"
    },
    {
      "constant": true,
      "inputs": [],
      "name": "lastRoundAirdrop",
      "outputs": [
        {
          "name": "",
          "type": "uint256"
        }
      ],
      "payable": false,
      "stateMutability": "view",
      "type": "function"
    },
    {
      "constant": false,
      "inputs": [
        {
          "name": "spender",
          "type": "address"
        },
        {
          "name": "subtractedValue",
          "type": "uint256"
        }
      ],
      "name": "decreaseAllowance",
      "outputs": [
        {
          "name": "",
          "type": "bool"
        }
      ],
      "payable": false,
      "stateMutability": "nonpayable",
      "type": "function"
    },
    {
      "constant": true,
      "inputs": [],
      "name": "currRoundReward",
      "outputs": [
        {
          "name": "",
          "type": "uint256"
        }
      ],
      "payable": false,
      "stateMutability": "view",
      "type": "function"
    },
    {
      "constant": false,
      "inputs": [
        {
          "name": "to",
          "type": "address"
        },
        {
          "name": "value",
          "type": "uint256"
        }
      ],
      "name": "transfer",
      "outputs": [
        {
          "name": "",
          "type": "bool"
        }
      ],
      "payable": false,
      "stateMutability": "nonpayable",
      "type": "function"
    },
    {
      "constant": false,
      "inputs": [],
      "name": "releaseTokens",
      "outputs": [
        {
          "name": "",
          "type": "bool"
        }
      ],
      "payable": false,
      "stateMutability": "nonpayable",
      "type": "function"
    },
    {
      "constant": true,
      "inputs": [
        {
          "name": "account",
          "type": "address"
        }
      ],
      "name": "isMinter",
      "outputs": [
        {
          "name": "",
          "type": "bool"
        }
      ],
      "payable": false,
      "stateMutability": "view",
      "type": "function"
    },
    {
      "constant": true,
      "inputs": [],
      "name": "devFundAddress",
      "outputs": [
        {
          "name": "",
          "type": "address"
        }
      ],
      "payable": false,
      "stateMutability": "view",
      "type": "function"
    },
    {
      "constant": true,
      "inputs": [],
      "name": "reserveFund",
      "outputs": [
        {
          "name": "",
          "type": "uint256"
        }
      ],
      "payable": false,
      "stateMutability": "view",
      "type": "function"
    },
    {
      "constant": false,
      "inputs": [
        {
          "name": "sender",
          "type": "address"
        }
      ],
      "name": "initialize",
      "outputs": [],
      "payable": false,
      "stateMutability": "nonpayable",
      "type": "function"
    },
    {
      "constant": false,
      "inputs": [
        {
          "name": "_rewards",
          "type": "uint256"
        }
      ],
      "name": "allocateAirdrops",
      "outputs": [
        {
          "name": "",
          "type": "bool"
        }
      ],
      "payable": false,
      "stateMutability": "nonpayable",
      "type": "function"
    },
    {
      "constant": true,
      "inputs": [],
      "name": "airdropRoundDecay",
      "outputs": [
        {
          "name": "",
          "type": "uint256"
        }
      ],
      "payable": false,
      "stateMutability": "view",
      "type": "function"
    },
    {
      "constant": true,
      "inputs": [],
      "name": "lastRoundReward",
      "outputs": [
        {
          "name": "",
          "type": "uint256"
        }
      ],
      "payable": false,
      "stateMutability": "view",
      "type": "function"
    },
    {
      "constant": true,
      "inputs": [
        {
          "name": "owner",
          "type": "address"
        },
        {
          "name": "spender",
          "type": "address"
        }
      ],
      "name": "allowance",
      "outputs": [
        {
          "name": "",
          "type": "uint256"
        }
      ],
      "payable": false,
      "stateMutability": "view",
      "type": "function"
    },
    {
      "constant": true,
      "inputs": [],
      "name": "totalPremint",
      "outputs": [
        {
          "name": "",
          "type": "uint256"
        }
      ],
      "payable": false,
      "stateMutability": "view",
      "type": "function"
    },
    {
      "constant": true,
      "inputs": [],
      "name": "totalReleased",
      "outputs": [
        {
          "name": "",
          "type": "uint256"
        }
      ],
      "payable": false,
      "stateMutability": "view",
      "type": "function"
    },
    {
      "constant": true,
      "inputs": [],
      "name": "initRoundAirdrop",
      "outputs": [
        {
          "name": "",
          "type": "uint256"
        }
      ],
      "payable": false,
      "stateMutability": "view",
      "type": "function"
    },
    {
      "constant": true,
      "inputs": [
        {
          "name": "_account",
          "type": "address"
        }
      ],
      "name": "nonceOf",
      "outputs": [
        {
          "name": "",
          "type": "uint256"
        }
      ],
      "payable": false,
      "stateMutability": "view",
      "type": "function"
    },
    {
      "constant": false,
      "inputs": [
        {
          "name": "_airdropSwitchRound",
          "type": "uint256"
        },
        {
          "name": "_airdropRoundDecay",
          "type": "uint256"
        },
        {
          "name": "_firstNewAirdrop",
          "type": "uint256"
        }
      ],
      "name": "initializeRewardSplit",
      "outputs": [],
      "payable": false,
      "stateMutability": "nonpayable",
      "type": "function"
    },
    {
      "constant": true,
      "inputs": [],
      "name": "rewardFund",
      "outputs": [
        {
          "name": "",
          "type": "uint256"
        }
      ],
      "payable": false,
      "stateMutability": "view",
      "type": "function"
    },
    {
      "constant": false,
      "inputs": [
        {
          "name": "newOwner",
          "type": "address"
        }
      ],
      "name": "transferOwnership",
      "outputs": [],
      "payable": false,
      "stateMutability": "nonpayable",
      "type": "function"
    },
    {
      "constant": true,
      "inputs": [],
      "name": "allocatedAirdrops",
      "outputs": [
        {
          "name": "",
          "type": "uint256"
        }
      ],
      "payable": false,
      "stateMutability": "view",
      "type": "function"
    },
    {
      "constant": true,
      "inputs": [],
      "name": "airdropFund",
      "outputs": [
        {
          "name": "",
          "type": "uint256"
        }
      ],
      "payable": false,
      "stateMutability": "view",
      "type": "function"
    },
    {
      "anonymous": false,
      "inputs": [
        {
          "indexed": false,
          "name": "releasableTokens",
          "type": "uint256"
        },
        {
          "indexed": false,
          "name": "rewardFund",
          "type": "uint256"
        },
        {
          "indexed": false,
          "name": "airdropFund",
          "type": "uint256"
        },
        {
          "indexed": false,
          "name": "developmentFund",
          "type": "uint256"
        }
      ],
      "name": "Released",
      "type": "event"
    },
    {
      "anonymous": false,
      "inputs": [
        {
          "indexed": true,
          "name": "account",
          "type": "address"
        }
      ],
      "name": "MinterAdded",
      "type": "event"
    },
    {
      "anonymous": false,
      "inputs": [
        {
          "indexed": true,
          "name": "account",
          "type": "address"
        }
      ],
      "name": "MinterRemoved",
      "type": "event"
    },
    {
      "anonymous": false,
      "inputs": [
        {
          "indexed": true,
          "name": "previousOwner",
          "type": "address"
        },
        {
          "indexed": true,
          "name": "newOwner",
          "type": "address"
        }
      ],
      "name": "OwnershipTransferred",
      "type": "event"
    },
    {
      "anonymous": false,
      "inputs": [
        {
          "indexed": true,
          "name": "from",
          "type": "address"
        },
        {
          "indexed": true,
          "name": "to",
          "type": "address"
        },
        {
          "indexed": false,
          "name": "value",
          "type": "uint256"
        }
      ],
      "name": "Transfer",
      "type": "event"
    },
    {
      "anonymous": false,
      "inputs": [
        {
          "indexed": true,
          "name": "owner",
          "type": "address"
        },
        {
          "indexed": true,
          "name": "spender",
          "type": "address"
        },
        {
          "indexed": false,
          "name": "value",
          "type": "uint256"
        }
      ],
      "name": "Approval",
      "type": "event"
    },
    {
      "constant": true,
      "inputs": [],
      "name": "roundNum",
      "outputs": [
        {
          "name": "",
          "type": "uint256"
        }
      ],
      "payable": false,
      "stateMutability": "view",
      "type": "function"
    },
    {
      "constant": false,
      "inputs": [
        {
          "name": "_roundNum",
          "type": "uint256"
        }
      ],
      "name": "setRoundNum",
      "outputs": [
        {
          "name": "",
          "type": "uint256"
        }
      ],
      "payable": false,
      "stateMutability": "nonpayable",
      "type": "function"
    },
    {
      "constant": false,
      "inputs": [
        {
          "name": "_roundNum",
          "type": "uint256"
        },
        {
          "name": "_lastRoundReward",
          "type": "uint256"
        },
        {
          "name": "_totalReleased",
          "type": "uint256"
        }
      ],
      "name": "setLastRound",
      "outputs": [
        {
          "name": "",
          "type": "uint256"
        }
      ],
      "payable": false,
      "stateMutability": "nonpayable",
      "type": "function"
    },
    {
      "constant": false,
      "inputs": [],
      "name": "emptyDevBalance",
      "outputs": [],
      "payable": false,
      "stateMutability": "nonpayable",
      "type": "function"
    }
  ],
  "bytecode": "0x608060405234801561001057600080fd5b50614379806100206000396000f3fe6080604052600436106102b4576000357c0100000000000000000000000000000000000000000000000000000000900463ffffffff16806306fdde03146102b9578063095ea7b314610349578063119b22b3146103bc57806314d8bbf1146103e75780631727bcc7146104d157806318160ddd146104fc57806323b872dd1461052757806328fc33c7146105ba57806329a0f85b1461060d578063313ce567146106385780633180bfe11461066957806339509351146108d357806340c10f191461094657806343568eae146109b957806348cd4cb1146109e45780634cf9b9aa14610a0f5780634e33946114610a3a57806354fd4d5014610a9d5780635f04d72414610b2d578063672ff5d414610b5857806370a0823114610b83578063715018a614610be85780637581d1d114610bff5780637d556df014610c2a57806382bc07e614610c555780638a19c8bc14610c805780638a2381d714610cab5780638b649b9414610cd65780638da5cb5b14610d015780638f32d59b14610d5857806395d89b4114610d875780639701fa3414610e17578063983b2d5614610e665780639865027514610eb7578063a0ef67f214610ece578063a457c2d714610ef9578063a59efddd14610f6c578063a9059cbb14610f97578063a96f86681461100a578063aa271e1a14611039578063b480f6ad146110a2578063b7f92b71146110f9578063c4d66de814611124578063ca6da57e14611175578063d1cc5f93146111c8578063d7568324146111f3578063dd62ed3e1461121e578063de70289e146112a3578063dea95ff8146112ce578063e33b7de31461131d578063e5e90e2614611348578063e5f2e38314611373578063ed2a2d641461138a578063ee497bcb146113ef578063efe222661461143e578063f2fde38b14611469578063f73c1390146114ba578063fd6a93fb146114e5575b600080fd5b3480156102c557600080fd5b506102ce611510565b6040518080602001828103825283818151815260200191508051906020019080838360005b8381101561030e5780820151818401526020810190506102f3565b50505050905090810190601f16801561033b5780820380516001836020036101000a031916815260200191505b509250505060405180910390f35b34801561035557600080fd5b506103a26004803603604081101561036c57600080fd5b81019080803573ffffffffffffffffffffffffffffffffffffffff169060200190929190803590602001909291905050506115af565b604051808215151515815260200191505060405180910390f35b3480156103c857600080fd5b506103d16116dc565b6040518082815260200191505060405180910390f35b3480156103f357600080fd5b506104b76004803603604081101561040a57600080fd5b81019080803590602001909291908035906020019064010000000081111561043157600080fd5b82018360208201111561044357600080fd5b8035906020019184600183028401116401000000008311171561046557600080fd5b91908080601f016020809104026020016040519081016040528093929190818152602001838380828437600081840152601f19601f8201169050808301925050505050505091929192905050506116e7565b604051808215151515815260200191505060405180910390f35b3480156104dd57600080fd5b506104e6611a84565b6040518082815260200191505060405180910390f35b34801561050857600080fd5b50610511611a8b565b6040518082815260200191505060405180910390f35b34801561053357600080fd5b506105a06004803603606081101561054a57600080fd5b81019080803573ffffffffffffffffffffffffffffffffffffffff169060200190929190803573ffffffffffffffffffffffffffffffffffffffff16906020019092919080359060200190929190505050611a95565b604051808215151515815260200191505060405180910390f35b3480156105c657600080fd5b506105f3600480360360208110156105dd57600080fd5b8101908080359060200190929190505050611c9d565b604051808215151515815260200191505060405180910390f35b34801561061957600080fd5b50610622611d96565b6040518082815260200191505060405180910390f35b34801561064457600080fd5b5061064d611d9d565b604051808260ff1660ff16815260200191505060405180910390f35b34801561067557600080fd5b506108d1600480360361018081101561068d57600080fd5b81019080803590602001906401000000008111156106aa57600080fd5b8201836020820111156106bc57600080fd5b803590602001918460018302840111640100000000831117156106de57600080fd5b91908080601f016020809104026020016040519081016040528093929190818152602001838380828437600081840152601f19601f820116905080830192505050505050509192919290803560ff1690602001909291908035906020019064010000000081111561074e57600080fd5b82018360208201111561076057600080fd5b8035906020019184600183028401116401000000008311171561078257600080fd5b91908080601f016020809104026020016040519081016040528093929190818152602001838380828437600081840152601f19601f820116905080830192505050505050509192919290803590602001906401000000008111156107e557600080fd5b8201836020820111156107f757600080fd5b8035906020019184600183028401116401000000008311171561081957600080fd5b91908080601f016020809104026020016040519081016040528093929190818152602001838380828437600081840152601f19601f820116905080830192505050505050509192919290803573ffffffffffffffffffffffffffffffffffffffff16906020019092919080359060200190929190803590602001909291908035906020019092919080359060200190929190803590602001909291908035906020019092919080359060200190929190505050611db1565b005b3480156108df57600080fd5b5061092c600480360360408110156108f657600080fd5b81019080803573ffffffffffffffffffffffffffffffffffffffff16906020019092919080359060200190929190505050612013565b604051808215151515815260200191505060405180910390f35b34801561095257600080fd5b5061099f6004803603604081101561096957600080fd5b81019080803573ffffffffffffffffffffffffffffffffffffffff1690602001909291908035906020019092919050505061224a565b604051808215151515815260200191505060405180910390f35b3480156109c557600080fd5b506109ce612274565b6040518082815260200191505060405180910390f35b3480156109f057600080fd5b506109f961227b565b6040518082815260200191505060405180910390f35b348015610a1b57600080fd5b50610a24612282565b6040518082815260200191505060405180910390f35b348015610a4657600080fd5b50610a8760048036036060811015610a5d57600080fd5b81019080803590602001909291908035906020019092919080359060200190929190505050612296565b6040518082815260200191505060405180910390f35b348015610aa957600080fd5b50610ab26123fa565b6040518080602001828103825283818151815260200191508051906020019080838360005b83811015610af2578082015181840152602081019050610ad7565b50505050905090810190601f168015610b1f5780820380516001836020036101000a031916815260200191505b509250505060405180910390f35b348015610b3957600080fd5b50610b42612499565b6040518082815260200191505060405180910390f35b348015610b6457600080fd5b50610b6d6124a0565b6040518082815260200191505060405180910390f35b348015610b8f57600080fd5b50610bd260048036036020811015610ba657600080fd5b81019080803573ffffffffffffffffffffffffffffffffffffffff1690602001909291905050506124a7565b6040518082815260200191505060405180910390f35b348015610bf457600080fd5b50610bfd6124f0565b005b348015610c0b57600080fd5b50610c146125c4565b6040518082815260200191505060405180910390f35b348015610c3657600080fd5b50610c3f6125cb565b6040518082815260200191505060405180910390f35b348015610c6157600080fd5b50610c6a6125d2565b6040518082815260200191505060405180910390f35b348015610c8c57600080fd5b50610c956125d9565b6040518082815260200191505060405180910390f35b348015610cb757600080fd5b50610cc06125e0565b6040518082815260200191505060405180910390f35b348015610ce257600080fd5b50610ceb6125e7565b6040518082815260200191505060405180910390f35b348015610d0d57600080fd5b50610d166125ee565b604051808273ffffffffffffffffffffffffffffffffffffffff1673ffffffffffffffffffffffffffffffffffffffff16815260200191505060405180910390f35b348015610d6457600080fd5b50610d6d612618565b604051808215151515815260200191505060405180910390f35b348015610d9357600080fd5b50610d9c612670565b6040518080602001828103825283818151815260200191508051906020019080838360005b83811015610ddc578082015181840152602081019050610dc1565b50505050905090810190601f168015610e095780820380516001836020036101000a031916815260200191505b509250505060405180910390f35b348015610e2357600080fd5b50610e5060048036036020811015610e3a57600080fd5b810190808035906020019092919050505061270f565b6040518082815260200191505060405180910390f35b348015610e7257600080fd5b50610eb560048036036020811015610e8957600080fd5b81019080803573ffffffffffffffffffffffffffffffffffffffff169060200190929190505050612716565b005b348015610ec357600080fd5b50610ecc612736565b005b348015610eda57600080fd5b50610ee3612741565b6040518082815260200191505060405180910390f35b348015610f0557600080fd5b50610f5260048036036040811015610f1c57600080fd5b81019080803573ffffffffffffffffffffffffffffffffffffffff16906020019092919080359060200190929190505050612748565b604051808215151515815260200191505060405180910390f35b348015610f7857600080fd5b50610f8161297f565b6040518082815260200191505060405180910390f35b348015610fa357600080fd5b50610ff060048036036040811015610fba57600080fd5b81019080803573ffffffffffffffffffffffffffffffffffffffff16906020019092919080359060200190929190505050612986565b604051808215151515815260200191505060405180910390f35b34801561101657600080fd5b5061101f61299d565b604051808215151515815260200191505060405180910390f35b34801561104557600080fd5b506110886004803603602081101561105c57600080fd5b81019080803573ffffffffffffffffffffffffffffffffffffffff169060200190929190505050612b67565b604051808215151515815260200191505060405180910390f35b3480156110ae57600080fd5b506110b7612b84565b604051808273ffffffffffffffffffffffffffffffffffffffff1673ffffffffffffffffffffffffffffffffffffffff16815260200191505060405180910390f35b34801561110557600080fd5b5061110e612bab565b6040518082815260200191505060405180910390f35b34801561113057600080fd5b506111736004803603602081101561114757600080fd5b81019080803573ffffffffffffffffffffffffffffffffffffffff169060200190929190505050612bb2565b005b34801561118157600080fd5b506111ae6004803603602081101561119857600080fd5b8101908080359060200190929190505050612cf1565b604051808215151515815260200191505060405180910390f35b3480156111d457600080fd5b506111dd612dea565b6040518082815260200191505060405180910390f35b3480156111ff57600080fd5b50611208612df1565b6040518082815260200191505060405180910390f35b34801561122a57600080fd5b5061128d6004803603604081101561124157600080fd5b81019080803573ffffffffffffffffffffffffffffffffffffffff169060200190929190803573ffffffffffffffffffffffffffffffffffffffff169060200190929190505050612df8565b6040518082815260200191505060405180910390f35b3480156112af57600080fd5b506112b8612e7f565b6040518082815260200191505060405180910390f35b3480156112da57600080fd5b50611307600480360360208110156112f157600080fd5b8101908080359060200190929190505050612e86565b6040518082815260200191505060405180910390f35b34801561132957600080fd5b50611332612e9b565b6040518082815260200191505060405180910390f35b34801561135457600080fd5b5061135d612ea2565b6040518082815260200191505060405180910390f35b34801561137f57600080fd5b50611388612ea9565b005b34801561139657600080fd5b506113d9600480360360208110156113ad57600080fd5b81019080803573ffffffffffffffffffffffffffffffffffffffff169060200190929190505050613014565b6040518082815260200191505060405180910390f35b3480156113fb57600080fd5b5061143c6004803603606081101561141257600080fd5b8101908080359060200190929190803590602001909291908035906020019092919050505061305e565b005b34801561144a57600080fd5b5061145361311f565b6040518082815260200191505060405180910390f35b34801561147557600080fd5b506114b86004803603602081101561148c57600080fd5b81019080803573ffffffffffffffffffffffffffffffffffffffff169060200190929190505050613126565b005b3480156114c657600080fd5b506114cf613145565b6040518082815260200191505060405180910390f35b3480156114f157600080fd5b506114fa61314c565b6040518082815260200191505060405180910390f35b6101008054600181600116156101000203166002900480601f0160208091040260200160405190810160405280929190818152602001828054600181600116156101000203166002900480156115a75780601f1061157c576101008083540402835291602001916115a7565b820191906000526020600020905b81548152906001019060200180831161158a57829003601f168201915b505050505081565b60008073ffffffffffffffffffffffffffffffffffffffff168373ffffffffffffffffffffffffffffffffffffffff16141515156115ec57600080fd5b81603460003373ffffffffffffffffffffffffffffffffffffffff1673ffffffffffffffffffffffffffffffffffffffff16815260200190815260200160002060008573ffffffffffffffffffffffffffffffffffffffff1673ffffffffffffffffffffffffffffffffffffffff168152602001908152602001600020819055508273ffffffffffffffffffffffffffffffffffffffff163373ffffffffffffffffffffffffffffffffffffffff167f8c5be1e5ebec7d5bd14f71427d1e84f3dd0314c0f7b2291e5b200ac8c7c3b925846040518082815260200191505060405180910390a36001905092915050565b600061010d54905090565b60008261011654101515156116fb57600080fd5b6000833361011860003373ffffffffffffffffffffffffffffffffffffffff1673ffffffffffffffffffffffffffffffffffffffff16815260200190815260200160002054604051602001808481526020018373ffffffffffffffffffffffffffffffffffffffff1673ffffffffffffffffffffffffffffffffffffffff166c0100000000000000000000000002815260140182815260200193505050506040516020818303038152906040528051906020012090508060405160200180807f19457468657265756d205369676e6564204d6573736167653a0a333200000000815250601c01828152602001915050604051602081830303815290604052805190602001209050600061180e8285613153565b90508073ffffffffffffffffffffffffffffffffffffffff1661182f6125ee565b73ffffffffffffffffffffffffffffffffffffffff161415156118ba576040517f08c379a00000000000000000000000000000000000000000000000000000000081526004018080602001828103825260148152602001807f436c61696d206e6f7420617574686f72697a656400000000000000000000000081525060200191505060405180910390fd5b600161011860003373ffffffffffffffffffffffffffffffffffffffff1673ffffffffffffffffffffffffffffffffffffffff1681526020019081526020016000206000828254019250508190555061191f856101165461323790919063ffffffff16565b610116819055503073ffffffffffffffffffffffffffffffffffffffff1663a9059cbb33876040518363ffffffff167c0100000000000000000000000000000000000000000000000000000000028152600401808373ffffffffffffffffffffffffffffffffffffffff1673ffffffffffffffffffffffffffffffffffffffff16815260200182815260200192505050602060405180830381600087803b1580156119c957600080fd5b505af11580156119dd573d6000803e3d6000fd5b505050506040513d60208110156119f357600080fd5b81019080805190602001909291905050501515611a78576040517f08c379a000000000000000000000000000000000000000000000000000000000815260040180806020018281038252601b8152602001807f5472616e7366657220746f20636c61696d616e74206661696c6564000000000081525060200191505060405180910390fd5b60019250505092915050565b6101095481565b6000603554905090565b6000611b2682603460008773ffffffffffffffffffffffffffffffffffffffff1673ffffffffffffffffffffffffffffffffffffffff16815260200190815260200160002060003373ffffffffffffffffffffffffffffffffffffffff1673ffffffffffffffffffffffffffffffffffffffff1681526020019081526020016000205461323790919063ffffffff16565b603460008673ffffffffffffffffffffffffffffffffffffffff1673ffffffffffffffffffffffffffffffffffffffff16815260200190815260200160002060003373ffffffffffffffffffffffffffffffffffffffff1673ffffffffffffffffffffffffffffffffffffffff16815260200190815260200160002081905550611bb1848484613259565b3373ffffffffffffffffffffffffffffffffffffffff168473ffffffffffffffffffffffffffffffffffffffff167f8c5be1e5ebec7d5bd14f71427d1e84f3dd0314c0f7b2291e5b200ac8c7c3b925603460008873ffffffffffffffffffffffffffffffffffffffff1673ffffffffffffffffffffffffffffffffffffffff16815260200190815260200160002060003373ffffffffffffffffffffffffffffffffffffffff1673ffffffffffffffffffffffffffffffffffffffff168152602001908152602001600020546040518082815260200191505060405180910390a3600190509392505050565b6000611ca7612618565b1515611cb257600080fd5b610112548211151515611d53576040517f08c379a00000000000000000000000000000000000000000000000000000000081526004018080602001828103825260258152602001807f4e6f7420656e6f756768206375726174696f6e2072657761726473206176616981526020017f6c61626c6500000000000000000000000000000000000000000000000000000081525060400191505060405180910390fd5b611d69826101125461323790919063ffffffff16565b61011281905550611d86826101165461342990919063ffffffff16565b6101168190555060019050919050565b6101055481565b61010160009054906101000a900460ff1681565b600060019054906101000a900460ff1680611dd05750611dcf61344a565b5b80611de757506000809054906101000a900460ff16155b1515611e81576040517f08c379a000000000000000000000000000000000000000000000000000000000815260040180806020018281038252602e8152602001807f436f6e747261637420696e7374616e63652068617320616c726561647920626581526020017f656e20696e697469616c697a656400000000000000000000000000000000000081525060400191505060405180910390fd5b60008060019054906101000a900460ff1690506001600060016101000a81548160ff02191690831515021790555060016000806101000a81548160ff021916908315150217905550611ed23361345b565b611edb33612bb2565b8c6101009080519060200190611ef29291906142a8565b508b61010160006101000a81548160ff021916908360ff1602179055508a6101029080519060200190611f269291906142a8565b50896101039080519060200190611f3e9291906142a8565b508861010460006101000a81548173ffffffffffffffffffffffffffffffffffffffff021916908373ffffffffffffffffffffffffffffffffffffffff16021790555087610105819055508661010781905550856101088190555084610109819055508361010a819055508261010b819055504361010e819055506101055461010681905550600061010f8190555061010554610110819055508161010c81905550611fe98261364f565b5080600060016101000a81548160ff02191690831515021790555050505050505050505050505050565b60008073ffffffffffffffffffffffffffffffffffffffff168373ffffffffffffffffffffffffffffffffffffffff161415151561205057600080fd5b6120df82603460003373ffffffffffffffffffffffffffffffffffffffff1673ffffffffffffffffffffffffffffffffffffffff16815260200190815260200160002060008673ffffffffffffffffffffffffffffffffffffffff1673ffffffffffffffffffffffffffffffffffffffff1681526020019081526020016000205461342990919063ffffffff16565b603460003373ffffffffffffffffffffffffffffffffffffffff1673ffffffffffffffffffffffffffffffffffffffff16815260200190815260200160002060008573ffffffffffffffffffffffffffffffffffffffff1673ffffffffffffffffffffffffffffffffffffffff168152602001908152602001600020819055508273ffffffffffffffffffffffffffffffffffffffff163373ffffffffffffffffffffffffffffffffffffffff167f8c5be1e5ebec7d5bd14f71427d1e84f3dd0314c0f7b2291e5b200ac8c7c3b925603460003373ffffffffffffffffffffffffffffffffffffffff1673ffffffffffffffffffffffffffffffffffffffff16815260200190815260200160002060008773ffffffffffffffffffffffffffffffffffffffff1673ffffffffffffffffffffffffffffffffffffffff168152602001908152602001600020546040518082815260200191505060405180910390a36001905092915050565b600061225533612b67565b151561226057600080fd5b61226a8383613665565b6001905092915050565b6101075481565b61010e5481565b600061010f546122906116dc565b03905090565b60006122a0612618565b15156122ab57600080fd5b61010d548410151561234b576040517f08c379a00000000000000000000000000000000000000000000000000000000081526004018080602001828103825260298152602001807f4c6173742072656c65617365206d757374206265206265666f7265206375727281526020017f656e7420726f756e64000000000000000000000000000000000000000000000081525060400191505060405180910390fd5b8361010f819055508261011081905550816101118190555061238a600f61237c6004856137bb90919063ffffffff16565b6137f990919063ffffffff16565b610112819055506123b8600f6123aa6004856137bb90919063ffffffff16565b6137f990919063ffffffff16565b610113819055506123e6600f6123d86004856137bb90919063ffffffff16565b6137f990919063ffffffff16565b6101148190555061010f5490509392505050565b6101038054600181600116156101000203166002900480601f0160208091040260200160405190810160405280929190818152602001828054600181600116156101000203166002900480156124915780601f1061246657610100808354040283529160200191612491565b820191906000526020600020905b81548152906001019060200180831161247457829003601f168201915b505050505081565b61011a5481565b61010b5481565b6000603360008373ffffffffffffffffffffffffffffffffffffffff1673ffffffffffffffffffffffffffffffffffffffff168152602001908152602001600020549050919050565b6124f8612618565b151561250357600080fd5b600073ffffffffffffffffffffffffffffffffffffffff16606860009054906101000a900473ffffffffffffffffffffffffffffffffffffffff1673ffffffffffffffffffffffffffffffffffffffff167f8be0079c531659141344cd1fd0a4f28419497f9722a3daafe3b4186f6b6457e060405160405180910390a36000606860006101000a81548173ffffffffffffffffffffffffffffffffffffffff021916908373ffffffffffffffffffffffffffffffffffffffff160217905550565b6101085481565b6101165481565b61010f5481565b61010d5481565b6101155481565b61010a5481565b6000606860009054906101000a900473ffffffffffffffffffffffffffffffffffffffff16905090565b6000606860009054906101000a900473ffffffffffffffffffffffffffffffffffffffff1673ffffffffffffffffffffffffffffffffffffffff163373ffffffffffffffffffffffffffffffffffffffff1614905090565b6101028054600181600116156101000203166002900480601f0160208091040260200160405190810160405280929190818152602001828054600181600116156101000203166002900480156127075780601f106126dc57610100808354040283529160200191612707565b820191906000526020600020905b8154815290600101906020018083116126ea57829003601f168201915b505050505081565b6000919050565b61271f33612b67565b151561272a57600080fd5b61273381613823565b50565b61273f3361387d565b565b61011c5481565b60008073ffffffffffffffffffffffffffffffffffffffff168373ffffffffffffffffffffffffffffffffffffffff161415151561278557600080fd5b61281482603460003373ffffffffffffffffffffffffffffffffffffffff1673ffffffffffffffffffffffffffffffffffffffff16815260200190815260200160002060008673ffffffffffffffffffffffffffffffffffffffff1673ffffffffffffffffffffffffffffffffffffffff1681526020019081526020016000205461323790919063ffffffff16565b603460003373ffffffffffffffffffffffffffffffffffffffff1673ffffffffffffffffffffffffffffffffffffffff16815260200190815260200160002060008573ffffffffffffffffffffffffffffffffffffffff1673ffffffffffffffffffffffffffffffffffffffff168152602001908152602001600020819055508273ffffffffffffffffffffffffffffffffffffffff163373ffffffffffffffffffffffffffffffffffffffff167f8c5be1e5ebec7d5bd14f71427d1e84f3dd0314c0f7b2291e5b200ac8c7c3b925603460003373ffffffffffffffffffffffffffffffffffffffff1673ffffffffffffffffffffffffffffffffffffffff16815260200190815260200160002060008773ffffffffffffffffffffffffffffffffffffffff1673ffffffffffffffffffffffffffffffffffffffff168152602001908152602001600020546040518082815260200191505060405180910390a36001905092915050565b6101065481565b6000612993338484613259565b6001905092915050565b60008060006129aa6116dc565b90508061010f54101515612a26576040517f08c379a00000000000000000000000000000000000000000000000000000000081526004018080602001828103825260188152602001807f4e6f206e6577207265776172647320617661696c61626c65000000000000000081525060200191505060405180910390fd5b6000612a3e61010f548361323790919063ffffffff16565b90506101095461010f54101515612a74576000610111549050612a6181836138d7565b9350612a6d308561224a565b5050612acc565b61010954821015612a8f57612a8881613973565b9250612acb565b6000612a99613a22565b90506000612aa684613a47565b9050612abb818361342990919063ffffffff16565b9450612ac7308261224a565b5050505b5b612ad7838284613a96565b612adf613cba565b508161010f81905550612afe836101115461342990919063ffffffff16565b610111819055507f39c15e2884a29a8ddf54563c3cb131c46f3667ecc29b194be9f5cf91b2879725836101125461011354610115546040518085815260200184815260200183815260200182815260200194505050505060405180910390a16001935050505090565b6000612b7d82609b613e6a90919063ffffffff16565b9050919050565b61010460009054906101000a900473ffffffffffffffffffffffffffffffffffffffff1681565b6101145481565b600060019054906101000a900460ff1680612bd15750612bd061344a565b5b80612be857506000809054906101000a900460ff16155b1515612c82576040517f08c379a000000000000000000000000000000000000000000000000000000000815260040180806020018281038252602e8152602001807f436f6e747261637420696e7374616e63652068617320616c726561647920626581526020017f656e20696e697469616c697a656400000000000000000000000000000000000081525060400191505060405180910390fd5b60008060019054906101000a900460ff1690506001600060016101000a81548160ff02191690831515021790555060016000806101000a81548160ff021916908315150217905550612cd382613efe565b80600060016101000a81548160ff0219169083151502179055505050565b6000612cfb612618565b1515612d0657600080fd5b610113548211151515612da7576040517f08c379a00000000000000000000000000000000000000000000000000000000081526004018080602001828103825260248152602001807f4e6f7420656e6f7567682061697264726f70207265776172647320617661696c81526020017f61626c650000000000000000000000000000000000000000000000000000000081525060400191505060405180910390fd5b612dbd826101135461323790919063ffffffff16565b61011381905550612dda826101175461342990919063ffffffff16565b6101178190555060019050919050565b61011b5481565b6101105481565b6000603460008473ffffffffffffffffffffffffffffffffffffffff1673ffffffffffffffffffffffffffffffffffffffff16815260200190815260200160002060008373ffffffffffffffffffffffffffffffffffffffff1673ffffffffffffffffffffffffffffffffffffffff16815260200190815260200160002054905092915050565b61010c5481565b60008161010d8190555061010d549050919050565b6101115481565b6101195481565b6000612ed761010460009054906101000a900473ffffffffffffffffffffffffffffffffffffffff166124a7565b90503073ffffffffffffffffffffffffffffffffffffffff166323b872dd61010460009054906101000a900473ffffffffffffffffffffffffffffffffffffffff16610123846040518463ffffffff167c0100000000000000000000000000000000000000000000000000000000028152600401808473ffffffffffffffffffffffffffffffffffffffff1673ffffffffffffffffffffffffffffffffffffffff1681526020018373ffffffffffffffffffffffffffffffffffffffff1673ffffffffffffffffffffffffffffffffffffffff1681526020018281526020019350505050602060405180830381600087803b158015612fd557600080fd5b505af1158015612fe9573d6000803e3d6000fd5b505050506040513d6020811015612fff57600080fd5b81019080805190602001909291905050505050565b600061011860008373ffffffffffffffffffffffffffffffffffffffff1673ffffffffffffffffffffffffffffffffffffffff168152602001908152602001600020549050919050565b6000610119541480156130745750600061011c54145b80156130835750600061011b54145b15156130f7576040517f08c379a00000000000000000000000000000000000000000000000000000000081526004018080602001828103825260138152602001807f416c726561647920696e697469616c697a65640000000000000000000000000081525060200191505060405180910390fd5b61010554610119819055508261011a819055508161011b819055508061011c81905550505050565b6101125481565b61312e612618565b151561313957600080fd5b6131428161404d565b50565b6101175481565b6101135481565b600080600080604185511415156131705760009350505050613231565b6020850151925060408501519150606085015160001a9050601b8160ff16101561319b57601b810190505b601b8160ff16141580156131b35750601c8160ff1614155b156131c45760009350505050613231565b60018682858560405160008152602001604052604051808581526020018460ff1660ff1681526020018381526020018281526020019450505050506020604051602081039080840390855afa158015613221573d6000803e3d6000fd5b5050506020604051035193505050505b92915050565b600082821115151561324857600080fd5b600082840390508091505092915050565b600073ffffffffffffffffffffffffffffffffffffffff168273ffffffffffffffffffffffffffffffffffffffff161415151561329557600080fd5b6132e781603360008673ffffffffffffffffffffffffffffffffffffffff1673ffffffffffffffffffffffffffffffffffffffff1681526020019081526020016000205461323790919063ffffffff16565b603360008573ffffffffffffffffffffffffffffffffffffffff1673ffffffffffffffffffffffffffffffffffffffff1681526020019081526020016000208190555061337c81603360008573ffffffffffffffffffffffffffffffffffffffff1673ffffffffffffffffffffffffffffffffffffffff1681526020019081526020016000205461342990919063ffffffff16565b603360008473ffffffffffffffffffffffffffffffffffffffff1673ffffffffffffffffffffffffffffffffffffffff168152602001908152602001600020819055508173ffffffffffffffffffffffffffffffffffffffff168373ffffffffffffffffffffffffffffffffffffffff167fddf252ad1be2c89b69c2b068fc378daa952ba7f163c4a11628f55a4df523b3ef836040518082815260200191505060405180910390a3505050565b600080828401905083811015151561344057600080fd5b8091505092915050565b600080303b90506000811491505090565b600060019054906101000a900460ff168061347a575061347961344a565b5b8061349157506000809054906101000a900460ff16155b151561352b576040517f08c379a000000000000000000000000000000000000000000000000000000000815260040180806020018281038252602e8152602001807f436f6e747261637420696e7374616e63652068617320616c726561647920626581526020017f656e20696e697469616c697a656400000000000000000000000000000000000081525060400191505060405180910390fd5b60008060019054906101000a900460ff1690506001600060016101000a81548160ff02191690831515021790555060016000806101000a81548160ff02191690831515021790555081606860006101000a81548173ffffffffffffffffffffffffffffffffffffffff021916908373ffffffffffffffffffffffffffffffffffffffff160217905550606860009054906101000a900473ffffffffffffffffffffffffffffffffffffffff1673ffffffffffffffffffffffffffffffffffffffff16600073ffffffffffffffffffffffffffffffffffffffff167f8be0079c531659141344cd1fd0a4f28419497f9722a3daafe3b4186f6b6457e060405160405180910390a380600060016101000a81548160ff0219169083151502179055505050565b600061365b308361224a565b5060019050919050565b600073ffffffffffffffffffffffffffffffffffffffff168273ffffffffffffffffffffffffffffffffffffffff16141515156136a157600080fd5b6136b68160355461342990919063ffffffff16565b60358190555061370e81603360008573ffffffffffffffffffffffffffffffffffffffff1673ffffffffffffffffffffffffffffffffffffffff1681526020019081526020016000205461342990919063ffffffff16565b603360008473ffffffffffffffffffffffffffffffffffffffff1673ffffffffffffffffffffffffffffffffffffffff168152602001908152602001600020819055508173ffffffffffffffffffffffffffffffffffffffff16600073ffffffffffffffffffffffffffffffffffffffff167fddf252ad1be2c89b69c2b068fc378daa952ba7f163c4a11628f55a4df523b3ef836040518082815260200191505060405180910390a35050565b6000808314156137ce57600090506137f3565b600082840290508284828115156137e157fe5b041415156137ee57600080fd5b809150505b92915050565b6000808211151561380957600080fd5b6000828481151561381657fe5b0490508091505092915050565b61383781609b61414990919063ffffffff16565b8073ffffffffffffffffffffffffffffffffffffffff167f6ae172837ea30b801fbfcdd4108aa1d5bf8ff775444fd70256b44e6bf3dfc3f660405160405180910390a250565b61389181609b6141f990919063ffffffff16565b8073ffffffffffffffffffffffffffffffffffffffff167fe94479a9f7e1952cc78f2d6baab678adc1b772d936c6583def489e524cb6669260405160405180910390a250565b600080839050600080600090505b8481101561396757600061392d61010160009054906101000a900460ff1660ff16600a0a61391f86610108546137bb90919063ffffffff16565b6137f990919063ffffffff16565b9050613942818461342990919063ffffffff16565b9250613957818561342990919063ffffffff16565b93505080806001019150506138e5565b50809250505092915050565b600080600061010f541415613989576101055490505b620186a0831015613a1857600080600090505b84811015613a11576139e561010160009054906101000a900460ff1660ff16600a0a6139d76101105461010b546137bb90919063ffffffff16565b6137f990919063ffffffff16565b91506139fa828461342990919063ffffffff16565b92508161011081905550808060010191505061399c565b5050613a19565b5b80915050919050565b600080613a3e6101115461010c5461323790919063ffffffff16565b90508091505090565b60008061010c5490506000613a7b6001613a6d610109548761323790919063ffffffff16565b61342990919063ffffffff16565b90506000613a8983836138d7565b9050809350505050919050565b6000613abf6005613ab16004876137bb90919063ffffffff16565b6137f990919063ffffffff16565b9050613aea613ad86005866137f990919063ffffffff16565b6101155461342990919063ffffffff16565b6101158190555061011a54821015613b9157613b25613b136003836137f990919063ffffffff16565b6101135461342990919063ffffffff16565b61011381905550613b55613b436003836137f990919063ffffffff16565b6101125461342990919063ffffffff16565b61011281905550613b85613b736003836137f990919063ffffffff16565b6101145461342990919063ffffffff16565b61011481905550613cb4565b60008060008090505b85811015613c0f57613be361010160009054906101000a900460ff1660ff16600a0a613bd561011c5461011b546137bb90919063ffffffff16565b6137f990919063ffffffff16565b9150613bf8828461342990919063ffffffff16565b92508161011c819055508080600101915050613b9a565b50613c26826101135461342990919063ffffffff16565b61011381905550613c68613c566002613c48858761323790919063ffffffff16565b6137f990919063ffffffff16565b6101125461342990919063ffffffff16565b61011281905550613caa613c986002613c8a858761323790919063ffffffff16565b6137f990919063ffffffff16565b6101145461342990919063ffffffff16565b6101148190555050505b50505050565b60003073ffffffffffffffffffffffffffffffffffffffff1663a9059cbb61010460009054906101000a900473ffffffffffffffffffffffffffffffffffffffff16610115546040518363ffffffff167c0100000000000000000000000000000000000000000000000000000000028152600401808373ffffffffffffffffffffffffffffffffffffffff1673ffffffffffffffffffffffffffffffffffffffff16815260200182815260200192505050602060405180830381600087803b158015613d8557600080fd5b505af1158015613d99573d6000803e3d6000fd5b505050506040513d6020811015613daf57600080fd5b81019080805190602001909291905050501515613e5a576040517f08c379a00000000000000000000000000000000000000000000000000000000081526004018080602001828103825260218152602001807f5472616e7366657220746f2064657646756e6441646472657373206661696c6581526020017f640000000000000000000000000000000000000000000000000000000000000081525060400191505060405180910390fd5b6000610115819055506001905090565b60008073ffffffffffffffffffffffffffffffffffffffff168273ffffffffffffffffffffffffffffffffffffffff1614151515613ea757600080fd5b8260000160008373ffffffffffffffffffffffffffffffffffffffff1673ffffffffffffffffffffffffffffffffffffffff16815260200190815260200160002060009054906101000a900460ff16905092915050565b600060019054906101000a900460ff1680613f1d5750613f1c61344a565b5b80613f3457506000809054906101000a900460ff16155b1515613fce576040517f08c379a000000000000000000000000000000000000000000000000000000000815260040180806020018281038252602e8152602001807f436f6e747261637420696e7374616e63652068617320616c726561647920626581526020017f656e20696e697469616c697a656400000000000000000000000000000000000081525060400191505060405180910390fd5b60008060019054906101000a900460ff1690506001600060016101000a81548160ff02191690831515021790555060016000806101000a81548160ff02191690831515021790555061401f82612b67565b151561402f5761402e82613823565b5b80600060016101000a81548160ff0219169083151502179055505050565b600073ffffffffffffffffffffffffffffffffffffffff168173ffffffffffffffffffffffffffffffffffffffff161415151561408957600080fd5b8073ffffffffffffffffffffffffffffffffffffffff16606860009054906101000a900473ffffffffffffffffffffffffffffffffffffffff1673ffffffffffffffffffffffffffffffffffffffff167f8be0079c531659141344cd1fd0a4f28419497f9722a3daafe3b4186f6b6457e060405160405180910390a380606860006101000a81548173ffffffffffffffffffffffffffffffffffffffff021916908373ffffffffffffffffffffffffffffffffffffffff16021790555050565b600073ffffffffffffffffffffffffffffffffffffffff168173ffffffffffffffffffffffffffffffffffffffff161415151561418557600080fd5b61418f8282613e6a565b15151561419b57600080fd5b60018260000160008373ffffffffffffffffffffffffffffffffffffffff1673ffffffffffffffffffffffffffffffffffffffff16815260200190815260200160002060006101000a81548160ff0219169083151502179055505050565b600073ffffffffffffffffffffffffffffffffffffffff168173ffffffffffffffffffffffffffffffffffffffff161415151561423557600080fd5b61423f8282613e6a565b151561424a57600080fd5b60008260000160008373ffffffffffffffffffffffffffffffffffffffff1673ffffffffffffffffffffffffffffffffffffffff16815260200190815260200160002060006101000a81548160ff0219169083151502179055505050565b828054600181600116156101000203166002900490600052602060002090601f016020900481019282601f106142e957805160ff1916838001178555614317565b82800160010185558215614317579182015b828111156143165782518255916020019190600101906142fb565b5b5090506143249190614328565b5090565b61434a91905b8082111561434657600081600090555060010161432e565b5090565b9056fea165627a7a723058203478d898f62460e02d95cd6a7d1e0b5a030639d96bd069f02c708bd94e2d30890029",
  "source": "pragma solidity ^0.5.0;\n\nimport \"../RelevantToken.sol\";\n\ncontract RelevantTokenMock is RelevantToken{\n  /**\n   * @dev Return current round number // using the state variable set by setRoundNum, for testing\n   */\n  function roundNum() public view returns (uint256) {\n    // return (block.number.sub(startBlock)).div(roundLength);\n    return currentRound;\n  }\n\n  /**\n   * @dev Artificially increases current round number // auxiliary function for testing (simulating block progression)\n   */\n  function setRoundNum(uint256 _roundNum) public returns (uint256) {\n    currentRound = _roundNum;\n    return currentRound;\n  }\n\n  /**\n   * @dev Artificially sets the last release round // auxiliary function for testing (simulating reward release)\n   */\n  function setLastRound(uint256 _roundNum, uint256 _lastRoundReward, uint256 _totalReleased) public onlyOwner returns (uint256) {\n    require(_roundNum < currentRound, \"Last release must be before current round\");\n    lastRound = _roundNum;\n    lastRoundReward = _lastRoundReward;\n    totalReleased = _totalReleased;\n    rewardFund = _totalReleased.mul(4).div(5 * 3);\n    airdropFund = _totalReleased.mul(4).div(5 * 3);\n    reserveFund = _totalReleased.mul(4).div(5 * 3);\n    // devFund is always 0 since it gets transferred right away\n    return lastRound;\n  }\n\n  /**\n   * @dev Artificially empties the devFund account of all accumulated tokens // auxiliary function for testing\n   */\n  function emptyDevBalance() public {\n    uint devBalance = balanceOf(devFundAddress);\n    this.transferFrom(devFundAddress, address(0x123), devBalance);\n  }\n}\n",
  "sourcePath": "/Users/acrudol/Documents/Code/Relevant/token/contracts/mocks/RelevantTokenMock.sol",
  "compiler": {
    "name": "solc",
    "version": "0.5.0+commit.1d4f565a.Emscripten.clang"
  },
  "schemaVersion": "3.0.2",
  "updatedAt": "2019-05-18T09:08:44.589Z",
  "devdoc": {
    "methods": {
      "allocateAirdrops(uint256)": {
        "details": "Allocate airdrop rewards",
        "params": {
          "_rewards": "to be reserved for user claims"
        }
      },
      "allocateRewards(uint256)": {
        "details": "Allocate curation rewards",
        "params": {
          "_rewards": "to be reserved for users claims"
        }
      },
      "allowance(address,address)": {
        "details": "Function to check the amount of tokens that an owner allowed to a spender.",
        "params": {
          "owner": "address The address which owns the funds.",
          "spender": "address The address which will spend the funds."
        },
        "return": "A uint256 specifying the amount of tokens still available for the spender."
      },
      "approve(address,uint256)": {
        "details": "Approve the passed address to spend the specified amount of tokens on behalf of msg.sender. Beware that changing an allowance with this method brings the risk that someone may use both the old and the new allowance by unfortunate transaction ordering. One possible solution to mitigate this race condition is to first reduce the spender's allowance to 0 and set the desired value afterwards: https://github.com/ethereum/EIPs/issues/20#issuecomment-263524729",
        "params": {
          "spender": "The address which will spend the funds.",
          "value": "The amount of tokens to be spent."
        }
      },
      "balanceOf(address)": {
        "details": "Gets the balance of the specified address.",
        "params": {
          "owner": "The address to query the balance of."
        },
        "return": "An uint256 representing the amount owned by the passed address."
      },
      "claimTokens(uint256,bytes)": {
        "details": "Claim curation reward tokens (to be called by user)",
        "params": {
          "_amount": "amount to be transferred to user",
          "_sig": "Signature by contract owner authorizing the transaction"
        }
      },
      "decreaseAllowance(address,uint256)": {
        "details": "Decrease the amount of tokens that an owner allowed to a spender. approve should be called when allowed_[_spender] == 0. To decrement allowed value is better to use this function to avoid 2 calls (and wait until the first transaction is mined) From MonolithDAO Token.sol Emits an Approval event.",
        "params": {
          "spender": "The address which will spend the funds.",
          "subtractedValue": "The amount of tokens to decrease the allowance by."
        }
      },
      "emptyDevBalance()": {
        "details": "Artificially empties the devFund account of all accumulated tokens // auxiliary function for testing"
      },
      "increaseAllowance(address,uint256)": {
        "details": "Increase the amount of tokens that an owner allowed to a spender. approve should be called when allowed_[_spender] == 0. To increment allowed value is better to use this function to avoid 2 calls (and wait until the first transaction is mined) From MonolithDAO Token.sol Emits an Approval event.",
        "params": {
          "addedValue": "The amount of tokens to increase the allowance by.",
          "spender": "The address which will spend the funds."
        }
      },
      "initialize(string,uint8,string,string,address,uint256,uint256,uint256,uint256,uint256,uint256,uint256)": {
        "details": "ContPreInflationaryToken constructor",
        "params": {
          "_devFundAddress": "Address that receives and manages newly minted tokens for development fund",
          "_initRoundReward": "Number of released inflationary tokens per round during the first round",
          "_roundDecay": "Decay factor for the reward reduction during one round - can be calculated from timeConstant and roundLength",
          "_roundLength": "Number of blocks that make up an inflation release round",
          "_targetInflation": "Target inflation rate per round at which the reward decay should stop - can be calculated from target yearly inflation rate",
          "_targetRound": "Number of round from which inflation stays constant - can be calculated from timeConstant, initRoundReward and targetInflation",
          "_timeConstant": "Number of blocks after which reward reduces to 37% of initial value during exponential decay - can be calculated from half-life",
          "_totalPremint": "Rewards that are preminted (all until decay stops) - can be calculated from timeConstant, initRoundReward and targetInflation"
        }
      },
      "isOwner()": {
        "return": "true if `msg.sender` is the owner of the contract."
      },
      "mint(address,uint256)": {
        "details": "Function to mint tokens",
        "params": {
          "to": "The address that will receive the minted tokens.",
          "value": "The amount of tokens to mint."
        },
        "return": "A boolean that indicates if the operation was successful."
      },
      "nonceOf(address)": {
        "details": "Nonce of user",
        "params": {
          "_account": "User account address"
        },
        "return": "nonce of user"
      },
      "owner()": {
        "return": "the address of the owner."
      },
      "partialSum(uint256)": {
        "details": "Calculates total number of tokens to be minted during the decay phase until _round",
        "params": {
          "_round": "Round until which the partial sum is taken"
        }
      },
      "releaseTokens()": {
        "details": "Compute and release currently releasable inflationary rewards"
      },
      "renounceOwnership()": {
        "details": "Allows the current owner to relinquish control of the contract."
      },
      "roundNum()": {
        "details": "Return current round number // using the state variable set by setRoundNum, for testing"
      },
      "roundsSincleLast()": {
        "details": "Return rounds since last release"
      },
      "setLastRound(uint256,uint256,uint256)": {
        "details": "Artificially sets the last release round // auxiliary function for testing (simulating reward release)"
      },
      "setRoundNum(uint256)": {
        "details": "Artificially increases current round number // auxiliary function for testing (simulating block progression)"
      },
      "totalSupply()": {
        "details": "Total number of tokens in existence"
      },
      "transfer(address,uint256)": {
        "details": "Transfer token for a specified address",
        "params": {
          "to": "The address to transfer to.",
          "value": "The amount to be transferred."
        }
      },
      "transferFrom(address,address,uint256)": {
        "details": "Transfer tokens from one address to another. Note that while this function emits an Approval event, this is not required as per the specification, and other compliant implementations may not emit the event.",
        "params": {
          "from": "address The address which you want to send tokens from",
          "to": "address The address which you want to transfer to",
          "value": "uint256 the amount of tokens to be transferred"
        }
      },
      "transferOwnership(address)": {
        "details": "Allows the current owner to transfer control of the contract to a newOwner.",
        "params": {
          "newOwner": "The address to transfer ownership to."
        }
      }
    }
  },
  "userdoc": {
    "methods": {
      "renounceOwnership()": {
        "notice": "Renouncing to ownership will leave the contract without an owner. It will not be possible to call the functions with the `onlyOwner` modifier anymore."
      }
    }
  }
}